{
  "_format": "hh-sol-artifact-1",
  "contractName": "Baccarat",
  "sourceName": "contracts/Baccarat.sol",
  "abi": [
    {
      "inputs": [],
      "stateMutability": "nonpayable",
      "type": "constructor"
    },
    {
      "anonymous": false,
      "inputs": [
        {
          "indexed": false,
          "internalType": "uint8",
          "name": "playerTotal",
          "type": "uint8"
        },
        {
          "indexed": false,
          "internalType": "uint8",
          "name": "bankerTotal",
          "type": "uint8"
        },
        {
          "indexed": false,
          "internalType": "uint8",
          "name": "winner",
          "type": "uint8"
        },
        {
          "indexed": false,
          "internalType": "uint8[3]",
          "name": "playerCards",
          "type": "uint8[3]"
        },
        {
          "indexed": false,
          "internalType": "uint8[3]",
          "name": "bankerCards",
          "type": "uint8[3]"
        }
      ],
      "name": "GameFinished",
      "type": "event"
    },
    {
      "anonymous": false,
      "inputs": [
        {
          "indexed": false,
          "internalType": "uint8",
          "name": "v1",
          "type": "uint8"
        },
        {
          "indexed": false,
          "internalType": "uint8",
          "name": "v2",
          "type": "uint8"
        },
        {
          "indexed": false,
          "internalType": "uint32",
          "name": "v3",
          "type": "uint32"
        },
        {
          "indexed": false,
          "internalType": "bytes32",
          "name": "str",
          "type": "bytes32"
        }
      ],
      "name": "Monitor",
      "type": "event"
    },
    {
      "inputs": [
        {
          "internalType": "uint8[3]",
          "name": "cards",
          "type": "uint8[3]"
        },
        {
          "internalType": "uint8",
          "name": "cardCount",
          "type": "uint8"
        }
      ],
      "name": "calculateTotal",
      "outputs": [
        {
          "internalType": "uint8",
          "name": "",
          "type": "uint8"
        }
      ],
      "stateMutability": "pure",
      "type": "function"
    },
    {
      "inputs": [],
      "name": "deal",
      "outputs": [
        {
          "internalType": "uint8",
          "name": "",
          "type": "uint8"
        }
      ],
      "stateMutability": "nonpayable",
      "type": "function"
    },
    {
      "inputs": [
        {
          "internalType": "uint256",
          "name": "param",
          "type": "uint256"
        }
      ],
      "name": "getRandomNumber",
      "outputs": [
        {
          "internalType": "uint8",
          "name": "",
          "type": "uint8"
        }
      ],
      "stateMutability": "view",
      "type": "function"
    }
  ],
  "bytecode": "0x608060405234801561001057600080fd5b50611ad0806100206000396000f3fe608060405234801561001057600080fd5b50600436106100415760003560e01c8063553df02114610046578063b37217a414610064578063f795746614610094575b600080fd5b61004e6100c4565b60405161005b9190611297565b60405180910390f35b61007e600480360381019061007991906109de565b610736565b60405161008b9190611297565b60405180910390f35b6100ae60048036038101906100a991906109a2565b61079e565b6040516100bb9190611297565b60405180910390f35b600080600090505b60028160ff1610156101ed576100fc60018260026100ea919061140a565b6100f491906113d3565b60ff16610736565b60008260ff1660038110610139577f4e487b7100000000000000000000000000000000000000000000000000000000600052603260045260246000fd5b602091828204019190066101000a81548160ff021916908360ff16021790555061017d600282600261016b919061140a565b61017591906113d3565b60ff16610736565b60018260ff16600381106101ba577f4e487b7100000000000000000000000000000000000000000000000000000000600052603260045260246000fd5b602091828204019190066101000a81548160ff021916908360ff16021790555080806101e5906117a9565b9150506100cc565b5061025c6000600380602002604051908101604052809291908260038015610250576020028201916000905b82829054906101000a900460ff1660ff16815260200190600101906020826000010492830192600103820291508084116102195790505b5050505050600261079e565b600260006101000a81548160ff021916908360ff1602179055506102e460016003806020026040519081016040528092919082600380156102d8576020028201916000905b82829054906101000a900460ff1660ff16815260200190600101906020826000010492830192600103820291508084116102a15790505b5050505050600261079e565b600260016101000a81548160ff021916908360ff1602179055506000806005600260009054906101000a900460ff1660ff161115801561035357506005600260019054906101000a900460ff1660ff16118061035257506008600260019054906101000a900460ff1660ff16105b5b1561044d57600191506103666005610736565b90508060006002600381106103a4577f4e487b7100000000000000000000000000000000000000000000000000000000600052603260045260246000fd5b602091828204019190066101000a81548160ff021916908360ff1602179055506104326000600380602002604051908101604052809291908260038015610426576020028201916000905b82829054906101000a900460ff1660ff16815260200190600101906020826000010492830192600103820291508084116103ef5790505b5050505050600361079e565b600260006101000a81548160ff021916908360ff1602179055505b600060028060019054906101000a900460ff1660ff161161047157600190506105ad565b6003600260019054906101000a900460ff1660ff161480156104a957508215806104a857508280156104a7575060088260ff1614155b5b5b156104b757600190506105ac565b6004600260019054906101000a900460ff1660ff161480156104ff57508215806104fe57508280156104ed575060028260ff1610155b80156104fd575060078260ff1611155b5b5b1561050d57600190506105ab565b6005600260019054906101000a900460ff1660ff1614801561055557508215806105545750828015610543575060048260ff1610155b8015610553575060078260ff1611155b5b5b1561056357600190506105aa565b6006600260019054906101000a900460ff1660ff161480156105825750825b801561059f575060068260ff16148061059e575060078260ff16145b5b156105a957600190505b5b5b5b5b80156106a1576105bd6006610736565b60016002600381106105f8577f4e487b7100000000000000000000000000000000000000000000000000000000600052603260045260246000fd5b602091828204019190066101000a81548160ff021916908360ff160217905550610686600160038060200260405190810160405280929190826003801561067a576020028201916000905b82829054906101000a900460ff1660ff16815260200190600101906020826000010492830192600103820291508084116106435790505b5050505050600361079e565b600260016101000a81548160ff021916908360ff1602179055505b60006106cb600260009054906101000a900460ff16600260019054906101000a900460ff16610887565b90507fb97ad611e3dcb0fc625f46bbff022a4ac142b4c44b4d031c48df0b11f270c62a600260009054906101000a900460ff16600260019054906101000a900460ff1683600060016040516107249594939291906112b2565b60405180910390a18094505050505090565b60008042448460405160200161074e9392919061125a565b6040516020818303038152906040528051906020012060001c905060006107926001610784600d856108c290919063ffffffff16565b6108d890919063ffffffff16565b90508092505050919050565b6000806000905060005b8360ff168160ff161015610870576000858260ff16600381106107f4577f4e487b7100000000000000000000000000000000000000000000000000000000600052603260045260246000fd5b60200201519050600a8160ff16101580156108135750600d8160ff1611155b1561082c5760008361082591906113d3565b925061085c565b60018160ff16141561084c5760018361084591906113d3565b925061085b565b808361085891906113d3565b92505b5b508080610868906117a9565b9150506107a8565b50600a8161087e919061180e565b91505092915050565b60008160ff168360ff1611156108a057600190506108bc565b8160ff168360ff1610156108b757600290506108bc565b600090505b92915050565b600081836108d091906117dd565b905092915050565b600081836108e6919061137d565b905092915050565b60006109016108fc84611337565b611306565b9050808285602086028201111561091757600080fd5b60005b85811015610947578161092d888261098d565b84526020840193506020830192505060018101905061091a565b5050509392505050565b600082601f83011261096257600080fd5b600361096f8482856108ee565b91505092915050565b60008135905061098781611a6c565b92915050565b60008135905061099c81611a83565b92915050565b600080608083850312156109b557600080fd5b60006109c385828601610951565b92505060606109d48582860161098d565b9150509250929050565b6000602082840312156109f057600080fd5b60006109fe84828501610978565b91505092915050565b610a1081611367565b610a1a8184611372565b925082610a268361135d565b60008015610d52575b83600160200382011015610d51578154610a5187610a4c83611469565b61123c565b602087019650610a6987610a6483611587565b61123c565b602087019650610a8187610a7c836116a5565b61123c565b602087019650610a9987610a94836116f3565b61123c565b602087019650610ab187610aac8361170d565b61123c565b602087019650610ac987610ac483611727565b61123c565b602087019650610ae187610adc83611741565b61123c565b602087019650610af987610af48361175b565b61123c565b602087019650610b1187610b0c83611775565b61123c565b602087019650610b2987610b248361178f565b61123c565b602087019650610b4187610b3c83611483565b61123c565b602087019650610b5987610b548361149d565b61123c565b602087019650610b7187610b6c836114b7565b61123c565b602087019650610b8987610b84836114d1565b61123c565b602087019650610ba187610b9c836114eb565b61123c565b602087019650610bb987610bb483611505565b61123c565b602087019650610bd187610bcc8361151f565b61123c565b602087019650610be987610be483611539565b61123c565b602087019650610c0187610bfc83611553565b61123c565b602087019650610c1987610c148361156d565b61123c565b602087019650610c3187610c2c836115a1565b61123c565b602087019650610c4987610c44836115bb565b61123c565b602087019650610c6187610c5c836115d5565b61123c565b602087019650610c7987610c74836115ef565b61123c565b602087019650610c9187610c8c83611609565b61123c565b602087019650610ca987610ca483611623565b61123c565b602087019650610cc187610cbc8361163d565b61123c565b602087019650610cd987610cd483611657565b61123c565b602087019650610cf187610cec83611671565b61123c565b602087019650610d0987610d048361168b565b61123c565b602087019650610d2187610d1c836116bf565b61123c565b602087019650610d3987610d34836116d9565b61123c565b60208701965060018301925050602081019050610a2f565b5b60011561121d578154600115610d8157610d7487610d6f83611469565b61123c565b6020870196506001820191505b600115610da757610d9a87610d9583611587565b61123c565b6020870196506001820191505b600115610dcd57610dc087610dbb836116a5565b61123c565b6020870196506001820191505b600015610df357610de687610de1836116f3565b61123c565b6020870196506001820191505b600015610e1957610e0c87610e078361170d565b61123c565b6020870196506001820191505b600015610e3f57610e3287610e2d83611727565b61123c565b6020870196506001820191505b600015610e6557610e5887610e5383611741565b61123c565b6020870196506001820191505b600015610e8b57610e7e87610e798361175b565b61123c565b6020870196506001820191505b600015610eb157610ea487610e9f83611775565b61123c565b6020870196506001820191505b600015610ed757610eca87610ec58361178f565b61123c565b6020870196506001820191505b600015610efd57610ef087610eeb83611483565b61123c565b6020870196506001820191505b600015610f2357610f1687610f118361149d565b61123c565b6020870196506001820191505b600015610f4957610f3c87610f37836114b7565b61123c565b6020870196506001820191505b600015610f6f57610f6287610f5d836114d1565b61123c565b6020870196506001820191505b600015610f9557610f8887610f83836114eb565b61123c565b6020870196506001820191505b600015610fbb57610fae87610fa983611505565b61123c565b6020870196506001820191505b600015610fe157610fd487610fcf8361151f565b61123c565b6020870196506001820191505b60001561100757610ffa87610ff583611539565b61123c565b6020870196506001820191505b60001561102d576110208761101b83611553565b61123c565b6020870196506001820191505b60001561105357611046876110418361156d565b61123c565b6020870196506001820191505b6000156110795761106c87611067836115a1565b61123c565b6020870196506001820191505b60001561109f576110928761108d836115bb565b61123c565b6020870196506001820191505b6000156110c5576110b8876110b3836115d5565b61123c565b6020870196506001820191505b6000156110eb576110de876110d9836115ef565b61123c565b6020870196506001820191505b60001561111157611104876110ff83611609565b61123c565b6020870196506001820191505b6000156111375761112a8761112583611623565b61123c565b6020870196506001820191505b60001561115d576111508761114b8361163d565b61123c565b6020870196506001820191505b600015611183576111768761117183611657565b61123c565b6020870196506001820191505b6000156111a95761119c8761119783611671565b61123c565b6020870196506001820191505b6000156111cf576111c2876111bd8361168b565b61123c565b6020870196506001820191505b6000156111f5576111e8876111e3836116bf565b61123c565b6020870196506001820191505b60001561121b5761120e87611209836116d9565b61123c565b6020870196506001820191505b505b505050505050565b61123661123182611452565b6117d3565b82525050565b6112458161145c565b82525050565b6112548161145c565b82525050565b60006112668286611225565b6020820191506112768285611225565b6020820191506112868284611225565b602082019150819050949350505050565b60006020820190506112ac600083018461124b565b92915050565b6000610120820190506112c8600083018861124b565b6112d5602083018761124b565b6112e2604083018661124b565b6112ef6060830185610a07565b6112fc60c0830184610a07565b9695505050505050565b6000604051905081810181811067ffffffffffffffff8211171561132d5761132c61189d565b5b8060405250919050565b600067ffffffffffffffff8211156113525761135161189d565b5b602082029050919050565b6000819050919050565b600060039050919050565b600081905092915050565b600061138882611452565b915061139383611452565b9250827fffffffffffffffffffffffffffffffffffffffffffffffffffffffffffffffff038211156113c8576113c761183f565b5b828201905092915050565b60006113de8261145c565b91506113e98361145c565b92508260ff038211156113ff576113fe61183f565b5b828201905092915050565b60006114158261145c565b91506114208361145c565b92508160ff048311821515161561143a5761143961183f565b5b828202905092915050565b600060ff82169050919050565b6000819050919050565b600060ff82169050919050565b600061147c611477836118cc565b611445565b9050919050565b600061149661149183611a38565b611445565b9050919050565b60006114b06114ab83611a45565b611445565b9050919050565b60006114ca6114c583611a5f565b611445565b9050919050565b60006114e46114df836118d9565b611445565b9050919050565b60006114fe6114f9836118e6565b611445565b9050919050565b6000611518611513836118f3565b611445565b9050919050565b600061153261152d83611900565b611445565b9050919050565b600061154c6115478361190d565b611445565b9050919050565b60006115666115618361191a565b611445565b9050919050565b600061158061157b83611927565b611445565b9050919050565b600061159a61159583611a52565b611445565b9050919050565b60006115b46115af83611934565b611445565b9050919050565b60006115ce6115c983611941565b611445565b9050919050565b60006115e86115e38361195b565b611445565b9050919050565b60006116026115fd83611968565b611445565b9050919050565b600061161c61161783611975565b611445565b9050919050565b600061163661163183611982565b611445565b9050919050565b600061165061164b8361198f565b611445565b9050919050565b600061166a6116658361199c565b611445565b9050919050565b600061168461167f836119a9565b611445565b9050919050565b600061169e611699836119b6565b611445565b9050919050565b60006116b86116b38361194e565b611445565b9050919050565b60006116d26116cd836119c3565b611445565b9050919050565b60006116ec6116e7836119d0565b611445565b9050919050565b6000611706611701836119dd565b611445565b9050919050565b600061172061171b836119ea565b611445565b9050919050565b600061173a611735836119f7565b611445565b9050919050565b600061175461174f83611a04565b611445565b9050919050565b600061176e61176983611a11565b611445565b9050919050565b600061178861178383611a1e565b611445565b9050919050565b60006117a261179d83611a2b565b611445565b9050919050565b60006117b48261145c565b915060ff8214156117c8576117c761183f565b5b600182019050919050565b6000819050919050565b60006117e882611452565b91506117f383611452565b9250826118035761180261186e565b5b828206905092915050565b60006118198261145c565b91506118248361145c565b9250826118345761183361186e565b5b828206905092915050565b7f4e487b7100000000000000000000000000000000000000000000000000000000600052601160045260246000fd5b7f4e487b7100000000000000000000000000000000000000000000000000000000600052601260045260246000fd5b7f4e487b7100000000000000000000000000000000000000000000000000000000600052604160045260246000fd5b60008160001c9050919050565b60008160681c9050919050565b60008160701c9050919050565b60008160781c9050919050565b60008160801c9050919050565b60008160881c9050919050565b60008160901c9050919050565b60008160981c9050919050565b60008160a01c9050919050565b60008160a81c9050919050565b60008160101c9050919050565b60008160b01c9050919050565b60008160b81c9050919050565b60008160c01c9050919050565b60008160c81c9050919050565b60008160d01c9050919050565b60008160d81c9050919050565b60008160e01c9050919050565b60008160e81c9050919050565b60008160f01c9050919050565b60008160f81c9050919050565b60008160181c9050919050565b60008160201c9050919050565b60008160281c9050919050565b60008160301c9050919050565b60008160381c9050919050565b60008160401c9050919050565b60008160481c9050919050565b60008160501c9050919050565b60008160581c9050919050565b60008160081c9050919050565b60008160601c9050919050565b611a7581611452565b8114611a8057600080fd5b50565b611a8c8161145c565b8114611a9757600080fd5b5056fea26469706673582212206b13c1609ffc15f2a1c557049b0c37c10d86a131d47f513c5697825cff8e25cf64736f6c63430008000033",
  "linkReferences": {},
  "deployedLinkReferences": {}
}