{
  "_format": "hh-sol-artifact-1",
  "contractName": "GGTK",
  "sourceName": "contracts/GGTK.sol",
  "abi": [
    {
      "inputs": [],
      "stateMutability": "nonpayable",
      "type": "constructor"
    },
    {
      "anonymous": false,
      "inputs": [
        {
          "indexed": true,
          "internalType": "address",
          "name": "owner",
          "type": "address"
        },
        {
          "indexed": true,
          "internalType": "address",
          "name": "spender",
          "type": "address"
        },
        {
          "indexed": false,
          "internalType": "uint256",
          "name": "value",
          "type": "uint256"
        }
      ],
      "name": "Approval",
      "type": "event"
    },
    {
      "anonymous": false,
      "inputs": [
        {
          "indexed": false,
          "internalType": "string",
          "name": "str",
          "type": "string"
        },
        {
          "indexed": false,
          "internalType": "address",
          "name": "addr",
          "type": "address"
        },
        {
          "indexed": false,
          "internalType": "uint256",
          "name": "n1",
          "type": "uint256"
        },
        {
          "indexed": false,
          "internalType": "uint256",
          "name": "n2",
          "type": "uint256"
        }
      ],
      "name": "Moniter",
      "type": "event"
    },
    {
      "anonymous": false,
      "inputs": [
        {
          "indexed": true,
          "internalType": "address",
          "name": "previousOwner",
          "type": "address"
        },
        {
          "indexed": true,
          "internalType": "address",
          "name": "newOwner",
          "type": "address"
        }
      ],
      "name": "OwnershipTransferred",
      "type": "event"
    },
    {
      "anonymous": false,
      "inputs": [
        {
          "indexed": false,
          "internalType": "address",
          "name": "account",
          "type": "address"
        }
      ],
      "name": "Paused",
      "type": "event"
    },
    {
      "anonymous": false,
      "inputs": [
        {
          "indexed": true,
          "internalType": "address",
          "name": "from",
          "type": "address"
        },
        {
          "indexed": true,
          "internalType": "address",
          "name": "to",
          "type": "address"
        },
        {
          "indexed": false,
          "internalType": "uint256",
          "name": "value",
          "type": "uint256"
        }
      ],
      "name": "Transfer",
      "type": "event"
    },
    {
      "anonymous": false,
      "inputs": [
        {
          "indexed": false,
          "internalType": "address",
          "name": "account",
          "type": "address"
        }
      ],
      "name": "Unpaused",
      "type": "event"
    },
    {
      "inputs": [
        {
          "internalType": "address",
          "name": "_address",
          "type": "address"
        }
      ],
      "name": "addAddress",
      "outputs": [],
      "stateMutability": "nonpayable",
      "type": "function"
    },
    {
      "inputs": [
        {
          "internalType": "address",
          "name": "account",
          "type": "address"
        }
      ],
      "name": "addProtector",
      "outputs": [],
      "stateMutability": "nonpayable",
      "type": "function"
    },
    {
      "inputs": [
        {
          "internalType": "address",
          "name": "account",
          "type": "address"
        }
      ],
      "name": "addWhitelisted",
      "outputs": [],
      "stateMutability": "nonpayable",
      "type": "function"
    },
    {
      "inputs": [
        {
          "internalType": "address",
          "name": "",
          "type": "address"
        }
      ],
      "name": "addressList",
      "outputs": [
        {
          "internalType": "bool",
          "name": "",
          "type": "bool"
        }
      ],
      "stateMutability": "view",
      "type": "function"
    },
    {
      "inputs": [
        {
          "internalType": "address",
          "name": "owner",
          "type": "address"
        },
        {
          "internalType": "address",
          "name": "spender",
          "type": "address"
        }
      ],
      "name": "allowance",
      "outputs": [
        {
          "internalType": "uint256",
          "name": "",
          "type": "uint256"
        }
      ],
      "stateMutability": "view",
      "type": "function"
    },
    {
      "inputs": [
        {
          "internalType": "address",
          "name": "spender",
          "type": "address"
        },
        {
          "internalType": "uint256",
          "name": "amount",
          "type": "uint256"
        }
      ],
      "name": "approve",
      "outputs": [
        {
          "internalType": "bool",
          "name": "",
          "type": "bool"
        }
      ],
      "stateMutability": "nonpayable",
      "type": "function"
    },
    {
      "inputs": [
        {
          "internalType": "address",
          "name": "account",
          "type": "address"
        }
      ],
      "name": "balanceOf",
      "outputs": [
        {
          "internalType": "uint256",
          "name": "",
          "type": "uint256"
        }
      ],
      "stateMutability": "view",
      "type": "function"
    },
    {
      "inputs": [
        {
          "internalType": "uint256",
          "name": "amount",
          "type": "uint256"
        }
      ],
      "name": "burn",
      "outputs": [],
      "stateMutability": "nonpayable",
      "type": "function"
    },
    {
      "inputs": [
        {
          "internalType": "address",
          "name": "account",
          "type": "address"
        },
        {
          "internalType": "uint256",
          "name": "amount",
          "type": "uint256"
        }
      ],
      "name": "burnFrom",
      "outputs": [],
      "stateMutability": "nonpayable",
      "type": "function"
    },
    {
      "inputs": [
        {
          "internalType": "bytes",
          "name": "data",
          "type": "bytes"
        }
      ],
      "name": "checkState",
      "outputs": [
        {
          "internalType": "bytes",
          "name": "",
          "type": "bytes"
        }
      ],
      "stateMutability": "nonpayable",
      "type": "function"
    },
    {
      "inputs": [],
      "name": "constantVal",
      "outputs": [
        {
          "internalType": "uint256",
          "name": "CAP",
          "type": "uint256"
        },
        {
          "internalType": "uint256",
          "name": "TIME_PERIOD",
          "type": "uint256"
        },
        {
          "internalType": "uint256",
          "name": "INTERVAL",
          "type": "uint256"
        }
      ],
      "stateMutability": "view",
      "type": "function"
    },
    {
      "inputs": [],
      "name": "decimals",
      "outputs": [
        {
          "internalType": "uint8",
          "name": "",
          "type": "uint8"
        }
      ],
      "stateMutability": "pure",
      "type": "function"
    },
    {
      "inputs": [
        {
          "internalType": "address",
          "name": "spender",
          "type": "address"
        },
        {
          "internalType": "uint256",
          "name": "subtractedValue",
          "type": "uint256"
        }
      ],
      "name": "decreaseAllowance",
      "outputs": [
        {
          "internalType": "bool",
          "name": "",
          "type": "bool"
        }
      ],
      "stateMutability": "nonpayable",
      "type": "function"
    },
    {
      "inputs": [
        {
          "internalType": "address",
          "name": "sc",
          "type": "address"
        },
        {
          "internalType": "bytes",
          "name": "data",
          "type": "bytes"
        }
      ],
      "name": "getSold",
      "outputs": [
        {
          "internalType": "uint256",
          "name": "",
          "type": "uint256"
        }
      ],
      "stateMutability": "nonpayable",
      "type": "function"
    },
    {
      "inputs": [],
      "name": "gracePeriod",
      "outputs": [
        {
          "internalType": "uint256",
          "name": "",
          "type": "uint256"
        }
      ],
      "stateMutability": "view",
      "type": "function"
    },
    {
      "inputs": [
        {
          "internalType": "address",
          "name": "spender",
          "type": "address"
        },
        {
          "internalType": "uint256",
          "name": "addedValue",
          "type": "uint256"
        }
      ],
      "name": "increaseAllowance",
      "outputs": [
        {
          "internalType": "bool",
          "name": "",
          "type": "bool"
        }
      ],
      "stateMutability": "nonpayable",
      "type": "function"
    },
    {
      "inputs": [],
      "name": "initializeTeamTokenTimelock",
      "outputs": [],
      "stateMutability": "nonpayable",
      "type": "function"
    },
    {
      "inputs": [],
      "name": "interval",
      "outputs": [
        {
          "internalType": "uint256",
          "name": "",
          "type": "uint256"
        }
      ],
      "stateMutability": "view",
      "type": "function"
    },
    {
      "inputs": [
        {
          "internalType": "address",
          "name": "addr",
          "type": "address"
        }
      ],
      "name": "isInQueue",
      "outputs": [
        {
          "internalType": "bool",
          "name": "",
          "type": "bool"
        }
      ],
      "stateMutability": "view",
      "type": "function"
    },
    {
      "inputs": [
        {
          "internalType": "address",
          "name": "",
          "type": "address"
        }
      ],
      "name": "isWhitelisted",
      "outputs": [
        {
          "internalType": "bool",
          "name": "",
          "type": "bool"
        }
      ],
      "stateMutability": "view",
      "type": "function"
    },
    {
      "inputs": [
        {
          "internalType": "address",
          "name": "to",
          "type": "address"
        },
        {
          "internalType": "uint256",
          "name": "amount",
          "type": "uint256"
        }
      ],
      "name": "mintCommunityMarketing",
      "outputs": [],
      "stateMutability": "nonpayable",
      "type": "function"
    },
    {
      "inputs": [
        {
          "internalType": "address",
          "name": "to",
          "type": "address"
        },
        {
          "internalType": "uint256",
          "name": "amount",
          "type": "uint256"
        }
      ],
      "name": "mintInGameRewards",
      "outputs": [],
      "stateMutability": "nonpayable",
      "type": "function"
    },
    {
      "inputs": [
        {
          "internalType": "address",
          "name": "to",
          "type": "address"
        },
        {
          "internalType": "uint256",
          "name": "amount",
          "type": "uint256"
        }
      ],
      "name": "mintReserveFund",
      "outputs": [],
      "stateMutability": "nonpayable",
      "type": "function"
    },
    {
      "inputs": [
        {
          "internalType": "address",
          "name": "to",
          "type": "address"
        },
        {
          "internalType": "uint256",
          "name": "amount",
          "type": "uint256"
        }
      ],
      "name": "mintStakingLiquidity",
      "outputs": [],
      "stateMutability": "nonpayable",
      "type": "function"
    },
    {
      "inputs": [
        {
          "internalType": "address",
          "name": "to",
          "type": "address"
        },
        {
          "internalType": "uint256",
          "name": "amount",
          "type": "uint256"
        }
      ],
      "name": "mintTokenSinks",
      "outputs": [],
      "stateMutability": "nonpayable",
      "type": "function"
    },
    {
      "inputs": [],
      "name": "name",
      "outputs": [
        {
          "internalType": "string",
          "name": "",
          "type": "string"
        }
      ],
      "stateMutability": "view",
      "type": "function"
    },
    {
      "inputs": [],
      "name": "owner",
      "outputs": [
        {
          "internalType": "address",
          "name": "",
          "type": "address"
        }
      ],
      "stateMutability": "view",
      "type": "function"
    },
    {
      "inputs": [],
      "name": "pause",
      "outputs": [],
      "stateMutability": "nonpayable",
      "type": "function"
    },
    {
      "inputs": [],
      "name": "paused",
      "outputs": [
        {
          "internalType": "bool",
          "name": "",
          "type": "bool"
        }
      ],
      "stateMutability": "view",
      "type": "function"
    },
    {
      "inputs": [
        {
          "internalType": "uint256",
          "name": "",
          "type": "uint256"
        }
      ],
      "name": "queue",
      "outputs": [
        {
          "internalType": "address",
          "name": "addr",
          "type": "address"
        },
        {
          "internalType": "uint256",
          "name": "time",
          "type": "uint256"
        }
      ],
      "stateMutability": "view",
      "type": "function"
    },
    {
      "inputs": [],
      "name": "queueSize",
      "outputs": [
        {
          "internalType": "uint256",
          "name": "",
          "type": "uint256"
        }
      ],
      "stateMutability": "view",
      "type": "function"
    },
    {
      "inputs": [
        {
          "internalType": "address",
          "name": "account",
          "type": "address"
        }
      ],
      "name": "removeWhitelisted",
      "outputs": [],
      "stateMutability": "nonpayable",
      "type": "function"
    },
    {
      "inputs": [],
      "name": "renounceOwnership",
      "outputs": [],
      "stateMutability": "nonpayable",
      "type": "function"
    },
    {
      "inputs": [
        {
          "internalType": "uint256",
          "name": "_interval",
          "type": "uint256"
        }
      ],
      "name": "setInterval",
      "outputs": [],
      "stateMutability": "nonpayable",
      "type": "function"
    },
    {
      "inputs": [
        {
          "internalType": "bool",
          "name": "isOff",
          "type": "bool"
        }
      ],
      "name": "switchcap",
      "outputs": [],
      "stateMutability": "nonpayable",
      "type": "function"
    },
    {
      "inputs": [],
      "name": "symbol",
      "outputs": [
        {
          "internalType": "string",
          "name": "",
          "type": "string"
        }
      ],
      "stateMutability": "view",
      "type": "function"
    },
    {
      "inputs": [],
      "name": "teamTokenTimelock",
      "outputs": [
        {
          "internalType": "contract TokenTimelock",
          "name": "",
          "type": "address"
        }
      ],
      "stateMutability": "view",
      "type": "function"
    },
    {
      "inputs": [],
      "name": "teamTokenTimelockAddr",
      "outputs": [
        {
          "internalType": "address",
          "name": "",
          "type": "address"
        }
      ],
      "stateMutability": "view",
      "type": "function"
    },
    {
      "inputs": [],
      "name": "totalSupply",
      "outputs": [
        {
          "internalType": "uint256",
          "name": "",
          "type": "uint256"
        }
      ],
      "stateMutability": "view",
      "type": "function"
    },
    {
      "inputs": [
        {
          "internalType": "address",
          "name": "to",
          "type": "address"
        },
        {
          "internalType": "uint256",
          "name": "amount",
          "type": "uint256"
        }
      ],
      "name": "transfer",
      "outputs": [
        {
          "internalType": "bool",
          "name": "",
          "type": "bool"
        }
      ],
      "stateMutability": "nonpayable",
      "type": "function"
    },
    {
      "inputs": [
        {
          "internalType": "address",
          "name": "from",
          "type": "address"
        },
        {
          "internalType": "address",
          "name": "to",
          "type": "address"
        },
        {
          "internalType": "uint256",
          "name": "amount",
          "type": "uint256"
        }
      ],
      "name": "transferFrom",
      "outputs": [
        {
          "internalType": "bool",
          "name": "",
          "type": "bool"
        }
      ],
      "stateMutability": "nonpayable",
      "type": "function"
    },
    {
      "inputs": [
        {
          "internalType": "address",
          "name": "newOwner",
          "type": "address"
        }
      ],
      "name": "transferOwnership",
      "outputs": [],
      "stateMutability": "nonpayable",
      "type": "function"
    },
    {
      "inputs": [],
      "name": "unpause",
      "outputs": [],
      "stateMutability": "nonpayable",
      "type": "function"
    },
    {
      "stateMutability": "payable",
      "type": "receive"
    }
  ],
  "bytecode": "0x608060405260006007556000600b60006101000a81548160ff0219169083151502179055503480156200003157600080fd5b506040518060400160405280600f81526020017f476f6c64204769726c20546f6b656e00000000000000000000000000000000008152506040518060400160405280600481526020017f4747544b000000000000000000000000000000000000000000000000000000008152508160039080519060200190620000b6929190620014d9565b508060049080519060200190620000cf929190620014d9565b505050620000f2620000e6620001af60201b60201c565b620001b760201b60201c565b6000600560146101000a81548160ff02191690831515021790555060016006819055506200012e3066071afd498d00006200027d60201b60201c565b42600c8190555062000145620003eb60201b60201c565b60405180606001604052806606c00a3912c00081526020016201518081526020016107088152506008600082015181600001556020820151816001015560408201518160020155905050426013819055506107086015819055506201518060168190555062002080565b600033905090565b6000600560009054906101000a900473ffffffffffffffffffffffffffffffffffffffff16905081600560006101000a81548173ffffffffffffffffffffffffffffffffffffffff021916908373ffffffffffffffffffffffffffffffffffffffff1602179055508173ffffffffffffffffffffffffffffffffffffffff168173ffffffffffffffffffffffffffffffffffffffff167f8be0079c531659141344cd1fd0a4f28419497f9722a3daafe3b4186f6b6457e060405160405180910390a35050565b600073ffffffffffffffffffffffffffffffffffffffff168273ffffffffffffffffffffffffffffffffffffffff161415620002f0576040517f08c379a0000000000000000000000000000000000000000000000000000000008152600401620002e79062001d37565b60405180910390fd5b62000304600083836200062960201b60201c565b806002600082825462000318919062001d87565b92505081905550806000808473ffffffffffffffffffffffffffffffffffffffff1673ffffffffffffffffffffffffffffffffffffffff168152602001908152602001600020600082825401925050819055508173ffffffffffffffffffffffffffffffffffffffff16600073ffffffffffffffffffffffffffffffffffffffff167fddf252ad1be2c89b69c2b068fc378daa952ba7f163c4a11628f55a4df523b3ef83604051620003cb919062001d59565b60405180910390a3620003e76000838362000a0e60201b60201c565b5050565b620003fb62000a9460201b60201c565b600073ffffffffffffffffffffffffffffffffffffffff16601160009054906101000a900473ffffffffffffffffffffffffffffffffffffffff1673ffffffffffffffffffffffffffffffffffffffff16146200048f576040517f08c379a0000000000000000000000000000000000000000000000000000000008152600401620004869062001b61565b60405180910390fd5b60006202a30042620004a2919062001d87565b90506000620d2f0082620004b7919062001d87565b9050600043905060006004905030620004d562000b2560201b60201c565b85858585604051620004e7906200156a565b620004f89695949392919062001a5e565b604051809103906000f08015801562000515573d6000803e3d6000fd5b50601160006101000a81548173ffffffffffffffffffffffffffffffffffffffff021916908373ffffffffffffffffffffffffffffffffffffffff160217905550601160009054906101000a900473ffffffffffffffffffffffffffffffffffffffff16601260006101000a81548173ffffffffffffffffffffffffffffffffffffffff021916908373ffffffffffffffffffffffffffffffffffffffff1602179055506000620005de60075466038d7ea4c6800062000b4f60201b620019631790919060201c565b905062000614601260009054906101000a900473ffffffffffffffffffffffffffffffffffffffff16826200027d60201b60201c565b66038d7ea4c680006007819055505050505050565b6200063962000b6760201b60201c565b6200065183838362000bbc60201b6200197b1760201c565b600b60009054906101000a900460ff16158015620006b95750600e60008473ffffffffffffffffffffffffffffffffffffffff1673ffffffffffffffffffffffffffffffffffffffff16815260200190815260200160002060009054906101000a900460ff16155b8015620006d35750620006d28262000bc160201b60201c565b5b1562000a09576000620006ec8462000c1760201b60201c565b905060006200070062000cfa60201b60201c565b9050600080821415620007195760086000015462000739565b620007388260086000015462000d0760201b620019801790919060201c565b5b90508084111562000781576040517f08c379a0000000000000000000000000000000000000000000000000000000008152600401620007789062001ba5565b60405180910390fd5b60648210806200078e5750825b620007d0576040517f08c379a0000000000000000000000000000000000000000000000000000000008152600401620007c79062001cd1565b60405180910390fd5b620007e062000d1f60201b60201c565b826200083657620007f78662000ff960201b60201c565b50506040517f08c379a00000000000000000000000000000000000000000000000000000000081526004016200082d9062001cf3565b60405180910390fd5b600080620008496200115160201b60201c565b915091508773ffffffffffffffffffffffffffffffffffffffff168273ffffffffffffffffffffffffffffffffffffffff1614620008d157620008928262000ff960201b60201c565b50506040517f08c379a0000000000000000000000000000000000000000000000000000000008152600401620008c89062001b3f565b60405180910390fd5b80421162000916576040517f08c379a00000000000000000000000000000000000000000000000000000000081526004016200090d9062001d15565b60405180910390fd5b6016548162000926919062001d87565b4211156200096b576040517f08c379a0000000000000000000000000000000000000000000000000000000008152600401620009629062001c5d565b60405180910390fd5b6008600001546200098d87600d546200147c60201b620019981790919060201c565b1115620009d1576040517f08c379a0000000000000000000000000000000000000000000000000000000008152600401620009c89062001c3b565b60405180910390fd5b620009e16200149460201b60201c565b620009fd86600d546200147c60201b620019981790919060201c565b600d8190555050505050505b505050565b62000a1e62000b6760201b60201c565b62000a2e6200149460201b60201c565b62000a4a81600d546200147c60201b620019981790919060201c565b600d819055507fe9f944ddc2387681900ff440bebe4122461fc58146e32ba8c7d14ce4d207fbe38282600d5460405162000a879392919062001acb565b60405180910390a1505050565b62000aa4620001af60201b60201c565b73ffffffffffffffffffffffffffffffffffffffff1662000aca62000b2560201b60201c565b73ffffffffffffffffffffffffffffffffffffffff161462000b23576040517f08c379a000000000000000000000000000000000000000000000000000000000815260040162000b1a9062001bc7565b60405180910390fd5b565b6000600560009054906101000a900473ffffffffffffffffffffffffffffffffffffffff16905090565b6000818362000b5f919062001e7d565b905092915050565b62000b77620014c260201b60201c565b1562000bba576040517f08c379a000000000000000000000000000000000000000000000000000000000815260040162000bb19062001b83565b60405180910390fd5b565b505050565b6000600f60008373ffffffffffffffffffffffffffffffffffffffff1673ffffffffffffffffffffffffffffffffffffffff16815260200190815260200160002060009054906101000a900460ff169050919050565b600080600090505b60148054905081101562000cef578273ffffffffffffffffffffffffffffffffffffffff166014828154811062000c7f577f4e487b7100000000000000000000000000000000000000000000000000000000600052603260045260246000fd5b906000526020600020906002020160000160009054906101000a900473ffffffffffffffffffffffffffffffffffffffff1673ffffffffffffffffffffffffffffffffffffffff16141562000cd957600191505062000cf5565b808062000ce69062001fa5565b91505062000c1f565b50600090505b919050565b6000601480549050905090565b6000818362000d17919062001de4565b905092915050565b60005b6014805490508110801562000d9157506016546014828154811062000d70577f4e487b7100000000000000000000000000000000000000000000000000000000600052603260045260246000fd5b9060005260206000209060020201600101544262000d8f919062001e7d565b115b1562000dff5760006014828154811062000dd4577f4e487b7100000000000000000000000000000000000000000000000000000000600052603260045260246000fd5b906000526020600020906002020160010181905550808062000df69062001fa5565b91505062000d22565b600081111562000ff65760005b8160148054905062000e1f919062001e7d565b81101562000f50576014828262000e37919062001d87565b8154811062000e6f577f4e487b7100000000000000000000000000000000000000000000000000000000600052603260045260246000fd5b90600052602060002090600202016014828154811062000eb8577f4e487b7100000000000000000000000000000000000000000000000000000000600052603260045260246000fd5b90600052602060002090600202016000820160009054906101000a900473ffffffffffffffffffffffffffffffffffffffff168160000160006101000a81548173ffffffffffffffffffffffffffffffffffffffff021916908373ffffffffffffffffffffffffffffffffffffffff16021790555060018201548160010155905050808062000f479062001fa5565b91505062000e0c565b5060005b8181101562000ff457601480548062000f96577f4e487b7100000000000000000000000000000000000000000000000000000000600052603160045260246000fd5b6001900381819060005260206000209060020201600080820160006101000a81549073ffffffffffffffffffffffffffffffffffffffff0219169055600182016000905550509055808062000feb9062001fa5565b91505062000f54565b505b50565b6000806000601480549050905060006015548262001018919062001e1c565b4262001025919062001d87565b9050601460405180604001604052808773ffffffffffffffffffffffffffffffffffffffff16815260200183815250908060018154018082558091505060019003906000526020600020906002020160009091909190915060008201518160000160006101000a81548173ffffffffffffffffffffffffffffffffffffffff021916908373ffffffffffffffffffffffffffffffffffffffff1602179055506020820151816001015550506013548111620010e357601354620010e5565b805b6013819055507fe9f944ddc2387681900ff440bebe4122461fc58146e32ba8c7d14ce4d207fbe3856001846200111c919062001d87565b836040516200112e9392919062001be9565b60405180910390a160018262001145919062001d87565b81935093505050915091565b6000806000601480549050116200119f576040517f08c379a0000000000000000000000000000000000000000000000000000000008152600401620011969062001b1d565b60405180910390fd5b60006014600081548110620011dd577f4e487b7100000000000000000000000000000000000000000000000000000000600052603260045260246000fd5b90600052602060002090600202016040518060400160405290816000820160009054906101000a900473ffffffffffffffffffffffffffffffffffffffff1673ffffffffffffffffffffffffffffffffffffffff1673ffffffffffffffffffffffffffffffffffffffff168152602001600182015481525050905060005b60016014805490506200126f919062001e7d565b811015620013a157601460018262001288919062001d87565b81548110620012c0577f4e487b7100000000000000000000000000000000000000000000000000000000600052603260045260246000fd5b90600052602060002090600202016014828154811062001309577f4e487b7100000000000000000000000000000000000000000000000000000000600052603260045260246000fd5b90600052602060002090600202016000820160009054906101000a900473ffffffffffffffffffffffffffffffffffffffff168160000160006101000a81548173ffffffffffffffffffffffffffffffffffffffff021916908373ffffffffffffffffffffffffffffffffffffffff160217905550600182015481600101559050508080620013989062001fa5565b9150506200125b565b507fe9f944ddc2387681900ff440bebe4122461fc58146e32ba8c7d14ce4d207fbe3816000015182602001516000604051620013e09392919062001c7f565b60405180910390a1601480548062001421577f4e487b7100000000000000000000000000000000000000000000000000000000600052603160045260246000fd5b6001900381819060005260206000209060020201600080820160006101000a81549073ffffffffffffffffffffffffffffffffffffffff02191690556001820160009055505090558060000151816020015192509250509091565b600081836200148c919062001d87565b905092915050565b600860010154600c54620014a9919062001d87565b4210620014c0576000600d8190555042600c819055505b565b6000600560149054906101000a900460ff16905090565b828054620014e79062001f6f565b90600052602060002090601f0160209004810192826200150b576000855562001557565b82601f106200152657805160ff191683800117855562001557565b8280016001018555821562001557579182015b828111156200155657825182559160200191906001019062001539565b5b50905062001566919062001578565b5090565b611f5b8062008b4f83390190565b5b808211156200159357600081600090555060010162001579565b5090565b620015a28162001eb8565b82525050565b620015b38162001f33565b82525050565b620015c48162001f5b565b82525050565b6000620015d960048362001d76565b91507f446f6e65000000000000000000000000000000000000000000000000000000006000830152602082019050919050565b60006200161b600e8362001d76565b91507f517565756520697320656d7074790000000000000000000000000000000000006000830152602082019050919050565b60006200165d60228362001d76565b91507f4e6f7420796f7572207475726e2c206164646564206261636b20746f2071756560008301527f75650000000000000000000000000000000000000000000000000000000000006020830152604082019050919050565b6000620016c5602c8362001d76565b91507f4747544b3a205465616d20546f6b656e54696d656c6f636b20616c726561647960008301527f20696e697469616c697a656400000000000000000000000000000000000000006020830152604082019050919050565b60006200172d60108362001d76565b91507f5061757361626c653a20706175736564000000000000000000000000000000006000830152602082019050919050565b60006200176f60218362001d76565b91507f546865207175616e7469747920657863656564656420746865206d6178696d7560008301527f6d000000000000000000000000000000000000000000000000000000000000006020830152604082019050919050565b6000620017d760208362001d76565b91507f4f776e61626c653a2063616c6c6572206973206e6f7420746865206f776e65726000830152602082019050919050565b60006200181960078362001d76565b91507f656e7175657565000000000000000000000000000000000000000000000000006000830152602082019050919050565b60006200185b60128362001d76565b91507f4747544b3a2063617020657863656564656400000000000000000000000000006000830152602082019050919050565b60006200189d60208362001d76565b91507f54696d6564206f75742c20706c656173652072652d656e7465722071756575656000830152602082019050919050565b6000620018df60078362001d76565b91507f64657175657565000000000000000000000000000000000000000000000000006000830152602082019050919050565b600062001921601a8362001d76565b91507f51756575652069732066756c6c2c20706c6561736520776169740000000000006000830152602082019050919050565b600062001963601b8362001d76565b91507f416464656420746f2071756575652c20706c65617365207761697400000000006000830152602082019050919050565b6000620019a560168362001d76565b91507f546f6f206561726c792c20706c656173652077616974000000000000000000006000830152602082019050919050565b6000620019e7601f8362001d76565b91507f45524332303a206d696e7420746f20746865207a65726f2061646472657373006000830152602082019050919050565b62001a258162001ecc565b82525050565b62001a368162001f08565b82525050565b62001a478162001f12565b82525050565b62001a588162001f22565b82525050565b600060c08201905062001a756000830189620015a8565b62001a84602083018862001597565b62001a93604083018762001a4d565b62001aa2606083018662001a4d565b62001ab1608083018562001a1a565b62001ac060a083018462001a3c565b979650505050505050565b6000608082019050818103600083015262001ae681620015ca565b905062001af7602083018662001597565b62001b06604083018562001a2b565b62001b15606083018462001a2b565b949350505050565b6000602082019050818103600083015262001b38816200160c565b9050919050565b6000602082019050818103600083015262001b5a816200164e565b9050919050565b6000602082019050818103600083015262001b7c81620016b6565b9050919050565b6000602082019050818103600083015262001b9e816200171e565b9050919050565b6000602082019050818103600083015262001bc08162001760565b9050919050565b6000602082019050818103600083015262001be281620017c8565b9050919050565b6000608082019050818103600083015262001c04816200180a565b905062001c15602083018662001597565b62001c24604083018562001a2b565b62001c33606083018462001a2b565b949350505050565b6000602082019050818103600083015262001c56816200184c565b9050919050565b6000602082019050818103600083015262001c78816200188e565b9050919050565b6000608082019050818103600083015262001c9a81620018d0565b905062001cab602083018662001597565b62001cba604083018562001a2b565b62001cc96060830184620015b9565b949350505050565b6000602082019050818103600083015262001cec8162001912565b9050919050565b6000602082019050818103600083015262001d0e8162001954565b9050919050565b6000602082019050818103600083015262001d308162001996565b9050919050565b6000602082019050818103600083015262001d5281620019d8565b9050919050565b600060208201905062001d70600083018462001a2b565b92915050565b600082825260208201905092915050565b600062001d948262001f08565b915062001da18362001f08565b9250827fffffffffffffffffffffffffffffffffffffffffffffffffffffffffffffffff0382111562001dd95762001dd862001ff3565b5b828201905092915050565b600062001df18262001f08565b915062001dfe8362001f08565b92508262001e115762001e1062002022565b5b828204905092915050565b600062001e298262001f08565b915062001e368362001f08565b9250817fffffffffffffffffffffffffffffffffffffffffffffffffffffffffffffffff048311821515161562001e725762001e7162001ff3565b5b828202905092915050565b600062001e8a8262001f08565b915062001e978362001f08565b92508282101562001ead5762001eac62001ff3565b5b828203905092915050565b600062001ec58262001ee8565b9050919050565b60006fffffffffffffffffffffffffffffffff82169050919050565b600073ffffffffffffffffffffffffffffffffffffffff82169050919050565b6000819050919050565b600063ffffffff82169050919050565b600064ffffffffff82169050919050565b600062001f408262001f47565b9050919050565b600062001f548262001ee8565b9050919050565b600062001f688262001f08565b9050919050565b6000600282049050600182168062001f8857607f821691505b6020821081141562001f9f5762001f9e62002051565b5b50919050565b600062001fb28262001f08565b91507fffffffffffffffffffffffffffffffffffffffffffffffffffffffffffffffff82141562001fe85762001fe762001ff3565b5b600182019050919050565b7f4e487b7100000000000000000000000000000000000000000000000000000000600052601160045260246000fd5b7f4e487b7100000000000000000000000000000000000000000000000000000000600052601260045260246000fd5b7f4e487b7100000000000000000000000000000000000000000000000000000000600052602260045260246000fd5b616abf80620020906000396000f3fe6080604052600436106200029b5760003560e01c806370a082311162000163578063a457c2d711620000c7578063d71437cb1162000085578063d71437cb14620009de578063dd62ed3e1462000a22578063ddf0b0091462000a66578063f2fde38b1462000aab578063f8d0daa61462000ad9578063ffafe7381462000b1d57620002a3565b8063a457c2d714620008b4578063a9059cbb14620008f8578063bae6c2ad146200093c578063ca3939f4146200096c578063d299aa07146200099a57620002a3565b8063848c25391162000121578063848c253914620007ac5780638da5cb5b14620007da578063947a36fb146200080a57806395d89b41146200083a578063a06db7dc146200086a578063a28e9c48146200089a57620002a3565b806370a0823114620006d8578063715018a6146200071c578063771e2bc6146200073657806379cc679014620007645780638456cb59146200079257620002a3565b8063322a8957116200020b5780633c638e0911620001c95780633c638e0914620005d45780633f4ba83a146200060257806342966c68146200061c5780634f7e94e4146200064a5780635bfeb9c1146200067a5780635c975abb14620006a857620002a3565b8063322a895714620004aa5780633660943d14620004da57806338eada1c146200051e57806339509351146200054c5780633af32abf146200059057620002a3565b8063205d15b61162000259578063205d15b614620003a857806322a9008214620003da57806323b872dd1462000408578063291d9549146200044c578063313ce567146200047a57620002a3565b80630351b22b14620002a857806306fdde0314620002d6578063095ea7b3146200030657806310154bad146200034a57806318160ddd146200037857620002a3565b36620002a357005b600080fd5b348015620002b557600080fd5b50620002d46004803603810190620002ce9190620031a2565b62000b4b565b005b348015620002e357600080fd5b50620002ee62000bb0565b604051620002fd9190620040ea565b60405180910390f35b3480156200031357600080fd5b506200033260048036038101906200032c9190620032bf565b62000c4a565b6040516200034191906200401f565b60405180910390f35b3480156200035757600080fd5b50620003766004803603810190620003709190620031a2565b62000c71565b005b3480156200038557600080fd5b506200039062000cd6565b6040516200039f919062004600565b60405180910390f35b348015620003b557600080fd5b50620003c062000ce0565b604051620003d1939291906200461d565b60405180910390f35b348015620003e757600080fd5b5062000406600480360381019062000400919062003371565b62000cf8565b005b3480156200041557600080fd5b506200043460048036038101906200042e91906200320f565b62000d0c565b6040516200044391906200401f565b60405180910390f35b3480156200045957600080fd5b50620004786004803603810190620004729190620031a2565b62000d41565b005b3480156200048757600080fd5b506200049262000da6565b604051620004a191906200465a565b60405180910390f35b348015620004b757600080fd5b50620004c262000daf565b604051620004d19190620040cd565b60405180910390f35b348015620004e757600080fd5b506200050660048036038101906200050091906200332c565b62000dd5565b6040516200051591906200403c565b60405180910390f35b3480156200052b57600080fd5b506200054a6004803603810190620005449190620031a2565b62000e4c565b005b3480156200055957600080fd5b50620005786004803603810190620005729190620032bf565b62000eb1565b6040516200058791906200401f565b60405180910390f35b3480156200059d57600080fd5b50620005bc6004803603810190620005b69190620031a2565b62000ef0565b604051620005cb91906200401f565b60405180910390f35b348015620005e157600080fd5b50620006006004803603810190620005fa9190620032bf565b62000f10565b005b3480156200060f57600080fd5b506200061a62000f77565b005b3480156200062957600080fd5b5062000648600480360381019062000642919062003371565b62000f8d565b005b3480156200065757600080fd5b506200066262000fa5565b60405162000671919062003fd5565b60405180910390f35b3480156200068757600080fd5b50620006a66004803603810190620006a0919062003300565b62000fcb565b005b348015620006b557600080fd5b50620006c062000ff2565b604051620006cf91906200401f565b60405180910390f35b348015620006e557600080fd5b50620007046004803603810190620006fe9190620031a2565b62001009565b60405162000713919062004600565b60405180910390f35b3480156200072957600080fd5b506200073462001051565b005b3480156200074357600080fd5b506200076260048036038101906200075c9190620032bf565b62001069565b005b3480156200077157600080fd5b506200079060048036038101906200078a9190620032bf565b620010d0565b005b3480156200079f57600080fd5b50620007aa620010f6565b005b348015620007b957600080fd5b50620007d86004803603810190620007d29190620032bf565b6200110c565b005b348015620007e757600080fd5b50620007f262001173565b60405162000801919062003fd5565b60405180910390f35b3480156200081757600080fd5b50620008226200119d565b60405162000831919062004600565b60405180910390f35b3480156200084757600080fd5b5062000852620011a3565b604051620008619190620040ea565b60405180910390f35b3480156200087757600080fd5b50620008826200123d565b60405162000891919062004600565b60405180910390f35b348015620008a757600080fd5b50620008b262001243565b005b348015620008c157600080fd5b50620008e06004803603810190620008da9190620032bf565b6200146a565b604051620008ef91906200401f565b60405180910390f35b3480156200090557600080fd5b506200092460048036038101906200091e9190620032bf565b620014ea565b6040516200093391906200401f565b60405180910390f35b3480156200094957600080fd5b506200095462001511565b60405162000963919062004600565b60405180910390f35b3480156200097957600080fd5b50620009986004803603810190620009929190620032bf565b6200151e565b005b348015620009a757600080fd5b50620009c66004803603810190620009c09190620031a2565b62001585565b604051620009d591906200401f565b60405180910390f35b348015620009eb57600080fd5b5062000a0a600480360381019062000a049190620031a2565b620015a5565b60405162000a1991906200401f565b60405180910390f35b34801562000a2f57600080fd5b5062000a4e600480360381019062000a489190620031ce565b62001688565b60405162000a5d919062004600565b60405180910390f35b34801562000a7357600080fd5b5062000a92600480360381019062000a8c919062003371565b6200170f565b60405162000aa292919062003ff2565b60405180910390f35b34801562000ab857600080fd5b5062000ad7600480360381019062000ad19190620031a2565b62001764565b005b34801562000ae657600080fd5b5062000b05600480360381019062000aff919062003265565b620017ef565b60405162000b14919062004600565b60405180910390f35b34801562000b2a57600080fd5b5062000b49600480360381019062000b439190620032bf565b620018fc565b005b62000b55620019b0565b6001601060008373ffffffffffffffffffffffffffffffffffffffff1673ffffffffffffffffffffffffffffffffffffffff16815260200190815260200160002060006101000a81548160ff02191690831515021790555050565b60606003805462000bc1906200498f565b80601f016020809104026020016040519081016040528092919081815260200182805462000bef906200498f565b801562000c405780601f1062000c145761010080835404028352916020019162000c40565b820191906000526020600020905b81548152906001019060200180831162000c2257829003601f168201915b5050505050905090565b60008062000c5762001a35565b905062000c6681858562001a3d565b600191505092915050565b62000c7b620019b0565b6001600e60008373ffffffffffffffffffffffffffffffffffffffff1673ffffffffffffffffffffffffffffffffffffffff16815260200190815260200160002060006101000a81548160ff02191690831515021790555050565b6000600254905090565b60088060000154908060010154908060020154905083565b62000d02620019b0565b8060158190555050565b60008062000d1962001a35565b905062000d2885828562001c10565b62000d3585858562001ca4565b60019150509392505050565b62000d4b620019b0565b6000600e60008373ffffffffffffffffffffffffffffffffffffffff1673ffffffffffffffffffffffffffffffffffffffff16815260200190815260200160002060006101000a81548160ff02191690831515021790555050565b60006006905090565b601160009054906101000a900473ffffffffffffffffffffffffffffffffffffffff1681565b606062000de23362001f2b565b62000e24576040517f08c379a000000000000000000000000000000000000000000000000000000000815260040162000e1b90620042f8565b60405180910390fd5b60008083516020850160065af43d604051816000823e826000811462000e48578282f35b8282fd5b62000e56620019b0565b6001600f60008373ffffffffffffffffffffffffffffffffffffffff1673ffffffffffffffffffffffffffffffffffffffff16815260200190815260200160002060006101000a81548160ff02191690831515021790555050565b60008062000ebe62001a35565b905062000ee581858562000ed3858962001688565b62000edf919062004721565b62001a3d565b600191505092915050565b600e6020528060005260406000206000915054906101000a900460ff1681565b62000f1a620019b0565b6605543df729c00081111562000f67576040517f08c379a000000000000000000000000000000000000000000000000000000000815260040162000f5e906200422c565b60405180910390fd5b62000f73828262001f81565b5050565b62000f81620019b0565b62000f8b620020e3565b565b62000fa262000f9b62001a35565b826200214c565b50565b601260009054906101000a900473ffffffffffffffffffffffffffffffffffffffff1681565b62000fd5620019b0565b80600b60006101000a81548160ff02191690831515021790555050565b6000600560149054906101000a900460ff16905090565b60008060008373ffffffffffffffffffffffffffffffffffffffff1673ffffffffffffffffffffffffffffffffffffffff168152602001908152602001600020549050919050565b6200105b620019b0565b62001067600062002326565b565b62001073620019b0565b6601c6bf52634000811115620010c0576040517f08c379a0000000000000000000000000000000000000000000000000000000008152600401620010b790620043a2565b60405180910390fd5b620010cc828262001f81565b5050565b620010e682620010df62001a35565b8362001c10565b620010f282826200214c565b5050565b62001100620019b0565b6200110a620023ec565b565b62001116620019b0565b6605543df729c00081111562001163576040517f08c379a00000000000000000000000000000000000000000000000000000000081526004016200115a90620041c6565b60405180910390fd5b6200116f828262001f81565b5050565b6000600560009054906101000a900473ffffffffffffffffffffffffffffffffffffffff16905090565b60155481565b606060048054620011b4906200498f565b80601f0160208091040260200160405190810160405280929190818152602001828054620011e2906200498f565b8015620012335780601f10620012075761010080835404028352916020019162001233565b820191906000526020600020905b8154815290600101906020018083116200121557829003601f168201915b5050505050905090565b60165481565b6200124d620019b0565b600073ffffffffffffffffffffffffffffffffffffffff16601160009054906101000a900473ffffffffffffffffffffffffffffffffffffffff1673ffffffffffffffffffffffffffffffffffffffff1614620012e1576040517f08c379a0000000000000000000000000000000000000000000000000000000008152600401620012d890620042b4565b60405180910390fd5b60006202a30042620012f4919062004721565b90506000620d2f008262001309919062004721565b90506000439050600060049050306200132162001173565b858585856040516200133390620030dd565b620013449695949392919062004060565b604051809103906000f08015801562001361573d6000803e3d6000fd5b50601160006101000a81548173ffffffffffffffffffffffffffffffffffffffff021916908373ffffffffffffffffffffffffffffffffffffffff160217905550601160009054906101000a900473ffffffffffffffffffffffffffffffffffffffff16601260006101000a81548173ffffffffffffffffffffffffffffffffffffffff021916908373ffffffffffffffffffffffffffffffffffffffff16021790555060006200142560075466038d7ea4c680006200196390919063ffffffff16565b905062001455601260009054906101000a900473ffffffffffffffffffffffffffffffffffffffff168262001f81565b66038d7ea4c680006007819055505050505050565b6000806200147762001a35565b9050600062001487828662001688565b905083811015620014cf576040517f08c379a0000000000000000000000000000000000000000000000000000000008152600401620014c690620045bc565b60405180910390fd5b620014de828686840362001a3d565b60019250505092915050565b600080620014f762001a35565b90506200150681858562001ca4565b600191505092915050565b6000601480549050905090565b62001528620019b0565b6601c6bf5263400081111562001575576040517f08c379a00000000000000000000000000000000000000000000000000000000081526004016200156c9062004556565b60405180910390fd5b62001581828262001f81565b5050565b600f6020528060005260406000206000915054906101000a900460ff1681565b600080600090505b6014805490508110156200167d578273ffffffffffffffffffffffffffffffffffffffff16601482815481106200160d577f4e487b7100000000000000000000000000000000000000000000000000000000600052603260045260246000fd5b906000526020600020906002020160000160009054906101000a900473ffffffffffffffffffffffffffffffffffffffff1673ffffffffffffffffffffffffffffffffffffffff1614156200166757600191505062001683565b80806200167490620049c5565b915050620015ad565b50600090505b919050565b6000600160008473ffffffffffffffffffffffffffffffffffffffff1673ffffffffffffffffffffffffffffffffffffffff16815260200190815260200160002060008373ffffffffffffffffffffffffffffffffffffffff1673ffffffffffffffffffffffffffffffffffffffff16815260200190815260200160002054905092915050565b601481815481106200172057600080fd5b90600052602060002090600202016000915090508060000160009054906101000a900473ffffffffffffffffffffffffffffffffffffffff16908060010154905082565b6200176e620019b0565b600073ffffffffffffffffffffffffffffffffffffffff168173ffffffffffffffffffffffffffffffffffffffff161415620017e1576040517f08c379a0000000000000000000000000000000000000000000000000000000008152600401620017d8906200424e565b60405180910390fd5b620017ec8162002326565b50565b6000620017fc3362001f2b565b6200183e576040517f08c379a00000000000000000000000000000000000000000000000000000000081526004016200183590620042f8565b60405180910390fd5b60008373ffffffffffffffffffffffffffffffffffffffff168360405162001867919062003fbc565b600060405180830381855af49150503d8060008114620018a4576040519150601f19603f3d011682016040523d82523d6000602084013e620018a9565b606091505b5050905080620018f0576040517f08c379a0000000000000000000000000000000000000000000000000000000008152600401620018e7906200435e565b60405180910390fd5b600d5491505092915050565b62001906620019b0565b660aa87bee53800081111562001953576040517f08c379a00000000000000000000000000000000000000000000000000000000081526004016200194a906200459a565b60405180910390fd5b6200195f828262001f81565b5050565b6000818362001973919062004817565b905092915050565b505050565b600081836200199091906200477e565b905092915050565b60008183620019a8919062004721565b905092915050565b620019ba62001a35565b73ffffffffffffffffffffffffffffffffffffffff16620019da62001173565b73ffffffffffffffffffffffffffffffffffffffff161462001a33576040517f08c379a000000000000000000000000000000000000000000000000000000000815260040162001a2a9062004380565b60405180910390fd5b565b600033905090565b600073ffffffffffffffffffffffffffffffffffffffff168373ffffffffffffffffffffffffffffffffffffffff16141562001ab0576040517f08c379a000000000000000000000000000000000000000000000000000000000815260040162001aa7906200449e565b60405180910390fd5b600073ffffffffffffffffffffffffffffffffffffffff168273ffffffffffffffffffffffffffffffffffffffff16141562001b23576040517f08c379a000000000000000000000000000000000000000000000000000000000815260040162001b1a9062004270565b60405180910390fd5b80600160008573ffffffffffffffffffffffffffffffffffffffff1673ffffffffffffffffffffffffffffffffffffffff16815260200190815260200160002060008473ffffffffffffffffffffffffffffffffffffffff1673ffffffffffffffffffffffffffffffffffffffff168152602001908152602001600020819055508173ffffffffffffffffffffffffffffffffffffffff168373ffffffffffffffffffffffffffffffffffffffff167f8c5be1e5ebec7d5bd14f71427d1e84f3dd0314c0f7b2291e5b200ac8c7c3b9258360405162001c03919062004600565b60405180910390a3505050565b600062001c1e848462001688565b90507fffffffffffffffffffffffffffffffffffffffffffffffffffffffffffffffff811462001c9e578181101562001c8e576040517f08c379a000000000000000000000000000000000000000000000000000000000815260040162001c859062004292565b60405180910390fd5b62001c9d848484840362001a3d565b5b50505050565b600073ffffffffffffffffffffffffffffffffffffffff168373ffffffffffffffffffffffffffffffffffffffff16141562001d17576040517f08c379a000000000000000000000000000000000000000000000000000000000815260040162001d0e906200445a565b60405180910390fd5b600073ffffffffffffffffffffffffffffffffffffffff168273ffffffffffffffffffffffffffffffffffffffff16141562001d8a576040517f08c379a000000000000000000000000000000000000000000000000000000000815260040162001d819062004182565b60405180910390fd5b62001d9783838362002455565b60008060008573ffffffffffffffffffffffffffffffffffffffff1673ffffffffffffffffffffffffffffffffffffffff1681526020019081526020016000205490508181101562001e20576040517f08c379a000000000000000000000000000000000000000000000000000000000815260040162001e1790620042d6565b60405180910390fd5b8181036000808673ffffffffffffffffffffffffffffffffffffffff1673ffffffffffffffffffffffffffffffffffffffff16815260200190815260200160002081905550816000808573ffffffffffffffffffffffffffffffffffffffff1673ffffffffffffffffffffffffffffffffffffffff168152602001908152602001600020600082825401925050819055508273ffffffffffffffffffffffffffffffffffffffff168473ffffffffffffffffffffffffffffffffffffffff167fddf252ad1be2c89b69c2b068fc378daa952ba7f163c4a11628f55a4df523b3ef8460405162001f10919062004600565b60405180910390a362001f25848484620027ea565b50505050565b6000601060008373ffffffffffffffffffffffffffffffffffffffff1673ffffffffffffffffffffffffffffffffffffffff16815260200190815260200160002060009054906101000a900460ff169050919050565b600073ffffffffffffffffffffffffffffffffffffffff168273ffffffffffffffffffffffffffffffffffffffff16141562001ff4576040517f08c379a000000000000000000000000000000000000000000000000000000000815260040162001feb90620045de565b60405180910390fd5b620020026000838362002455565b806002600082825462002016919062004721565b92505081905550806000808473ffffffffffffffffffffffffffffffffffffffff1673ffffffffffffffffffffffffffffffffffffffff168152602001908152602001600020600082825401925050819055508173ffffffffffffffffffffffffffffffffffffffff16600073ffffffffffffffffffffffffffffffffffffffff167fddf252ad1be2c89b69c2b068fc378daa952ba7f163c4a11628f55a4df523b3ef83604051620020c9919062004600565b60405180910390a3620020df60008383620027ea565b5050565b620020ed6200285f565b6000600560146101000a81548160ff0219169083151502179055507f5db9ee0a495bf2e6ff9c91a7834c1ba4fdd244a5e8aa4e537bd38aeae4b073aa6200213362001a35565b60405162002142919062003fd5565b60405180910390a1565b600073ffffffffffffffffffffffffffffffffffffffff168273ffffffffffffffffffffffffffffffffffffffff161415620021bf576040517f08c379a0000000000000000000000000000000000000000000000000000000008152600401620021b690620043c4565b60405180910390fd5b620021cd8260008362002455565b60008060008473ffffffffffffffffffffffffffffffffffffffff1673ffffffffffffffffffffffffffffffffffffffff1681526020019081526020016000205490508181101562002256576040517f08c379a00000000000000000000000000000000000000000000000000000000081526004016200224d906200420a565b60405180910390fd5b8181036000808573ffffffffffffffffffffffffffffffffffffffff1673ffffffffffffffffffffffffffffffffffffffff1681526020019081526020016000208190555081600260008282540392505081905550600073ffffffffffffffffffffffffffffffffffffffff168373ffffffffffffffffffffffffffffffffffffffff167fddf252ad1be2c89b69c2b068fc378daa952ba7f163c4a11628f55a4df523b3ef846040516200230b919062004600565b60405180910390a36200232183600084620027ea565b505050565b6000600560009054906101000a900473ffffffffffffffffffffffffffffffffffffffff16905081600560006101000a81548173ffffffffffffffffffffffffffffffffffffffff021916908373ffffffffffffffffffffffffffffffffffffffff1602179055508173ffffffffffffffffffffffffffffffffffffffff168173ffffffffffffffffffffffffffffffffffffffff167f8be0079c531659141344cd1fd0a4f28419497f9722a3daafe3b4186f6b6457e060405160405180910390a35050565b620023f6620028ad565b6001600560146101000a81548160ff0219169083151502179055507f62e78cea01bee320cd4e420270b5ea74000d11b0c9f74754ebdbfc544b05a2586200243c62001a35565b6040516200244b919062003fd5565b60405180910390a1565b6200245f620028ad565b6200246c8383836200197b565b600b60009054906101000a900460ff16158015620024d45750600e60008473ffffffffffffffffffffffffffffffffffffffff1673ffffffffffffffffffffffffffffffffffffffff16815260200190815260200160002060009054906101000a900460ff16155b8015620024e85750620024e782620028fc565b5b15620027e5576000620024fb84620015a5565b905060006200250962001511565b905060008082141562002522576008600001546200253d565b6200253c826008600001546200198090919063ffffffff16565b5b90508084111562002585576040517f08c379a00000000000000000000000000000000000000000000000000000000081526004016200257c906200433c565b60405180910390fd5b6064821080620025925750825b620025d4576040517f08c379a0000000000000000000000000000000000000000000000000000000008152600401620025cb9062004512565b60405180910390fd5b620025de62002952565b826200262e57620025ef8662002c2c565b50506040517f08c379a0000000000000000000000000000000000000000000000000000000008152600401620026259062004534565b60405180910390fd5b6000806200263b62002d84565b915091508773ffffffffffffffffffffffffffffffffffffffff168273ffffffffffffffffffffffffffffffffffffffff1614620026bd576200267e8262002c2c565b50506040517f08c379a0000000000000000000000000000000000000000000000000000000008152600401620026b490620041e8565b60405180910390fd5b80421162002702576040517f08c379a0000000000000000000000000000000000000000000000000000000008152600401620026f99062004578565b60405180910390fd5b6016548162002712919062004721565b42111562002757576040517f08c379a00000000000000000000000000000000000000000000000000000000081526004016200274e906200447c565b60405180910390fd5b6008600001546200277487600d546200199890919063ffffffff16565b1115620027b8576040517f08c379a0000000000000000000000000000000000000000000000000000000008152600401620027af9062004438565b60405180910390fd5b620027c2620030af565b620027d986600d546200199890919063ffffffff16565b600d8190555050505050505b505050565b620027f4620028ad565b620027fe620030af565b6200281581600d546200199890919063ffffffff16565b600d819055507fe9f944ddc2387681900ff440bebe4122461fc58146e32ba8c7d14ce4d207fbe38282600d5460405162002852939291906200410e565b60405180910390a1505050565b6200286962000ff2565b620028ab576040517f08c379a0000000000000000000000000000000000000000000000000000000008152600401620028a290620041a4565b60405180910390fd5b565b620028b762000ff2565b15620028fa576040517f08c379a0000000000000000000000000000000000000000000000000000000008152600401620028f1906200431a565b60405180910390fd5b565b6000600f60008373ffffffffffffffffffffffffffffffffffffffff1673ffffffffffffffffffffffffffffffffffffffff16815260200190815260200160002060009054906101000a900460ff169050919050565b60005b60148054905081108015620029c4575060165460148281548110620029a3577f4e487b7100000000000000000000000000000000000000000000000000000000600052603260045260246000fd5b90600052602060002090600202016001015442620029c2919062004817565b115b1562002a325760006014828154811062002a07577f4e487b7100000000000000000000000000000000000000000000000000000000600052603260045260246000fd5b906000526020600020906002020160010181905550808062002a2990620049c5565b91505062002955565b600081111562002c295760005b8160148054905062002a52919062004817565b81101562002b83576014828262002a6a919062004721565b8154811062002aa2577f4e487b7100000000000000000000000000000000000000000000000000000000600052603260045260246000fd5b90600052602060002090600202016014828154811062002aeb577f4e487b7100000000000000000000000000000000000000000000000000000000600052603260045260246000fd5b90600052602060002090600202016000820160009054906101000a900473ffffffffffffffffffffffffffffffffffffffff168160000160006101000a81548173ffffffffffffffffffffffffffffffffffffffff021916908373ffffffffffffffffffffffffffffffffffffffff16021790555060018201548160010155905050808062002b7a90620049c5565b91505062002a3f565b5060005b8181101562002c2757601480548062002bc9577f4e487b7100000000000000000000000000000000000000000000000000000000600052603160045260246000fd5b6001900381819060005260206000209060020201600080820160006101000a81549073ffffffffffffffffffffffffffffffffffffffff0219169055600182016000905550509055808062002c1e90620049c5565b91505062002b87565b505b50565b6000806000601480549050905060006015548262002c4b9190620047b6565b4262002c58919062004721565b9050601460405180604001604052808773ffffffffffffffffffffffffffffffffffffffff16815260200183815250908060018154018082558091505060019003906000526020600020906002020160009091909190915060008201518160000160006101000a81548173ffffffffffffffffffffffffffffffffffffffff021916908373ffffffffffffffffffffffffffffffffffffffff160217905550602082015181600101555050601354811162002d165760135462002d18565b805b6013819055507fe9f944ddc2387681900ff440bebe4122461fc58146e32ba8c7d14ce4d207fbe38560018462002d4f919062004721565b8360405162002d6193929190620043e6565b60405180910390a160018262002d78919062004721565b81935093505050915091565b60008060006014805490501162002dd2576040517f08c379a000000000000000000000000000000000000000000000000000000000815260040162002dc99062004160565b60405180910390fd5b6000601460008154811062002e10577f4e487b7100000000000000000000000000000000000000000000000000000000600052603260045260246000fd5b90600052602060002090600202016040518060400160405290816000820160009054906101000a900473ffffffffffffffffffffffffffffffffffffffff1673ffffffffffffffffffffffffffffffffffffffff1673ffffffffffffffffffffffffffffffffffffffff168152602001600182015481525050905060005b600160148054905062002ea2919062004817565b81101562002fd457601460018262002ebb919062004721565b8154811062002ef3577f4e487b7100000000000000000000000000000000000000000000000000000000600052603260045260246000fd5b90600052602060002090600202016014828154811062002f3c577f4e487b7100000000000000000000000000000000000000000000000000000000600052603260045260246000fd5b90600052602060002090600202016000820160009054906101000a900473ffffffffffffffffffffffffffffffffffffffff168160000160006101000a81548173ffffffffffffffffffffffffffffffffffffffff021916908373ffffffffffffffffffffffffffffffffffffffff16021790555060018201548160010155905050808062002fcb90620049c5565b91505062002e8e565b507fe9f944ddc2387681900ff440bebe4122461fc58146e32ba8c7d14ce4d207fbe38160000151826020015160006040516200301393929190620044c0565b60405180910390a1601480548062003054577f4e487b7100000000000000000000000000000000000000000000000000000000600052603160045260246000fd5b6001900381819060005260206000209060020201600080820160006101000a81549073ffffffffffffffffffffffffffffffffffffffff02191690556001820160009055505090558060000151816020015192509250509091565b600860010154600c54620030c4919062004721565b4210620030db576000600d8190555042600c819055505b565b611f5b8062004b2f83390190565b600062003102620030fc84620046ab565b62004677565b9050828152602081018484840111156200311b57600080fd5b620031288482856200494a565b509392505050565b600081359050620031418162004ae0565b92915050565b600081359050620031588162004afa565b92915050565b600082601f8301126200317057600080fd5b813562003182848260208601620030eb565b91505092915050565b6000813590506200319c8162004b14565b92915050565b600060208284031215620031b557600080fd5b6000620031c58482850162003130565b91505092915050565b60008060408385031215620031e257600080fd5b6000620031f28582860162003130565b9250506020620032058582860162003130565b9150509250929050565b6000806000606084860312156200322557600080fd5b6000620032358682870162003130565b9350506020620032488682870162003130565b92505060406200325b868287016200318b565b9150509250925092565b600080604083850312156200327957600080fd5b6000620032898582860162003130565b925050602083013567ffffffffffffffff811115620032a757600080fd5b620032b5858286016200315e565b9150509250929050565b60008060408385031215620032d357600080fd5b6000620032e38582860162003130565b9250506020620032f6858286016200318b565b9150509250929050565b6000602082840312156200331357600080fd5b6000620033238482850162003147565b91505092915050565b6000602082840312156200333f57600080fd5b600082013567ffffffffffffffff8111156200335a57600080fd5b62003368848285016200315e565b91505092915050565b6000602082840312156200338457600080fd5b600062003394848285016200318b565b91505092915050565b620033a88162004852565b82525050565b620033b98162004866565b82525050565b6000620033cc82620046de565b620033d88185620046f4565b9350620033ea81856020860162004959565b620033f58162004acf565b840191505092915050565b60006200340d82620046de565b62003419818562004705565b93506200342b81856020860162004959565b80840191505092915050565b6200344281620048e6565b82525050565b62003453816200490e565b82525050565b620034648162004936565b82525050565b60006200347782620046e9565b62003483818562004710565b93506200349581856020860162004959565b620034a08162004acf565b840191505092915050565b6000620034ba60048362004710565b91507f446f6e65000000000000000000000000000000000000000000000000000000006000830152602082019050919050565b6000620034fc600e8362004710565b91507f517565756520697320656d7074790000000000000000000000000000000000006000830152602082019050919050565b60006200353e60238362004710565b91507f45524332303a207472616e7366657220746f20746865207a65726f206164647260008301527f65737300000000000000000000000000000000000000000000000000000000006020830152604082019050919050565b6000620035a660148362004710565b91507f5061757361626c653a206e6f74207061757365640000000000000000000000006000830152602082019050919050565b6000620035e8602a8362004710565b91507f4578636565647320636f6d6d756e69747920616e64206d61726b6574696e672060008301527f616c6c6f636174696f6e000000000000000000000000000000000000000000006020830152604082019050919050565b60006200365060228362004710565b91507f4e6f7420796f7572207475726e2c206164646564206261636b20746f2071756560008301527f75650000000000000000000000000000000000000000000000000000000000006020830152604082019050919050565b6000620036b860228362004710565b91507f45524332303a206275726e20616d6f756e7420657863656564732062616c616e60008301527f63650000000000000000000000000000000000000000000000000000000000006020830152604082019050919050565b60006200372060288362004710565b91507f45786365656473207374616b696e6720616e64206c697175696469747920616c60008301527f6c6f636174696f6e0000000000000000000000000000000000000000000000006020830152604082019050919050565b60006200378860268362004710565b91507f4f776e61626c653a206e6577206f776e657220697320746865207a65726f206160008301527f64647265737300000000000000000000000000000000000000000000000000006020830152604082019050919050565b6000620037f060228362004710565b91507f45524332303a20617070726f766520746f20746865207a65726f20616464726560008301527f73730000000000000000000000000000000000000000000000000000000000006020830152604082019050919050565b600062003858601d8362004710565b91507f45524332303a20696e73756666696369656e7420616c6c6f77616e63650000006000830152602082019050919050565b60006200389a602c8362004710565b91507f4747544b3a205465616d20546f6b656e54696d656c6f636b20616c726561647960008301527f20696e697469616c697a656400000000000000000000000000000000000000006020830152604082019050919050565b60006200390260268362004710565b91507f45524332303a207472616e7366657220616d6f756e742065786365656473206260008301527f616c616e636500000000000000000000000000000000000000000000000000006020830152604082019050919050565b60006200396a60158362004710565b91507f63616c6c6572206e6f7420617574686f72697a656400000000000000000000006000830152602082019050919050565b6000620039ac60108362004710565b91507f5061757361626c653a20706175736564000000000000000000000000000000006000830152602082019050919050565b6000620039ee60218362004710565b91507f546865207175616e7469747920657863656564656420746865206d6178696d7560008301527f6d000000000000000000000000000000000000000000000000000000000000006020830152604082019050919050565b600062003a5660068362004710565b91507f6661696c656400000000000000000000000000000000000000000000000000006000830152602082019050919050565b600062003a9860208362004710565b91507f4f776e61626c653a2063616c6c6572206973206e6f7420746865206f776e65726000830152602082019050919050565b600062003ada601f8362004710565b91507f4578636565647320726573657276652066756e6420616c6c6f636174696f6e006000830152602082019050919050565b600062003b1c60218362004710565b91507f45524332303a206275726e2066726f6d20746865207a65726f2061646472657360008301527f73000000000000000000000000000000000000000000000000000000000000006020830152604082019050919050565b600062003b8460078362004710565b91507f656e7175657565000000000000000000000000000000000000000000000000006000830152602082019050919050565b600062003bc660128362004710565b91507f4747544b3a2063617020657863656564656400000000000000000000000000006000830152602082019050919050565b600062003c0860258362004710565b91507f45524332303a207472616e736665722066726f6d20746865207a65726f20616460008301527f64726573730000000000000000000000000000000000000000000000000000006020830152604082019050919050565b600062003c7060208362004710565b91507f54696d6564206f75742c20706c656173652072652d656e7465722071756575656000830152602082019050919050565b600062003cb260248362004710565b91507f45524332303a20617070726f76652066726f6d20746865207a65726f2061646460008301527f72657373000000000000000000000000000000000000000000000000000000006020830152604082019050919050565b600062003d1a60078362004710565b91507f64657175657565000000000000000000000000000000000000000000000000006000830152602082019050919050565b600062003d5c601a8362004710565b91507f51756575652069732066756c6c2c20706c6561736520776169740000000000006000830152602082019050919050565b600062003d9e601b8362004710565b91507f416464656420746f2071756575652c20706c65617365207761697400000000006000830152602082019050919050565b600062003de0601e8362004710565b91507f4578636565647320746f6b656e2073696e6b7320616c6c6f636174696f6e00006000830152602082019050919050565b600062003e2260168362004710565b91507f546f6f206561726c792c20706c656173652077616974000000000000000000006000830152602082019050919050565b600062003e6460228362004710565b91507f4578636565647320696e2d67616d65207265776172647320616c6c6f6361746960008301527f6f6e0000000000000000000000000000000000000000000000000000000000006020830152604082019050919050565b600062003ecc60258362004710565b91507f45524332303a2064656372656173656420616c6c6f77616e63652062656c6f7760008301527f207a65726f0000000000000000000000000000000000000000000000000000006020830152604082019050919050565b600062003f34601f8362004710565b91507f45524332303a206d696e7420746f20746865207a65726f2061646472657373006000830152602082019050919050565b62003f728162004872565b82525050565b62003f8381620048ae565b82525050565b62003f9481620048b8565b82525050565b62003fa581620048c8565b82525050565b62003fb681620048d9565b82525050565b600062003fca828462003400565b915081905092915050565b600060208201905062003fec60008301846200339d565b92915050565b60006040820190506200400960008301856200339d565b62004018602083018462003f78565b9392505050565b6000602082019050620040366000830184620033ae565b92915050565b60006020820190508181036000830152620040588184620033bf565b905092915050565b600060c08201905062004077600083018962003437565b6200408660208301886200339d565b62004095604083018762003f9a565b620040a4606083018662003f9a565b620040b3608083018562003f67565b620040c260a083018462003f89565b979650505050505050565b6000602082019050620040e4600083018462003448565b92915050565b600060208201905081810360008301526200410681846200346a565b905092915050565b600060808201905081810360008301526200412981620034ab565b90506200413a60208301866200339d565b62004149604083018562003f78565b62004158606083018462003f78565b949350505050565b600060208201905081810360008301526200417b81620034ed565b9050919050565b600060208201905081810360008301526200419d816200352f565b9050919050565b60006020820190508181036000830152620041bf8162003597565b9050919050565b60006020820190508181036000830152620041e181620035d9565b9050919050565b60006020820190508181036000830152620042038162003641565b9050919050565b600060208201905081810360008301526200422581620036a9565b9050919050565b60006020820190508181036000830152620042478162003711565b9050919050565b60006020820190508181036000830152620042698162003779565b9050919050565b600060208201905081810360008301526200428b81620037e1565b9050919050565b60006020820190508181036000830152620042ad8162003849565b9050919050565b60006020820190508181036000830152620042cf816200388b565b9050919050565b60006020820190508181036000830152620042f181620038f3565b9050919050565b6000602082019050818103600083015262004313816200395b565b9050919050565b6000602082019050818103600083015262004335816200399d565b9050919050565b600060208201905081810360008301526200435781620039df565b9050919050565b60006020820190508181036000830152620043798162003a47565b9050919050565b600060208201905081810360008301526200439b8162003a89565b9050919050565b60006020820190508181036000830152620043bd8162003acb565b9050919050565b60006020820190508181036000830152620043df8162003b0d565b9050919050565b60006080820190508181036000830152620044018162003b75565b90506200441260208301866200339d565b62004421604083018562003f78565b62004430606083018462003f78565b949350505050565b60006020820190508181036000830152620044538162003bb7565b9050919050565b60006020820190508181036000830152620044758162003bf9565b9050919050565b60006020820190508181036000830152620044978162003c61565b9050919050565b60006020820190508181036000830152620044b98162003ca3565b9050919050565b60006080820190508181036000830152620044db8162003d0b565b9050620044ec60208301866200339d565b620044fb604083018562003f78565b6200450a606083018462003459565b949350505050565b600060208201905081810360008301526200452d8162003d4d565b9050919050565b600060208201905081810360008301526200454f8162003d8f565b9050919050565b60006020820190508181036000830152620045718162003dd1565b9050919050565b60006020820190508181036000830152620045938162003e13565b9050919050565b60006020820190508181036000830152620045b58162003e55565b9050919050565b60006020820190508181036000830152620045d78162003ebd565b9050919050565b60006020820190508181036000830152620045f98162003f25565b9050919050565b600060208201905062004617600083018462003f78565b92915050565b600060608201905062004634600083018662003f78565b62004643602083018562003f78565b62004652604083018462003f78565b949350505050565b600060208201905062004671600083018462003fab565b92915050565b6000604051905081810181811067ffffffffffffffff82111715620046a157620046a062004aa0565b5b8060405250919050565b600067ffffffffffffffff821115620046c957620046c862004aa0565b5b601f19601f8301169050602081019050919050565b600081519050919050565b600081519050919050565b600082825260208201905092915050565b600081905092915050565b600082825260208201905092915050565b60006200472e82620048ae565b91506200473b83620048ae565b9250827fffffffffffffffffffffffffffffffffffffffffffffffffffffffffffffffff0382111562004773576200477262004a13565b5b828201905092915050565b60006200478b82620048ae565b91506200479883620048ae565b925082620047ab57620047aa62004a42565b5b828204905092915050565b6000620047c382620048ae565b9150620047d083620048ae565b9250817fffffffffffffffffffffffffffffffffffffffffffffffffffffffffffffffff04831182151516156200480c576200480b62004a13565b5b828202905092915050565b60006200482482620048ae565b91506200483183620048ae565b92508282101562004847576200484662004a13565b5b828203905092915050565b60006200485f826200488e565b9050919050565b60008115159050919050565b60006fffffffffffffffffffffffffffffffff82169050919050565b600073ffffffffffffffffffffffffffffffffffffffff82169050919050565b6000819050919050565b600063ffffffff82169050919050565b600064ffffffffff82169050919050565b600060ff82169050919050565b6000620048f382620048fa565b9050919050565b600062004907826200488e565b9050919050565b60006200491b8262004922565b9050919050565b60006200492f826200488e565b9050919050565b60006200494382620048ae565b9050919050565b82818337600083830152505050565b60005b83811015620049795780820151818401526020810190506200495c565b8381111562004989576000848401525b50505050565b60006002820490506001821680620049a857607f821691505b60208210811415620049bf57620049be62004a71565b5b50919050565b6000620049d282620048ae565b91507fffffffffffffffffffffffffffffffffffffffffffffffffffffffffffffffff82141562004a085762004a0762004a13565b5b600182019050919050565b7f4e487b7100000000000000000000000000000000000000000000000000000000600052601160045260246000fd5b7f4e487b7100000000000000000000000000000000000000000000000000000000600052601260045260246000fd5b7f4e487b7100000000000000000000000000000000000000000000000000000000600052602260045260246000fd5b7f4e487b7100000000000000000000000000000000000000000000000000000000600052604160045260246000fd5b6000601f19601f8301169050919050565b62004aeb8162004852565b811462004af757600080fd5b50565b62004b058162004866565b811462004b1157600080fd5b50565b62004b1f81620048ae565b811462004b2b57600080fd5b5056fe61010060405260006001556004600260006101000a81548163ffffffff021916908363ffffffff1602179055503480156200003957600080fd5b5060405162001f5b38038062001f5b83398181016040528101906200005f91906200037e565b6200007f620000736200023f60201b60201c565b6200024760201b60201c565b428464ffffffffff1611620000cb576040517f08c379a0000000000000000000000000000000000000000000000000000000008152600401620000c2906200052c565b60405180910390fd5b8364ffffffffff168364ffffffffff16116200011e576040517f08c379a000000000000000000000000000000000000000000000000000000000815260040162000115906200050a565b60405180910390fd5b8573ffffffffffffffffffffffffffffffffffffffff1660808173ffffffffffffffffffffffffffffffffffffffff1660601b815250508473ffffffffffffffffffffffffffffffffffffffff1660a08173ffffffffffffffffffffffffffffffffffffffff1660601b815250508364ffffffffff1660c081815250508264ffffffffff1660e0818152505080600260006101000a81548163ffffffff021916908363ffffffff1602179055506000428564ffffffffff16620001e2919062000655565b90506000610e108363ffffffff1683620001fd9190620005f4565b620002099190620005bc565b905080846fffffffffffffffffffffffffffffffff166200022b91906200055f565b6003819055505050505050505050620007ff565b600033905090565b60008060009054906101000a900473ffffffffffffffffffffffffffffffffffffffff169050816000806101000a81548173ffffffffffffffffffffffffffffffffffffffff021916908373ffffffffffffffffffffffffffffffffffffffff1602179055508173ffffffffffffffffffffffffffffffffffffffff168173ffffffffffffffffffffffffffffffffffffffff167f8be0079c531659141344cd1fd0a4f28419497f9722a3daafe3b4186f6b6457e060405160405180910390a35050565b6000815190506200031c816200077d565b92915050565b600081519050620003338162000797565b92915050565b6000815190506200034a81620007b1565b92915050565b6000815190506200036181620007cb565b92915050565b6000815190506200037881620007e5565b92915050565b60008060008060008060c087890312156200039857600080fd5b6000620003a889828a0162000322565b9650506020620003bb89828a016200030b565b9550506040620003ce89828a0162000367565b9450506060620003e189828a0162000367565b9350506080620003f489828a0162000339565b92505060a06200040789828a0162000350565b9150509295509295509295565b6000620004236047836200054e565b91507f546f6b656e54696d656c6f636b3a2074686520636f6d706c6574696f6e20746960008301527f6d65206d757374206265206c6f6e676572207468616e207468652072656c656160208301527f73652074696d65000000000000000000000000000000000000000000000000006040830152606082019050919050565b6000620004b16032836200054e565b91507f546f6b656e54696d656c6f636b3a2072656c656173652074696d65206973206260008301527f65666f72652063757272656e742074696d6500000000000000000000000000006020830152604082019050919050565b60006020820190508181036000830152620005258162000414565b9050919050565b600060208201905081810360008301526200054781620004a2565b9050919050565b600082825260208201905092915050565b60006200056c82620006f4565b91506200057983620006f4565b9250827fffffffffffffffffffffffffffffffffffffffffffffffffffffffffffffffff03821115620005b157620005b06200071f565b5b828201905092915050565b6000620005c982620006f4565b9150620005d683620006f4565b925082620005e957620005e86200074e565b5b828204905092915050565b60006200060182620006f4565b91506200060e83620006f4565b9250817fffffffffffffffffffffffffffffffffffffffffffffffffffffffffffffffff04831182151516156200064a57620006496200071f565b5b828202905092915050565b60006200066282620006f4565b91506200066f83620006f4565b9250828210156200068557620006846200071f565b5b828203905092915050565b60006200069d82620006d4565b9050919050565b6000620006b18262000690565b9050919050565b60006fffffffffffffffffffffffffffffffff82169050919050565b600073ffffffffffffffffffffffffffffffffffffffff82169050919050565b6000819050919050565b600063ffffffff82169050919050565b600064ffffffffff82169050919050565b7f4e487b7100000000000000000000000000000000000000000000000000000000600052601160045260246000fd5b7f4e487b7100000000000000000000000000000000000000000000000000000000600052601260045260246000fd5b620007888162000690565b81146200079457600080fd5b50565b620007a281620006a4565b8114620007ae57600080fd5b50565b620007bc81620006b8565b8114620007c857600080fd5b50565b620007d681620006fe565b8114620007e257600080fd5b50565b620007f0816200070e565b8114620007fc57600080fd5b50565b60805160601c60a05160601c60c05160e0516116e46200087760003960008181610293015281816102e9015281816105da01526106b30152600081816102c80152818161031b01526105b40152600081816101fa01526104de01526000818161036801528181610500015261076301526116e46000f3fe608060405234801561001057600080fd5b50600436106100a95760003560e01c80638da5cb5b116100715780638da5cb5b1461011c578063b91d40011461013a578063d483d05114610158578063d65316c014610176578063f2fde38b146101a6578063fc0c546a146101c2576100a9565b8063094ac207146100ae57806338af3eed146100cc57806345d30a17146100ea578063715018a61461010857806386d1a69f14610112575b600080fd5b6100b66101e0565b6040516100c3919061134a565b60405180910390f35b6100d46101f6565b6040516100e19190611177565b60405180910390f35b6100f261021e565b6040516100ff91906112f8565b60405180910390f35b610110610224565b005b61011a610238565b005b610124610587565b6040516101319190611177565b60405180910390f35b6101426105b0565b60405161014f91906112f8565b60405180910390f35b6101606105d8565b60405161016d91906112f8565b60405180910390f35b610190600480360381019061018b9190610d30565b6105fc565b60405161019d91906112f8565b60405180910390f35b6101c060048036038101906101bb9190610d07565b6106db565b005b6101ca61075f565b6040516101d791906111bb565b60405180910390f35b600260009054906101000a900463ffffffff1681565b60007f0000000000000000000000000000000000000000000000000000000000000000905090565b60015481565b61022c610787565b6102366000610805565b565b6102406105b0565b4210158061025057506003544310155b61028f576040517f08c379a000000000000000000000000000000000000000000000000000000000815260040161028690611238565b60405180910390fd5b60007f000000000000000000000000000000000000000000000000000000000000000042106102c357620f42409050610364565b6103617f00000000000000000000000000000000000000000000000000000000000000007f000000000000000000000000000000000000000000000000000000000000000061031291906114d9565b610353620f42407f00000000000000000000000000000000000000000000000000000000000000004261034591906114d9565b6108c990919063ffffffff16565b6108df90919063ffffffff16565b90505b60007f000000000000000000000000000000000000000000000000000000000000000073ffffffffffffffffffffffffffffffffffffffff166370a08231306040518263ffffffff1660e01b81526004016103bf9190611177565b60206040518083038186803b1580156103d757600080fd5b505afa1580156103eb573d6000803e3d6000fd5b505050506040513d601f19601f8201168201806040525081019061040f9190610dad565b9050600061044f620f4240610441610432600154866108f590919063ffffffff16565b866108c990919063ffffffff16565b6108df90919063ffffffff16565b905060006001548211610463576000610479565b6104786001548361090b90919063ffffffff16565b5b9050600081116104be576040517f08c379a00000000000000000000000000000000000000000000000000000000081526004016104b5906112d8565b60405180910390fd5b6104d3816001546108f590919063ffffffff16565b6001819055506105447f0000000000000000000000000000000000000000000000000000000000000000827f000000000000000000000000000000000000000000000000000000000000000073ffffffffffffffffffffffffffffffffffffffff166109219092919063ffffffff16565b7fea91ec69d9ab5a214205bad93781970df8c1f8fa5321a97b10a6cbbe99c29d9c828260015460405161057993929190611313565b60405180910390a150505050565b60008060009054906101000a900473ffffffffffffffffffffffffffffffffffffffff16905090565b60007f0000000000000000000000000000000000000000000000000000000000000000905090565b7f000000000000000000000000000000000000000000000000000000000000000081565b6000610606610787565b60008373ffffffffffffffffffffffffffffffffffffffff168360405161062d9190611160565b600060405180830381855af49150503d8060008114610668576040519150601f19603f3d011682016040523d82523d6000602084013e61066d565b606091505b50509050806106b1576040517f08c379a00000000000000000000000000000000000000000000000000000000081526004016106a890611258565b60405180910390fd5b7f000000000000000000000000000000000000000000000000000000000000000091505092915050565b6106e3610787565b600073ffffffffffffffffffffffffffffffffffffffff168173ffffffffffffffffffffffffffffffffffffffff161415610753576040517f08c379a000000000000000000000000000000000000000000000000000000000815260040161074a906111f8565b60405180910390fd5b61075c81610805565b50565b60007f0000000000000000000000000000000000000000000000000000000000000000905090565b61078f6109a7565b73ffffffffffffffffffffffffffffffffffffffff166107ad610587565b73ffffffffffffffffffffffffffffffffffffffff1614610803576040517f08c379a00000000000000000000000000000000000000000000000000000000081526004016107fa90611278565b60405180910390fd5b565b60008060009054906101000a900473ffffffffffffffffffffffffffffffffffffffff169050816000806101000a81548173ffffffffffffffffffffffffffffffffffffffff021916908373ffffffffffffffffffffffffffffffffffffffff1602179055508173ffffffffffffffffffffffffffffffffffffffff168173ffffffffffffffffffffffffffffffffffffffff167f8be0079c531659141344cd1fd0a4f28419497f9722a3daafe3b4186f6b6457e060405160405180910390a35050565b600081836108d7919061147f565b905092915050565b600081836108ed919061144e565b905092915050565b6000818361090391906113f8565b905092915050565b6000818361091991906114d9565b905092915050565b6109a28363a9059cbb60e01b8484604051602401610940929190611192565b604051602081830303815290604052907bffffffffffffffffffffffffffffffffffffffffffffffffffffffff19166020820180517bffffffffffffffffffffffffffffffffffffffffffffffffffffffff83818316178352505050506109af565b505050565b600033905090565b6000610a11826040518060400160405280602081526020017f5361666545524332303a206c6f772d6c6576656c2063616c6c206661696c65648152508573ffffffffffffffffffffffffffffffffffffffff16610a769092919063ffffffff16565b9050600081511115610a715780806020019051810190610a319190610d84565b610a70576040517f08c379a0000000000000000000000000000000000000000000000000000000008152600401610a67906112b8565b60405180910390fd5b5b505050565b6060610a858484600085610a8e565b90509392505050565b606082471015610ad3576040517f08c379a0000000000000000000000000000000000000000000000000000000008152600401610aca90611218565b60405180910390fd5b6000808673ffffffffffffffffffffffffffffffffffffffff168587604051610afc9190611160565b60006040518083038185875af1925050503d8060008114610b39576040519150601f19603f3d011682016040523d82523d6000602084013e610b3e565b606091505b5091509150610b4f87838387610b5b565b92505050949350505050565b60608315610bbe57600083511415610bb657610b7685610bd1565b610bb5576040517f08c379a0000000000000000000000000000000000000000000000000000000008152600401610bac90611298565b60405180910390fd5b5b829050610bc9565b610bc88383610c10565b5b949350505050565b6000808273ffffffffffffffffffffffffffffffffffffffff16803b806020016040519081016040528181526000908060200190933c51119050919050565b600082511115610c235781518083602001fd5b806040517f08c379a0000000000000000000000000000000000000000000000000000000008152600401610c5791906111d6565b60405180910390fd5b6000610c73610c6e84611396565b611365565b905082815260208101848484011115610c8b57600080fd5b610c96848285611589565b509392505050565b600081359050610cad81611669565b92915050565b600081519050610cc281611680565b92915050565b600082601f830112610cd957600080fd5b8135610ce9848260208601610c60565b91505092915050565b600081519050610d0181611697565b92915050565b600060208284031215610d1957600080fd5b6000610d2784828501610c9e565b91505092915050565b60008060408385031215610d4357600080fd5b6000610d5185828601610c9e565b925050602083013567ffffffffffffffff811115610d6e57600080fd5b610d7a85828601610cc8565b9150509250929050565b600060208284031215610d9657600080fd5b6000610da484828501610cb3565b91505092915050565b600060208284031215610dbf57600080fd5b6000610dcd84828501610cf2565b91505092915050565b610ddf8161150d565b82525050565b6000610df0826113c6565b610dfa81856113dc565b9350610e0a818560208601611598565b80840191505092915050565b610e1f81611565565b82525050565b6000610e30826113d1565b610e3a81856113e7565b9350610e4a818560208601611598565b610e5381611658565b840191505092915050565b6000610e6b6026836113e7565b91507f4f776e61626c653a206e6577206f776e657220697320746865207a65726f206160008301527f64647265737300000000000000000000000000000000000000000000000000006020830152604082019050919050565b6000610ed16026836113e7565b91507f416464726573733a20696e73756666696369656e742062616c616e636520666f60008301527f722063616c6c00000000000000000000000000000000000000000000000000006020830152604082019050919050565b6000610f376048836113e7565b91507f546f6b656e54696d656c6f636b3a2063757272656e742074696d65206f72206260008301527f6c6f636b206e756d626572206973206265666f72652072656c6561736520636f60208301527f6e646974696f6e730000000000000000000000000000000000000000000000006040830152606082019050919050565b6000610fc36006836113e7565b91507f6661696c656400000000000000000000000000000000000000000000000000006000830152602082019050919050565b60006110036020836113e7565b91507f4f776e61626c653a2063616c6c6572206973206e6f7420746865206f776e65726000830152602082019050919050565b6000611043601d836113e7565b91507f416464726573733a2063616c6c20746f206e6f6e2d636f6e74726163740000006000830152602082019050919050565b6000611083602a836113e7565b91507f5361666545524332303a204552433230206f7065726174696f6e20646964206e60008301527f6f742073756363656564000000000000000000000000000000000000000000006020830152604082019050919050565b60006110e96023836113e7565b91507f546f6b656e54696d656c6f636b3a206e6f20746f6b656e7320746f2072656c6560008301527f61736500000000000000000000000000000000000000000000000000000000006020830152604082019050919050565b61114b8161154b565b82525050565b61115a81611555565b82525050565b600061116c8284610de5565b915081905092915050565b600060208201905061118c6000830184610dd6565b92915050565b60006040820190506111a76000830185610dd6565b6111b46020830184611142565b9392505050565b60006020820190506111d06000830184610e16565b92915050565b600060208201905081810360008301526111f08184610e25565b905092915050565b6000602082019050818103600083015261121181610e5e565b9050919050565b6000602082019050818103600083015261123181610ec4565b9050919050565b6000602082019050818103600083015261125181610f2a565b9050919050565b6000602082019050818103600083015261127181610fb6565b9050919050565b6000602082019050818103600083015261129181610ff6565b9050919050565b600060208201905081810360008301526112b181611036565b9050919050565b600060208201905081810360008301526112d181611076565b9050919050565b600060208201905081810360008301526112f1816110dc565b9050919050565b600060208201905061130d6000830184611142565b92915050565b60006060820190506113286000830186611142565b6113356020830185611142565b6113426040830184611142565b949350505050565b600060208201905061135f6000830184611151565b92915050565b6000604051905081810181811067ffffffffffffffff8211171561138c5761138b611629565b5b8060405250919050565b600067ffffffffffffffff8211156113b1576113b0611629565b5b601f19601f8301169050602081019050919050565b600081519050919050565b600081519050919050565b600081905092915050565b600082825260208201905092915050565b60006114038261154b565b915061140e8361154b565b9250827fffffffffffffffffffffffffffffffffffffffffffffffffffffffffffffffff03821115611443576114426115cb565b5b828201905092915050565b60006114598261154b565b91506114648361154b565b925082611474576114736115fa565b5b828204905092915050565b600061148a8261154b565b91506114958361154b565b9250817fffffffffffffffffffffffffffffffffffffffffffffffffffffffffffffffff04831182151516156114ce576114cd6115cb565b5b828202905092915050565b60006114e48261154b565b91506114ef8361154b565b925082821015611502576115016115cb565b5b828203905092915050565b60006115188261152b565b9050919050565b60008115159050919050565b600073ffffffffffffffffffffffffffffffffffffffff82169050919050565b6000819050919050565b600063ffffffff82169050919050565b600061157082611577565b9050919050565b60006115828261152b565b9050919050565b82818337600083830152505050565b60005b838110156115b657808201518184015260208101905061159b565b838111156115c5576000848401525b50505050565b7f4e487b7100000000000000000000000000000000000000000000000000000000600052601160045260246000fd5b7f4e487b7100000000000000000000000000000000000000000000000000000000600052601260045260246000fd5b7f4e487b7100000000000000000000000000000000000000000000000000000000600052604160045260246000fd5b6000601f19601f8301169050919050565b6116728161150d565b811461167d57600080fd5b50565b6116898161151f565b811461169457600080fd5b50565b6116a08161154b565b81146116ab57600080fd5b5056fea264697066735822122056b325b40b76637ab2ecb5b16ad1dc3dabdcb32ee75def6e12aefcaadbab594a64736f6c63430008000033a264697066735822122039c06a705f9705acb707f32d7642f08d8f1db17d4bd58cd1e1edf1fcc466416c64736f6c6343000800003361010060405260006001556004600260006101000a81548163ffffffff021916908363ffffffff1602179055503480156200003957600080fd5b5060405162001f5b38038062001f5b83398181016040528101906200005f91906200037e565b6200007f620000736200023f60201b60201c565b6200024760201b60201c565b428464ffffffffff1611620000cb576040517f08c379a0000000000000000000000000000000000000000000000000000000008152600401620000c2906200052c565b60405180910390fd5b8364ffffffffff168364ffffffffff16116200011e576040517f08c379a000000000000000000000000000000000000000000000000000000000815260040162000115906200050a565b60405180910390fd5b8573ffffffffffffffffffffffffffffffffffffffff1660808173ffffffffffffffffffffffffffffffffffffffff1660601b815250508473ffffffffffffffffffffffffffffffffffffffff1660a08173ffffffffffffffffffffffffffffffffffffffff1660601b815250508364ffffffffff1660c081815250508264ffffffffff1660e0818152505080600260006101000a81548163ffffffff021916908363ffffffff1602179055506000428564ffffffffff16620001e2919062000655565b90506000610e108363ffffffff1683620001fd9190620005f4565b620002099190620005bc565b905080846fffffffffffffffffffffffffffffffff166200022b91906200055f565b6003819055505050505050505050620007ff565b600033905090565b60008060009054906101000a900473ffffffffffffffffffffffffffffffffffffffff169050816000806101000a81548173ffffffffffffffffffffffffffffffffffffffff021916908373ffffffffffffffffffffffffffffffffffffffff1602179055508173ffffffffffffffffffffffffffffffffffffffff168173ffffffffffffffffffffffffffffffffffffffff167f8be0079c531659141344cd1fd0a4f28419497f9722a3daafe3b4186f6b6457e060405160405180910390a35050565b6000815190506200031c816200077d565b92915050565b600081519050620003338162000797565b92915050565b6000815190506200034a81620007b1565b92915050565b6000815190506200036181620007cb565b92915050565b6000815190506200037881620007e5565b92915050565b60008060008060008060c087890312156200039857600080fd5b6000620003a889828a0162000322565b9650506020620003bb89828a016200030b565b9550506040620003ce89828a0162000367565b9450506060620003e189828a0162000367565b9350506080620003f489828a0162000339565b92505060a06200040789828a0162000350565b9150509295509295509295565b6000620004236047836200054e565b91507f546f6b656e54696d656c6f636b3a2074686520636f6d706c6574696f6e20746960008301527f6d65206d757374206265206c6f6e676572207468616e207468652072656c656160208301527f73652074696d65000000000000000000000000000000000000000000000000006040830152606082019050919050565b6000620004b16032836200054e565b91507f546f6b656e54696d656c6f636b3a2072656c656173652074696d65206973206260008301527f65666f72652063757272656e742074696d6500000000000000000000000000006020830152604082019050919050565b60006020820190508181036000830152620005258162000414565b9050919050565b600060208201905081810360008301526200054781620004a2565b9050919050565b600082825260208201905092915050565b60006200056c82620006f4565b91506200057983620006f4565b9250827fffffffffffffffffffffffffffffffffffffffffffffffffffffffffffffffff03821115620005b157620005b06200071f565b5b828201905092915050565b6000620005c982620006f4565b9150620005d683620006f4565b925082620005e957620005e86200074e565b5b828204905092915050565b60006200060182620006f4565b91506200060e83620006f4565b9250817fffffffffffffffffffffffffffffffffffffffffffffffffffffffffffffffff04831182151516156200064a57620006496200071f565b5b828202905092915050565b60006200066282620006f4565b91506200066f83620006f4565b9250828210156200068557620006846200071f565b5b828203905092915050565b60006200069d82620006d4565b9050919050565b6000620006b18262000690565b9050919050565b60006fffffffffffffffffffffffffffffffff82169050919050565b600073ffffffffffffffffffffffffffffffffffffffff82169050919050565b6000819050919050565b600063ffffffff82169050919050565b600064ffffffffff82169050919050565b7f4e487b7100000000000000000000000000000000000000000000000000000000600052601160045260246000fd5b7f4e487b7100000000000000000000000000000000000000000000000000000000600052601260045260246000fd5b620007888162000690565b81146200079457600080fd5b50565b620007a281620006a4565b8114620007ae57600080fd5b50565b620007bc81620006b8565b8114620007c857600080fd5b50565b620007d681620006fe565b8114620007e257600080fd5b50565b620007f0816200070e565b8114620007fc57600080fd5b50565b60805160601c60a05160601c60c05160e0516116e46200087760003960008181610293015281816102e9015281816105da01526106b30152600081816102c80152818161031b01526105b40152600081816101fa01526104de01526000818161036801528181610500015261076301526116e46000f3fe608060405234801561001057600080fd5b50600436106100a95760003560e01c80638da5cb5b116100715780638da5cb5b1461011c578063b91d40011461013a578063d483d05114610158578063d65316c014610176578063f2fde38b146101a6578063fc0c546a146101c2576100a9565b8063094ac207146100ae57806338af3eed146100cc57806345d30a17146100ea578063715018a61461010857806386d1a69f14610112575b600080fd5b6100b66101e0565b6040516100c3919061134a565b60405180910390f35b6100d46101f6565b6040516100e19190611177565b60405180910390f35b6100f261021e565b6040516100ff91906112f8565b60405180910390f35b610110610224565b005b61011a610238565b005b610124610587565b6040516101319190611177565b60405180910390f35b6101426105b0565b60405161014f91906112f8565b60405180910390f35b6101606105d8565b60405161016d91906112f8565b60405180910390f35b610190600480360381019061018b9190610d30565b6105fc565b60405161019d91906112f8565b60405180910390f35b6101c060048036038101906101bb9190610d07565b6106db565b005b6101ca61075f565b6040516101d791906111bb565b60405180910390f35b600260009054906101000a900463ffffffff1681565b60007f0000000000000000000000000000000000000000000000000000000000000000905090565b60015481565b61022c610787565b6102366000610805565b565b6102406105b0565b4210158061025057506003544310155b61028f576040517f08c379a000000000000000000000000000000000000000000000000000000000815260040161028690611238565b60405180910390fd5b60007f000000000000000000000000000000000000000000000000000000000000000042106102c357620f42409050610364565b6103617f00000000000000000000000000000000000000000000000000000000000000007f000000000000000000000000000000000000000000000000000000000000000061031291906114d9565b610353620f42407f00000000000000000000000000000000000000000000000000000000000000004261034591906114d9565b6108c990919063ffffffff16565b6108df90919063ffffffff16565b90505b60007f000000000000000000000000000000000000000000000000000000000000000073ffffffffffffffffffffffffffffffffffffffff166370a08231306040518263ffffffff1660e01b81526004016103bf9190611177565b60206040518083038186803b1580156103d757600080fd5b505afa1580156103eb573d6000803e3d6000fd5b505050506040513d601f19601f8201168201806040525081019061040f9190610dad565b9050600061044f620f4240610441610432600154866108f590919063ffffffff16565b866108c990919063ffffffff16565b6108df90919063ffffffff16565b905060006001548211610463576000610479565b6104786001548361090b90919063ffffffff16565b5b9050600081116104be576040517f08c379a00000000000000000000000000000000000000000000000000000000081526004016104b5906112d8565b60405180910390fd5b6104d3816001546108f590919063ffffffff16565b6001819055506105447f0000000000000000000000000000000000000000000000000000000000000000827f000000000000000000000000000000000000000000000000000000000000000073ffffffffffffffffffffffffffffffffffffffff166109219092919063ffffffff16565b7fea91ec69d9ab5a214205bad93781970df8c1f8fa5321a97b10a6cbbe99c29d9c828260015460405161057993929190611313565b60405180910390a150505050565b60008060009054906101000a900473ffffffffffffffffffffffffffffffffffffffff16905090565b60007f0000000000000000000000000000000000000000000000000000000000000000905090565b7f000000000000000000000000000000000000000000000000000000000000000081565b6000610606610787565b60008373ffffffffffffffffffffffffffffffffffffffff168360405161062d9190611160565b600060405180830381855af49150503d8060008114610668576040519150601f19603f3d011682016040523d82523d6000602084013e61066d565b606091505b50509050806106b1576040517f08c379a00000000000000000000000000000000000000000000000000000000081526004016106a890611258565b60405180910390fd5b7f000000000000000000000000000000000000000000000000000000000000000091505092915050565b6106e3610787565b600073ffffffffffffffffffffffffffffffffffffffff168173ffffffffffffffffffffffffffffffffffffffff161415610753576040517f08c379a000000000000000000000000000000000000000000000000000000000815260040161074a906111f8565b60405180910390fd5b61075c81610805565b50565b60007f0000000000000000000000000000000000000000000000000000000000000000905090565b61078f6109a7565b73ffffffffffffffffffffffffffffffffffffffff166107ad610587565b73ffffffffffffffffffffffffffffffffffffffff1614610803576040517f08c379a00000000000000000000000000000000000000000000000000000000081526004016107fa90611278565b60405180910390fd5b565b60008060009054906101000a900473ffffffffffffffffffffffffffffffffffffffff169050816000806101000a81548173ffffffffffffffffffffffffffffffffffffffff021916908373ffffffffffffffffffffffffffffffffffffffff1602179055508173ffffffffffffffffffffffffffffffffffffffff168173ffffffffffffffffffffffffffffffffffffffff167f8be0079c531659141344cd1fd0a4f28419497f9722a3daafe3b4186f6b6457e060405160405180910390a35050565b600081836108d7919061147f565b905092915050565b600081836108ed919061144e565b905092915050565b6000818361090391906113f8565b905092915050565b6000818361091991906114d9565b905092915050565b6109a28363a9059cbb60e01b8484604051602401610940929190611192565b604051602081830303815290604052907bffffffffffffffffffffffffffffffffffffffffffffffffffffffff19166020820180517bffffffffffffffffffffffffffffffffffffffffffffffffffffffff83818316178352505050506109af565b505050565b600033905090565b6000610a11826040518060400160405280602081526020017f5361666545524332303a206c6f772d6c6576656c2063616c6c206661696c65648152508573ffffffffffffffffffffffffffffffffffffffff16610a769092919063ffffffff16565b9050600081511115610a715780806020019051810190610a319190610d84565b610a70576040517f08c379a0000000000000000000000000000000000000000000000000000000008152600401610a67906112b8565b60405180910390fd5b5b505050565b6060610a858484600085610a8e565b90509392505050565b606082471015610ad3576040517f08c379a0000000000000000000000000000000000000000000000000000000008152600401610aca90611218565b60405180910390fd5b6000808673ffffffffffffffffffffffffffffffffffffffff168587604051610afc9190611160565b60006040518083038185875af1925050503d8060008114610b39576040519150601f19603f3d011682016040523d82523d6000602084013e610b3e565b606091505b5091509150610b4f87838387610b5b565b92505050949350505050565b60608315610bbe57600083511415610bb657610b7685610bd1565b610bb5576040517f08c379a0000000000000000000000000000000000000000000000000000000008152600401610bac90611298565b60405180910390fd5b5b829050610bc9565b610bc88383610c10565b5b949350505050565b6000808273ffffffffffffffffffffffffffffffffffffffff16803b806020016040519081016040528181526000908060200190933c51119050919050565b600082511115610c235781518083602001fd5b806040517f08c379a0000000000000000000000000000000000000000000000000000000008152600401610c5791906111d6565b60405180910390fd5b6000610c73610c6e84611396565b611365565b905082815260208101848484011115610c8b57600080fd5b610c96848285611589565b509392505050565b600081359050610cad81611669565b92915050565b600081519050610cc281611680565b92915050565b600082601f830112610cd957600080fd5b8135610ce9848260208601610c60565b91505092915050565b600081519050610d0181611697565b92915050565b600060208284031215610d1957600080fd5b6000610d2784828501610c9e565b91505092915050565b60008060408385031215610d4357600080fd5b6000610d5185828601610c9e565b925050602083013567ffffffffffffffff811115610d6e57600080fd5b610d7a85828601610cc8565b9150509250929050565b600060208284031215610d9657600080fd5b6000610da484828501610cb3565b91505092915050565b600060208284031215610dbf57600080fd5b6000610dcd84828501610cf2565b91505092915050565b610ddf8161150d565b82525050565b6000610df0826113c6565b610dfa81856113dc565b9350610e0a818560208601611598565b80840191505092915050565b610e1f81611565565b82525050565b6000610e30826113d1565b610e3a81856113e7565b9350610e4a818560208601611598565b610e5381611658565b840191505092915050565b6000610e6b6026836113e7565b91507f4f776e61626c653a206e6577206f776e657220697320746865207a65726f206160008301527f64647265737300000000000000000000000000000000000000000000000000006020830152604082019050919050565b6000610ed16026836113e7565b91507f416464726573733a20696e73756666696369656e742062616c616e636520666f60008301527f722063616c6c00000000000000000000000000000000000000000000000000006020830152604082019050919050565b6000610f376048836113e7565b91507f546f6b656e54696d656c6f636b3a2063757272656e742074696d65206f72206260008301527f6c6f636b206e756d626572206973206265666f72652072656c6561736520636f60208301527f6e646974696f6e730000000000000000000000000000000000000000000000006040830152606082019050919050565b6000610fc36006836113e7565b91507f6661696c656400000000000000000000000000000000000000000000000000006000830152602082019050919050565b60006110036020836113e7565b91507f4f776e61626c653a2063616c6c6572206973206e6f7420746865206f776e65726000830152602082019050919050565b6000611043601d836113e7565b91507f416464726573733a2063616c6c20746f206e6f6e2d636f6e74726163740000006000830152602082019050919050565b6000611083602a836113e7565b91507f5361666545524332303a204552433230206f7065726174696f6e20646964206e60008301527f6f742073756363656564000000000000000000000000000000000000000000006020830152604082019050919050565b60006110e96023836113e7565b91507f546f6b656e54696d656c6f636b3a206e6f20746f6b656e7320746f2072656c6560008301527f61736500000000000000000000000000000000000000000000000000000000006020830152604082019050919050565b61114b8161154b565b82525050565b61115a81611555565b82525050565b600061116c8284610de5565b915081905092915050565b600060208201905061118c6000830184610dd6565b92915050565b60006040820190506111a76000830185610dd6565b6111b46020830184611142565b9392505050565b60006020820190506111d06000830184610e16565b92915050565b600060208201905081810360008301526111f08184610e25565b905092915050565b6000602082019050818103600083015261121181610e5e565b9050919050565b6000602082019050818103600083015261123181610ec4565b9050919050565b6000602082019050818103600083015261125181610f2a565b9050919050565b6000602082019050818103600083015261127181610fb6565b9050919050565b6000602082019050818103600083015261129181610ff6565b9050919050565b600060208201905081810360008301526112b181611036565b9050919050565b600060208201905081810360008301526112d181611076565b9050919050565b600060208201905081810360008301526112f1816110dc565b9050919050565b600060208201905061130d6000830184611142565b92915050565b60006060820190506113286000830186611142565b6113356020830185611142565b6113426040830184611142565b949350505050565b600060208201905061135f6000830184611151565b92915050565b6000604051905081810181811067ffffffffffffffff8211171561138c5761138b611629565b5b8060405250919050565b600067ffffffffffffffff8211156113b1576113b0611629565b5b601f19601f8301169050602081019050919050565b600081519050919050565b600081519050919050565b600081905092915050565b600082825260208201905092915050565b60006114038261154b565b915061140e8361154b565b9250827fffffffffffffffffffffffffffffffffffffffffffffffffffffffffffffffff03821115611443576114426115cb565b5b828201905092915050565b60006114598261154b565b91506114648361154b565b925082611474576114736115fa565b5b828204905092915050565b600061148a8261154b565b91506114958361154b565b9250817fffffffffffffffffffffffffffffffffffffffffffffffffffffffffffffffff04831182151516156114ce576114cd6115cb565b5b828202905092915050565b60006114e48261154b565b91506114ef8361154b565b925082821015611502576115016115cb565b5b828203905092915050565b60006115188261152b565b9050919050565b60008115159050919050565b600073ffffffffffffffffffffffffffffffffffffffff82169050919050565b6000819050919050565b600063ffffffff82169050919050565b600061157082611577565b9050919050565b60006115828261152b565b9050919050565b82818337600083830152505050565b60005b838110156115b657808201518184015260208101905061159b565b838111156115c5576000848401525b50505050565b7f4e487b7100000000000000000000000000000000000000000000000000000000600052601160045260246000fd5b7f4e487b7100000000000000000000000000000000000000000000000000000000600052601260045260246000fd5b7f4e487b7100000000000000000000000000000000000000000000000000000000600052604160045260246000fd5b6000601f19601f8301169050919050565b6116728161150d565b811461167d57600080fd5b50565b6116898161151f565b811461169457600080fd5b50565b6116a08161154b565b81146116ab57600080fd5b5056fea264697066735822122056b325b40b76637ab2ecb5b16ad1dc3dabdcb32ee75def6e12aefcaadbab594a64736f6c63430008000033",
  "linkReferences": {},
  "deployedLinkReferences": {}
}