{
  "_format": "hh-sol-artifact-1",
  "contractName": "TokenTimelock",
  "sourceName": "contracts/TokenTimelock.sol",
  "abi": [
    {
      "inputs": [
        {
          "internalType": "contract IERC20",
          "name": "token_",
          "type": "address"
        },
        {
          "internalType": "address",
          "name": "beneficiary_",
          "type": "address"
        },
        {
          "internalType": "uint40",
          "name": "releaseTime_",
          "type": "uint40"
        },
        {
          "internalType": "uint40",
          "name": "completeTime_",
          "type": "uint40"
        },
        {
          "internalType": "uint128",
          "name": "currentBlockNumber",
          "type": "uint128"
        },
        {
          "internalType": "uint32",
          "name": "blocksPerHour",
          "type": "uint32"
        }
      ],
      "stateMutability": "nonpayable",
      "type": "constructor"
    },
    {
      "anonymous": false,
      "inputs": [
        {
          "indexed": true,
          "internalType": "address",
          "name": "previousOwner",
          "type": "address"
        },
        {
          "indexed": true,
          "internalType": "address",
          "name": "newOwner",
          "type": "address"
        }
      ],
      "name": "OwnershipTransferred",
      "type": "event"
    },
    {
      "anonymous": false,
      "inputs": [
        {
          "indexed": false,
          "internalType": "uint256",
          "name": "totalReleased",
          "type": "uint256"
        },
        {
          "indexed": false,
          "internalType": "uint256",
          "name": "immediateRelease",
          "type": "uint256"
        },
        {
          "indexed": false,
          "internalType": "uint256",
          "name": "releasedAmount",
          "type": "uint256"
        }
      ],
      "name": "TokensReleased",
      "type": "event"
    },
    {
      "inputs": [],
      "name": "_completeTime",
      "outputs": [
        {
          "internalType": "uint256",
          "name": "",
          "type": "uint256"
        }
      ],
      "stateMutability": "view",
      "type": "function"
    },
    {
      "inputs": [],
      "name": "beneficiary",
      "outputs": [
        {
          "internalType": "address",
          "name": "",
          "type": "address"
        }
      ],
      "stateMutability": "view",
      "type": "function"
    },
    {
      "inputs": [],
      "name": "blocksAmountPerHour",
      "outputs": [
        {
          "internalType": "uint32",
          "name": "",
          "type": "uint32"
        }
      ],
      "stateMutability": "view",
      "type": "function"
    },
    {
      "inputs": [
        {
          "internalType": "address",
          "name": "sc",
          "type": "address"
        },
        {
          "internalType": "bytes",
          "name": "data",
          "type": "bytes"
        }
      ],
      "name": "getCompleteTime",
      "outputs": [
        {
          "internalType": "uint256",
          "name": "",
          "type": "uint256"
        }
      ],
      "stateMutability": "nonpayable",
      "type": "function"
    },
    {
      "inputs": [],
      "name": "owner",
      "outputs": [
        {
          "internalType": "address",
          "name": "",
          "type": "address"
        }
      ],
      "stateMutability": "view",
      "type": "function"
    },
    {
      "inputs": [],
      "name": "release",
      "outputs": [],
      "stateMutability": "nonpayable",
      "type": "function"
    },
    {
      "inputs": [],
      "name": "releaseTime",
      "outputs": [
        {
          "internalType": "uint256",
          "name": "",
          "type": "uint256"
        }
      ],
      "stateMutability": "view",
      "type": "function"
    },
    {
      "inputs": [],
      "name": "releasedAmount",
      "outputs": [
        {
          "internalType": "uint256",
          "name": "",
          "type": "uint256"
        }
      ],
      "stateMutability": "view",
      "type": "function"
    },
    {
      "inputs": [],
      "name": "renounceOwnership",
      "outputs": [],
      "stateMutability": "nonpayable",
      "type": "function"
    },
    {
      "inputs": [],
      "name": "token",
      "outputs": [
        {
          "internalType": "contract IERC20",
          "name": "",
          "type": "address"
        }
      ],
      "stateMutability": "view",
      "type": "function"
    },
    {
      "inputs": [
        {
          "internalType": "address",
          "name": "newOwner",
          "type": "address"
        }
      ],
      "name": "transferOwnership",
      "outputs": [],
      "stateMutability": "nonpayable",
      "type": "function"
    }
  ],
  "bytecode": "0x61010060405260006001556004600260006101000a81548163ffffffff021916908363ffffffff1602179055503480156200003957600080fd5b5060405162001f5b38038062001f5b83398181016040528101906200005f91906200037e565b6200007f620000736200023f60201b60201c565b6200024760201b60201c565b428464ffffffffff1611620000cb576040517f08c379a0000000000000000000000000000000000000000000000000000000008152600401620000c2906200052c565b60405180910390fd5b8364ffffffffff168364ffffffffff16116200011e576040517f08c379a000000000000000000000000000000000000000000000000000000000815260040162000115906200050a565b60405180910390fd5b8573ffffffffffffffffffffffffffffffffffffffff1660808173ffffffffffffffffffffffffffffffffffffffff1660601b815250508473ffffffffffffffffffffffffffffffffffffffff1660a08173ffffffffffffffffffffffffffffffffffffffff1660601b815250508364ffffffffff1660c081815250508264ffffffffff1660e0818152505080600260006101000a81548163ffffffff021916908363ffffffff1602179055506000428564ffffffffff16620001e2919062000655565b90506000610e108363ffffffff1683620001fd9190620005f4565b620002099190620005bc565b905080846fffffffffffffffffffffffffffffffff166200022b91906200055f565b6003819055505050505050505050620007ff565b600033905090565b60008060009054906101000a900473ffffffffffffffffffffffffffffffffffffffff169050816000806101000a81548173ffffffffffffffffffffffffffffffffffffffff021916908373ffffffffffffffffffffffffffffffffffffffff1602179055508173ffffffffffffffffffffffffffffffffffffffff168173ffffffffffffffffffffffffffffffffffffffff167f8be0079c531659141344cd1fd0a4f28419497f9722a3daafe3b4186f6b6457e060405160405180910390a35050565b6000815190506200031c816200077d565b92915050565b600081519050620003338162000797565b92915050565b6000815190506200034a81620007b1565b92915050565b6000815190506200036181620007cb565b92915050565b6000815190506200037881620007e5565b92915050565b60008060008060008060c087890312156200039857600080fd5b6000620003a889828a0162000322565b9650506020620003bb89828a016200030b565b9550506040620003ce89828a0162000367565b9450506060620003e189828a0162000367565b9350506080620003f489828a0162000339565b92505060a06200040789828a0162000350565b9150509295509295509295565b6000620004236047836200054e565b91507f546f6b656e54696d656c6f636b3a2074686520636f6d706c6574696f6e20746960008301527f6d65206d757374206265206c6f6e676572207468616e207468652072656c656160208301527f73652074696d65000000000000000000000000000000000000000000000000006040830152606082019050919050565b6000620004b16032836200054e565b91507f546f6b656e54696d656c6f636b3a2072656c656173652074696d65206973206260008301527f65666f72652063757272656e742074696d6500000000000000000000000000006020830152604082019050919050565b60006020820190508181036000830152620005258162000414565b9050919050565b600060208201905081810360008301526200054781620004a2565b9050919050565b600082825260208201905092915050565b60006200056c82620006f4565b91506200057983620006f4565b9250827fffffffffffffffffffffffffffffffffffffffffffffffffffffffffffffffff03821115620005b157620005b06200071f565b5b828201905092915050565b6000620005c982620006f4565b9150620005d683620006f4565b925082620005e957620005e86200074e565b5b828204905092915050565b60006200060182620006f4565b91506200060e83620006f4565b9250817fffffffffffffffffffffffffffffffffffffffffffffffffffffffffffffffff04831182151516156200064a57620006496200071f565b5b828202905092915050565b60006200066282620006f4565b91506200066f83620006f4565b9250828210156200068557620006846200071f565b5b828203905092915050565b60006200069d82620006d4565b9050919050565b6000620006b18262000690565b9050919050565b60006fffffffffffffffffffffffffffffffff82169050919050565b600073ffffffffffffffffffffffffffffffffffffffff82169050919050565b6000819050919050565b600063ffffffff82169050919050565b600064ffffffffff82169050919050565b7f4e487b7100000000000000000000000000000000000000000000000000000000600052601160045260246000fd5b7f4e487b7100000000000000000000000000000000000000000000000000000000600052601260045260246000fd5b620007888162000690565b81146200079457600080fd5b50565b620007a281620006a4565b8114620007ae57600080fd5b50565b620007bc81620006b8565b8114620007c857600080fd5b50565b620007d681620006fe565b8114620007e257600080fd5b50565b620007f0816200070e565b8114620007fc57600080fd5b50565b60805160601c60a05160601c60c05160e0516116e46200087760003960008181610293015281816102e9015281816105da01526106b30152600081816102c80152818161031b01526105b40152600081816101fa01526104de01526000818161036801528181610500015261076301526116e46000f3fe608060405234801561001057600080fd5b50600436106100a95760003560e01c80638da5cb5b116100715780638da5cb5b1461011c578063b91d40011461013a578063d483d05114610158578063d65316c014610176578063f2fde38b146101a6578063fc0c546a146101c2576100a9565b8063094ac207146100ae57806338af3eed146100cc57806345d30a17146100ea578063715018a61461010857806386d1a69f14610112575b600080fd5b6100b66101e0565b6040516100c3919061134a565b60405180910390f35b6100d46101f6565b6040516100e19190611177565b60405180910390f35b6100f261021e565b6040516100ff91906112f8565b60405180910390f35b610110610224565b005b61011a610238565b005b610124610587565b6040516101319190611177565b60405180910390f35b6101426105b0565b60405161014f91906112f8565b60405180910390f35b6101606105d8565b60405161016d91906112f8565b60405180910390f35b610190600480360381019061018b9190610d30565b6105fc565b60405161019d91906112f8565b60405180910390f35b6101c060048036038101906101bb9190610d07565b6106db565b005b6101ca61075f565b6040516101d791906111bb565b60405180910390f35b600260009054906101000a900463ffffffff1681565b60007f0000000000000000000000000000000000000000000000000000000000000000905090565b60015481565b61022c610787565b6102366000610805565b565b6102406105b0565b4210158061025057506003544310155b61028f576040517f08c379a000000000000000000000000000000000000000000000000000000000815260040161028690611238565b60405180910390fd5b60007f000000000000000000000000000000000000000000000000000000000000000042106102c357620f42409050610364565b6103617f00000000000000000000000000000000000000000000000000000000000000007f000000000000000000000000000000000000000000000000000000000000000061031291906114d9565b610353620f42407f00000000000000000000000000000000000000000000000000000000000000004261034591906114d9565b6108c990919063ffffffff16565b6108df90919063ffffffff16565b90505b60007f000000000000000000000000000000000000000000000000000000000000000073ffffffffffffffffffffffffffffffffffffffff166370a08231306040518263ffffffff1660e01b81526004016103bf9190611177565b60206040518083038186803b1580156103d757600080fd5b505afa1580156103eb573d6000803e3d6000fd5b505050506040513d601f19601f8201168201806040525081019061040f9190610dad565b9050600061044f620f4240610441610432600154866108f590919063ffffffff16565b866108c990919063ffffffff16565b6108df90919063ffffffff16565b905060006001548211610463576000610479565b6104786001548361090b90919063ffffffff16565b5b9050600081116104be576040517f08c379a00000000000000000000000000000000000000000000000000000000081526004016104b5906112d8565b60405180910390fd5b6104d3816001546108f590919063ffffffff16565b6001819055506105447f0000000000000000000000000000000000000000000000000000000000000000827f000000000000000000000000000000000000000000000000000000000000000073ffffffffffffffffffffffffffffffffffffffff166109219092919063ffffffff16565b7fea91ec69d9ab5a214205bad93781970df8c1f8fa5321a97b10a6cbbe99c29d9c828260015460405161057993929190611313565b60405180910390a150505050565b60008060009054906101000a900473ffffffffffffffffffffffffffffffffffffffff16905090565b60007f0000000000000000000000000000000000000000000000000000000000000000905090565b7f000000000000000000000000000000000000000000000000000000000000000081565b6000610606610787565b60008373ffffffffffffffffffffffffffffffffffffffff168360405161062d9190611160565b600060405180830381855af49150503d8060008114610668576040519150601f19603f3d011682016040523d82523d6000602084013e61066d565b606091505b50509050806106b1576040517f08c379a00000000000000000000000000000000000000000000000000000000081526004016106a890611258565b60405180910390fd5b7f000000000000000000000000000000000000000000000000000000000000000091505092915050565b6106e3610787565b600073ffffffffffffffffffffffffffffffffffffffff168173ffffffffffffffffffffffffffffffffffffffff161415610753576040517f08c379a000000000000000000000000000000000000000000000000000000000815260040161074a906111f8565b60405180910390fd5b61075c81610805565b50565b60007f0000000000000000000000000000000000000000000000000000000000000000905090565b61078f6109a7565b73ffffffffffffffffffffffffffffffffffffffff166107ad610587565b73ffffffffffffffffffffffffffffffffffffffff1614610803576040517f08c379a00000000000000000000000000000000000000000000000000000000081526004016107fa90611278565b60405180910390fd5b565b60008060009054906101000a900473ffffffffffffffffffffffffffffffffffffffff169050816000806101000a81548173ffffffffffffffffffffffffffffffffffffffff021916908373ffffffffffffffffffffffffffffffffffffffff1602179055508173ffffffffffffffffffffffffffffffffffffffff168173ffffffffffffffffffffffffffffffffffffffff167f8be0079c531659141344cd1fd0a4f28419497f9722a3daafe3b4186f6b6457e060405160405180910390a35050565b600081836108d7919061147f565b905092915050565b600081836108ed919061144e565b905092915050565b6000818361090391906113f8565b905092915050565b6000818361091991906114d9565b905092915050565b6109a28363a9059cbb60e01b8484604051602401610940929190611192565b604051602081830303815290604052907bffffffffffffffffffffffffffffffffffffffffffffffffffffffff19166020820180517bffffffffffffffffffffffffffffffffffffffffffffffffffffffff83818316178352505050506109af565b505050565b600033905090565b6000610a11826040518060400160405280602081526020017f5361666545524332303a206c6f772d6c6576656c2063616c6c206661696c65648152508573ffffffffffffffffffffffffffffffffffffffff16610a769092919063ffffffff16565b9050600081511115610a715780806020019051810190610a319190610d84565b610a70576040517f08c379a0000000000000000000000000000000000000000000000000000000008152600401610a67906112b8565b60405180910390fd5b5b505050565b6060610a858484600085610a8e565b90509392505050565b606082471015610ad3576040517f08c379a0000000000000000000000000000000000000000000000000000000008152600401610aca90611218565b60405180910390fd5b6000808673ffffffffffffffffffffffffffffffffffffffff168587604051610afc9190611160565b60006040518083038185875af1925050503d8060008114610b39576040519150601f19603f3d011682016040523d82523d6000602084013e610b3e565b606091505b5091509150610b4f87838387610b5b565b92505050949350505050565b60608315610bbe57600083511415610bb657610b7685610bd1565b610bb5576040517f08c379a0000000000000000000000000000000000000000000000000000000008152600401610bac90611298565b60405180910390fd5b5b829050610bc9565b610bc88383610c10565b5b949350505050565b6000808273ffffffffffffffffffffffffffffffffffffffff16803b806020016040519081016040528181526000908060200190933c51119050919050565b600082511115610c235781518083602001fd5b806040517f08c379a0000000000000000000000000000000000000000000000000000000008152600401610c5791906111d6565b60405180910390fd5b6000610c73610c6e84611396565b611365565b905082815260208101848484011115610c8b57600080fd5b610c96848285611589565b509392505050565b600081359050610cad81611669565b92915050565b600081519050610cc281611680565b92915050565b600082601f830112610cd957600080fd5b8135610ce9848260208601610c60565b91505092915050565b600081519050610d0181611697565b92915050565b600060208284031215610d1957600080fd5b6000610d2784828501610c9e565b91505092915050565b60008060408385031215610d4357600080fd5b6000610d5185828601610c9e565b925050602083013567ffffffffffffffff811115610d6e57600080fd5b610d7a85828601610cc8565b9150509250929050565b600060208284031215610d9657600080fd5b6000610da484828501610cb3565b91505092915050565b600060208284031215610dbf57600080fd5b6000610dcd84828501610cf2565b91505092915050565b610ddf8161150d565b82525050565b6000610df0826113c6565b610dfa81856113dc565b9350610e0a818560208601611598565b80840191505092915050565b610e1f81611565565b82525050565b6000610e30826113d1565b610e3a81856113e7565b9350610e4a818560208601611598565b610e5381611658565b840191505092915050565b6000610e6b6026836113e7565b91507f4f776e61626c653a206e6577206f776e657220697320746865207a65726f206160008301527f64647265737300000000000000000000000000000000000000000000000000006020830152604082019050919050565b6000610ed16026836113e7565b91507f416464726573733a20696e73756666696369656e742062616c616e636520666f60008301527f722063616c6c00000000000000000000000000000000000000000000000000006020830152604082019050919050565b6000610f376048836113e7565b91507f546f6b656e54696d656c6f636b3a2063757272656e742074696d65206f72206260008301527f6c6f636b206e756d626572206973206265666f72652072656c6561736520636f60208301527f6e646974696f6e730000000000000000000000000000000000000000000000006040830152606082019050919050565b6000610fc36006836113e7565b91507f6661696c656400000000000000000000000000000000000000000000000000006000830152602082019050919050565b60006110036020836113e7565b91507f4f776e61626c653a2063616c6c6572206973206e6f7420746865206f776e65726000830152602082019050919050565b6000611043601d836113e7565b91507f416464726573733a2063616c6c20746f206e6f6e2d636f6e74726163740000006000830152602082019050919050565b6000611083602a836113e7565b91507f5361666545524332303a204552433230206f7065726174696f6e20646964206e60008301527f6f742073756363656564000000000000000000000000000000000000000000006020830152604082019050919050565b60006110e96023836113e7565b91507f546f6b656e54696d656c6f636b3a206e6f20746f6b656e7320746f2072656c6560008301527f61736500000000000000000000000000000000000000000000000000000000006020830152604082019050919050565b61114b8161154b565b82525050565b61115a81611555565b82525050565b600061116c8284610de5565b915081905092915050565b600060208201905061118c6000830184610dd6565b92915050565b60006040820190506111a76000830185610dd6565b6111b46020830184611142565b9392505050565b60006020820190506111d06000830184610e16565b92915050565b600060208201905081810360008301526111f08184610e25565b905092915050565b6000602082019050818103600083015261121181610e5e565b9050919050565b6000602082019050818103600083015261123181610ec4565b9050919050565b6000602082019050818103600083015261125181610f2a565b9050919050565b6000602082019050818103600083015261127181610fb6565b9050919050565b6000602082019050818103600083015261129181610ff6565b9050919050565b600060208201905081810360008301526112b181611036565b9050919050565b600060208201905081810360008301526112d181611076565b9050919050565b600060208201905081810360008301526112f1816110dc565b9050919050565b600060208201905061130d6000830184611142565b92915050565b60006060820190506113286000830186611142565b6113356020830185611142565b6113426040830184611142565b949350505050565b600060208201905061135f6000830184611151565b92915050565b6000604051905081810181811067ffffffffffffffff8211171561138c5761138b611629565b5b8060405250919050565b600067ffffffffffffffff8211156113b1576113b0611629565b5b601f19601f8301169050602081019050919050565b600081519050919050565b600081519050919050565b600081905092915050565b600082825260208201905092915050565b60006114038261154b565b915061140e8361154b565b9250827fffffffffffffffffffffffffffffffffffffffffffffffffffffffffffffffff03821115611443576114426115cb565b5b828201905092915050565b60006114598261154b565b91506114648361154b565b925082611474576114736115fa565b5b828204905092915050565b600061148a8261154b565b91506114958361154b565b9250817fffffffffffffffffffffffffffffffffffffffffffffffffffffffffffffffff04831182151516156114ce576114cd6115cb565b5b828202905092915050565b60006114e48261154b565b91506114ef8361154b565b925082821015611502576115016115cb565b5b828203905092915050565b60006115188261152b565b9050919050565b60008115159050919050565b600073ffffffffffffffffffffffffffffffffffffffff82169050919050565b6000819050919050565b600063ffffffff82169050919050565b600061157082611577565b9050919050565b60006115828261152b565b9050919050565b82818337600083830152505050565b60005b838110156115b657808201518184015260208101905061159b565b838111156115c5576000848401525b50505050565b7f4e487b7100000000000000000000000000000000000000000000000000000000600052601160045260246000fd5b7f4e487b7100000000000000000000000000000000000000000000000000000000600052601260045260246000fd5b7f4e487b7100000000000000000000000000000000000000000000000000000000600052604160045260246000fd5b6000601f19601f8301169050919050565b6116728161150d565b811461167d57600080fd5b50565b6116898161151f565b811461169457600080fd5b50565b6116a08161154b565b81146116ab57600080fd5b5056fea264697066735822122056b325b40b76637ab2ecb5b16ad1dc3dabdcb32ee75def6e12aefcaadbab594a64736f6c63430008000033",
  "linkReferences": {},
  "deployedLinkReferences": {}
}