{"contracts/GGTK.sol":{"GGTK":{"abi":[{"inputs":[],"stateMutability":"nonpayable","type":"constructor"},{"anonymous":false,"inputs":[{"indexed":true,"internalType":"address","name":"owner","type":"address"},{"indexed":true,"internalType":"address","name":"spender","type":"address"},{"indexed":false,"internalType":"uint256","name":"value","type":"uint256"}],"name":"Approval","type":"event"},{"anonymous":false,"inputs":[{"indexed":false,"internalType":"string","name":"str","type":"string"},{"indexed":false,"internalType":"address","name":"addr","type":"address"},{"indexed":false,"internalType":"uint256","name":"n1","type":"uint256"},{"indexed":false,"internalType":"uint256","name":"n2","type":"uint256"}],"name":"Moniter","type":"event"},{"anonymous":false,"inputs":[{"indexed":true,"internalType":"address","name":"previousOwner","type":"address"},{"indexed":true,"internalType":"address","name":"newOwner","type":"address"}],"name":"OwnershipTransferred","type":"event"},{"anonymous":false,"inputs":[{"indexed":false,"internalType":"address","name":"account","type":"address"}],"name":"Paused","type":"event"},{"anonymous":false,"inputs":[{"indexed":true,"internalType":"address","name":"from","type":"address"},{"indexed":true,"internalType":"address","name":"to","type":"address"},{"indexed":false,"internalType":"uint256","name":"value","type":"uint256"}],"name":"Transfer","type":"event"},{"anonymous":false,"inputs":[{"indexed":false,"internalType":"address","name":"account","type":"address"}],"name":"Unpaused","type":"event"},{"inputs":[{"internalType":"address","name":"_address","type":"address"}],"name":"addAddress","outputs":[],"stateMutability":"nonpayable","type":"function"},{"inputs":[{"internalType":"address","name":"account","type":"address"}],"name":"addProtector","outputs":[],"stateMutability":"nonpayable","type":"function"},{"inputs":[{"internalType":"address","name":"account","type":"address"}],"name":"addWhitelisted","outputs":[],"stateMutability":"nonpayable","type":"function"},{"inputs":[{"internalType":"address","name":"","type":"address"}],"name":"addressList","outputs":[{"internalType":"bool","name":"","type":"bool"}],"stateMutability":"view","type":"function"},{"inputs":[{"internalType":"address","name":"owner","type":"address"},{"internalType":"address","name":"spender","type":"address"}],"name":"allowance","outputs":[{"internalType":"uint256","name":"","type":"uint256"}],"stateMutability":"view","type":"function"},{"inputs":[{"internalType":"address","name":"spender","type":"address"},{"internalType":"uint256","name":"amount","type":"uint256"}],"name":"approve","outputs":[{"internalType":"bool","name":"","type":"bool"}],"stateMutability":"nonpayable","type":"function"},{"inputs":[{"internalType":"address","name":"account","type":"address"}],"name":"balanceOf","outputs":[{"internalType":"uint256","name":"","type":"uint256"}],"stateMutability":"view","type":"function"},{"inputs":[{"internalType":"uint256","name":"amount","type":"uint256"}],"name":"burn","outputs":[],"stateMutability":"nonpayable","type":"function"},{"inputs":[{"internalType":"address","name":"account","type":"address"},{"internalType":"uint256","name":"amount","type":"uint256"}],"name":"burnFrom","outputs":[],"stateMutability":"nonpayable","type":"function"},{"inputs":[{"internalType":"bytes","name":"data","type":"bytes"}],"name":"checkState","outputs":[{"internalType":"bytes","name":"","type":"bytes"}],"stateMutability":"nonpayable","type":"function"},{"inputs":[],"name":"constantVal","outputs":[{"internalType":"uint256","name":"CAP","type":"uint256"},{"internalType":"uint256","name":"TIME_PERIOD","type":"uint256"},{"internalType":"uint256","name":"INTERVAL","type":"uint256"}],"stateMutability":"view","type":"function"},{"inputs":[],"name":"decimals","outputs":[{"internalType":"uint8","name":"","type":"uint8"}],"stateMutability":"pure","type":"function"},{"inputs":[{"internalType":"address","name":"spender","type":"address"},{"internalType":"uint256","name":"subtractedValue","type":"uint256"}],"name":"decreaseAllowance","outputs":[{"internalType":"bool","name":"","type":"bool"}],"stateMutability":"nonpayable","type":"function"},{"inputs":[{"internalType":"address","name":"sc","type":"address"},{"internalType":"bytes","name":"data","type":"bytes"}],"name":"getSold","outputs":[{"internalType":"uint256","name":"","type":"uint256"}],"stateMutability":"nonpayable","type":"function"},{"inputs":[],"name":"gracePeriod","outputs":[{"internalType":"uint256","name":"","type":"uint256"}],"stateMutability":"view","type":"function"},{"inputs":[{"internalType":"address","name":"spender","type":"address"},{"internalType":"uint256","name":"addedValue","type":"uint256"}],"name":"increaseAllowance","outputs":[{"internalType":"bool","name":"","type":"bool"}],"stateMutability":"nonpayable","type":"function"},{"inputs":[],"name":"initializeTeamTokenTimelock","outputs":[],"stateMutability":"nonpayable","type":"function"},{"inputs":[],"name":"interval","outputs":[{"internalType":"uint256","name":"","type":"uint256"}],"stateMutability":"view","type":"function"},{"inputs":[{"internalType":"address","name":"addr","type":"address"}],"name":"isInQueue","outputs":[{"internalType":"bool","name":"","type":"bool"}],"stateMutability":"view","type":"function"},{"inputs":[{"internalType":"address","name":"","type":"address"}],"name":"isWhitelisted","outputs":[{"internalType":"bool","name":"","type":"bool"}],"stateMutability":"view","type":"function"},{"inputs":[{"internalType":"address","name":"to","type":"address"},{"internalType":"uint256","name":"amount","type":"uint256"}],"name":"mintCommunityMarketing","outputs":[],"stateMutability":"nonpayable","type":"function"},{"inputs":[{"internalType":"address","name":"to","type":"address"},{"internalType":"uint256","name":"amount","type":"uint256"}],"name":"mintInGameRewards","outputs":[],"stateMutability":"nonpayable","type":"function"},{"inputs":[{"internalType":"address","name":"to","type":"address"},{"internalType":"uint256","name":"amount","type":"uint256"}],"name":"mintReserveFund","outputs":[],"stateMutability":"nonpayable","type":"function"},{"inputs":[{"internalType":"address","name":"to","type":"address"},{"internalType":"uint256","name":"amount","type":"uint256"}],"name":"mintStakingLiquidity","outputs":[],"stateMutability":"nonpayable","type":"function"},{"inputs":[{"internalType":"address","name":"to","type":"address"},{"internalType":"uint256","name":"amount","type":"uint256"}],"name":"mintTokenSinks","outputs":[],"stateMutability":"nonpayable","type":"function"},{"inputs":[],"name":"name","outputs":[{"internalType":"string","name":"","type":"string"}],"stateMutability":"view","type":"function"},{"inputs":[],"name":"owner","outputs":[{"internalType":"address","name":"","type":"address"}],"stateMutability":"view","type":"function"},{"inputs":[],"name":"pause","outputs":[],"stateMutability":"nonpayable","type":"function"},{"inputs":[],"name":"paused","outputs":[{"internalType":"bool","name":"","type":"bool"}],"stateMutability":"view","type":"function"},{"inputs":[{"internalType":"uint256","name":"","type":"uint256"}],"name":"queue","outputs":[{"internalType":"address","name":"addr","type":"address"},{"internalType":"uint256","name":"time","type":"uint256"}],"stateMutability":"view","type":"function"},{"inputs":[],"name":"queueSize","outputs":[{"internalType":"uint256","name":"","type":"uint256"}],"stateMutability":"view","type":"function"},{"inputs":[{"internalType":"address","name":"account","type":"address"}],"name":"removeWhitelisted","outputs":[],"stateMutability":"nonpayable","type":"function"},{"inputs":[],"name":"renounceOwnership","outputs":[],"stateMutability":"nonpayable","type":"function"},{"inputs":[{"internalType":"uint256","name":"_interval","type":"uint256"}],"name":"setInterval","outputs":[],"stateMutability":"nonpayable","type":"function"},{"inputs":[{"internalType":"bool","name":"isOff","type":"bool"}],"name":"switchcap","outputs":[],"stateMutability":"nonpayable","type":"function"},{"inputs":[],"name":"symbol","outputs":[{"internalType":"string","name":"","type":"string"}],"stateMutability":"view","type":"function"},{"inputs":[],"name":"teamTokenTimelock","outputs":[{"internalType":"contract TokenTimelock","name":"","type":"address"}],"stateMutability":"view","type":"function"},{"inputs":[],"name":"teamTokenTimelockAddr","outputs":[{"internalType":"address","name":"","type":"address"}],"stateMutability":"view","type":"function"},{"inputs":[],"name":"totalSupply","outputs":[{"internalType":"uint256","name":"","type":"uint256"}],"stateMutability":"view","type":"function"},{"inputs":[{"internalType":"address","name":"to","type":"address"},{"internalType":"uint256","name":"amount","type":"uint256"}],"name":"transfer","outputs":[{"internalType":"bool","name":"","type":"bool"}],"stateMutability":"nonpayable","type":"function"},{"inputs":[{"internalType":"address","name":"from","type":"address"},{"internalType":"address","name":"to","type":"address"},{"internalType":"uint256","name":"amount","type":"uint256"}],"name":"transferFrom","outputs":[{"internalType":"bool","name":"","type":"bool"}],"stateMutability":"nonpayable","type":"function"},{"inputs":[{"internalType":"address","name":"newOwner","type":"address"}],"name":"transferOwnership","outputs":[],"stateMutability":"nonpayable","type":"function"},{"inputs":[],"name":"unpause","outputs":[],"stateMutability":"nonpayable","type":"function"},{"stateMutability":"payable","type":"receive"}],"evm":{"bytecode":{"linkReferences":{},"object":"608060405260006007556000600b60006101000a81548160ff0219169083151502179055503480156200003157600080fd5b506040518060400160405280600f81526020017f476f6c64204769726c20546f6b656e00000000000000000000000000000000008152506040518060400160405280600481526020017f4747544b000000000000000000000000000000000000000000000000000000008152508160039080519060200190620000b6929190620014d9565b508060049080519060200190620000cf929190620014d9565b505050620000f2620000e6620001af60201b60201c565b620001b760201b60201c565b6000600560146101000a81548160ff02191690831515021790555060016006819055506200012e3066071afd498d00006200027d60201b60201c565b42600c8190555062000145620003eb60201b60201c565b60405180606001604052806606c00a3912c00081526020016201518081526020016107088152506008600082015181600001556020820151816001015560408201518160020155905050426013819055506107086015819055506201518060168190555062002080565b600033905090565b6000600560009054906101000a900473ffffffffffffffffffffffffffffffffffffffff16905081600560006101000a81548173ffffffffffffffffffffffffffffffffffffffff021916908373ffffffffffffffffffffffffffffffffffffffff1602179055508173ffffffffffffffffffffffffffffffffffffffff168173ffffffffffffffffffffffffffffffffffffffff167f8be0079c531659141344cd1fd0a4f28419497f9722a3daafe3b4186f6b6457e060405160405180910390a35050565b600073ffffffffffffffffffffffffffffffffffffffff168273ffffffffffffffffffffffffffffffffffffffff161415620002f0576040517f08c379a0000000000000000000000000000000000000000000000000000000008152600401620002e79062001d37565b60405180910390fd5b62000304600083836200062960201b60201c565b806002600082825462000318919062001d87565b92505081905550806000808473ffffffffffffffffffffffffffffffffffffffff1673ffffffffffffffffffffffffffffffffffffffff168152602001908152602001600020600082825401925050819055508173ffffffffffffffffffffffffffffffffffffffff16600073ffffffffffffffffffffffffffffffffffffffff167fddf252ad1be2c89b69c2b068fc378daa952ba7f163c4a11628f55a4df523b3ef83604051620003cb919062001d59565b60405180910390a3620003e76000838362000a0e60201b60201c565b5050565b620003fb62000a9460201b60201c565b600073ffffffffffffffffffffffffffffffffffffffff16601160009054906101000a900473ffffffffffffffffffffffffffffffffffffffff1673ffffffffffffffffffffffffffffffffffffffff16146200048f576040517f08c379a0000000000000000000000000000000000000000000000000000000008152600401620004869062001b61565b60405180910390fd5b60006202a30042620004a2919062001d87565b90506000620d2f0082620004b7919062001d87565b9050600043905060006004905030620004d562000b2560201b60201c565b85858585604051620004e7906200156a565b620004f89695949392919062001a5e565b604051809103906000f08015801562000515573d6000803e3d6000fd5b50601160006101000a81548173ffffffffffffffffffffffffffffffffffffffff021916908373ffffffffffffffffffffffffffffffffffffffff160217905550601160009054906101000a900473ffffffffffffffffffffffffffffffffffffffff16601260006101000a81548173ffffffffffffffffffffffffffffffffffffffff021916908373ffffffffffffffffffffffffffffffffffffffff1602179055506000620005de60075466038d7ea4c6800062000b4f60201b620019631790919060201c565b905062000614601260009054906101000a900473ffffffffffffffffffffffffffffffffffffffff16826200027d60201b60201c565b66038d7ea4c680006007819055505050505050565b6200063962000b6760201b60201c565b6200065183838362000bbc60201b6200197b1760201c565b600b60009054906101000a900460ff16158015620006b95750600e60008473ffffffffffffffffffffffffffffffffffffffff1673ffffffffffffffffffffffffffffffffffffffff16815260200190815260200160002060009054906101000a900460ff16155b8015620006d35750620006d28262000bc160201b60201c565b5b1562000a09576000620006ec8462000c1760201b60201c565b905060006200070062000cfa60201b60201c565b9050600080821415620007195760086000015462000739565b620007388260086000015462000d0760201b620019801790919060201c565b5b90508084111562000781576040517f08c379a0000000000000000000000000000000000000000000000000000000008152600401620007789062001ba5565b60405180910390fd5b60648210806200078e5750825b620007d0576040517f08c379a0000000000000000000000000000000000000000000000000000000008152600401620007c79062001cd1565b60405180910390fd5b620007e062000d1f60201b60201c565b826200083657620007f78662000ff960201b60201c565b50506040517f08c379a00000000000000000000000000000000000000000000000000000000081526004016200082d9062001cf3565b60405180910390fd5b600080620008496200115160201b60201c565b915091508773ffffffffffffffffffffffffffffffffffffffff168273ffffffffffffffffffffffffffffffffffffffff1614620008d157620008928262000ff960201b60201c565b50506040517f08c379a0000000000000000000000000000000000000000000000000000000008152600401620008c89062001b3f565b60405180910390fd5b80421162000916576040517f08c379a00000000000000000000000000000000000000000000000000000000081526004016200090d9062001d15565b60405180910390fd5b6016548162000926919062001d87565b4211156200096b576040517f08c379a0000000000000000000000000000000000000000000000000000000008152600401620009629062001c5d565b60405180910390fd5b6008600001546200098d87600d546200147c60201b620019981790919060201c565b1115620009d1576040517f08c379a0000000000000000000000000000000000000000000000000000000008152600401620009c89062001c3b565b60405180910390fd5b620009e16200149460201b60201c565b620009fd86600d546200147c60201b620019981790919060201c565b600d8190555050505050505b505050565b62000a1e62000b6760201b60201c565b62000a2e6200149460201b60201c565b62000a4a81600d546200147c60201b620019981790919060201c565b600d819055507fe9f944ddc2387681900ff440bebe4122461fc58146e32ba8c7d14ce4d207fbe38282600d5460405162000a879392919062001acb565b60405180910390a1505050565b62000aa4620001af60201b60201c565b73ffffffffffffffffffffffffffffffffffffffff1662000aca62000b2560201b60201c565b73ffffffffffffffffffffffffffffffffffffffff161462000b23576040517f08c379a000000000000000000000000000000000000000000000000000000000815260040162000b1a9062001bc7565b60405180910390fd5b565b6000600560009054906101000a900473ffffffffffffffffffffffffffffffffffffffff16905090565b6000818362000b5f919062001e7d565b905092915050565b62000b77620014c260201b60201c565b1562000bba576040517f08c379a000000000000000000000000000000000000000000000000000000000815260040162000bb19062001b83565b60405180910390fd5b565b505050565b6000600f60008373ffffffffffffffffffffffffffffffffffffffff1673ffffffffffffffffffffffffffffffffffffffff16815260200190815260200160002060009054906101000a900460ff169050919050565b600080600090505b60148054905081101562000cef578273ffffffffffffffffffffffffffffffffffffffff166014828154811062000c7f577f4e487b7100000000000000000000000000000000000000000000000000000000600052603260045260246000fd5b906000526020600020906002020160000160009054906101000a900473ffffffffffffffffffffffffffffffffffffffff1673ffffffffffffffffffffffffffffffffffffffff16141562000cd957600191505062000cf5565b808062000ce69062001fa5565b91505062000c1f565b50600090505b919050565b6000601480549050905090565b6000818362000d17919062001de4565b905092915050565b60005b6014805490508110801562000d9157506016546014828154811062000d70577f4e487b7100000000000000000000000000000000000000000000000000000000600052603260045260246000fd5b9060005260206000209060020201600101544262000d8f919062001e7d565b115b1562000dff5760006014828154811062000dd4577f4e487b7100000000000000000000000000000000000000000000000000000000600052603260045260246000fd5b906000526020600020906002020160010181905550808062000df69062001fa5565b91505062000d22565b600081111562000ff65760005b8160148054905062000e1f919062001e7d565b81101562000f50576014828262000e37919062001d87565b8154811062000e6f577f4e487b7100000000000000000000000000000000000000000000000000000000600052603260045260246000fd5b90600052602060002090600202016014828154811062000eb8577f4e487b7100000000000000000000000000000000000000000000000000000000600052603260045260246000fd5b90600052602060002090600202016000820160009054906101000a900473ffffffffffffffffffffffffffffffffffffffff168160000160006101000a81548173ffffffffffffffffffffffffffffffffffffffff021916908373ffffffffffffffffffffffffffffffffffffffff16021790555060018201548160010155905050808062000f479062001fa5565b91505062000e0c565b5060005b8181101562000ff457601480548062000f96577f4e487b7100000000000000000000000000000000000000000000000000000000600052603160045260246000fd5b6001900381819060005260206000209060020201600080820160006101000a81549073ffffffffffffffffffffffffffffffffffffffff0219169055600182016000905550509055808062000feb9062001fa5565b91505062000f54565b505b50565b6000806000601480549050905060006015548262001018919062001e1c565b4262001025919062001d87565b9050601460405180604001604052808773ffffffffffffffffffffffffffffffffffffffff16815260200183815250908060018154018082558091505060019003906000526020600020906002020160009091909190915060008201518160000160006101000a81548173ffffffffffffffffffffffffffffffffffffffff021916908373ffffffffffffffffffffffffffffffffffffffff1602179055506020820151816001015550506013548111620010e357601354620010e5565b805b6013819055507fe9f944ddc2387681900ff440bebe4122461fc58146e32ba8c7d14ce4d207fbe3856001846200111c919062001d87565b836040516200112e9392919062001be9565b60405180910390a160018262001145919062001d87565b81935093505050915091565b6000806000601480549050116200119f576040517f08c379a0000000000000000000000000000000000000000000000000000000008152600401620011969062001b1d565b60405180910390fd5b60006014600081548110620011dd577f4e487b7100000000000000000000000000000000000000000000000000000000600052603260045260246000fd5b90600052602060002090600202016040518060400160405290816000820160009054906101000a900473ffffffffffffffffffffffffffffffffffffffff1673ffffffffffffffffffffffffffffffffffffffff1673ffffffffffffffffffffffffffffffffffffffff168152602001600182015481525050905060005b60016014805490506200126f919062001e7d565b811015620013a157601460018262001288919062001d87565b81548110620012c0577f4e487b7100000000000000000000000000000000000000000000000000000000600052603260045260246000fd5b90600052602060002090600202016014828154811062001309577f4e487b7100000000000000000000000000000000000000000000000000000000600052603260045260246000fd5b90600052602060002090600202016000820160009054906101000a900473ffffffffffffffffffffffffffffffffffffffff168160000160006101000a81548173ffffffffffffffffffffffffffffffffffffffff021916908373ffffffffffffffffffffffffffffffffffffffff160217905550600182015481600101559050508080620013989062001fa5565b9150506200125b565b507fe9f944ddc2387681900ff440bebe4122461fc58146e32ba8c7d14ce4d207fbe3816000015182602001516000604051620013e09392919062001c7f565b60405180910390a1601480548062001421577f4e487b7100000000000000000000000000000000000000000000000000000000600052603160045260246000fd5b6001900381819060005260206000209060020201600080820160006101000a81549073ffffffffffffffffffffffffffffffffffffffff02191690556001820160009055505090558060000151816020015192509250509091565b600081836200148c919062001d87565b905092915050565b600860010154600c54620014a9919062001d87565b4210620014c0576000600d8190555042600c819055505b565b6000600560149054906101000a900460ff16905090565b828054620014e79062001f6f565b90600052602060002090601f0160209004810192826200150b576000855562001557565b82601f106200152657805160ff191683800117855562001557565b8280016001018555821562001557579182015b828111156200155657825182559160200191906001019062001539565b5b50905062001566919062001578565b5090565b611f5b8062008b4f83390190565b5b808211156200159357600081600090555060010162001579565b5090565b620015a28162001eb8565b82525050565b620015b38162001f33565b82525050565b620015c48162001f5b565b82525050565b6000620015d960048362001d76565b91507f446f6e65000000000000000000000000000000000000000000000000000000006000830152602082019050919050565b60006200161b600e8362001d76565b91507f517565756520697320656d7074790000000000000000000000000000000000006000830152602082019050919050565b60006200165d60228362001d76565b91507f4e6f7420796f7572207475726e2c206164646564206261636b20746f2071756560008301527f75650000000000000000000000000000000000000000000000000000000000006020830152604082019050919050565b6000620016c5602c8362001d76565b91507f4747544b3a205465616d20546f6b656e54696d656c6f636b20616c726561647960008301527f20696e697469616c697a656400000000000000000000000000000000000000006020830152604082019050919050565b60006200172d60108362001d76565b91507f5061757361626c653a20706175736564000000000000000000000000000000006000830152602082019050919050565b60006200176f60218362001d76565b91507f546865207175616e7469747920657863656564656420746865206d6178696d7560008301527f6d000000000000000000000000000000000000000000000000000000000000006020830152604082019050919050565b6000620017d760208362001d76565b91507f4f776e61626c653a2063616c6c6572206973206e6f7420746865206f776e65726000830152602082019050919050565b60006200181960078362001d76565b91507f656e7175657565000000000000000000000000000000000000000000000000006000830152602082019050919050565b60006200185b60128362001d76565b91507f4747544b3a2063617020657863656564656400000000000000000000000000006000830152602082019050919050565b60006200189d60208362001d76565b91507f54696d6564206f75742c20706c656173652072652d656e7465722071756575656000830152602082019050919050565b6000620018df60078362001d76565b91507f64657175657565000000000000000000000000000000000000000000000000006000830152602082019050919050565b600062001921601a8362001d76565b91507f51756575652069732066756c6c2c20706c6561736520776169740000000000006000830152602082019050919050565b600062001963601b8362001d76565b91507f416464656420746f2071756575652c20706c65617365207761697400000000006000830152602082019050919050565b6000620019a560168362001d76565b91507f546f6f206561726c792c20706c656173652077616974000000000000000000006000830152602082019050919050565b6000620019e7601f8362001d76565b91507f45524332303a206d696e7420746f20746865207a65726f2061646472657373006000830152602082019050919050565b62001a258162001ecc565b82525050565b62001a368162001f08565b82525050565b62001a478162001f12565b82525050565b62001a588162001f22565b82525050565b600060c08201905062001a756000830189620015a8565b62001a84602083018862001597565b62001a93604083018762001a4d565b62001aa2606083018662001a4d565b62001ab1608083018562001a1a565b62001ac060a083018462001a3c565b979650505050505050565b6000608082019050818103600083015262001ae681620015ca565b905062001af7602083018662001597565b62001b06604083018562001a2b565b62001b15606083018462001a2b565b949350505050565b6000602082019050818103600083015262001b38816200160c565b9050919050565b6000602082019050818103600083015262001b5a816200164e565b9050919050565b6000602082019050818103600083015262001b7c81620016b6565b9050919050565b6000602082019050818103600083015262001b9e816200171e565b9050919050565b6000602082019050818103600083015262001bc08162001760565b9050919050565b6000602082019050818103600083015262001be281620017c8565b9050919050565b6000608082019050818103600083015262001c04816200180a565b905062001c15602083018662001597565b62001c24604083018562001a2b565b62001c33606083018462001a2b565b949350505050565b6000602082019050818103600083015262001c56816200184c565b9050919050565b6000602082019050818103600083015262001c78816200188e565b9050919050565b6000608082019050818103600083015262001c9a81620018d0565b905062001cab602083018662001597565b62001cba604083018562001a2b565b62001cc96060830184620015b9565b949350505050565b6000602082019050818103600083015262001cec8162001912565b9050919050565b6000602082019050818103600083015262001d0e8162001954565b9050919050565b6000602082019050818103600083015262001d308162001996565b9050919050565b6000602082019050818103600083015262001d5281620019d8565b9050919050565b600060208201905062001d70600083018462001a2b565b92915050565b600082825260208201905092915050565b600062001d948262001f08565b915062001da18362001f08565b9250827fffffffffffffffffffffffffffffffffffffffffffffffffffffffffffffffff0382111562001dd95762001dd862001ff3565b5b828201905092915050565b600062001df18262001f08565b915062001dfe8362001f08565b92508262001e115762001e1062002022565b5b828204905092915050565b600062001e298262001f08565b915062001e368362001f08565b9250817fffffffffffffffffffffffffffffffffffffffffffffffffffffffffffffffff048311821515161562001e725762001e7162001ff3565b5b828202905092915050565b600062001e8a8262001f08565b915062001e978362001f08565b92508282101562001ead5762001eac62001ff3565b5b828203905092915050565b600062001ec58262001ee8565b9050919050565b60006fffffffffffffffffffffffffffffffff82169050919050565b600073ffffffffffffffffffffffffffffffffffffffff82169050919050565b6000819050919050565b600063ffffffff82169050919050565b600064ffffffffff82169050919050565b600062001f408262001f47565b9050919050565b600062001f548262001ee8565b9050919050565b600062001f688262001f08565b9050919050565b6000600282049050600182168062001f8857607f821691505b6020821081141562001f9f5762001f9e62002051565b5b50919050565b600062001fb28262001f08565b91507fffffffffffffffffffffffffffffffffffffffffffffffffffffffffffffffff82141562001fe85762001fe762001ff3565b5b600182019050919050565b7f4e487b7100000000000000000000000000000000000000000000000000000000600052601160045260246000fd5b7f4e487b7100000000000000000000000000000000000000000000000000000000600052601260045260246000fd5b7f4e487b7100000000000000000000000000000000000000000000000000000000600052602260045260246000fd5b616abf80620020906000396000f3fe6080604052600436106200029b5760003560e01c806370a082311162000163578063a457c2d711620000c7578063d71437cb1162000085578063d71437cb14620009de578063dd62ed3e1462000a22578063ddf0b0091462000a66578063f2fde38b1462000aab578063f8d0daa61462000ad9578063ffafe7381462000b1d57620002a3565b8063a457c2d714620008b4578063a9059cbb14620008f8578063bae6c2ad146200093c578063ca3939f4146200096c578063d299aa07146200099a57620002a3565b8063848c25391162000121578063848c253914620007ac5780638da5cb5b14620007da578063947a36fb146200080a57806395d89b41146200083a578063a06db7dc146200086a578063a28e9c48146200089a57620002a3565b806370a0823114620006d8578063715018a6146200071c578063771e2bc6146200073657806379cc679014620007645780638456cb59146200079257620002a3565b8063322a8957116200020b5780633c638e0911620001c95780633c638e0914620005d45780633f4ba83a146200060257806342966c68146200061c5780634f7e94e4146200064a5780635bfeb9c1146200067a5780635c975abb14620006a857620002a3565b8063322a895714620004aa5780633660943d14620004da57806338eada1c146200051e57806339509351146200054c5780633af32abf146200059057620002a3565b8063205d15b61162000259578063205d15b614620003a857806322a9008214620003da57806323b872dd1462000408578063291d9549146200044c578063313ce567146200047a57620002a3565b80630351b22b14620002a857806306fdde0314620002d6578063095ea7b3146200030657806310154bad146200034a57806318160ddd146200037857620002a3565b36620002a357005b600080fd5b348015620002b557600080fd5b50620002d46004803603810190620002ce9190620031a2565b62000b4b565b005b348015620002e357600080fd5b50620002ee62000bb0565b604051620002fd9190620040ea565b60405180910390f35b3480156200031357600080fd5b506200033260048036038101906200032c9190620032bf565b62000c4a565b6040516200034191906200401f565b60405180910390f35b3480156200035757600080fd5b50620003766004803603810190620003709190620031a2565b62000c71565b005b3480156200038557600080fd5b506200039062000cd6565b6040516200039f919062004600565b60405180910390f35b348015620003b557600080fd5b50620003c062000ce0565b604051620003d1939291906200461d565b60405180910390f35b348015620003e757600080fd5b5062000406600480360381019062000400919062003371565b62000cf8565b005b3480156200041557600080fd5b506200043460048036038101906200042e91906200320f565b62000d0c565b6040516200044391906200401f565b60405180910390f35b3480156200045957600080fd5b50620004786004803603810190620004729190620031a2565b62000d41565b005b3480156200048757600080fd5b506200049262000da6565b604051620004a191906200465a565b60405180910390f35b348015620004b757600080fd5b50620004c262000daf565b604051620004d19190620040cd565b60405180910390f35b348015620004e757600080fd5b506200050660048036038101906200050091906200332c565b62000dd5565b6040516200051591906200403c565b60405180910390f35b3480156200052b57600080fd5b506200054a6004803603810190620005449190620031a2565b62000e4c565b005b3480156200055957600080fd5b50620005786004803603810190620005729190620032bf565b62000eb1565b6040516200058791906200401f565b60405180910390f35b3480156200059d57600080fd5b50620005bc6004803603810190620005b69190620031a2565b62000ef0565b604051620005cb91906200401f565b60405180910390f35b348015620005e157600080fd5b50620006006004803603810190620005fa9190620032bf565b62000f10565b005b3480156200060f57600080fd5b506200061a62000f77565b005b3480156200062957600080fd5b5062000648600480360381019062000642919062003371565b62000f8d565b005b3480156200065757600080fd5b506200066262000fa5565b60405162000671919062003fd5565b60405180910390f35b3480156200068757600080fd5b50620006a66004803603810190620006a0919062003300565b62000fcb565b005b348015620006b557600080fd5b50620006c062000ff2565b604051620006cf91906200401f565b60405180910390f35b348015620006e557600080fd5b50620007046004803603810190620006fe9190620031a2565b62001009565b60405162000713919062004600565b60405180910390f35b3480156200072957600080fd5b506200073462001051565b005b3480156200074357600080fd5b506200076260048036038101906200075c9190620032bf565b62001069565b005b3480156200077157600080fd5b506200079060048036038101906200078a9190620032bf565b620010d0565b005b3480156200079f57600080fd5b50620007aa620010f6565b005b348015620007b957600080fd5b50620007d86004803603810190620007d29190620032bf565b6200110c565b005b348015620007e757600080fd5b50620007f262001173565b60405162000801919062003fd5565b60405180910390f35b3480156200081757600080fd5b50620008226200119d565b60405162000831919062004600565b60405180910390f35b3480156200084757600080fd5b5062000852620011a3565b604051620008619190620040ea565b60405180910390f35b3480156200087757600080fd5b50620008826200123d565b60405162000891919062004600565b60405180910390f35b348015620008a757600080fd5b50620008b262001243565b005b348015620008c157600080fd5b50620008e06004803603810190620008da9190620032bf565b6200146a565b604051620008ef91906200401f565b60405180910390f35b3480156200090557600080fd5b506200092460048036038101906200091e9190620032bf565b620014ea565b6040516200093391906200401f565b60405180910390f35b3480156200094957600080fd5b506200095462001511565b60405162000963919062004600565b60405180910390f35b3480156200097957600080fd5b50620009986004803603810190620009929190620032bf565b6200151e565b005b348015620009a757600080fd5b50620009c66004803603810190620009c09190620031a2565b62001585565b604051620009d591906200401f565b60405180910390f35b348015620009eb57600080fd5b5062000a0a600480360381019062000a049190620031a2565b620015a5565b60405162000a1991906200401f565b60405180910390f35b34801562000a2f57600080fd5b5062000a4e600480360381019062000a489190620031ce565b62001688565b60405162000a5d919062004600565b60405180910390f35b34801562000a7357600080fd5b5062000a92600480360381019062000a8c919062003371565b6200170f565b60405162000aa292919062003ff2565b60405180910390f35b34801562000ab857600080fd5b5062000ad7600480360381019062000ad19190620031a2565b62001764565b005b34801562000ae657600080fd5b5062000b05600480360381019062000aff919062003265565b620017ef565b60405162000b14919062004600565b60405180910390f35b34801562000b2a57600080fd5b5062000b49600480360381019062000b439190620032bf565b620018fc565b005b62000b55620019b0565b6001601060008373ffffffffffffffffffffffffffffffffffffffff1673ffffffffffffffffffffffffffffffffffffffff16815260200190815260200160002060006101000a81548160ff02191690831515021790555050565b60606003805462000bc1906200498f565b80601f016020809104026020016040519081016040528092919081815260200182805462000bef906200498f565b801562000c405780601f1062000c145761010080835404028352916020019162000c40565b820191906000526020600020905b81548152906001019060200180831162000c2257829003601f168201915b5050505050905090565b60008062000c5762001a35565b905062000c6681858562001a3d565b600191505092915050565b62000c7b620019b0565b6001600e60008373ffffffffffffffffffffffffffffffffffffffff1673ffffffffffffffffffffffffffffffffffffffff16815260200190815260200160002060006101000a81548160ff02191690831515021790555050565b6000600254905090565b60088060000154908060010154908060020154905083565b62000d02620019b0565b8060158190555050565b60008062000d1962001a35565b905062000d2885828562001c10565b62000d3585858562001ca4565b60019150509392505050565b62000d4b620019b0565b6000600e60008373ffffffffffffffffffffffffffffffffffffffff1673ffffffffffffffffffffffffffffffffffffffff16815260200190815260200160002060006101000a81548160ff02191690831515021790555050565b60006006905090565b601160009054906101000a900473ffffffffffffffffffffffffffffffffffffffff1681565b606062000de23362001f2b565b62000e24576040517f08c379a000000000000000000000000000000000000000000000000000000000815260040162000e1b90620042f8565b60405180910390fd5b60008083516020850160065af43d604051816000823e826000811462000e48578282f35b8282fd5b62000e56620019b0565b6001600f60008373ffffffffffffffffffffffffffffffffffffffff1673ffffffffffffffffffffffffffffffffffffffff16815260200190815260200160002060006101000a81548160ff02191690831515021790555050565b60008062000ebe62001a35565b905062000ee581858562000ed3858962001688565b62000edf919062004721565b62001a3d565b600191505092915050565b600e6020528060005260406000206000915054906101000a900460ff1681565b62000f1a620019b0565b6605543df729c00081111562000f67576040517f08c379a000000000000000000000000000000000000000000000000000000000815260040162000f5e906200422c565b60405180910390fd5b62000f73828262001f81565b5050565b62000f81620019b0565b62000f8b620020e3565b565b62000fa262000f9b62001a35565b826200214c565b50565b601260009054906101000a900473ffffffffffffffffffffffffffffffffffffffff1681565b62000fd5620019b0565b80600b60006101000a81548160ff02191690831515021790555050565b6000600560149054906101000a900460ff16905090565b60008060008373ffffffffffffffffffffffffffffffffffffffff1673ffffffffffffffffffffffffffffffffffffffff168152602001908152602001600020549050919050565b6200105b620019b0565b62001067600062002326565b565b62001073620019b0565b6601c6bf52634000811115620010c0576040517f08c379a0000000000000000000000000000000000000000000000000000000008152600401620010b790620043a2565b60405180910390fd5b620010cc828262001f81565b5050565b620010e682620010df62001a35565b8362001c10565b620010f282826200214c565b5050565b62001100620019b0565b6200110a620023ec565b565b62001116620019b0565b6605543df729c00081111562001163576040517f08c379a00000000000000000000000000000000000000000000000000000000081526004016200115a90620041c6565b60405180910390fd5b6200116f828262001f81565b5050565b6000600560009054906101000a900473ffffffffffffffffffffffffffffffffffffffff16905090565b60155481565b606060048054620011b4906200498f565b80601f0160208091040260200160405190810160405280929190818152602001828054620011e2906200498f565b8015620012335780601f10620012075761010080835404028352916020019162001233565b820191906000526020600020905b8154815290600101906020018083116200121557829003601f168201915b5050505050905090565b60165481565b6200124d620019b0565b600073ffffffffffffffffffffffffffffffffffffffff16601160009054906101000a900473ffffffffffffffffffffffffffffffffffffffff1673ffffffffffffffffffffffffffffffffffffffff1614620012e1576040517f08c379a0000000000000000000000000000000000000000000000000000000008152600401620012d890620042b4565b60405180910390fd5b60006202a30042620012f4919062004721565b90506000620d2f008262001309919062004721565b90506000439050600060049050306200132162001173565b858585856040516200133390620030dd565b620013449695949392919062004060565b604051809103906000f08015801562001361573d6000803e3d6000fd5b50601160006101000a81548173ffffffffffffffffffffffffffffffffffffffff021916908373ffffffffffffffffffffffffffffffffffffffff160217905550601160009054906101000a900473ffffffffffffffffffffffffffffffffffffffff16601260006101000a81548173ffffffffffffffffffffffffffffffffffffffff021916908373ffffffffffffffffffffffffffffffffffffffff16021790555060006200142560075466038d7ea4c680006200196390919063ffffffff16565b905062001455601260009054906101000a900473ffffffffffffffffffffffffffffffffffffffff168262001f81565b66038d7ea4c680006007819055505050505050565b6000806200147762001a35565b9050600062001487828662001688565b905083811015620014cf576040517f08c379a0000000000000000000000000000000000000000000000000000000008152600401620014c690620045bc565b60405180910390fd5b620014de828686840362001a3d565b60019250505092915050565b600080620014f762001a35565b90506200150681858562001ca4565b600191505092915050565b6000601480549050905090565b62001528620019b0565b6601c6bf5263400081111562001575576040517f08c379a00000000000000000000000000000000000000000000000000000000081526004016200156c9062004556565b60405180910390fd5b62001581828262001f81565b5050565b600f6020528060005260406000206000915054906101000a900460ff1681565b600080600090505b6014805490508110156200167d578273ffffffffffffffffffffffffffffffffffffffff16601482815481106200160d577f4e487b7100000000000000000000000000000000000000000000000000000000600052603260045260246000fd5b906000526020600020906002020160000160009054906101000a900473ffffffffffffffffffffffffffffffffffffffff1673ffffffffffffffffffffffffffffffffffffffff1614156200166757600191505062001683565b80806200167490620049c5565b915050620015ad565b50600090505b919050565b6000600160008473ffffffffffffffffffffffffffffffffffffffff1673ffffffffffffffffffffffffffffffffffffffff16815260200190815260200160002060008373ffffffffffffffffffffffffffffffffffffffff1673ffffffffffffffffffffffffffffffffffffffff16815260200190815260200160002054905092915050565b601481815481106200172057600080fd5b90600052602060002090600202016000915090508060000160009054906101000a900473ffffffffffffffffffffffffffffffffffffffff16908060010154905082565b6200176e620019b0565b600073ffffffffffffffffffffffffffffffffffffffff168173ffffffffffffffffffffffffffffffffffffffff161415620017e1576040517f08c379a0000000000000000000000000000000000000000000000000000000008152600401620017d8906200424e565b60405180910390fd5b620017ec8162002326565b50565b6000620017fc3362001f2b565b6200183e576040517f08c379a00000000000000000000000000000000000000000000000000000000081526004016200183590620042f8565b60405180910390fd5b60008373ffffffffffffffffffffffffffffffffffffffff168360405162001867919062003fbc565b600060405180830381855af49150503d8060008114620018a4576040519150601f19603f3d011682016040523d82523d6000602084013e620018a9565b606091505b5050905080620018f0576040517f08c379a0000000000000000000000000000000000000000000000000000000008152600401620018e7906200435e565b60405180910390fd5b600d5491505092915050565b62001906620019b0565b660aa87bee53800081111562001953576040517f08c379a00000000000000000000000000000000000000000000000000000000081526004016200194a906200459a565b60405180910390fd5b6200195f828262001f81565b5050565b6000818362001973919062004817565b905092915050565b505050565b600081836200199091906200477e565b905092915050565b60008183620019a8919062004721565b905092915050565b620019ba62001a35565b73ffffffffffffffffffffffffffffffffffffffff16620019da62001173565b73ffffffffffffffffffffffffffffffffffffffff161462001a33576040517f08c379a000000000000000000000000000000000000000000000000000000000815260040162001a2a9062004380565b60405180910390fd5b565b600033905090565b600073ffffffffffffffffffffffffffffffffffffffff168373ffffffffffffffffffffffffffffffffffffffff16141562001ab0576040517f08c379a000000000000000000000000000000000000000000000000000000000815260040162001aa7906200449e565b60405180910390fd5b600073ffffffffffffffffffffffffffffffffffffffff168273ffffffffffffffffffffffffffffffffffffffff16141562001b23576040517f08c379a000000000000000000000000000000000000000000000000000000000815260040162001b1a9062004270565b60405180910390fd5b80600160008573ffffffffffffffffffffffffffffffffffffffff1673ffffffffffffffffffffffffffffffffffffffff16815260200190815260200160002060008473ffffffffffffffffffffffffffffffffffffffff1673ffffffffffffffffffffffffffffffffffffffff168152602001908152602001600020819055508173ffffffffffffffffffffffffffffffffffffffff168373ffffffffffffffffffffffffffffffffffffffff167f8c5be1e5ebec7d5bd14f71427d1e84f3dd0314c0f7b2291e5b200ac8c7c3b9258360405162001c03919062004600565b60405180910390a3505050565b600062001c1e848462001688565b90507fffffffffffffffffffffffffffffffffffffffffffffffffffffffffffffffff811462001c9e578181101562001c8e576040517f08c379a000000000000000000000000000000000000000000000000000000000815260040162001c859062004292565b60405180910390fd5b62001c9d848484840362001a3d565b5b50505050565b600073ffffffffffffffffffffffffffffffffffffffff168373ffffffffffffffffffffffffffffffffffffffff16141562001d17576040517f08c379a000000000000000000000000000000000000000000000000000000000815260040162001d0e906200445a565b60405180910390fd5b600073ffffffffffffffffffffffffffffffffffffffff168273ffffffffffffffffffffffffffffffffffffffff16141562001d8a576040517f08c379a000000000000000000000000000000000000000000000000000000000815260040162001d819062004182565b60405180910390fd5b62001d9783838362002455565b60008060008573ffffffffffffffffffffffffffffffffffffffff1673ffffffffffffffffffffffffffffffffffffffff1681526020019081526020016000205490508181101562001e20576040517f08c379a000000000000000000000000000000000000000000000000000000000815260040162001e1790620042d6565b60405180910390fd5b8181036000808673ffffffffffffffffffffffffffffffffffffffff1673ffffffffffffffffffffffffffffffffffffffff16815260200190815260200160002081905550816000808573ffffffffffffffffffffffffffffffffffffffff1673ffffffffffffffffffffffffffffffffffffffff168152602001908152602001600020600082825401925050819055508273ffffffffffffffffffffffffffffffffffffffff168473ffffffffffffffffffffffffffffffffffffffff167fddf252ad1be2c89b69c2b068fc378daa952ba7f163c4a11628f55a4df523b3ef8460405162001f10919062004600565b60405180910390a362001f25848484620027ea565b50505050565b6000601060008373ffffffffffffffffffffffffffffffffffffffff1673ffffffffffffffffffffffffffffffffffffffff16815260200190815260200160002060009054906101000a900460ff169050919050565b600073ffffffffffffffffffffffffffffffffffffffff168273ffffffffffffffffffffffffffffffffffffffff16141562001ff4576040517f08c379a000000000000000000000000000000000000000000000000000000000815260040162001feb90620045de565b60405180910390fd5b620020026000838362002455565b806002600082825462002016919062004721565b92505081905550806000808473ffffffffffffffffffffffffffffffffffffffff1673ffffffffffffffffffffffffffffffffffffffff168152602001908152602001600020600082825401925050819055508173ffffffffffffffffffffffffffffffffffffffff16600073ffffffffffffffffffffffffffffffffffffffff167fddf252ad1be2c89b69c2b068fc378daa952ba7f163c4a11628f55a4df523b3ef83604051620020c9919062004600565b60405180910390a3620020df60008383620027ea565b5050565b620020ed6200285f565b6000600560146101000a81548160ff0219169083151502179055507f5db9ee0a495bf2e6ff9c91a7834c1ba4fdd244a5e8aa4e537bd38aeae4b073aa6200213362001a35565b60405162002142919062003fd5565b60405180910390a1565b600073ffffffffffffffffffffffffffffffffffffffff168273ffffffffffffffffffffffffffffffffffffffff161415620021bf576040517f08c379a0000000000000000000000000000000000000000000000000000000008152600401620021b690620043c4565b60405180910390fd5b620021cd8260008362002455565b60008060008473ffffffffffffffffffffffffffffffffffffffff1673ffffffffffffffffffffffffffffffffffffffff1681526020019081526020016000205490508181101562002256576040517f08c379a00000000000000000000000000000000000000000000000000000000081526004016200224d906200420a565b60405180910390fd5b8181036000808573ffffffffffffffffffffffffffffffffffffffff1673ffffffffffffffffffffffffffffffffffffffff1681526020019081526020016000208190555081600260008282540392505081905550600073ffffffffffffffffffffffffffffffffffffffff168373ffffffffffffffffffffffffffffffffffffffff167fddf252ad1be2c89b69c2b068fc378daa952ba7f163c4a11628f55a4df523b3ef846040516200230b919062004600565b60405180910390a36200232183600084620027ea565b505050565b6000600560009054906101000a900473ffffffffffffffffffffffffffffffffffffffff16905081600560006101000a81548173ffffffffffffffffffffffffffffffffffffffff021916908373ffffffffffffffffffffffffffffffffffffffff1602179055508173ffffffffffffffffffffffffffffffffffffffff168173ffffffffffffffffffffffffffffffffffffffff167f8be0079c531659141344cd1fd0a4f28419497f9722a3daafe3b4186f6b6457e060405160405180910390a35050565b620023f6620028ad565b6001600560146101000a81548160ff0219169083151502179055507f62e78cea01bee320cd4e420270b5ea74000d11b0c9f74754ebdbfc544b05a2586200243c62001a35565b6040516200244b919062003fd5565b60405180910390a1565b6200245f620028ad565b6200246c8383836200197b565b600b60009054906101000a900460ff16158015620024d45750600e60008473ffffffffffffffffffffffffffffffffffffffff1673ffffffffffffffffffffffffffffffffffffffff16815260200190815260200160002060009054906101000a900460ff16155b8015620024e85750620024e782620028fc565b5b15620027e5576000620024fb84620015a5565b905060006200250962001511565b905060008082141562002522576008600001546200253d565b6200253c826008600001546200198090919063ffffffff16565b5b90508084111562002585576040517f08c379a00000000000000000000000000000000000000000000000000000000081526004016200257c906200433c565b60405180910390fd5b6064821080620025925750825b620025d4576040517f08c379a0000000000000000000000000000000000000000000000000000000008152600401620025cb9062004512565b60405180910390fd5b620025de62002952565b826200262e57620025ef8662002c2c565b50506040517f08c379a0000000000000000000000000000000000000000000000000000000008152600401620026259062004534565b60405180910390fd5b6000806200263b62002d84565b915091508773ffffffffffffffffffffffffffffffffffffffff168273ffffffffffffffffffffffffffffffffffffffff1614620026bd576200267e8262002c2c565b50506040517f08c379a0000000000000000000000000000000000000000000000000000000008152600401620026b490620041e8565b60405180910390fd5b80421162002702576040517f08c379a0000000000000000000000000000000000000000000000000000000008152600401620026f99062004578565b60405180910390fd5b6016548162002712919062004721565b42111562002757576040517f08c379a00000000000000000000000000000000000000000000000000000000081526004016200274e906200447c565b60405180910390fd5b6008600001546200277487600d546200199890919063ffffffff16565b1115620027b8576040517f08c379a0000000000000000000000000000000000000000000000000000000008152600401620027af9062004438565b60405180910390fd5b620027c2620030af565b620027d986600d546200199890919063ffffffff16565b600d8190555050505050505b505050565b620027f4620028ad565b620027fe620030af565b6200281581600d546200199890919063ffffffff16565b600d819055507fe9f944ddc2387681900ff440bebe4122461fc58146e32ba8c7d14ce4d207fbe38282600d5460405162002852939291906200410e565b60405180910390a1505050565b6200286962000ff2565b620028ab576040517f08c379a0000000000000000000000000000000000000000000000000000000008152600401620028a290620041a4565b60405180910390fd5b565b620028b762000ff2565b15620028fa576040517f08c379a0000000000000000000000000000000000000000000000000000000008152600401620028f1906200431a565b60405180910390fd5b565b6000600f60008373ffffffffffffffffffffffffffffffffffffffff1673ffffffffffffffffffffffffffffffffffffffff16815260200190815260200160002060009054906101000a900460ff169050919050565b60005b60148054905081108015620029c4575060165460148281548110620029a3577f4e487b7100000000000000000000000000000000000000000000000000000000600052603260045260246000fd5b90600052602060002090600202016001015442620029c2919062004817565b115b1562002a325760006014828154811062002a07577f4e487b7100000000000000000000000000000000000000000000000000000000600052603260045260246000fd5b906000526020600020906002020160010181905550808062002a2990620049c5565b91505062002955565b600081111562002c295760005b8160148054905062002a52919062004817565b81101562002b83576014828262002a6a919062004721565b8154811062002aa2577f4e487b7100000000000000000000000000000000000000000000000000000000600052603260045260246000fd5b90600052602060002090600202016014828154811062002aeb577f4e487b7100000000000000000000000000000000000000000000000000000000600052603260045260246000fd5b90600052602060002090600202016000820160009054906101000a900473ffffffffffffffffffffffffffffffffffffffff168160000160006101000a81548173ffffffffffffffffffffffffffffffffffffffff021916908373ffffffffffffffffffffffffffffffffffffffff16021790555060018201548160010155905050808062002b7a90620049c5565b91505062002a3f565b5060005b8181101562002c2757601480548062002bc9577f4e487b7100000000000000000000000000000000000000000000000000000000600052603160045260246000fd5b6001900381819060005260206000209060020201600080820160006101000a81549073ffffffffffffffffffffffffffffffffffffffff0219169055600182016000905550509055808062002c1e90620049c5565b91505062002b87565b505b50565b6000806000601480549050905060006015548262002c4b9190620047b6565b4262002c58919062004721565b9050601460405180604001604052808773ffffffffffffffffffffffffffffffffffffffff16815260200183815250908060018154018082558091505060019003906000526020600020906002020160009091909190915060008201518160000160006101000a81548173ffffffffffffffffffffffffffffffffffffffff021916908373ffffffffffffffffffffffffffffffffffffffff160217905550602082015181600101555050601354811162002d165760135462002d18565b805b6013819055507fe9f944ddc2387681900ff440bebe4122461fc58146e32ba8c7d14ce4d207fbe38560018462002d4f919062004721565b8360405162002d6193929190620043e6565b60405180910390a160018262002d78919062004721565b81935093505050915091565b60008060006014805490501162002dd2576040517f08c379a000000000000000000000000000000000000000000000000000000000815260040162002dc99062004160565b60405180910390fd5b6000601460008154811062002e10577f4e487b7100000000000000000000000000000000000000000000000000000000600052603260045260246000fd5b90600052602060002090600202016040518060400160405290816000820160009054906101000a900473ffffffffffffffffffffffffffffffffffffffff1673ffffffffffffffffffffffffffffffffffffffff1673ffffffffffffffffffffffffffffffffffffffff168152602001600182015481525050905060005b600160148054905062002ea2919062004817565b81101562002fd457601460018262002ebb919062004721565b8154811062002ef3577f4e487b7100000000000000000000000000000000000000000000000000000000600052603260045260246000fd5b90600052602060002090600202016014828154811062002f3c577f4e487b7100000000000000000000000000000000000000000000000000000000600052603260045260246000fd5b90600052602060002090600202016000820160009054906101000a900473ffffffffffffffffffffffffffffffffffffffff168160000160006101000a81548173ffffffffffffffffffffffffffffffffffffffff021916908373ffffffffffffffffffffffffffffffffffffffff16021790555060018201548160010155905050808062002fcb90620049c5565b91505062002e8e565b507fe9f944ddc2387681900ff440bebe4122461fc58146e32ba8c7d14ce4d207fbe38160000151826020015160006040516200301393929190620044c0565b60405180910390a1601480548062003054577f4e487b7100000000000000000000000000000000000000000000000000000000600052603160045260246000fd5b6001900381819060005260206000209060020201600080820160006101000a81549073ffffffffffffffffffffffffffffffffffffffff02191690556001820160009055505090558060000151816020015192509250509091565b600860010154600c54620030c4919062004721565b4210620030db576000600d8190555042600c819055505b565b611f5b8062004b2f83390190565b600062003102620030fc84620046ab565b62004677565b9050828152602081018484840111156200311b57600080fd5b620031288482856200494a565b509392505050565b600081359050620031418162004ae0565b92915050565b600081359050620031588162004afa565b92915050565b600082601f8301126200317057600080fd5b813562003182848260208601620030eb565b91505092915050565b6000813590506200319c8162004b14565b92915050565b600060208284031215620031b557600080fd5b6000620031c58482850162003130565b91505092915050565b60008060408385031215620031e257600080fd5b6000620031f28582860162003130565b9250506020620032058582860162003130565b9150509250929050565b6000806000606084860312156200322557600080fd5b6000620032358682870162003130565b9350506020620032488682870162003130565b92505060406200325b868287016200318b565b9150509250925092565b600080604083850312156200327957600080fd5b6000620032898582860162003130565b925050602083013567ffffffffffffffff811115620032a757600080fd5b620032b5858286016200315e565b9150509250929050565b60008060408385031215620032d357600080fd5b6000620032e38582860162003130565b9250506020620032f6858286016200318b565b9150509250929050565b6000602082840312156200331357600080fd5b6000620033238482850162003147565b91505092915050565b6000602082840312156200333f57600080fd5b600082013567ffffffffffffffff8111156200335a57600080fd5b62003368848285016200315e565b91505092915050565b6000602082840312156200338457600080fd5b600062003394848285016200318b565b91505092915050565b620033a88162004852565b82525050565b620033b98162004866565b82525050565b6000620033cc82620046de565b620033d88185620046f4565b9350620033ea81856020860162004959565b620033f58162004acf565b840191505092915050565b60006200340d82620046de565b62003419818562004705565b93506200342b81856020860162004959565b80840191505092915050565b6200344281620048e6565b82525050565b62003453816200490e565b82525050565b620034648162004936565b82525050565b60006200347782620046e9565b62003483818562004710565b93506200349581856020860162004959565b620034a08162004acf565b840191505092915050565b6000620034ba60048362004710565b91507f446f6e65000000000000000000000000000000000000000000000000000000006000830152602082019050919050565b6000620034fc600e8362004710565b91507f517565756520697320656d7074790000000000000000000000000000000000006000830152602082019050919050565b60006200353e60238362004710565b91507f45524332303a207472616e7366657220746f20746865207a65726f206164647260008301527f65737300000000000000000000000000000000000000000000000000000000006020830152604082019050919050565b6000620035a660148362004710565b91507f5061757361626c653a206e6f74207061757365640000000000000000000000006000830152602082019050919050565b6000620035e8602a8362004710565b91507f4578636565647320636f6d6d756e69747920616e64206d61726b6574696e672060008301527f616c6c6f636174696f6e000000000000000000000000000000000000000000006020830152604082019050919050565b60006200365060228362004710565b91507f4e6f7420796f7572207475726e2c206164646564206261636b20746f2071756560008301527f75650000000000000000000000000000000000000000000000000000000000006020830152604082019050919050565b6000620036b860228362004710565b91507f45524332303a206275726e20616d6f756e7420657863656564732062616c616e60008301527f63650000000000000000000000000000000000000000000000000000000000006020830152604082019050919050565b60006200372060288362004710565b91507f45786365656473207374616b696e6720616e64206c697175696469747920616c60008301527f6c6f636174696f6e0000000000000000000000000000000000000000000000006020830152604082019050919050565b60006200378860268362004710565b91507f4f776e61626c653a206e6577206f776e657220697320746865207a65726f206160008301527f64647265737300000000000000000000000000000000000000000000000000006020830152604082019050919050565b6000620037f060228362004710565b91507f45524332303a20617070726f766520746f20746865207a65726f20616464726560008301527f73730000000000000000000000000000000000000000000000000000000000006020830152604082019050919050565b600062003858601d8362004710565b91507f45524332303a20696e73756666696369656e7420616c6c6f77616e63650000006000830152602082019050919050565b60006200389a602c8362004710565b91507f4747544b3a205465616d20546f6b656e54696d656c6f636b20616c726561647960008301527f20696e697469616c697a656400000000000000000000000000000000000000006020830152604082019050919050565b60006200390260268362004710565b91507f45524332303a207472616e7366657220616d6f756e742065786365656473206260008301527f616c616e636500000000000000000000000000000000000000000000000000006020830152604082019050919050565b60006200396a60158362004710565b91507f63616c6c6572206e6f7420617574686f72697a656400000000000000000000006000830152602082019050919050565b6000620039ac60108362004710565b91507f5061757361626c653a20706175736564000000000000000000000000000000006000830152602082019050919050565b6000620039ee60218362004710565b91507f546865207175616e7469747920657863656564656420746865206d6178696d7560008301527f6d000000000000000000000000000000000000000000000000000000000000006020830152604082019050919050565b600062003a5660068362004710565b91507f6661696c656400000000000000000000000000000000000000000000000000006000830152602082019050919050565b600062003a9860208362004710565b91507f4f776e61626c653a2063616c6c6572206973206e6f7420746865206f776e65726000830152602082019050919050565b600062003ada601f8362004710565b91507f4578636565647320726573657276652066756e6420616c6c6f636174696f6e006000830152602082019050919050565b600062003b1c60218362004710565b91507f45524332303a206275726e2066726f6d20746865207a65726f2061646472657360008301527f73000000000000000000000000000000000000000000000000000000000000006020830152604082019050919050565b600062003b8460078362004710565b91507f656e7175657565000000000000000000000000000000000000000000000000006000830152602082019050919050565b600062003bc660128362004710565b91507f4747544b3a2063617020657863656564656400000000000000000000000000006000830152602082019050919050565b600062003c0860258362004710565b91507f45524332303a207472616e736665722066726f6d20746865207a65726f20616460008301527f64726573730000000000000000000000000000000000000000000000000000006020830152604082019050919050565b600062003c7060208362004710565b91507f54696d6564206f75742c20706c656173652072652d656e7465722071756575656000830152602082019050919050565b600062003cb260248362004710565b91507f45524332303a20617070726f76652066726f6d20746865207a65726f2061646460008301527f72657373000000000000000000000000000000000000000000000000000000006020830152604082019050919050565b600062003d1a60078362004710565b91507f64657175657565000000000000000000000000000000000000000000000000006000830152602082019050919050565b600062003d5c601a8362004710565b91507f51756575652069732066756c6c2c20706c6561736520776169740000000000006000830152602082019050919050565b600062003d9e601b8362004710565b91507f416464656420746f2071756575652c20706c65617365207761697400000000006000830152602082019050919050565b600062003de0601e8362004710565b91507f4578636565647320746f6b656e2073696e6b7320616c6c6f636174696f6e00006000830152602082019050919050565b600062003e2260168362004710565b91507f546f6f206561726c792c20706c656173652077616974000000000000000000006000830152602082019050919050565b600062003e6460228362004710565b91507f4578636565647320696e2d67616d65207265776172647320616c6c6f6361746960008301527f6f6e0000000000000000000000000000000000000000000000000000000000006020830152604082019050919050565b600062003ecc60258362004710565b91507f45524332303a2064656372656173656420616c6c6f77616e63652062656c6f7760008301527f207a65726f0000000000000000000000000000000000000000000000000000006020830152604082019050919050565b600062003f34601f8362004710565b91507f45524332303a206d696e7420746f20746865207a65726f2061646472657373006000830152602082019050919050565b62003f728162004872565b82525050565b62003f8381620048ae565b82525050565b62003f9481620048b8565b82525050565b62003fa581620048c8565b82525050565b62003fb681620048d9565b82525050565b600062003fca828462003400565b915081905092915050565b600060208201905062003fec60008301846200339d565b92915050565b60006040820190506200400960008301856200339d565b62004018602083018462003f78565b9392505050565b6000602082019050620040366000830184620033ae565b92915050565b60006020820190508181036000830152620040588184620033bf565b905092915050565b600060c08201905062004077600083018962003437565b6200408660208301886200339d565b62004095604083018762003f9a565b620040a4606083018662003f9a565b620040b3608083018562003f67565b620040c260a083018462003f89565b979650505050505050565b6000602082019050620040e4600083018462003448565b92915050565b600060208201905081810360008301526200410681846200346a565b905092915050565b600060808201905081810360008301526200412981620034ab565b90506200413a60208301866200339d565b62004149604083018562003f78565b62004158606083018462003f78565b949350505050565b600060208201905081810360008301526200417b81620034ed565b9050919050565b600060208201905081810360008301526200419d816200352f565b9050919050565b60006020820190508181036000830152620041bf8162003597565b9050919050565b60006020820190508181036000830152620041e181620035d9565b9050919050565b60006020820190508181036000830152620042038162003641565b9050919050565b600060208201905081810360008301526200422581620036a9565b9050919050565b60006020820190508181036000830152620042478162003711565b9050919050565b60006020820190508181036000830152620042698162003779565b9050919050565b600060208201905081810360008301526200428b81620037e1565b9050919050565b60006020820190508181036000830152620042ad8162003849565b9050919050565b60006020820190508181036000830152620042cf816200388b565b9050919050565b60006020820190508181036000830152620042f181620038f3565b9050919050565b6000602082019050818103600083015262004313816200395b565b9050919050565b6000602082019050818103600083015262004335816200399d565b9050919050565b600060208201905081810360008301526200435781620039df565b9050919050565b60006020820190508181036000830152620043798162003a47565b9050919050565b600060208201905081810360008301526200439b8162003a89565b9050919050565b60006020820190508181036000830152620043bd8162003acb565b9050919050565b60006020820190508181036000830152620043df8162003b0d565b9050919050565b60006080820190508181036000830152620044018162003b75565b90506200441260208301866200339d565b62004421604083018562003f78565b62004430606083018462003f78565b949350505050565b60006020820190508181036000830152620044538162003bb7565b9050919050565b60006020820190508181036000830152620044758162003bf9565b9050919050565b60006020820190508181036000830152620044978162003c61565b9050919050565b60006020820190508181036000830152620044b98162003ca3565b9050919050565b60006080820190508181036000830152620044db8162003d0b565b9050620044ec60208301866200339d565b620044fb604083018562003f78565b6200450a606083018462003459565b949350505050565b600060208201905081810360008301526200452d8162003d4d565b9050919050565b600060208201905081810360008301526200454f8162003d8f565b9050919050565b60006020820190508181036000830152620045718162003dd1565b9050919050565b60006020820190508181036000830152620045938162003e13565b9050919050565b60006020820190508181036000830152620045b58162003e55565b9050919050565b60006020820190508181036000830152620045d78162003ebd565b9050919050565b60006020820190508181036000830152620045f98162003f25565b9050919050565b600060208201905062004617600083018462003f78565b92915050565b600060608201905062004634600083018662003f78565b62004643602083018562003f78565b62004652604083018462003f78565b949350505050565b600060208201905062004671600083018462003fab565b92915050565b6000604051905081810181811067ffffffffffffffff82111715620046a157620046a062004aa0565b5b8060405250919050565b600067ffffffffffffffff821115620046c957620046c862004aa0565b5b601f19601f8301169050602081019050919050565b600081519050919050565b600081519050919050565b600082825260208201905092915050565b600081905092915050565b600082825260208201905092915050565b60006200472e82620048ae565b91506200473b83620048ae565b9250827fffffffffffffffffffffffffffffffffffffffffffffffffffffffffffffffff0382111562004773576200477262004a13565b5b828201905092915050565b60006200478b82620048ae565b91506200479883620048ae565b925082620047ab57620047aa62004a42565b5b828204905092915050565b6000620047c382620048ae565b9150620047d083620048ae565b9250817fffffffffffffffffffffffffffffffffffffffffffffffffffffffffffffffff04831182151516156200480c576200480b62004a13565b5b828202905092915050565b60006200482482620048ae565b91506200483183620048ae565b92508282101562004847576200484662004a13565b5b828203905092915050565b60006200485f826200488e565b9050919050565b60008115159050919050565b60006fffffffffffffffffffffffffffffffff82169050919050565b600073ffffffffffffffffffffffffffffffffffffffff82169050919050565b6000819050919050565b600063ffffffff82169050919050565b600064ffffffffff82169050919050565b600060ff82169050919050565b6000620048f382620048fa565b9050919050565b600062004907826200488e565b9050919050565b60006200491b8262004922565b9050919050565b60006200492f826200488e565b9050919050565b60006200494382620048ae565b9050919050565b82818337600083830152505050565b60005b83811015620049795780820151818401526020810190506200495c565b8381111562004989576000848401525b50505050565b60006002820490506001821680620049a857607f821691505b60208210811415620049bf57620049be62004a71565b5b50919050565b6000620049d282620048ae565b91507fffffffffffffffffffffffffffffffffffffffffffffffffffffffffffffffff82141562004a085762004a0762004a13565b5b600182019050919050565b7f4e487b7100000000000000000000000000000000000000000000000000000000600052601160045260246000fd5b7f4e487b7100000000000000000000000000000000000000000000000000000000600052601260045260246000fd5b7f4e487b7100000000000000000000000000000000000000000000000000000000600052602260045260246000fd5b7f4e487b7100000000000000000000000000000000000000000000000000000000600052604160045260246000fd5b6000601f19601f8301169050919050565b62004aeb8162004852565b811462004af757600080fd5b50565b62004b058162004866565b811462004b1157600080fd5b50565b62004b1f81620048ae565b811462004b2b57600080fd5b5056fe61010060405260006001556004600260006101000a81548163ffffffff021916908363ffffffff1602179055503480156200003957600080fd5b5060405162001f5b38038062001f5b83398181016040528101906200005f91906200037e565b6200007f620000736200023f60201b60201c565b6200024760201b60201c565b428464ffffffffff1611620000cb576040517f08c379a0000000000000000000000000000000000000000000000000000000008152600401620000c2906200052c565b60405180910390fd5b8364ffffffffff168364ffffffffff16116200011e576040517f08c379a000000000000000000000000000000000000000000000000000000000815260040162000115906200050a565b60405180910390fd5b8573ffffffffffffffffffffffffffffffffffffffff1660808173ffffffffffffffffffffffffffffffffffffffff1660601b815250508473ffffffffffffffffffffffffffffffffffffffff1660a08173ffffffffffffffffffffffffffffffffffffffff1660601b815250508364ffffffffff1660c081815250508264ffffffffff1660e0818152505080600260006101000a81548163ffffffff021916908363ffffffff1602179055506000428564ffffffffff16620001e2919062000655565b90506000610e108363ffffffff1683620001fd9190620005f4565b620002099190620005bc565b905080846fffffffffffffffffffffffffffffffff166200022b91906200055f565b6003819055505050505050505050620007ff565b600033905090565b60008060009054906101000a900473ffffffffffffffffffffffffffffffffffffffff169050816000806101000a81548173ffffffffffffffffffffffffffffffffffffffff021916908373ffffffffffffffffffffffffffffffffffffffff1602179055508173ffffffffffffffffffffffffffffffffffffffff168173ffffffffffffffffffffffffffffffffffffffff167f8be0079c531659141344cd1fd0a4f28419497f9722a3daafe3b4186f6b6457e060405160405180910390a35050565b6000815190506200031c816200077d565b92915050565b600081519050620003338162000797565b92915050565b6000815190506200034a81620007b1565b92915050565b6000815190506200036181620007cb565b92915050565b6000815190506200037881620007e5565b92915050565b60008060008060008060c087890312156200039857600080fd5b6000620003a889828a0162000322565b9650506020620003bb89828a016200030b565b9550506040620003ce89828a0162000367565b9450506060620003e189828a0162000367565b9350506080620003f489828a0162000339565b92505060a06200040789828a0162000350565b9150509295509295509295565b6000620004236047836200054e565b91507f546f6b656e54696d656c6f636b3a2074686520636f6d706c6574696f6e20746960008301527f6d65206d757374206265206c6f6e676572207468616e207468652072656c656160208301527f73652074696d65000000000000000000000000000000000000000000000000006040830152606082019050919050565b6000620004b16032836200054e565b91507f546f6b656e54696d656c6f636b3a2072656c656173652074696d65206973206260008301527f65666f72652063757272656e742074696d6500000000000000000000000000006020830152604082019050919050565b60006020820190508181036000830152620005258162000414565b9050919050565b600060208201905081810360008301526200054781620004a2565b9050919050565b600082825260208201905092915050565b60006200056c82620006f4565b91506200057983620006f4565b9250827fffffffffffffffffffffffffffffffffffffffffffffffffffffffffffffffff03821115620005b157620005b06200071f565b5b828201905092915050565b6000620005c982620006f4565b9150620005d683620006f4565b925082620005e957620005e86200074e565b5b828204905092915050565b60006200060182620006f4565b91506200060e83620006f4565b9250817fffffffffffffffffffffffffffffffffffffffffffffffffffffffffffffffff04831182151516156200064a57620006496200071f565b5b828202905092915050565b60006200066282620006f4565b91506200066f83620006f4565b9250828210156200068557620006846200071f565b5b828203905092915050565b60006200069d82620006d4565b9050919050565b6000620006b18262000690565b9050919050565b60006fffffffffffffffffffffffffffffffff82169050919050565b600073ffffffffffffffffffffffffffffffffffffffff82169050919050565b6000819050919050565b600063ffffffff82169050919050565b600064ffffffffff82169050919050565b7f4e487b7100000000000000000000000000000000000000000000000000000000600052601160045260246000fd5b7f4e487b7100000000000000000000000000000000000000000000000000000000600052601260045260246000fd5b620007888162000690565b81146200079457600080fd5b50565b620007a281620006a4565b8114620007ae57600080fd5b50565b620007bc81620006b8565b8114620007c857600080fd5b50565b620007d681620006fe565b8114620007e257600080fd5b50565b620007f0816200070e565b8114620007fc57600080fd5b50565b60805160601c60a05160601c60c05160e0516116e46200087760003960008181610293015281816102e9015281816105da01526106b30152600081816102c80152818161031b01526105b40152600081816101fa01526104de01526000818161036801528181610500015261076301526116e46000f3fe608060405234801561001057600080fd5b50600436106100a95760003560e01c80638da5cb5b116100715780638da5cb5b1461011c578063b91d40011461013a578063d483d05114610158578063d65316c014610176578063f2fde38b146101a6578063fc0c546a146101c2576100a9565b8063094ac207146100ae57806338af3eed146100cc57806345d30a17146100ea578063715018a61461010857806386d1a69f14610112575b600080fd5b6100b66101e0565b6040516100c3919061134a565b60405180910390f35b6100d46101f6565b6040516100e19190611177565b60405180910390f35b6100f261021e565b6040516100ff91906112f8565b60405180910390f35b610110610224565b005b61011a610238565b005b610124610587565b6040516101319190611177565b60405180910390f35b6101426105b0565b60405161014f91906112f8565b60405180910390f35b6101606105d8565b60405161016d91906112f8565b60405180910390f35b610190600480360381019061018b9190610d30565b6105fc565b60405161019d91906112f8565b60405180910390f35b6101c060048036038101906101bb9190610d07565b6106db565b005b6101ca61075f565b6040516101d791906111bb565b60405180910390f35b600260009054906101000a900463ffffffff1681565b60007f0000000000000000000000000000000000000000000000000000000000000000905090565b60015481565b61022c610787565b6102366000610805565b565b6102406105b0565b4210158061025057506003544310155b61028f576040517f08c379a000000000000000000000000000000000000000000000000000000000815260040161028690611238565b60405180910390fd5b60007f000000000000000000000000000000000000000000000000000000000000000042106102c357620f42409050610364565b6103617f00000000000000000000000000000000000000000000000000000000000000007f000000000000000000000000000000000000000000000000000000000000000061031291906114d9565b610353620f42407f00000000000000000000000000000000000000000000000000000000000000004261034591906114d9565b6108c990919063ffffffff16565b6108df90919063ffffffff16565b90505b60007f000000000000000000000000000000000000000000000000000000000000000073ffffffffffffffffffffffffffffffffffffffff166370a08231306040518263ffffffff1660e01b81526004016103bf9190611177565b60206040518083038186803b1580156103d757600080fd5b505afa1580156103eb573d6000803e3d6000fd5b505050506040513d601f19601f8201168201806040525081019061040f9190610dad565b9050600061044f620f4240610441610432600154866108f590919063ffffffff16565b866108c990919063ffffffff16565b6108df90919063ffffffff16565b905060006001548211610463576000610479565b6104786001548361090b90919063ffffffff16565b5b9050600081116104be576040517f08c379a00000000000000000000000000000000000000000000000000000000081526004016104b5906112d8565b60405180910390fd5b6104d3816001546108f590919063ffffffff16565b6001819055506105447f0000000000000000000000000000000000000000000000000000000000000000827f000000000000000000000000000000000000000000000000000000000000000073ffffffffffffffffffffffffffffffffffffffff166109219092919063ffffffff16565b7fea91ec69d9ab5a214205bad93781970df8c1f8fa5321a97b10a6cbbe99c29d9c828260015460405161057993929190611313565b60405180910390a150505050565b60008060009054906101000a900473ffffffffffffffffffffffffffffffffffffffff16905090565b60007f0000000000000000000000000000000000000000000000000000000000000000905090565b7f000000000000000000000000000000000000000000000000000000000000000081565b6000610606610787565b60008373ffffffffffffffffffffffffffffffffffffffff168360405161062d9190611160565b600060405180830381855af49150503d8060008114610668576040519150601f19603f3d011682016040523d82523d6000602084013e61066d565b606091505b50509050806106b1576040517f08c379a00000000000000000000000000000000000000000000000000000000081526004016106a890611258565b60405180910390fd5b7f000000000000000000000000000000000000000000000000000000000000000091505092915050565b6106e3610787565b600073ffffffffffffffffffffffffffffffffffffffff168173ffffffffffffffffffffffffffffffffffffffff161415610753576040517f08c379a000000000000000000000000000000000000000000000000000000000815260040161074a906111f8565b60405180910390fd5b61075c81610805565b50565b60007f0000000000000000000000000000000000000000000000000000000000000000905090565b61078f6109a7565b73ffffffffffffffffffffffffffffffffffffffff166107ad610587565b73ffffffffffffffffffffffffffffffffffffffff1614610803576040517f08c379a00000000000000000000000000000000000000000000000000000000081526004016107fa90611278565b60405180910390fd5b565b60008060009054906101000a900473ffffffffffffffffffffffffffffffffffffffff169050816000806101000a81548173ffffffffffffffffffffffffffffffffffffffff021916908373ffffffffffffffffffffffffffffffffffffffff1602179055508173ffffffffffffffffffffffffffffffffffffffff168173ffffffffffffffffffffffffffffffffffffffff167f8be0079c531659141344cd1fd0a4f28419497f9722a3daafe3b4186f6b6457e060405160405180910390a35050565b600081836108d7919061147f565b905092915050565b600081836108ed919061144e565b905092915050565b6000818361090391906113f8565b905092915050565b6000818361091991906114d9565b905092915050565b6109a28363a9059cbb60e01b8484604051602401610940929190611192565b604051602081830303815290604052907bffffffffffffffffffffffffffffffffffffffffffffffffffffffff19166020820180517bffffffffffffffffffffffffffffffffffffffffffffffffffffffff83818316178352505050506109af565b505050565b600033905090565b6000610a11826040518060400160405280602081526020017f5361666545524332303a206c6f772d6c6576656c2063616c6c206661696c65648152508573ffffffffffffffffffffffffffffffffffffffff16610a769092919063ffffffff16565b9050600081511115610a715780806020019051810190610a319190610d84565b610a70576040517f08c379a0000000000000000000000000000000000000000000000000000000008152600401610a67906112b8565b60405180910390fd5b5b505050565b6060610a858484600085610a8e565b90509392505050565b606082471015610ad3576040517f08c379a0000000000000000000000000000000000000000000000000000000008152600401610aca90611218565b60405180910390fd5b6000808673ffffffffffffffffffffffffffffffffffffffff168587604051610afc9190611160565b60006040518083038185875af1925050503d8060008114610b39576040519150601f19603f3d011682016040523d82523d6000602084013e610b3e565b606091505b5091509150610b4f87838387610b5b565b92505050949350505050565b60608315610bbe57600083511415610bb657610b7685610bd1565b610bb5576040517f08c379a0000000000000000000000000000000000000000000000000000000008152600401610bac90611298565b60405180910390fd5b5b829050610bc9565b610bc88383610c10565b5b949350505050565b6000808273ffffffffffffffffffffffffffffffffffffffff16803b806020016040519081016040528181526000908060200190933c51119050919050565b600082511115610c235781518083602001fd5b806040517f08c379a0000000000000000000000000000000000000000000000000000000008152600401610c5791906111d6565b60405180910390fd5b6000610c73610c6e84611396565b611365565b905082815260208101848484011115610c8b57600080fd5b610c96848285611589565b509392505050565b600081359050610cad81611669565b92915050565b600081519050610cc281611680565b92915050565b600082601f830112610cd957600080fd5b8135610ce9848260208601610c60565b91505092915050565b600081519050610d0181611697565b92915050565b600060208284031215610d1957600080fd5b6000610d2784828501610c9e565b91505092915050565b60008060408385031215610d4357600080fd5b6000610d5185828601610c9e565b925050602083013567ffffffffffffffff811115610d6e57600080fd5b610d7a85828601610cc8565b9150509250929050565b600060208284031215610d9657600080fd5b6000610da484828501610cb3565b91505092915050565b600060208284031215610dbf57600080fd5b6000610dcd84828501610cf2565b91505092915050565b610ddf8161150d565b82525050565b6000610df0826113c6565b610dfa81856113dc565b9350610e0a818560208601611598565b80840191505092915050565b610e1f81611565565b82525050565b6000610e30826113d1565b610e3a81856113e7565b9350610e4a818560208601611598565b610e5381611658565b840191505092915050565b6000610e6b6026836113e7565b91507f4f776e61626c653a206e6577206f776e657220697320746865207a65726f206160008301527f64647265737300000000000000000000000000000000000000000000000000006020830152604082019050919050565b6000610ed16026836113e7565b91507f416464726573733a20696e73756666696369656e742062616c616e636520666f60008301527f722063616c6c00000000000000000000000000000000000000000000000000006020830152604082019050919050565b6000610f376048836113e7565b91507f546f6b656e54696d656c6f636b3a2063757272656e742074696d65206f72206260008301527f6c6f636b206e756d626572206973206265666f72652072656c6561736520636f60208301527f6e646974696f6e730000000000000000000000000000000000000000000000006040830152606082019050919050565b6000610fc36006836113e7565b91507f6661696c656400000000000000000000000000000000000000000000000000006000830152602082019050919050565b60006110036020836113e7565b91507f4f776e61626c653a2063616c6c6572206973206e6f7420746865206f776e65726000830152602082019050919050565b6000611043601d836113e7565b91507f416464726573733a2063616c6c20746f206e6f6e2d636f6e74726163740000006000830152602082019050919050565b6000611083602a836113e7565b91507f5361666545524332303a204552433230206f7065726174696f6e20646964206e60008301527f6f742073756363656564000000000000000000000000000000000000000000006020830152604082019050919050565b60006110e96023836113e7565b91507f546f6b656e54696d656c6f636b3a206e6f20746f6b656e7320746f2072656c6560008301527f61736500000000000000000000000000000000000000000000000000000000006020830152604082019050919050565b61114b8161154b565b82525050565b61115a81611555565b82525050565b600061116c8284610de5565b915081905092915050565b600060208201905061118c6000830184610dd6565b92915050565b60006040820190506111a76000830185610dd6565b6111b46020830184611142565b9392505050565b60006020820190506111d06000830184610e16565b92915050565b600060208201905081810360008301526111f08184610e25565b905092915050565b6000602082019050818103600083015261121181610e5e565b9050919050565b6000602082019050818103600083015261123181610ec4565b9050919050565b6000602082019050818103600083015261125181610f2a565b9050919050565b6000602082019050818103600083015261127181610fb6565b9050919050565b6000602082019050818103600083015261129181610ff6565b9050919050565b600060208201905081810360008301526112b181611036565b9050919050565b600060208201905081810360008301526112d181611076565b9050919050565b600060208201905081810360008301526112f1816110dc565b9050919050565b600060208201905061130d6000830184611142565b92915050565b60006060820190506113286000830186611142565b6113356020830185611142565b6113426040830184611142565b949350505050565b600060208201905061135f6000830184611151565b92915050565b6000604051905081810181811067ffffffffffffffff8211171561138c5761138b611629565b5b8060405250919050565b600067ffffffffffffffff8211156113b1576113b0611629565b5b601f19601f8301169050602081019050919050565b600081519050919050565b600081519050919050565b600081905092915050565b600082825260208201905092915050565b60006114038261154b565b915061140e8361154b565b9250827fffffffffffffffffffffffffffffffffffffffffffffffffffffffffffffffff03821115611443576114426115cb565b5b828201905092915050565b60006114598261154b565b91506114648361154b565b925082611474576114736115fa565b5b828204905092915050565b600061148a8261154b565b91506114958361154b565b9250817fffffffffffffffffffffffffffffffffffffffffffffffffffffffffffffffff04831182151516156114ce576114cd6115cb565b5b828202905092915050565b60006114e48261154b565b91506114ef8361154b565b925082821015611502576115016115cb565b5b828203905092915050565b60006115188261152b565b9050919050565b60008115159050919050565b600073ffffffffffffffffffffffffffffffffffffffff82169050919050565b6000819050919050565b600063ffffffff82169050919050565b600061157082611577565b9050919050565b60006115828261152b565b9050919050565b82818337600083830152505050565b60005b838110156115b657808201518184015260208101905061159b565b838111156115c5576000848401525b50505050565b7f4e487b7100000000000000000000000000000000000000000000000000000000600052601160045260246000fd5b7f4e487b7100000000000000000000000000000000000000000000000000000000600052601260045260246000fd5b7f4e487b7100000000000000000000000000000000000000000000000000000000600052604160045260246000fd5b6000601f19601f8301169050919050565b6116728161150d565b811461167d57600080fd5b50565b6116898161151f565b811461169457600080fd5b50565b6116a08161154b565b81146116ab57600080fd5b5056fea264697066735822122056b325b40b76637ab2ecb5b16ad1dc3dabdcb32ee75def6e12aefcaadbab594a64736f6c63430008000033a264697066735822122039c06a705f9705acb707f32d7642f08d8f1db17d4bd58cd1e1edf1fcc466416c64736f6c6343000800003361010060405260006001556004600260006101000a81548163ffffffff021916908363ffffffff1602179055503480156200003957600080fd5b5060405162001f5b38038062001f5b83398181016040528101906200005f91906200037e565b6200007f620000736200023f60201b60201c565b6200024760201b60201c565b428464ffffffffff1611620000cb576040517f08c379a0000000000000000000000000000000000000000000000000000000008152600401620000c2906200052c565b60405180910390fd5b8364ffffffffff168364ffffffffff16116200011e576040517f08c379a000000000000000000000000000000000000000000000000000000000815260040162000115906200050a565b60405180910390fd5b8573ffffffffffffffffffffffffffffffffffffffff1660808173ffffffffffffffffffffffffffffffffffffffff1660601b815250508473ffffffffffffffffffffffffffffffffffffffff1660a08173ffffffffffffffffffffffffffffffffffffffff1660601b815250508364ffffffffff1660c081815250508264ffffffffff1660e0818152505080600260006101000a81548163ffffffff021916908363ffffffff1602179055506000428564ffffffffff16620001e2919062000655565b90506000610e108363ffffffff1683620001fd9190620005f4565b620002099190620005bc565b905080846fffffffffffffffffffffffffffffffff166200022b91906200055f565b6003819055505050505050505050620007ff565b600033905090565b60008060009054906101000a900473ffffffffffffffffffffffffffffffffffffffff169050816000806101000a81548173ffffffffffffffffffffffffffffffffffffffff021916908373ffffffffffffffffffffffffffffffffffffffff1602179055508173ffffffffffffffffffffffffffffffffffffffff168173ffffffffffffffffffffffffffffffffffffffff167f8be0079c531659141344cd1fd0a4f28419497f9722a3daafe3b4186f6b6457e060405160405180910390a35050565b6000815190506200031c816200077d565b92915050565b600081519050620003338162000797565b92915050565b6000815190506200034a81620007b1565b92915050565b6000815190506200036181620007cb565b92915050565b6000815190506200037881620007e5565b92915050565b60008060008060008060c087890312156200039857600080fd5b6000620003a889828a0162000322565b9650506020620003bb89828a016200030b565b9550506040620003ce89828a0162000367565b9450506060620003e189828a0162000367565b9350506080620003f489828a0162000339565b92505060a06200040789828a0162000350565b9150509295509295509295565b6000620004236047836200054e565b91507f546f6b656e54696d656c6f636b3a2074686520636f6d706c6574696f6e20746960008301527f6d65206d757374206265206c6f6e676572207468616e207468652072656c656160208301527f73652074696d65000000000000000000000000000000000000000000000000006040830152606082019050919050565b6000620004b16032836200054e565b91507f546f6b656e54696d656c6f636b3a2072656c656173652074696d65206973206260008301527f65666f72652063757272656e742074696d6500000000000000000000000000006020830152604082019050919050565b60006020820190508181036000830152620005258162000414565b9050919050565b600060208201905081810360008301526200054781620004a2565b9050919050565b600082825260208201905092915050565b60006200056c82620006f4565b91506200057983620006f4565b9250827fffffffffffffffffffffffffffffffffffffffffffffffffffffffffffffffff03821115620005b157620005b06200071f565b5b828201905092915050565b6000620005c982620006f4565b9150620005d683620006f4565b925082620005e957620005e86200074e565b5b828204905092915050565b60006200060182620006f4565b91506200060e83620006f4565b9250817fffffffffffffffffffffffffffffffffffffffffffffffffffffffffffffffff04831182151516156200064a57620006496200071f565b5b828202905092915050565b60006200066282620006f4565b91506200066f83620006f4565b9250828210156200068557620006846200071f565b5b828203905092915050565b60006200069d82620006d4565b9050919050565b6000620006b18262000690565b9050919050565b60006fffffffffffffffffffffffffffffffff82169050919050565b600073ffffffffffffffffffffffffffffffffffffffff82169050919050565b6000819050919050565b600063ffffffff82169050919050565b600064ffffffffff82169050919050565b7f4e487b7100000000000000000000000000000000000000000000000000000000600052601160045260246000fd5b7f4e487b7100000000000000000000000000000000000000000000000000000000600052601260045260246000fd5b620007888162000690565b81146200079457600080fd5b50565b620007a281620006a4565b8114620007ae57600080fd5b50565b620007bc81620006b8565b8114620007c857600080fd5b50565b620007d681620006fe565b8114620007e257600080fd5b50565b620007f0816200070e565b8114620007fc57600080fd5b50565b60805160601c60a05160601c60c05160e0516116e46200087760003960008181610293015281816102e9015281816105da01526106b30152600081816102c80152818161031b01526105b40152600081816101fa01526104de01526000818161036801528181610500015261076301526116e46000f3fe608060405234801561001057600080fd5b50600436106100a95760003560e01c80638da5cb5b116100715780638da5cb5b1461011c578063b91d40011461013a578063d483d05114610158578063d65316c014610176578063f2fde38b146101a6578063fc0c546a146101c2576100a9565b8063094ac207146100ae57806338af3eed146100cc57806345d30a17146100ea578063715018a61461010857806386d1a69f14610112575b600080fd5b6100b66101e0565b6040516100c3919061134a565b60405180910390f35b6100d46101f6565b6040516100e19190611177565b60405180910390f35b6100f261021e565b6040516100ff91906112f8565b60405180910390f35b610110610224565b005b61011a610238565b005b610124610587565b6040516101319190611177565b60405180910390f35b6101426105b0565b60405161014f91906112f8565b60405180910390f35b6101606105d8565b60405161016d91906112f8565b60405180910390f35b610190600480360381019061018b9190610d30565b6105fc565b60405161019d91906112f8565b60405180910390f35b6101c060048036038101906101bb9190610d07565b6106db565b005b6101ca61075f565b6040516101d791906111bb565b60405180910390f35b600260009054906101000a900463ffffffff1681565b60007f0000000000000000000000000000000000000000000000000000000000000000905090565b60015481565b61022c610787565b6102366000610805565b565b6102406105b0565b4210158061025057506003544310155b61028f576040517f08c379a000000000000000000000000000000000000000000000000000000000815260040161028690611238565b60405180910390fd5b60007f000000000000000000000000000000000000000000000000000000000000000042106102c357620f42409050610364565b6103617f00000000000000000000000000000000000000000000000000000000000000007f000000000000000000000000000000000000000000000000000000000000000061031291906114d9565b610353620f42407f00000000000000000000000000000000000000000000000000000000000000004261034591906114d9565b6108c990919063ffffffff16565b6108df90919063ffffffff16565b90505b60007f000000000000000000000000000000000000000000000000000000000000000073ffffffffffffffffffffffffffffffffffffffff166370a08231306040518263ffffffff1660e01b81526004016103bf9190611177565b60206040518083038186803b1580156103d757600080fd5b505afa1580156103eb573d6000803e3d6000fd5b505050506040513d601f19601f8201168201806040525081019061040f9190610dad565b9050600061044f620f4240610441610432600154866108f590919063ffffffff16565b866108c990919063ffffffff16565b6108df90919063ffffffff16565b905060006001548211610463576000610479565b6104786001548361090b90919063ffffffff16565b5b9050600081116104be576040517f08c379a00000000000000000000000000000000000000000000000000000000081526004016104b5906112d8565b60405180910390fd5b6104d3816001546108f590919063ffffffff16565b6001819055506105447f0000000000000000000000000000000000000000000000000000000000000000827f000000000000000000000000000000000000000000000000000000000000000073ffffffffffffffffffffffffffffffffffffffff166109219092919063ffffffff16565b7fea91ec69d9ab5a214205bad93781970df8c1f8fa5321a97b10a6cbbe99c29d9c828260015460405161057993929190611313565b60405180910390a150505050565b60008060009054906101000a900473ffffffffffffffffffffffffffffffffffffffff16905090565b60007f0000000000000000000000000000000000000000000000000000000000000000905090565b7f000000000000000000000000000000000000000000000000000000000000000081565b6000610606610787565b60008373ffffffffffffffffffffffffffffffffffffffff168360405161062d9190611160565b600060405180830381855af49150503d8060008114610668576040519150601f19603f3d011682016040523d82523d6000602084013e61066d565b606091505b50509050806106b1576040517f08c379a00000000000000000000000000000000000000000000000000000000081526004016106a890611258565b60405180910390fd5b7f000000000000000000000000000000000000000000000000000000000000000091505092915050565b6106e3610787565b600073ffffffffffffffffffffffffffffffffffffffff168173ffffffffffffffffffffffffffffffffffffffff161415610753576040517f08c379a000000000000000000000000000000000000000000000000000000000815260040161074a906111f8565b60405180910390fd5b61075c81610805565b50565b60007f0000000000000000000000000000000000000000000000000000000000000000905090565b61078f6109a7565b73ffffffffffffffffffffffffffffffffffffffff166107ad610587565b73ffffffffffffffffffffffffffffffffffffffff1614610803576040517f08c379a00000000000000000000000000000000000000000000000000000000081526004016107fa90611278565b60405180910390fd5b565b60008060009054906101000a900473ffffffffffffffffffffffffffffffffffffffff169050816000806101000a81548173ffffffffffffffffffffffffffffffffffffffff021916908373ffffffffffffffffffffffffffffffffffffffff1602179055508173ffffffffffffffffffffffffffffffffffffffff168173ffffffffffffffffffffffffffffffffffffffff167f8be0079c531659141344cd1fd0a4f28419497f9722a3daafe3b4186f6b6457e060405160405180910390a35050565b600081836108d7919061147f565b905092915050565b600081836108ed919061144e565b905092915050565b6000818361090391906113f8565b905092915050565b6000818361091991906114d9565b905092915050565b6109a28363a9059cbb60e01b8484604051602401610940929190611192565b604051602081830303815290604052907bffffffffffffffffffffffffffffffffffffffffffffffffffffffff19166020820180517bffffffffffffffffffffffffffffffffffffffffffffffffffffffff83818316178352505050506109af565b505050565b600033905090565b6000610a11826040518060400160405280602081526020017f5361666545524332303a206c6f772d6c6576656c2063616c6c206661696c65648152508573ffffffffffffffffffffffffffffffffffffffff16610a769092919063ffffffff16565b9050600081511115610a715780806020019051810190610a319190610d84565b610a70576040517f08c379a0000000000000000000000000000000000000000000000000000000008152600401610a67906112b8565b60405180910390fd5b5b505050565b6060610a858484600085610a8e565b90509392505050565b606082471015610ad3576040517f08c379a0000000000000000000000000000000000000000000000000000000008152600401610aca90611218565b60405180910390fd5b6000808673ffffffffffffffffffffffffffffffffffffffff168587604051610afc9190611160565b60006040518083038185875af1925050503d8060008114610b39576040519150601f19603f3d011682016040523d82523d6000602084013e610b3e565b606091505b5091509150610b4f87838387610b5b565b92505050949350505050565b60608315610bbe57600083511415610bb657610b7685610bd1565b610bb5576040517f08c379a0000000000000000000000000000000000000000000000000000000008152600401610bac90611298565b60405180910390fd5b5b829050610bc9565b610bc88383610c10565b5b949350505050565b6000808273ffffffffffffffffffffffffffffffffffffffff16803b806020016040519081016040528181526000908060200190933c51119050919050565b600082511115610c235781518083602001fd5b806040517f08c379a0000000000000000000000000000000000000000000000000000000008152600401610c5791906111d6565b60405180910390fd5b6000610c73610c6e84611396565b611365565b905082815260208101848484011115610c8b57600080fd5b610c96848285611589565b509392505050565b600081359050610cad81611669565b92915050565b600081519050610cc281611680565b92915050565b600082601f830112610cd957600080fd5b8135610ce9848260208601610c60565b91505092915050565b600081519050610d0181611697565b92915050565b600060208284031215610d1957600080fd5b6000610d2784828501610c9e565b91505092915050565b60008060408385031215610d4357600080fd5b6000610d5185828601610c9e565b925050602083013567ffffffffffffffff811115610d6e57600080fd5b610d7a85828601610cc8565b9150509250929050565b600060208284031215610d9657600080fd5b6000610da484828501610cb3565b91505092915050565b600060208284031215610dbf57600080fd5b6000610dcd84828501610cf2565b91505092915050565b610ddf8161150d565b82525050565b6000610df0826113c6565b610dfa81856113dc565b9350610e0a818560208601611598565b80840191505092915050565b610e1f81611565565b82525050565b6000610e30826113d1565b610e3a81856113e7565b9350610e4a818560208601611598565b610e5381611658565b840191505092915050565b6000610e6b6026836113e7565b91507f4f776e61626c653a206e6577206f776e657220697320746865207a65726f206160008301527f64647265737300000000000000000000000000000000000000000000000000006020830152604082019050919050565b6000610ed16026836113e7565b91507f416464726573733a20696e73756666696369656e742062616c616e636520666f60008301527f722063616c6c00000000000000000000000000000000000000000000000000006020830152604082019050919050565b6000610f376048836113e7565b91507f546f6b656e54696d656c6f636b3a2063757272656e742074696d65206f72206260008301527f6c6f636b206e756d626572206973206265666f72652072656c6561736520636f60208301527f6e646974696f6e730000000000000000000000000000000000000000000000006040830152606082019050919050565b6000610fc36006836113e7565b91507f6661696c656400000000000000000000000000000000000000000000000000006000830152602082019050919050565b60006110036020836113e7565b91507f4f776e61626c653a2063616c6c6572206973206e6f7420746865206f776e65726000830152602082019050919050565b6000611043601d836113e7565b91507f416464726573733a2063616c6c20746f206e6f6e2d636f6e74726163740000006000830152602082019050919050565b6000611083602a836113e7565b91507f5361666545524332303a204552433230206f7065726174696f6e20646964206e60008301527f6f742073756363656564000000000000000000000000000000000000000000006020830152604082019050919050565b60006110e96023836113e7565b91507f546f6b656e54696d656c6f636b3a206e6f20746f6b656e7320746f2072656c6560008301527f61736500000000000000000000000000000000000000000000000000000000006020830152604082019050919050565b61114b8161154b565b82525050565b61115a81611555565b82525050565b600061116c8284610de5565b915081905092915050565b600060208201905061118c6000830184610dd6565b92915050565b60006040820190506111a76000830185610dd6565b6111b46020830184611142565b9392505050565b60006020820190506111d06000830184610e16565b92915050565b600060208201905081810360008301526111f08184610e25565b905092915050565b6000602082019050818103600083015261121181610e5e565b9050919050565b6000602082019050818103600083015261123181610ec4565b9050919050565b6000602082019050818103600083015261125181610f2a565b9050919050565b6000602082019050818103600083015261127181610fb6565b9050919050565b6000602082019050818103600083015261129181610ff6565b9050919050565b600060208201905081810360008301526112b181611036565b9050919050565b600060208201905081810360008301526112d181611076565b9050919050565b600060208201905081810360008301526112f1816110dc565b9050919050565b600060208201905061130d6000830184611142565b92915050565b60006060820190506113286000830186611142565b6113356020830185611142565b6113426040830184611142565b949350505050565b600060208201905061135f6000830184611151565b92915050565b6000604051905081810181811067ffffffffffffffff8211171561138c5761138b611629565b5b8060405250919050565b600067ffffffffffffffff8211156113b1576113b0611629565b5b601f19601f8301169050602081019050919050565b600081519050919050565b600081519050919050565b600081905092915050565b600082825260208201905092915050565b60006114038261154b565b915061140e8361154b565b9250827fffffffffffffffffffffffffffffffffffffffffffffffffffffffffffffffff03821115611443576114426115cb565b5b828201905092915050565b60006114598261154b565b91506114648361154b565b925082611474576114736115fa565b5b828204905092915050565b600061148a8261154b565b91506114958361154b565b9250817fffffffffffffffffffffffffffffffffffffffffffffffffffffffffffffffff04831182151516156114ce576114cd6115cb565b5b828202905092915050565b60006114e48261154b565b91506114ef8361154b565b925082821015611502576115016115cb565b5b828203905092915050565b60006115188261152b565b9050919050565b60008115159050919050565b600073ffffffffffffffffffffffffffffffffffffffff82169050919050565b6000819050919050565b600063ffffffff82169050919050565b600061157082611577565b9050919050565b60006115828261152b565b9050919050565b82818337600083830152505050565b60005b838110156115b657808201518184015260208101905061159b565b838111156115c5576000848401525b50505050565b7f4e487b7100000000000000000000000000000000000000000000000000000000600052601160045260246000fd5b7f4e487b7100000000000000000000000000000000000000000000000000000000600052601260045260246000fd5b7f4e487b7100000000000000000000000000000000000000000000000000000000600052604160045260246000fd5b6000601f19601f8301169050919050565b6116728161150d565b811461167d57600080fd5b50565b6116898161151f565b811461169457600080fd5b50565b6116a08161154b565b81146116ab57600080fd5b5056fea264697066735822122056b325b40b76637ab2ecb5b16ad1dc3dabdcb32ee75def6e12aefcaadbab594a64736f6c63430008000033","opcodes":"PUSH1 0x80 PUSH1 0x40 MSTORE PUSH1 0x0 PUSH1 0x7 SSTORE PUSH1 0x0 PUSH1 0xB PUSH1 0x0 PUSH2 0x100 EXP DUP2 SLOAD DUP2 PUSH1 0xFF MUL NOT AND SWAP1 DUP4 ISZERO ISZERO MUL OR SWAP1 SSTORE POP CALLVALUE DUP1 ISZERO PUSH3 0x31 JUMPI PUSH1 0x0 DUP1 REVERT JUMPDEST POP PUSH1 0x40 MLOAD DUP1 PUSH1 0x40 ADD PUSH1 0x40 MSTORE DUP1 PUSH1 0xF DUP2 MSTORE PUSH1 0x20 ADD PUSH32 0x476F6C64204769726C20546F6B656E0000000000000000000000000000000000 DUP2 MSTORE POP PUSH1 0x40 MLOAD DUP1 PUSH1 0x40 ADD PUSH1 0x40 MSTORE DUP1 PUSH1 0x4 DUP2 MSTORE PUSH1 0x20 ADD PUSH32 0x4747544B00000000000000000000000000000000000000000000000000000000 DUP2 MSTORE POP DUP2 PUSH1 0x3 SWAP1 DUP1 MLOAD SWAP1 PUSH1 0x20 ADD SWAP1 PUSH3 0xB6 SWAP3 SWAP2 SWAP1 PUSH3 0x14D9 JUMP JUMPDEST POP DUP1 PUSH1 0x4 SWAP1 DUP1 MLOAD SWAP1 PUSH1 0x20 ADD SWAP1 PUSH3 0xCF SWAP3 SWAP2 SWAP1 PUSH3 0x14D9 JUMP JUMPDEST POP POP POP PUSH3 0xF2 PUSH3 0xE6 PUSH3 0x1AF PUSH1 0x20 SHL PUSH1 0x20 SHR JUMP JUMPDEST PUSH3 0x1B7 PUSH1 0x20 SHL PUSH1 0x20 SHR JUMP JUMPDEST PUSH1 0x0 PUSH1 0x5 PUSH1 0x14 PUSH2 0x100 EXP DUP2 SLOAD DUP2 PUSH1 0xFF MUL NOT AND SWAP1 DUP4 ISZERO ISZERO MUL OR SWAP1 SSTORE POP PUSH1 0x1 PUSH1 0x6 DUP2 SWAP1 SSTORE POP PUSH3 0x12E ADDRESS PUSH7 0x71AFD498D0000 PUSH3 0x27D PUSH1 0x20 SHL PUSH1 0x20 SHR JUMP JUMPDEST TIMESTAMP PUSH1 0xC DUP2 SWAP1 SSTORE POP PUSH3 0x145 PUSH3 0x3EB PUSH1 0x20 SHL PUSH1 0x20 SHR JUMP JUMPDEST PUSH1 0x40 MLOAD DUP1 PUSH1 0x60 ADD PUSH1 0x40 MSTORE DUP1 PUSH7 0x6C00A3912C000 DUP2 MSTORE PUSH1 0x20 ADD PUSH3 0x15180 DUP2 MSTORE PUSH1 0x20 ADD PUSH2 0x708 DUP2 MSTORE POP PUSH1 0x8 PUSH1 0x0 DUP3 ADD MLOAD DUP2 PUSH1 0x0 ADD SSTORE PUSH1 0x20 DUP3 ADD MLOAD DUP2 PUSH1 0x1 ADD SSTORE PUSH1 0x40 DUP3 ADD MLOAD DUP2 PUSH1 0x2 ADD SSTORE SWAP1 POP POP TIMESTAMP PUSH1 0x13 DUP2 SWAP1 SSTORE POP PUSH2 0x708 PUSH1 0x15 DUP2 SWAP1 SSTORE POP PUSH3 0x15180 PUSH1 0x16 DUP2 SWAP1 SSTORE POP PUSH3 0x2080 JUMP JUMPDEST PUSH1 0x0 CALLER SWAP1 POP SWAP1 JUMP JUMPDEST PUSH1 0x0 PUSH1 0x5 PUSH1 0x0 SWAP1 SLOAD SWAP1 PUSH2 0x100 EXP SWAP1 DIV PUSH20 0xFFFFFFFFFFFFFFFFFFFFFFFFFFFFFFFFFFFFFFFF AND SWAP1 POP DUP2 PUSH1 0x5 PUSH1 0x0 PUSH2 0x100 EXP DUP2 SLOAD DUP2 PUSH20 0xFFFFFFFFFFFFFFFFFFFFFFFFFFFFFFFFFFFFFFFF MUL NOT AND SWAP1 DUP4 PUSH20 0xFFFFFFFFFFFFFFFFFFFFFFFFFFFFFFFFFFFFFFFF AND MUL OR SWAP1 SSTORE POP DUP2 PUSH20 0xFFFFFFFFFFFFFFFFFFFFFFFFFFFFFFFFFFFFFFFF AND DUP2 PUSH20 0xFFFFFFFFFFFFFFFFFFFFFFFFFFFFFFFFFFFFFFFF AND PUSH32 0x8BE0079C531659141344CD1FD0A4F28419497F9722A3DAAFE3B4186F6B6457E0 PUSH1 0x40 MLOAD PUSH1 0x40 MLOAD DUP1 SWAP2 SUB SWAP1 LOG3 POP POP JUMP JUMPDEST PUSH1 0x0 PUSH20 0xFFFFFFFFFFFFFFFFFFFFFFFFFFFFFFFFFFFFFFFF AND DUP3 PUSH20 0xFFFFFFFFFFFFFFFFFFFFFFFFFFFFFFFFFFFFFFFF AND EQ ISZERO PUSH3 0x2F0 JUMPI PUSH1 0x40 MLOAD PUSH32 0x8C379A000000000000000000000000000000000000000000000000000000000 DUP2 MSTORE PUSH1 0x4 ADD PUSH3 0x2E7 SWAP1 PUSH3 0x1D37 JUMP JUMPDEST PUSH1 0x40 MLOAD DUP1 SWAP2 SUB SWAP1 REVERT JUMPDEST PUSH3 0x304 PUSH1 0x0 DUP4 DUP4 PUSH3 0x629 PUSH1 0x20 SHL PUSH1 0x20 SHR JUMP JUMPDEST DUP1 PUSH1 0x2 PUSH1 0x0 DUP3 DUP3 SLOAD PUSH3 0x318 SWAP2 SWAP1 PUSH3 0x1D87 JUMP JUMPDEST SWAP3 POP POP DUP2 SWAP1 SSTORE POP DUP1 PUSH1 0x0 DUP1 DUP5 PUSH20 0xFFFFFFFFFFFFFFFFFFFFFFFFFFFFFFFFFFFFFFFF AND PUSH20 0xFFFFFFFFFFFFFFFFFFFFFFFFFFFFFFFFFFFFFFFF AND DUP2 MSTORE PUSH1 0x20 ADD SWAP1 DUP2 MSTORE PUSH1 0x20 ADD PUSH1 0x0 KECCAK256 PUSH1 0x0 DUP3 DUP3 SLOAD ADD SWAP3 POP POP DUP2 SWAP1 SSTORE POP DUP2 PUSH20 0xFFFFFFFFFFFFFFFFFFFFFFFFFFFFFFFFFFFFFFFF AND PUSH1 0x0 PUSH20 0xFFFFFFFFFFFFFFFFFFFFFFFFFFFFFFFFFFFFFFFF AND PUSH32 0xDDF252AD1BE2C89B69C2B068FC378DAA952BA7F163C4A11628F55A4DF523B3EF DUP4 PUSH1 0x40 MLOAD PUSH3 0x3CB SWAP2 SWAP1 PUSH3 0x1D59 JUMP JUMPDEST PUSH1 0x40 MLOAD DUP1 SWAP2 SUB SWAP1 LOG3 PUSH3 0x3E7 PUSH1 0x0 DUP4 DUP4 PUSH3 0xA0E PUSH1 0x20 SHL PUSH1 0x20 SHR JUMP JUMPDEST POP POP JUMP JUMPDEST PUSH3 0x3FB PUSH3 0xA94 PUSH1 0x20 SHL PUSH1 0x20 SHR JUMP JUMPDEST PUSH1 0x0 PUSH20 0xFFFFFFFFFFFFFFFFFFFFFFFFFFFFFFFFFFFFFFFF AND PUSH1 0x11 PUSH1 0x0 SWAP1 SLOAD SWAP1 PUSH2 0x100 EXP SWAP1 DIV PUSH20 0xFFFFFFFFFFFFFFFFFFFFFFFFFFFFFFFFFFFFFFFF AND PUSH20 0xFFFFFFFFFFFFFFFFFFFFFFFFFFFFFFFFFFFFFFFF AND EQ PUSH3 0x48F JUMPI PUSH1 0x40 MLOAD PUSH32 0x8C379A000000000000000000000000000000000000000000000000000000000 DUP2 MSTORE PUSH1 0x4 ADD PUSH3 0x486 SWAP1 PUSH3 0x1B61 JUMP JUMPDEST PUSH1 0x40 MLOAD DUP1 SWAP2 SUB SWAP1 REVERT JUMPDEST PUSH1 0x0 PUSH3 0x2A300 TIMESTAMP PUSH3 0x4A2 SWAP2 SWAP1 PUSH3 0x1D87 JUMP JUMPDEST SWAP1 POP PUSH1 0x0 PUSH3 0xD2F00 DUP3 PUSH3 0x4B7 SWAP2 SWAP1 PUSH3 0x1D87 JUMP JUMPDEST SWAP1 POP PUSH1 0x0 NUMBER SWAP1 POP PUSH1 0x0 PUSH1 0x4 SWAP1 POP ADDRESS PUSH3 0x4D5 PUSH3 0xB25 PUSH1 0x20 SHL PUSH1 0x20 SHR JUMP JUMPDEST DUP6 DUP6 DUP6 DUP6 PUSH1 0x40 MLOAD PUSH3 0x4E7 SWAP1 PUSH3 0x156A JUMP JUMPDEST PUSH3 0x4F8 SWAP7 SWAP6 SWAP5 SWAP4 SWAP3 SWAP2 SWAP1 PUSH3 0x1A5E JUMP JUMPDEST PUSH1 0x40 MLOAD DUP1 SWAP2 SUB SWAP1 PUSH1 0x0 CREATE DUP1 ISZERO DUP1 ISZERO PUSH3 0x515 JUMPI RETURNDATASIZE PUSH1 0x0 DUP1 RETURNDATACOPY RETURNDATASIZE PUSH1 0x0 REVERT JUMPDEST POP PUSH1 0x11 PUSH1 0x0 PUSH2 0x100 EXP DUP2 SLOAD DUP2 PUSH20 0xFFFFFFFFFFFFFFFFFFFFFFFFFFFFFFFFFFFFFFFF MUL NOT AND SWAP1 DUP4 PUSH20 0xFFFFFFFFFFFFFFFFFFFFFFFFFFFFFFFFFFFFFFFF AND MUL OR SWAP1 SSTORE POP PUSH1 0x11 PUSH1 0x0 SWAP1 SLOAD SWAP1 PUSH2 0x100 EXP SWAP1 DIV PUSH20 0xFFFFFFFFFFFFFFFFFFFFFFFFFFFFFFFFFFFFFFFF AND PUSH1 0x12 PUSH1 0x0 PUSH2 0x100 EXP DUP2 SLOAD DUP2 PUSH20 0xFFFFFFFFFFFFFFFFFFFFFFFFFFFFFFFFFFFFFFFF MUL NOT AND SWAP1 DUP4 PUSH20 0xFFFFFFFFFFFFFFFFFFFFFFFFFFFFFFFFFFFFFFFF AND MUL OR SWAP1 SSTORE POP PUSH1 0x0 PUSH3 0x5DE PUSH1 0x7 SLOAD PUSH7 0x38D7EA4C68000 PUSH3 0xB4F PUSH1 0x20 SHL PUSH3 0x1963 OR SWAP1 SWAP2 SWAP1 PUSH1 0x20 SHR JUMP JUMPDEST SWAP1 POP PUSH3 0x614 PUSH1 0x12 PUSH1 0x0 SWAP1 SLOAD SWAP1 PUSH2 0x100 EXP SWAP1 DIV PUSH20 0xFFFFFFFFFFFFFFFFFFFFFFFFFFFFFFFFFFFFFFFF AND DUP3 PUSH3 0x27D PUSH1 0x20 SHL PUSH1 0x20 SHR JUMP JUMPDEST PUSH7 0x38D7EA4C68000 PUSH1 0x7 DUP2 SWAP1 SSTORE POP POP POP POP POP POP JUMP JUMPDEST PUSH3 0x639 PUSH3 0xB67 PUSH1 0x20 SHL PUSH1 0x20 SHR JUMP JUMPDEST PUSH3 0x651 DUP4 DUP4 DUP4 PUSH3 0xBBC PUSH1 0x20 SHL PUSH3 0x197B OR PUSH1 0x20 SHR JUMP JUMPDEST PUSH1 0xB PUSH1 0x0 SWAP1 SLOAD SWAP1 PUSH2 0x100 EXP SWAP1 DIV PUSH1 0xFF AND ISZERO DUP1 ISZERO PUSH3 0x6B9 JUMPI POP PUSH1 0xE PUSH1 0x0 DUP5 PUSH20 0xFFFFFFFFFFFFFFFFFFFFFFFFFFFFFFFFFFFFFFFF AND PUSH20 0xFFFFFFFFFFFFFFFFFFFFFFFFFFFFFFFFFFFFFFFF AND DUP2 MSTORE PUSH1 0x20 ADD SWAP1 DUP2 MSTORE PUSH1 0x20 ADD PUSH1 0x0 KECCAK256 PUSH1 0x0 SWAP1 SLOAD SWAP1 PUSH2 0x100 EXP SWAP1 DIV PUSH1 0xFF AND ISZERO JUMPDEST DUP1 ISZERO PUSH3 0x6D3 JUMPI POP PUSH3 0x6D2 DUP3 PUSH3 0xBC1 PUSH1 0x20 SHL PUSH1 0x20 SHR JUMP JUMPDEST JUMPDEST ISZERO PUSH3 0xA09 JUMPI PUSH1 0x0 PUSH3 0x6EC DUP5 PUSH3 0xC17 PUSH1 0x20 SHL PUSH1 0x20 SHR JUMP JUMPDEST SWAP1 POP PUSH1 0x0 PUSH3 0x700 PUSH3 0xCFA PUSH1 0x20 SHL PUSH1 0x20 SHR JUMP JUMPDEST SWAP1 POP PUSH1 0x0 DUP1 DUP3 EQ ISZERO PUSH3 0x719 JUMPI PUSH1 0x8 PUSH1 0x0 ADD SLOAD PUSH3 0x739 JUMP JUMPDEST PUSH3 0x738 DUP3 PUSH1 0x8 PUSH1 0x0 ADD SLOAD PUSH3 0xD07 PUSH1 0x20 SHL PUSH3 0x1980 OR SWAP1 SWAP2 SWAP1 PUSH1 0x20 SHR JUMP JUMPDEST JUMPDEST SWAP1 POP DUP1 DUP5 GT ISZERO PUSH3 0x781 JUMPI PUSH1 0x40 MLOAD PUSH32 0x8C379A000000000000000000000000000000000000000000000000000000000 DUP2 MSTORE PUSH1 0x4 ADD PUSH3 0x778 SWAP1 PUSH3 0x1BA5 JUMP JUMPDEST PUSH1 0x40 MLOAD DUP1 SWAP2 SUB SWAP1 REVERT JUMPDEST PUSH1 0x64 DUP3 LT DUP1 PUSH3 0x78E JUMPI POP DUP3 JUMPDEST PUSH3 0x7D0 JUMPI PUSH1 0x40 MLOAD PUSH32 0x8C379A000000000000000000000000000000000000000000000000000000000 DUP2 MSTORE PUSH1 0x4 ADD PUSH3 0x7C7 SWAP1 PUSH3 0x1CD1 JUMP JUMPDEST PUSH1 0x40 MLOAD DUP1 SWAP2 SUB SWAP1 REVERT JUMPDEST PUSH3 0x7E0 PUSH3 0xD1F PUSH1 0x20 SHL PUSH1 0x20 SHR JUMP JUMPDEST DUP3 PUSH3 0x836 JUMPI PUSH3 0x7F7 DUP7 PUSH3 0xFF9 PUSH1 0x20 SHL PUSH1 0x20 SHR JUMP JUMPDEST POP POP PUSH1 0x40 MLOAD PUSH32 0x8C379A000000000000000000000000000000000000000000000000000000000 DUP2 MSTORE PUSH1 0x4 ADD PUSH3 0x82D SWAP1 PUSH3 0x1CF3 JUMP JUMPDEST PUSH1 0x40 MLOAD DUP1 SWAP2 SUB SWAP1 REVERT JUMPDEST PUSH1 0x0 DUP1 PUSH3 0x849 PUSH3 0x1151 PUSH1 0x20 SHL PUSH1 0x20 SHR JUMP JUMPDEST SWAP2 POP SWAP2 POP DUP8 PUSH20 0xFFFFFFFFFFFFFFFFFFFFFFFFFFFFFFFFFFFFFFFF AND DUP3 PUSH20 0xFFFFFFFFFFFFFFFFFFFFFFFFFFFFFFFFFFFFFFFF AND EQ PUSH3 0x8D1 JUMPI PUSH3 0x892 DUP3 PUSH3 0xFF9 PUSH1 0x20 SHL PUSH1 0x20 SHR JUMP JUMPDEST POP POP PUSH1 0x40 MLOAD PUSH32 0x8C379A000000000000000000000000000000000000000000000000000000000 DUP2 MSTORE PUSH1 0x4 ADD PUSH3 0x8C8 SWAP1 PUSH3 0x1B3F JUMP JUMPDEST PUSH1 0x40 MLOAD DUP1 SWAP2 SUB SWAP1 REVERT JUMPDEST DUP1 TIMESTAMP GT PUSH3 0x916 JUMPI PUSH1 0x40 MLOAD PUSH32 0x8C379A000000000000000000000000000000000000000000000000000000000 DUP2 MSTORE PUSH1 0x4 ADD PUSH3 0x90D SWAP1 PUSH3 0x1D15 JUMP JUMPDEST PUSH1 0x40 MLOAD DUP1 SWAP2 SUB SWAP1 REVERT JUMPDEST PUSH1 0x16 SLOAD DUP2 PUSH3 0x926 SWAP2 SWAP1 PUSH3 0x1D87 JUMP JUMPDEST TIMESTAMP GT ISZERO PUSH3 0x96B JUMPI PUSH1 0x40 MLOAD PUSH32 0x8C379A000000000000000000000000000000000000000000000000000000000 DUP2 MSTORE PUSH1 0x4 ADD PUSH3 0x962 SWAP1 PUSH3 0x1C5D JUMP JUMPDEST PUSH1 0x40 MLOAD DUP1 SWAP2 SUB SWAP1 REVERT JUMPDEST PUSH1 0x8 PUSH1 0x0 ADD SLOAD PUSH3 0x98D DUP8 PUSH1 0xD SLOAD PUSH3 0x147C PUSH1 0x20 SHL PUSH3 0x1998 OR SWAP1 SWAP2 SWAP1 PUSH1 0x20 SHR JUMP JUMPDEST GT ISZERO PUSH3 0x9D1 JUMPI PUSH1 0x40 MLOAD PUSH32 0x8C379A000000000000000000000000000000000000000000000000000000000 DUP2 MSTORE PUSH1 0x4 ADD PUSH3 0x9C8 SWAP1 PUSH3 0x1C3B JUMP JUMPDEST PUSH1 0x40 MLOAD DUP1 SWAP2 SUB SWAP1 REVERT JUMPDEST PUSH3 0x9E1 PUSH3 0x1494 PUSH1 0x20 SHL PUSH1 0x20 SHR JUMP JUMPDEST PUSH3 0x9FD DUP7 PUSH1 0xD SLOAD PUSH3 0x147C PUSH1 0x20 SHL PUSH3 0x1998 OR SWAP1 SWAP2 SWAP1 PUSH1 0x20 SHR JUMP JUMPDEST PUSH1 0xD DUP2 SWAP1 SSTORE POP POP POP POP POP POP JUMPDEST POP POP POP JUMP JUMPDEST PUSH3 0xA1E PUSH3 0xB67 PUSH1 0x20 SHL PUSH1 0x20 SHR JUMP JUMPDEST PUSH3 0xA2E PUSH3 0x1494 PUSH1 0x20 SHL PUSH1 0x20 SHR JUMP JUMPDEST PUSH3 0xA4A DUP2 PUSH1 0xD SLOAD PUSH3 0x147C PUSH1 0x20 SHL PUSH3 0x1998 OR SWAP1 SWAP2 SWAP1 PUSH1 0x20 SHR JUMP JUMPDEST PUSH1 0xD DUP2 SWAP1 SSTORE POP PUSH32 0xE9F944DDC2387681900FF440BEBE4122461FC58146E32BA8C7D14CE4D207FBE3 DUP3 DUP3 PUSH1 0xD SLOAD PUSH1 0x40 MLOAD PUSH3 0xA87 SWAP4 SWAP3 SWAP2 SWAP1 PUSH3 0x1ACB JUMP JUMPDEST PUSH1 0x40 MLOAD DUP1 SWAP2 SUB SWAP1 LOG1 POP POP POP JUMP JUMPDEST PUSH3 0xAA4 PUSH3 0x1AF PUSH1 0x20 SHL PUSH1 0x20 SHR JUMP JUMPDEST PUSH20 0xFFFFFFFFFFFFFFFFFFFFFFFFFFFFFFFFFFFFFFFF AND PUSH3 0xACA PUSH3 0xB25 PUSH1 0x20 SHL PUSH1 0x20 SHR JUMP JUMPDEST PUSH20 0xFFFFFFFFFFFFFFFFFFFFFFFFFFFFFFFFFFFFFFFF AND EQ PUSH3 0xB23 JUMPI PUSH1 0x40 MLOAD PUSH32 0x8C379A000000000000000000000000000000000000000000000000000000000 DUP2 MSTORE PUSH1 0x4 ADD PUSH3 0xB1A SWAP1 PUSH3 0x1BC7 JUMP JUMPDEST PUSH1 0x40 MLOAD DUP1 SWAP2 SUB SWAP1 REVERT JUMPDEST JUMP JUMPDEST PUSH1 0x0 PUSH1 0x5 PUSH1 0x0 SWAP1 SLOAD SWAP1 PUSH2 0x100 EXP SWAP1 DIV PUSH20 0xFFFFFFFFFFFFFFFFFFFFFFFFFFFFFFFFFFFFFFFF AND SWAP1 POP SWAP1 JUMP JUMPDEST PUSH1 0x0 DUP2 DUP4 PUSH3 0xB5F SWAP2 SWAP1 PUSH3 0x1E7D JUMP JUMPDEST SWAP1 POP SWAP3 SWAP2 POP POP JUMP JUMPDEST PUSH3 0xB77 PUSH3 0x14C2 PUSH1 0x20 SHL PUSH1 0x20 SHR JUMP JUMPDEST ISZERO PUSH3 0xBBA JUMPI PUSH1 0x40 MLOAD PUSH32 0x8C379A000000000000000000000000000000000000000000000000000000000 DUP2 MSTORE PUSH1 0x4 ADD PUSH3 0xBB1 SWAP1 PUSH3 0x1B83 JUMP JUMPDEST PUSH1 0x40 MLOAD DUP1 SWAP2 SUB SWAP1 REVERT JUMPDEST JUMP JUMPDEST POP POP POP JUMP JUMPDEST PUSH1 0x0 PUSH1 0xF PUSH1 0x0 DUP4 PUSH20 0xFFFFFFFFFFFFFFFFFFFFFFFFFFFFFFFFFFFFFFFF AND PUSH20 0xFFFFFFFFFFFFFFFFFFFFFFFFFFFFFFFFFFFFFFFF AND DUP2 MSTORE PUSH1 0x20 ADD SWAP1 DUP2 MSTORE PUSH1 0x20 ADD PUSH1 0x0 KECCAK256 PUSH1 0x0 SWAP1 SLOAD SWAP1 PUSH2 0x100 EXP SWAP1 DIV PUSH1 0xFF AND SWAP1 POP SWAP2 SWAP1 POP JUMP JUMPDEST PUSH1 0x0 DUP1 PUSH1 0x0 SWAP1 POP JUMPDEST PUSH1 0x14 DUP1 SLOAD SWAP1 POP DUP2 LT ISZERO PUSH3 0xCEF JUMPI DUP3 PUSH20 0xFFFFFFFFFFFFFFFFFFFFFFFFFFFFFFFFFFFFFFFF AND PUSH1 0x14 DUP3 DUP2 SLOAD DUP2 LT PUSH3 0xC7F JUMPI PUSH32 0x4E487B7100000000000000000000000000000000000000000000000000000000 PUSH1 0x0 MSTORE PUSH1 0x32 PUSH1 0x4 MSTORE PUSH1 0x24 PUSH1 0x0 REVERT JUMPDEST SWAP1 PUSH1 0x0 MSTORE PUSH1 0x20 PUSH1 0x0 KECCAK256 SWAP1 PUSH1 0x2 MUL ADD PUSH1 0x0 ADD PUSH1 0x0 SWAP1 SLOAD SWAP1 PUSH2 0x100 EXP SWAP1 DIV PUSH20 0xFFFFFFFFFFFFFFFFFFFFFFFFFFFFFFFFFFFFFFFF AND PUSH20 0xFFFFFFFFFFFFFFFFFFFFFFFFFFFFFFFFFFFFFFFF AND EQ ISZERO PUSH3 0xCD9 JUMPI PUSH1 0x1 SWAP2 POP POP PUSH3 0xCF5 JUMP JUMPDEST DUP1 DUP1 PUSH3 0xCE6 SWAP1 PUSH3 0x1FA5 JUMP JUMPDEST SWAP2 POP POP PUSH3 0xC1F JUMP JUMPDEST POP PUSH1 0x0 SWAP1 POP JUMPDEST SWAP2 SWAP1 POP JUMP JUMPDEST PUSH1 0x0 PUSH1 0x14 DUP1 SLOAD SWAP1 POP SWAP1 POP SWAP1 JUMP JUMPDEST PUSH1 0x0 DUP2 DUP4 PUSH3 0xD17 SWAP2 SWAP1 PUSH3 0x1DE4 JUMP JUMPDEST SWAP1 POP SWAP3 SWAP2 POP POP JUMP JUMPDEST PUSH1 0x0 JUMPDEST PUSH1 0x14 DUP1 SLOAD SWAP1 POP DUP2 LT DUP1 ISZERO PUSH3 0xD91 JUMPI POP PUSH1 0x16 SLOAD PUSH1 0x14 DUP3 DUP2 SLOAD DUP2 LT PUSH3 0xD70 JUMPI PUSH32 0x4E487B7100000000000000000000000000000000000000000000000000000000 PUSH1 0x0 MSTORE PUSH1 0x32 PUSH1 0x4 MSTORE PUSH1 0x24 PUSH1 0x0 REVERT JUMPDEST SWAP1 PUSH1 0x0 MSTORE PUSH1 0x20 PUSH1 0x0 KECCAK256 SWAP1 PUSH1 0x2 MUL ADD PUSH1 0x1 ADD SLOAD TIMESTAMP PUSH3 0xD8F SWAP2 SWAP1 PUSH3 0x1E7D JUMP JUMPDEST GT JUMPDEST ISZERO PUSH3 0xDFF JUMPI PUSH1 0x0 PUSH1 0x14 DUP3 DUP2 SLOAD DUP2 LT PUSH3 0xDD4 JUMPI PUSH32 0x4E487B7100000000000000000000000000000000000000000000000000000000 PUSH1 0x0 MSTORE PUSH1 0x32 PUSH1 0x4 MSTORE PUSH1 0x24 PUSH1 0x0 REVERT JUMPDEST SWAP1 PUSH1 0x0 MSTORE PUSH1 0x20 PUSH1 0x0 KECCAK256 SWAP1 PUSH1 0x2 MUL ADD PUSH1 0x1 ADD DUP2 SWAP1 SSTORE POP DUP1 DUP1 PUSH3 0xDF6 SWAP1 PUSH3 0x1FA5 JUMP JUMPDEST SWAP2 POP POP PUSH3 0xD22 JUMP JUMPDEST PUSH1 0x0 DUP2 GT ISZERO PUSH3 0xFF6 JUMPI PUSH1 0x0 JUMPDEST DUP2 PUSH1 0x14 DUP1 SLOAD SWAP1 POP PUSH3 0xE1F SWAP2 SWAP1 PUSH3 0x1E7D JUMP JUMPDEST DUP2 LT ISZERO PUSH3 0xF50 JUMPI PUSH1 0x14 DUP3 DUP3 PUSH3 0xE37 SWAP2 SWAP1 PUSH3 0x1D87 JUMP JUMPDEST DUP2 SLOAD DUP2 LT PUSH3 0xE6F JUMPI PUSH32 0x4E487B7100000000000000000000000000000000000000000000000000000000 PUSH1 0x0 MSTORE PUSH1 0x32 PUSH1 0x4 MSTORE PUSH1 0x24 PUSH1 0x0 REVERT JUMPDEST SWAP1 PUSH1 0x0 MSTORE PUSH1 0x20 PUSH1 0x0 KECCAK256 SWAP1 PUSH1 0x2 MUL ADD PUSH1 0x14 DUP3 DUP2 SLOAD DUP2 LT PUSH3 0xEB8 JUMPI PUSH32 0x4E487B7100000000000000000000000000000000000000000000000000000000 PUSH1 0x0 MSTORE PUSH1 0x32 PUSH1 0x4 MSTORE PUSH1 0x24 PUSH1 0x0 REVERT JUMPDEST SWAP1 PUSH1 0x0 MSTORE PUSH1 0x20 PUSH1 0x0 KECCAK256 SWAP1 PUSH1 0x2 MUL ADD PUSH1 0x0 DUP3 ADD PUSH1 0x0 SWAP1 SLOAD SWAP1 PUSH2 0x100 EXP SWAP1 DIV PUSH20 0xFFFFFFFFFFFFFFFFFFFFFFFFFFFFFFFFFFFFFFFF AND DUP2 PUSH1 0x0 ADD PUSH1 0x0 PUSH2 0x100 EXP DUP2 SLOAD DUP2 PUSH20 0xFFFFFFFFFFFFFFFFFFFFFFFFFFFFFFFFFFFFFFFF MUL NOT AND SWAP1 DUP4 PUSH20 0xFFFFFFFFFFFFFFFFFFFFFFFFFFFFFFFFFFFFFFFF AND MUL OR SWAP1 SSTORE POP PUSH1 0x1 DUP3 ADD SLOAD DUP2 PUSH1 0x1 ADD SSTORE SWAP1 POP POP DUP1 DUP1 PUSH3 0xF47 SWAP1 PUSH3 0x1FA5 JUMP JUMPDEST SWAP2 POP POP PUSH3 0xE0C JUMP JUMPDEST POP PUSH1 0x0 JUMPDEST DUP2 DUP2 LT ISZERO PUSH3 0xFF4 JUMPI PUSH1 0x14 DUP1 SLOAD DUP1 PUSH3 0xF96 JUMPI PUSH32 0x4E487B7100000000000000000000000000000000000000000000000000000000 PUSH1 0x0 MSTORE PUSH1 0x31 PUSH1 0x4 MSTORE PUSH1 0x24 PUSH1 0x0 REVERT JUMPDEST PUSH1 0x1 SWAP1 SUB DUP2 DUP2 SWAP1 PUSH1 0x0 MSTORE PUSH1 0x20 PUSH1 0x0 KECCAK256 SWAP1 PUSH1 0x2 MUL ADD PUSH1 0x0 DUP1 DUP3 ADD PUSH1 0x0 PUSH2 0x100 EXP DUP2 SLOAD SWAP1 PUSH20 0xFFFFFFFFFFFFFFFFFFFFFFFFFFFFFFFFFFFFFFFF MUL NOT AND SWAP1 SSTORE PUSH1 0x1 DUP3 ADD PUSH1 0x0 SWAP1 SSTORE POP POP SWAP1 SSTORE DUP1 DUP1 PUSH3 0xFEB SWAP1 PUSH3 0x1FA5 JUMP JUMPDEST SWAP2 POP POP PUSH3 0xF54 JUMP JUMPDEST POP JUMPDEST POP JUMP JUMPDEST PUSH1 0x0 DUP1 PUSH1 0x0 PUSH1 0x14 DUP1 SLOAD SWAP1 POP SWAP1 POP PUSH1 0x0 PUSH1 0x15 SLOAD DUP3 PUSH3 0x1018 SWAP2 SWAP1 PUSH3 0x1E1C JUMP JUMPDEST TIMESTAMP PUSH3 0x1025 SWAP2 SWAP1 PUSH3 0x1D87 JUMP JUMPDEST SWAP1 POP PUSH1 0x14 PUSH1 0x40 MLOAD DUP1 PUSH1 0x40 ADD PUSH1 0x40 MSTORE DUP1 DUP8 PUSH20 0xFFFFFFFFFFFFFFFFFFFFFFFFFFFFFFFFFFFFFFFF AND DUP2 MSTORE PUSH1 0x20 ADD DUP4 DUP2 MSTORE POP SWAP1 DUP1 PUSH1 0x1 DUP2 SLOAD ADD DUP1 DUP3 SSTORE DUP1 SWAP2 POP POP PUSH1 0x1 SWAP1 SUB SWAP1 PUSH1 0x0 MSTORE PUSH1 0x20 PUSH1 0x0 KECCAK256 SWAP1 PUSH1 0x2 MUL ADD PUSH1 0x0 SWAP1 SWAP2 SWAP1 SWAP2 SWAP1 SWAP2 POP PUSH1 0x0 DUP3 ADD MLOAD DUP2 PUSH1 0x0 ADD PUSH1 0x0 PUSH2 0x100 EXP DUP2 SLOAD DUP2 PUSH20 0xFFFFFFFFFFFFFFFFFFFFFFFFFFFFFFFFFFFFFFFF MUL NOT AND SWAP1 DUP4 PUSH20 0xFFFFFFFFFFFFFFFFFFFFFFFFFFFFFFFFFFFFFFFF AND MUL OR SWAP1 SSTORE POP PUSH1 0x20 DUP3 ADD MLOAD DUP2 PUSH1 0x1 ADD SSTORE POP POP PUSH1 0x13 SLOAD DUP2 GT PUSH3 0x10E3 JUMPI PUSH1 0x13 SLOAD PUSH3 0x10E5 JUMP JUMPDEST DUP1 JUMPDEST PUSH1 0x13 DUP2 SWAP1 SSTORE POP PUSH32 0xE9F944DDC2387681900FF440BEBE4122461FC58146E32BA8C7D14CE4D207FBE3 DUP6 PUSH1 0x1 DUP5 PUSH3 0x111C SWAP2 SWAP1 PUSH3 0x1D87 JUMP JUMPDEST DUP4 PUSH1 0x40 MLOAD PUSH3 0x112E SWAP4 SWAP3 SWAP2 SWAP1 PUSH3 0x1BE9 JUMP JUMPDEST PUSH1 0x40 MLOAD DUP1 SWAP2 SUB SWAP1 LOG1 PUSH1 0x1 DUP3 PUSH3 0x1145 SWAP2 SWAP1 PUSH3 0x1D87 JUMP JUMPDEST DUP2 SWAP4 POP SWAP4 POP POP POP SWAP2 POP SWAP2 JUMP JUMPDEST PUSH1 0x0 DUP1 PUSH1 0x0 PUSH1 0x14 DUP1 SLOAD SWAP1 POP GT PUSH3 0x119F JUMPI PUSH1 0x40 MLOAD PUSH32 0x8C379A000000000000000000000000000000000000000000000000000000000 DUP2 MSTORE PUSH1 0x4 ADD PUSH3 0x1196 SWAP1 PUSH3 0x1B1D JUMP JUMPDEST PUSH1 0x40 MLOAD DUP1 SWAP2 SUB SWAP1 REVERT JUMPDEST PUSH1 0x0 PUSH1 0x14 PUSH1 0x0 DUP2 SLOAD DUP2 LT PUSH3 0x11DD JUMPI PUSH32 0x4E487B7100000000000000000000000000000000000000000000000000000000 PUSH1 0x0 MSTORE PUSH1 0x32 PUSH1 0x4 MSTORE PUSH1 0x24 PUSH1 0x0 REVERT JUMPDEST SWAP1 PUSH1 0x0 MSTORE PUSH1 0x20 PUSH1 0x0 KECCAK256 SWAP1 PUSH1 0x2 MUL ADD PUSH1 0x40 MLOAD DUP1 PUSH1 0x40 ADD PUSH1 0x40 MSTORE SWAP1 DUP2 PUSH1 0x0 DUP3 ADD PUSH1 0x0 SWAP1 SLOAD SWAP1 PUSH2 0x100 EXP SWAP1 DIV PUSH20 0xFFFFFFFFFFFFFFFFFFFFFFFFFFFFFFFFFFFFFFFF AND PUSH20 0xFFFFFFFFFFFFFFFFFFFFFFFFFFFFFFFFFFFFFFFF AND PUSH20 0xFFFFFFFFFFFFFFFFFFFFFFFFFFFFFFFFFFFFFFFF AND DUP2 MSTORE PUSH1 0x20 ADD PUSH1 0x1 DUP3 ADD SLOAD DUP2 MSTORE POP POP SWAP1 POP PUSH1 0x0 JUMPDEST PUSH1 0x1 PUSH1 0x14 DUP1 SLOAD SWAP1 POP PUSH3 0x126F SWAP2 SWAP1 PUSH3 0x1E7D JUMP JUMPDEST DUP2 LT ISZERO PUSH3 0x13A1 JUMPI PUSH1 0x14 PUSH1 0x1 DUP3 PUSH3 0x1288 SWAP2 SWAP1 PUSH3 0x1D87 JUMP JUMPDEST DUP2 SLOAD DUP2 LT PUSH3 0x12C0 JUMPI PUSH32 0x4E487B7100000000000000000000000000000000000000000000000000000000 PUSH1 0x0 MSTORE PUSH1 0x32 PUSH1 0x4 MSTORE PUSH1 0x24 PUSH1 0x0 REVERT JUMPDEST SWAP1 PUSH1 0x0 MSTORE PUSH1 0x20 PUSH1 0x0 KECCAK256 SWAP1 PUSH1 0x2 MUL ADD PUSH1 0x14 DUP3 DUP2 SLOAD DUP2 LT PUSH3 0x1309 JUMPI PUSH32 0x4E487B7100000000000000000000000000000000000000000000000000000000 PUSH1 0x0 MSTORE PUSH1 0x32 PUSH1 0x4 MSTORE PUSH1 0x24 PUSH1 0x0 REVERT JUMPDEST SWAP1 PUSH1 0x0 MSTORE PUSH1 0x20 PUSH1 0x0 KECCAK256 SWAP1 PUSH1 0x2 MUL ADD PUSH1 0x0 DUP3 ADD PUSH1 0x0 SWAP1 SLOAD SWAP1 PUSH2 0x100 EXP SWAP1 DIV PUSH20 0xFFFFFFFFFFFFFFFFFFFFFFFFFFFFFFFFFFFFFFFF AND DUP2 PUSH1 0x0 ADD PUSH1 0x0 PUSH2 0x100 EXP DUP2 SLOAD DUP2 PUSH20 0xFFFFFFFFFFFFFFFFFFFFFFFFFFFFFFFFFFFFFFFF MUL NOT AND SWAP1 DUP4 PUSH20 0xFFFFFFFFFFFFFFFFFFFFFFFFFFFFFFFFFFFFFFFF AND MUL OR SWAP1 SSTORE POP PUSH1 0x1 DUP3 ADD SLOAD DUP2 PUSH1 0x1 ADD SSTORE SWAP1 POP POP DUP1 DUP1 PUSH3 0x1398 SWAP1 PUSH3 0x1FA5 JUMP JUMPDEST SWAP2 POP POP PUSH3 0x125B JUMP JUMPDEST POP PUSH32 0xE9F944DDC2387681900FF440BEBE4122461FC58146E32BA8C7D14CE4D207FBE3 DUP2 PUSH1 0x0 ADD MLOAD DUP3 PUSH1 0x20 ADD MLOAD PUSH1 0x0 PUSH1 0x40 MLOAD PUSH3 0x13E0 SWAP4 SWAP3 SWAP2 SWAP1 PUSH3 0x1C7F JUMP JUMPDEST PUSH1 0x40 MLOAD DUP1 SWAP2 SUB SWAP1 LOG1 PUSH1 0x14 DUP1 SLOAD DUP1 PUSH3 0x1421 JUMPI PUSH32 0x4E487B7100000000000000000000000000000000000000000000000000000000 PUSH1 0x0 MSTORE PUSH1 0x31 PUSH1 0x4 MSTORE PUSH1 0x24 PUSH1 0x0 REVERT JUMPDEST PUSH1 0x1 SWAP1 SUB DUP2 DUP2 SWAP1 PUSH1 0x0 MSTORE PUSH1 0x20 PUSH1 0x0 KECCAK256 SWAP1 PUSH1 0x2 MUL ADD PUSH1 0x0 DUP1 DUP3 ADD PUSH1 0x0 PUSH2 0x100 EXP DUP2 SLOAD SWAP1 PUSH20 0xFFFFFFFFFFFFFFFFFFFFFFFFFFFFFFFFFFFFFFFF MUL NOT AND SWAP1 SSTORE PUSH1 0x1 DUP3 ADD PUSH1 0x0 SWAP1 SSTORE POP POP SWAP1 SSTORE DUP1 PUSH1 0x0 ADD MLOAD DUP2 PUSH1 0x20 ADD MLOAD SWAP3 POP SWAP3 POP POP SWAP1 SWAP2 JUMP JUMPDEST PUSH1 0x0 DUP2 DUP4 PUSH3 0x148C SWAP2 SWAP1 PUSH3 0x1D87 JUMP JUMPDEST SWAP1 POP SWAP3 SWAP2 POP POP JUMP JUMPDEST PUSH1 0x8 PUSH1 0x1 ADD SLOAD PUSH1 0xC SLOAD PUSH3 0x14A9 SWAP2 SWAP1 PUSH3 0x1D87 JUMP JUMPDEST TIMESTAMP LT PUSH3 0x14C0 JUMPI PUSH1 0x0 PUSH1 0xD DUP2 SWAP1 SSTORE POP TIMESTAMP PUSH1 0xC DUP2 SWAP1 SSTORE POP JUMPDEST JUMP JUMPDEST PUSH1 0x0 PUSH1 0x5 PUSH1 0x14 SWAP1 SLOAD SWAP1 PUSH2 0x100 EXP SWAP1 DIV PUSH1 0xFF AND SWAP1 POP SWAP1 JUMP JUMPDEST DUP3 DUP1 SLOAD PUSH3 0x14E7 SWAP1 PUSH3 0x1F6F JUMP JUMPDEST SWAP1 PUSH1 0x0 MSTORE PUSH1 0x20 PUSH1 0x0 KECCAK256 SWAP1 PUSH1 0x1F ADD PUSH1 0x20 SWAP1 DIV DUP2 ADD SWAP3 DUP3 PUSH3 0x150B JUMPI PUSH1 0x0 DUP6 SSTORE PUSH3 0x1557 JUMP JUMPDEST DUP3 PUSH1 0x1F LT PUSH3 0x1526 JUMPI DUP1 MLOAD PUSH1 0xFF NOT AND DUP4 DUP1 ADD OR DUP6 SSTORE PUSH3 0x1557 JUMP JUMPDEST DUP3 DUP1 ADD PUSH1 0x1 ADD DUP6 SSTORE DUP3 ISZERO PUSH3 0x1557 JUMPI SWAP2 DUP3 ADD JUMPDEST DUP3 DUP2 GT ISZERO PUSH3 0x1556 JUMPI DUP3 MLOAD DUP3 SSTORE SWAP2 PUSH1 0x20 ADD SWAP2 SWAP1 PUSH1 0x1 ADD SWAP1 PUSH3 0x1539 JUMP JUMPDEST JUMPDEST POP SWAP1 POP PUSH3 0x1566 SWAP2 SWAP1 PUSH3 0x1578 JUMP JUMPDEST POP SWAP1 JUMP JUMPDEST PUSH2 0x1F5B DUP1 PUSH3 0x8B4F DUP4 CODECOPY ADD SWAP1 JUMP JUMPDEST JUMPDEST DUP1 DUP3 GT ISZERO PUSH3 0x1593 JUMPI PUSH1 0x0 DUP2 PUSH1 0x0 SWAP1 SSTORE POP PUSH1 0x1 ADD PUSH3 0x1579 JUMP JUMPDEST POP SWAP1 JUMP JUMPDEST PUSH3 0x15A2 DUP2 PUSH3 0x1EB8 JUMP JUMPDEST DUP3 MSTORE POP POP JUMP JUMPDEST PUSH3 0x15B3 DUP2 PUSH3 0x1F33 JUMP JUMPDEST DUP3 MSTORE POP POP JUMP JUMPDEST PUSH3 0x15C4 DUP2 PUSH3 0x1F5B JUMP JUMPDEST DUP3 MSTORE POP POP JUMP JUMPDEST PUSH1 0x0 PUSH3 0x15D9 PUSH1 0x4 DUP4 PUSH3 0x1D76 JUMP JUMPDEST SWAP2 POP PUSH32 0x446F6E6500000000000000000000000000000000000000000000000000000000 PUSH1 0x0 DUP4 ADD MSTORE PUSH1 0x20 DUP3 ADD SWAP1 POP SWAP2 SWAP1 POP JUMP JUMPDEST PUSH1 0x0 PUSH3 0x161B PUSH1 0xE DUP4 PUSH3 0x1D76 JUMP JUMPDEST SWAP2 POP PUSH32 0x517565756520697320656D707479000000000000000000000000000000000000 PUSH1 0x0 DUP4 ADD MSTORE PUSH1 0x20 DUP3 ADD SWAP1 POP SWAP2 SWAP1 POP JUMP JUMPDEST PUSH1 0x0 PUSH3 0x165D PUSH1 0x22 DUP4 PUSH3 0x1D76 JUMP JUMPDEST SWAP2 POP PUSH32 0x4E6F7420796F7572207475726E2C206164646564206261636B20746F20717565 PUSH1 0x0 DUP4 ADD MSTORE PUSH32 0x7565000000000000000000000000000000000000000000000000000000000000 PUSH1 0x20 DUP4 ADD MSTORE PUSH1 0x40 DUP3 ADD SWAP1 POP SWAP2 SWAP1 POP JUMP JUMPDEST PUSH1 0x0 PUSH3 0x16C5 PUSH1 0x2C DUP4 PUSH3 0x1D76 JUMP JUMPDEST SWAP2 POP PUSH32 0x4747544B3A205465616D20546F6B656E54696D656C6F636B20616C7265616479 PUSH1 0x0 DUP4 ADD MSTORE PUSH32 0x20696E697469616C697A65640000000000000000000000000000000000000000 PUSH1 0x20 DUP4 ADD MSTORE PUSH1 0x40 DUP3 ADD SWAP1 POP SWAP2 SWAP1 POP JUMP JUMPDEST PUSH1 0x0 PUSH3 0x172D PUSH1 0x10 DUP4 PUSH3 0x1D76 JUMP JUMPDEST SWAP2 POP PUSH32 0x5061757361626C653A2070617573656400000000000000000000000000000000 PUSH1 0x0 DUP4 ADD MSTORE PUSH1 0x20 DUP3 ADD SWAP1 POP SWAP2 SWAP1 POP JUMP JUMPDEST PUSH1 0x0 PUSH3 0x176F PUSH1 0x21 DUP4 PUSH3 0x1D76 JUMP JUMPDEST SWAP2 POP PUSH32 0x546865207175616E7469747920657863656564656420746865206D6178696D75 PUSH1 0x0 DUP4 ADD MSTORE PUSH32 0x6D00000000000000000000000000000000000000000000000000000000000000 PUSH1 0x20 DUP4 ADD MSTORE PUSH1 0x40 DUP3 ADD SWAP1 POP SWAP2 SWAP1 POP JUMP JUMPDEST PUSH1 0x0 PUSH3 0x17D7 PUSH1 0x20 DUP4 PUSH3 0x1D76 JUMP JUMPDEST SWAP2 POP PUSH32 0x4F776E61626C653A2063616C6C6572206973206E6F7420746865206F776E6572 PUSH1 0x0 DUP4 ADD MSTORE PUSH1 0x20 DUP3 ADD SWAP1 POP SWAP2 SWAP1 POP JUMP JUMPDEST PUSH1 0x0 PUSH3 0x1819 PUSH1 0x7 DUP4 PUSH3 0x1D76 JUMP JUMPDEST SWAP2 POP PUSH32 0x656E717565756500000000000000000000000000000000000000000000000000 PUSH1 0x0 DUP4 ADD MSTORE PUSH1 0x20 DUP3 ADD SWAP1 POP SWAP2 SWAP1 POP JUMP JUMPDEST PUSH1 0x0 PUSH3 0x185B PUSH1 0x12 DUP4 PUSH3 0x1D76 JUMP JUMPDEST SWAP2 POP PUSH32 0x4747544B3A206361702065786365656465640000000000000000000000000000 PUSH1 0x0 DUP4 ADD MSTORE PUSH1 0x20 DUP3 ADD SWAP1 POP SWAP2 SWAP1 POP JUMP JUMPDEST PUSH1 0x0 PUSH3 0x189D PUSH1 0x20 DUP4 PUSH3 0x1D76 JUMP JUMPDEST SWAP2 POP PUSH32 0x54696D6564206F75742C20706C656173652072652D656E746572207175657565 PUSH1 0x0 DUP4 ADD MSTORE PUSH1 0x20 DUP3 ADD SWAP1 POP SWAP2 SWAP1 POP JUMP JUMPDEST PUSH1 0x0 PUSH3 0x18DF PUSH1 0x7 DUP4 PUSH3 0x1D76 JUMP JUMPDEST SWAP2 POP PUSH32 0x6465717565756500000000000000000000000000000000000000000000000000 PUSH1 0x0 DUP4 ADD MSTORE PUSH1 0x20 DUP3 ADD SWAP1 POP SWAP2 SWAP1 POP JUMP JUMPDEST PUSH1 0x0 PUSH3 0x1921 PUSH1 0x1A DUP4 PUSH3 0x1D76 JUMP JUMPDEST SWAP2 POP PUSH32 0x51756575652069732066756C6C2C20706C656173652077616974000000000000 PUSH1 0x0 DUP4 ADD MSTORE PUSH1 0x20 DUP3 ADD SWAP1 POP SWAP2 SWAP1 POP JUMP JUMPDEST PUSH1 0x0 PUSH3 0x1963 PUSH1 0x1B DUP4 PUSH3 0x1D76 JUMP JUMPDEST SWAP2 POP PUSH32 0x416464656420746F2071756575652C20706C6561736520776169740000000000 PUSH1 0x0 DUP4 ADD MSTORE PUSH1 0x20 DUP3 ADD SWAP1 POP SWAP2 SWAP1 POP JUMP JUMPDEST PUSH1 0x0 PUSH3 0x19A5 PUSH1 0x16 DUP4 PUSH3 0x1D76 JUMP JUMPDEST SWAP2 POP PUSH32 0x546F6F206561726C792C20706C65617365207761697400000000000000000000 PUSH1 0x0 DUP4 ADD MSTORE PUSH1 0x20 DUP3 ADD SWAP1 POP SWAP2 SWAP1 POP JUMP JUMPDEST PUSH1 0x0 PUSH3 0x19E7 PUSH1 0x1F DUP4 PUSH3 0x1D76 JUMP JUMPDEST SWAP2 POP PUSH32 0x45524332303A206D696E7420746F20746865207A65726F206164647265737300 PUSH1 0x0 DUP4 ADD MSTORE PUSH1 0x20 DUP3 ADD SWAP1 POP SWAP2 SWAP1 POP JUMP JUMPDEST PUSH3 0x1A25 DUP2 PUSH3 0x1ECC JUMP JUMPDEST DUP3 MSTORE POP POP JUMP JUMPDEST PUSH3 0x1A36 DUP2 PUSH3 0x1F08 JUMP JUMPDEST DUP3 MSTORE POP POP JUMP JUMPDEST PUSH3 0x1A47 DUP2 PUSH3 0x1F12 JUMP JUMPDEST DUP3 MSTORE POP POP JUMP JUMPDEST PUSH3 0x1A58 DUP2 PUSH3 0x1F22 JUMP JUMPDEST DUP3 MSTORE POP POP JUMP JUMPDEST PUSH1 0x0 PUSH1 0xC0 DUP3 ADD SWAP1 POP PUSH3 0x1A75 PUSH1 0x0 DUP4 ADD DUP10 PUSH3 0x15A8 JUMP JUMPDEST PUSH3 0x1A84 PUSH1 0x20 DUP4 ADD DUP9 PUSH3 0x1597 JUMP JUMPDEST PUSH3 0x1A93 PUSH1 0x40 DUP4 ADD DUP8 PUSH3 0x1A4D JUMP JUMPDEST PUSH3 0x1AA2 PUSH1 0x60 DUP4 ADD DUP7 PUSH3 0x1A4D JUMP JUMPDEST PUSH3 0x1AB1 PUSH1 0x80 DUP4 ADD DUP6 PUSH3 0x1A1A JUMP JUMPDEST PUSH3 0x1AC0 PUSH1 0xA0 DUP4 ADD DUP5 PUSH3 0x1A3C JUMP JUMPDEST SWAP8 SWAP7 POP POP POP POP POP POP POP JUMP JUMPDEST PUSH1 0x0 PUSH1 0x80 DUP3 ADD SWAP1 POP DUP2 DUP2 SUB PUSH1 0x0 DUP4 ADD MSTORE PUSH3 0x1AE6 DUP2 PUSH3 0x15CA JUMP JUMPDEST SWAP1 POP PUSH3 0x1AF7 PUSH1 0x20 DUP4 ADD DUP7 PUSH3 0x1597 JUMP JUMPDEST PUSH3 0x1B06 PUSH1 0x40 DUP4 ADD DUP6 PUSH3 0x1A2B JUMP JUMPDEST PUSH3 0x1B15 PUSH1 0x60 DUP4 ADD DUP5 PUSH3 0x1A2B JUMP JUMPDEST SWAP5 SWAP4 POP POP POP POP JUMP JUMPDEST PUSH1 0x0 PUSH1 0x20 DUP3 ADD SWAP1 POP DUP2 DUP2 SUB PUSH1 0x0 DUP4 ADD MSTORE PUSH3 0x1B38 DUP2 PUSH3 0x160C JUMP JUMPDEST SWAP1 POP SWAP2 SWAP1 POP JUMP JUMPDEST PUSH1 0x0 PUSH1 0x20 DUP3 ADD SWAP1 POP DUP2 DUP2 SUB PUSH1 0x0 DUP4 ADD MSTORE PUSH3 0x1B5A DUP2 PUSH3 0x164E JUMP JUMPDEST SWAP1 POP SWAP2 SWAP1 POP JUMP JUMPDEST PUSH1 0x0 PUSH1 0x20 DUP3 ADD SWAP1 POP DUP2 DUP2 SUB PUSH1 0x0 DUP4 ADD MSTORE PUSH3 0x1B7C DUP2 PUSH3 0x16B6 JUMP JUMPDEST SWAP1 POP SWAP2 SWAP1 POP JUMP JUMPDEST PUSH1 0x0 PUSH1 0x20 DUP3 ADD SWAP1 POP DUP2 DUP2 SUB PUSH1 0x0 DUP4 ADD MSTORE PUSH3 0x1B9E DUP2 PUSH3 0x171E JUMP JUMPDEST SWAP1 POP SWAP2 SWAP1 POP JUMP JUMPDEST PUSH1 0x0 PUSH1 0x20 DUP3 ADD SWAP1 POP DUP2 DUP2 SUB PUSH1 0x0 DUP4 ADD MSTORE PUSH3 0x1BC0 DUP2 PUSH3 0x1760 JUMP JUMPDEST SWAP1 POP SWAP2 SWAP1 POP JUMP JUMPDEST PUSH1 0x0 PUSH1 0x20 DUP3 ADD SWAP1 POP DUP2 DUP2 SUB PUSH1 0x0 DUP4 ADD MSTORE PUSH3 0x1BE2 DUP2 PUSH3 0x17C8 JUMP JUMPDEST SWAP1 POP SWAP2 SWAP1 POP JUMP JUMPDEST PUSH1 0x0 PUSH1 0x80 DUP3 ADD SWAP1 POP DUP2 DUP2 SUB PUSH1 0x0 DUP4 ADD MSTORE PUSH3 0x1C04 DUP2 PUSH3 0x180A JUMP JUMPDEST SWAP1 POP PUSH3 0x1C15 PUSH1 0x20 DUP4 ADD DUP7 PUSH3 0x1597 JUMP JUMPDEST PUSH3 0x1C24 PUSH1 0x40 DUP4 ADD DUP6 PUSH3 0x1A2B JUMP JUMPDEST PUSH3 0x1C33 PUSH1 0x60 DUP4 ADD DUP5 PUSH3 0x1A2B JUMP JUMPDEST SWAP5 SWAP4 POP POP POP POP JUMP JUMPDEST PUSH1 0x0 PUSH1 0x20 DUP3 ADD SWAP1 POP DUP2 DUP2 SUB PUSH1 0x0 DUP4 ADD MSTORE PUSH3 0x1C56 DUP2 PUSH3 0x184C JUMP JUMPDEST SWAP1 POP SWAP2 SWAP1 POP JUMP JUMPDEST PUSH1 0x0 PUSH1 0x20 DUP3 ADD SWAP1 POP DUP2 DUP2 SUB PUSH1 0x0 DUP4 ADD MSTORE PUSH3 0x1C78 DUP2 PUSH3 0x188E JUMP JUMPDEST SWAP1 POP SWAP2 SWAP1 POP JUMP JUMPDEST PUSH1 0x0 PUSH1 0x80 DUP3 ADD SWAP1 POP DUP2 DUP2 SUB PUSH1 0x0 DUP4 ADD MSTORE PUSH3 0x1C9A DUP2 PUSH3 0x18D0 JUMP JUMPDEST SWAP1 POP PUSH3 0x1CAB PUSH1 0x20 DUP4 ADD DUP7 PUSH3 0x1597 JUMP JUMPDEST PUSH3 0x1CBA PUSH1 0x40 DUP4 ADD DUP6 PUSH3 0x1A2B JUMP JUMPDEST PUSH3 0x1CC9 PUSH1 0x60 DUP4 ADD DUP5 PUSH3 0x15B9 JUMP JUMPDEST SWAP5 SWAP4 POP POP POP POP JUMP JUMPDEST PUSH1 0x0 PUSH1 0x20 DUP3 ADD SWAP1 POP DUP2 DUP2 SUB PUSH1 0x0 DUP4 ADD MSTORE PUSH3 0x1CEC DUP2 PUSH3 0x1912 JUMP JUMPDEST SWAP1 POP SWAP2 SWAP1 POP JUMP JUMPDEST PUSH1 0x0 PUSH1 0x20 DUP3 ADD SWAP1 POP DUP2 DUP2 SUB PUSH1 0x0 DUP4 ADD MSTORE PUSH3 0x1D0E DUP2 PUSH3 0x1954 JUMP JUMPDEST SWAP1 POP SWAP2 SWAP1 POP JUMP JUMPDEST PUSH1 0x0 PUSH1 0x20 DUP3 ADD SWAP1 POP DUP2 DUP2 SUB PUSH1 0x0 DUP4 ADD MSTORE PUSH3 0x1D30 DUP2 PUSH3 0x1996 JUMP JUMPDEST SWAP1 POP SWAP2 SWAP1 POP JUMP JUMPDEST PUSH1 0x0 PUSH1 0x20 DUP3 ADD SWAP1 POP DUP2 DUP2 SUB PUSH1 0x0 DUP4 ADD MSTORE PUSH3 0x1D52 DUP2 PUSH3 0x19D8 JUMP JUMPDEST SWAP1 POP SWAP2 SWAP1 POP JUMP JUMPDEST PUSH1 0x0 PUSH1 0x20 DUP3 ADD SWAP1 POP PUSH3 0x1D70 PUSH1 0x0 DUP4 ADD DUP5 PUSH3 0x1A2B JUMP JUMPDEST SWAP3 SWAP2 POP POP JUMP JUMPDEST PUSH1 0x0 DUP3 DUP3 MSTORE PUSH1 0x20 DUP3 ADD SWAP1 POP SWAP3 SWAP2 POP POP JUMP JUMPDEST PUSH1 0x0 PUSH3 0x1D94 DUP3 PUSH3 0x1F08 JUMP JUMPDEST SWAP2 POP PUSH3 0x1DA1 DUP4 PUSH3 0x1F08 JUMP JUMPDEST SWAP3 POP DUP3 PUSH32 0xFFFFFFFFFFFFFFFFFFFFFFFFFFFFFFFFFFFFFFFFFFFFFFFFFFFFFFFFFFFFFFFF SUB DUP3 GT ISZERO PUSH3 0x1DD9 JUMPI PUSH3 0x1DD8 PUSH3 0x1FF3 JUMP JUMPDEST JUMPDEST DUP3 DUP3 ADD SWAP1 POP SWAP3 SWAP2 POP POP JUMP JUMPDEST PUSH1 0x0 PUSH3 0x1DF1 DUP3 PUSH3 0x1F08 JUMP JUMPDEST SWAP2 POP PUSH3 0x1DFE DUP4 PUSH3 0x1F08 JUMP JUMPDEST SWAP3 POP DUP3 PUSH3 0x1E11 JUMPI PUSH3 0x1E10 PUSH3 0x2022 JUMP JUMPDEST JUMPDEST DUP3 DUP3 DIV SWAP1 POP SWAP3 SWAP2 POP POP JUMP JUMPDEST PUSH1 0x0 PUSH3 0x1E29 DUP3 PUSH3 0x1F08 JUMP JUMPDEST SWAP2 POP PUSH3 0x1E36 DUP4 PUSH3 0x1F08 JUMP JUMPDEST SWAP3 POP DUP2 PUSH32 0xFFFFFFFFFFFFFFFFFFFFFFFFFFFFFFFFFFFFFFFFFFFFFFFFFFFFFFFFFFFFFFFF DIV DUP4 GT DUP3 ISZERO ISZERO AND ISZERO PUSH3 0x1E72 JUMPI PUSH3 0x1E71 PUSH3 0x1FF3 JUMP JUMPDEST JUMPDEST DUP3 DUP3 MUL SWAP1 POP SWAP3 SWAP2 POP POP JUMP JUMPDEST PUSH1 0x0 PUSH3 0x1E8A DUP3 PUSH3 0x1F08 JUMP JUMPDEST SWAP2 POP PUSH3 0x1E97 DUP4 PUSH3 0x1F08 JUMP JUMPDEST SWAP3 POP DUP3 DUP3 LT ISZERO PUSH3 0x1EAD JUMPI PUSH3 0x1EAC PUSH3 0x1FF3 JUMP JUMPDEST JUMPDEST DUP3 DUP3 SUB SWAP1 POP SWAP3 SWAP2 POP POP JUMP JUMPDEST PUSH1 0x0 PUSH3 0x1EC5 DUP3 PUSH3 0x1EE8 JUMP JUMPDEST SWAP1 POP SWAP2 SWAP1 POP JUMP JUMPDEST PUSH1 0x0 PUSH16 0xFFFFFFFFFFFFFFFFFFFFFFFFFFFFFFFF DUP3 AND SWAP1 POP SWAP2 SWAP1 POP JUMP JUMPDEST PUSH1 0x0 PUSH20 0xFFFFFFFFFFFFFFFFFFFFFFFFFFFFFFFFFFFFFFFF DUP3 AND SWAP1 POP SWAP2 SWAP1 POP JUMP JUMPDEST PUSH1 0x0 DUP2 SWAP1 POP SWAP2 SWAP1 POP JUMP JUMPDEST PUSH1 0x0 PUSH4 0xFFFFFFFF DUP3 AND SWAP1 POP SWAP2 SWAP1 POP JUMP JUMPDEST PUSH1 0x0 PUSH5 0xFFFFFFFFFF DUP3 AND SWAP1 POP SWAP2 SWAP1 POP JUMP JUMPDEST PUSH1 0x0 PUSH3 0x1F40 DUP3 PUSH3 0x1F47 JUMP JUMPDEST SWAP1 POP SWAP2 SWAP1 POP JUMP JUMPDEST PUSH1 0x0 PUSH3 0x1F54 DUP3 PUSH3 0x1EE8 JUMP JUMPDEST SWAP1 POP SWAP2 SWAP1 POP JUMP JUMPDEST PUSH1 0x0 PUSH3 0x1F68 DUP3 PUSH3 0x1F08 JUMP JUMPDEST SWAP1 POP SWAP2 SWAP1 POP JUMP JUMPDEST PUSH1 0x0 PUSH1 0x2 DUP3 DIV SWAP1 POP PUSH1 0x1 DUP3 AND DUP1 PUSH3 0x1F88 JUMPI PUSH1 0x7F DUP3 AND SWAP2 POP JUMPDEST PUSH1 0x20 DUP3 LT DUP2 EQ ISZERO PUSH3 0x1F9F JUMPI PUSH3 0x1F9E PUSH3 0x2051 JUMP JUMPDEST JUMPDEST POP SWAP2 SWAP1 POP JUMP JUMPDEST PUSH1 0x0 PUSH3 0x1FB2 DUP3 PUSH3 0x1F08 JUMP JUMPDEST SWAP2 POP PUSH32 0xFFFFFFFFFFFFFFFFFFFFFFFFFFFFFFFFFFFFFFFFFFFFFFFFFFFFFFFFFFFFFFFF DUP3 EQ ISZERO PUSH3 0x1FE8 JUMPI PUSH3 0x1FE7 PUSH3 0x1FF3 JUMP JUMPDEST JUMPDEST PUSH1 0x1 DUP3 ADD SWAP1 POP SWAP2 SWAP1 POP JUMP JUMPDEST PUSH32 0x4E487B7100000000000000000000000000000000000000000000000000000000 PUSH1 0x0 MSTORE PUSH1 0x11 PUSH1 0x4 MSTORE PUSH1 0x24 PUSH1 0x0 REVERT JUMPDEST PUSH32 0x4E487B7100000000000000000000000000000000000000000000000000000000 PUSH1 0x0 MSTORE PUSH1 0x12 PUSH1 0x4 MSTORE PUSH1 0x24 PUSH1 0x0 REVERT JUMPDEST PUSH32 0x4E487B7100000000000000000000000000000000000000000000000000000000 PUSH1 0x0 MSTORE PUSH1 0x22 PUSH1 0x4 MSTORE PUSH1 0x24 PUSH1 0x0 REVERT JUMPDEST PUSH2 0x6ABF DUP1 PUSH3 0x2090 PUSH1 0x0 CODECOPY PUSH1 0x0 RETURN INVALID PUSH1 0x80 PUSH1 0x40 MSTORE PUSH1 0x4 CALLDATASIZE LT PUSH3 0x29B JUMPI PUSH1 0x0 CALLDATALOAD PUSH1 0xE0 SHR DUP1 PUSH4 0x70A08231 GT PUSH3 0x163 JUMPI DUP1 PUSH4 0xA457C2D7 GT PUSH3 0xC7 JUMPI DUP1 PUSH4 0xD71437CB GT PUSH3 0x85 JUMPI DUP1 PUSH4 0xD71437CB EQ PUSH3 0x9DE JUMPI DUP1 PUSH4 0xDD62ED3E EQ PUSH3 0xA22 JUMPI DUP1 PUSH4 0xDDF0B009 EQ PUSH3 0xA66 JUMPI DUP1 PUSH4 0xF2FDE38B EQ PUSH3 0xAAB JUMPI DUP1 PUSH4 0xF8D0DAA6 EQ PUSH3 0xAD9 JUMPI DUP1 PUSH4 0xFFAFE738 EQ PUSH3 0xB1D JUMPI PUSH3 0x2A3 JUMP JUMPDEST DUP1 PUSH4 0xA457C2D7 EQ PUSH3 0x8B4 JUMPI DUP1 PUSH4 0xA9059CBB EQ PUSH3 0x8F8 JUMPI DUP1 PUSH4 0xBAE6C2AD EQ PUSH3 0x93C JUMPI DUP1 PUSH4 0xCA3939F4 EQ PUSH3 0x96C JUMPI DUP1 PUSH4 0xD299AA07 EQ PUSH3 0x99A JUMPI PUSH3 0x2A3 JUMP JUMPDEST DUP1 PUSH4 0x848C2539 GT PUSH3 0x121 JUMPI DUP1 PUSH4 0x848C2539 EQ PUSH3 0x7AC JUMPI DUP1 PUSH4 0x8DA5CB5B EQ PUSH3 0x7DA JUMPI DUP1 PUSH4 0x947A36FB EQ PUSH3 0x80A JUMPI DUP1 PUSH4 0x95D89B41 EQ PUSH3 0x83A JUMPI DUP1 PUSH4 0xA06DB7DC EQ PUSH3 0x86A JUMPI DUP1 PUSH4 0xA28E9C48 EQ PUSH3 0x89A JUMPI PUSH3 0x2A3 JUMP JUMPDEST DUP1 PUSH4 0x70A08231 EQ PUSH3 0x6D8 JUMPI DUP1 PUSH4 0x715018A6 EQ PUSH3 0x71C JUMPI DUP1 PUSH4 0x771E2BC6 EQ PUSH3 0x736 JUMPI DUP1 PUSH4 0x79CC6790 EQ PUSH3 0x764 JUMPI DUP1 PUSH4 0x8456CB59 EQ PUSH3 0x792 JUMPI PUSH3 0x2A3 JUMP JUMPDEST DUP1 PUSH4 0x322A8957 GT PUSH3 0x20B JUMPI DUP1 PUSH4 0x3C638E09 GT PUSH3 0x1C9 JUMPI DUP1 PUSH4 0x3C638E09 EQ PUSH3 0x5D4 JUMPI DUP1 PUSH4 0x3F4BA83A EQ PUSH3 0x602 JUMPI DUP1 PUSH4 0x42966C68 EQ PUSH3 0x61C JUMPI DUP1 PUSH4 0x4F7E94E4 EQ PUSH3 0x64A JUMPI DUP1 PUSH4 0x5BFEB9C1 EQ PUSH3 0x67A JUMPI DUP1 PUSH4 0x5C975ABB EQ PUSH3 0x6A8 JUMPI PUSH3 0x2A3 JUMP JUMPDEST DUP1 PUSH4 0x322A8957 EQ PUSH3 0x4AA JUMPI DUP1 PUSH4 0x3660943D EQ PUSH3 0x4DA JUMPI DUP1 PUSH4 0x38EADA1C EQ PUSH3 0x51E JUMPI DUP1 PUSH4 0x39509351 EQ PUSH3 0x54C JUMPI DUP1 PUSH4 0x3AF32ABF EQ PUSH3 0x590 JUMPI PUSH3 0x2A3 JUMP JUMPDEST DUP1 PUSH4 0x205D15B6 GT PUSH3 0x259 JUMPI DUP1 PUSH4 0x205D15B6 EQ PUSH3 0x3A8 JUMPI DUP1 PUSH4 0x22A90082 EQ PUSH3 0x3DA JUMPI DUP1 PUSH4 0x23B872DD EQ PUSH3 0x408 JUMPI DUP1 PUSH4 0x291D9549 EQ PUSH3 0x44C JUMPI DUP1 PUSH4 0x313CE567 EQ PUSH3 0x47A JUMPI PUSH3 0x2A3 JUMP JUMPDEST DUP1 PUSH4 0x351B22B EQ PUSH3 0x2A8 JUMPI DUP1 PUSH4 0x6FDDE03 EQ PUSH3 0x2D6 JUMPI DUP1 PUSH4 0x95EA7B3 EQ PUSH3 0x306 JUMPI DUP1 PUSH4 0x10154BAD EQ PUSH3 0x34A JUMPI DUP1 PUSH4 0x18160DDD EQ PUSH3 0x378 JUMPI PUSH3 0x2A3 JUMP JUMPDEST CALLDATASIZE PUSH3 0x2A3 JUMPI STOP JUMPDEST PUSH1 0x0 DUP1 REVERT JUMPDEST CALLVALUE DUP1 ISZERO PUSH3 0x2B5 JUMPI PUSH1 0x0 DUP1 REVERT JUMPDEST POP PUSH3 0x2D4 PUSH1 0x4 DUP1 CALLDATASIZE SUB DUP2 ADD SWAP1 PUSH3 0x2CE SWAP2 SWAP1 PUSH3 0x31A2 JUMP JUMPDEST PUSH3 0xB4B JUMP JUMPDEST STOP JUMPDEST CALLVALUE DUP1 ISZERO PUSH3 0x2E3 JUMPI PUSH1 0x0 DUP1 REVERT JUMPDEST POP PUSH3 0x2EE PUSH3 0xBB0 JUMP JUMPDEST PUSH1 0x40 MLOAD PUSH3 0x2FD SWAP2 SWAP1 PUSH3 0x40EA JUMP JUMPDEST PUSH1 0x40 MLOAD DUP1 SWAP2 SUB SWAP1 RETURN JUMPDEST CALLVALUE DUP1 ISZERO PUSH3 0x313 JUMPI PUSH1 0x0 DUP1 REVERT JUMPDEST POP PUSH3 0x332 PUSH1 0x4 DUP1 CALLDATASIZE SUB DUP2 ADD SWAP1 PUSH3 0x32C SWAP2 SWAP1 PUSH3 0x32BF JUMP JUMPDEST PUSH3 0xC4A JUMP JUMPDEST PUSH1 0x40 MLOAD PUSH3 0x341 SWAP2 SWAP1 PUSH3 0x401F JUMP JUMPDEST PUSH1 0x40 MLOAD DUP1 SWAP2 SUB SWAP1 RETURN JUMPDEST CALLVALUE DUP1 ISZERO PUSH3 0x357 JUMPI PUSH1 0x0 DUP1 REVERT JUMPDEST POP PUSH3 0x376 PUSH1 0x4 DUP1 CALLDATASIZE SUB DUP2 ADD SWAP1 PUSH3 0x370 SWAP2 SWAP1 PUSH3 0x31A2 JUMP JUMPDEST PUSH3 0xC71 JUMP JUMPDEST STOP JUMPDEST CALLVALUE DUP1 ISZERO PUSH3 0x385 JUMPI PUSH1 0x0 DUP1 REVERT JUMPDEST POP PUSH3 0x390 PUSH3 0xCD6 JUMP JUMPDEST PUSH1 0x40 MLOAD PUSH3 0x39F SWAP2 SWAP1 PUSH3 0x4600 JUMP JUMPDEST PUSH1 0x40 MLOAD DUP1 SWAP2 SUB SWAP1 RETURN JUMPDEST CALLVALUE DUP1 ISZERO PUSH3 0x3B5 JUMPI PUSH1 0x0 DUP1 REVERT JUMPDEST POP PUSH3 0x3C0 PUSH3 0xCE0 JUMP JUMPDEST PUSH1 0x40 MLOAD PUSH3 0x3D1 SWAP4 SWAP3 SWAP2 SWAP1 PUSH3 0x461D JUMP JUMPDEST PUSH1 0x40 MLOAD DUP1 SWAP2 SUB SWAP1 RETURN JUMPDEST CALLVALUE DUP1 ISZERO PUSH3 0x3E7 JUMPI PUSH1 0x0 DUP1 REVERT JUMPDEST POP PUSH3 0x406 PUSH1 0x4 DUP1 CALLDATASIZE SUB DUP2 ADD SWAP1 PUSH3 0x400 SWAP2 SWAP1 PUSH3 0x3371 JUMP JUMPDEST PUSH3 0xCF8 JUMP JUMPDEST STOP JUMPDEST CALLVALUE DUP1 ISZERO PUSH3 0x415 JUMPI PUSH1 0x0 DUP1 REVERT JUMPDEST POP PUSH3 0x434 PUSH1 0x4 DUP1 CALLDATASIZE SUB DUP2 ADD SWAP1 PUSH3 0x42E SWAP2 SWAP1 PUSH3 0x320F JUMP JUMPDEST PUSH3 0xD0C JUMP JUMPDEST PUSH1 0x40 MLOAD PUSH3 0x443 SWAP2 SWAP1 PUSH3 0x401F JUMP JUMPDEST PUSH1 0x40 MLOAD DUP1 SWAP2 SUB SWAP1 RETURN JUMPDEST CALLVALUE DUP1 ISZERO PUSH3 0x459 JUMPI PUSH1 0x0 DUP1 REVERT JUMPDEST POP PUSH3 0x478 PUSH1 0x4 DUP1 CALLDATASIZE SUB DUP2 ADD SWAP1 PUSH3 0x472 SWAP2 SWAP1 PUSH3 0x31A2 JUMP JUMPDEST PUSH3 0xD41 JUMP JUMPDEST STOP JUMPDEST CALLVALUE DUP1 ISZERO PUSH3 0x487 JUMPI PUSH1 0x0 DUP1 REVERT JUMPDEST POP PUSH3 0x492 PUSH3 0xDA6 JUMP JUMPDEST PUSH1 0x40 MLOAD PUSH3 0x4A1 SWAP2 SWAP1 PUSH3 0x465A JUMP JUMPDEST PUSH1 0x40 MLOAD DUP1 SWAP2 SUB SWAP1 RETURN JUMPDEST CALLVALUE DUP1 ISZERO PUSH3 0x4B7 JUMPI PUSH1 0x0 DUP1 REVERT JUMPDEST POP PUSH3 0x4C2 PUSH3 0xDAF JUMP JUMPDEST PUSH1 0x40 MLOAD PUSH3 0x4D1 SWAP2 SWAP1 PUSH3 0x40CD JUMP JUMPDEST PUSH1 0x40 MLOAD DUP1 SWAP2 SUB SWAP1 RETURN JUMPDEST CALLVALUE DUP1 ISZERO PUSH3 0x4E7 JUMPI PUSH1 0x0 DUP1 REVERT JUMPDEST POP PUSH3 0x506 PUSH1 0x4 DUP1 CALLDATASIZE SUB DUP2 ADD SWAP1 PUSH3 0x500 SWAP2 SWAP1 PUSH3 0x332C JUMP JUMPDEST PUSH3 0xDD5 JUMP JUMPDEST PUSH1 0x40 MLOAD PUSH3 0x515 SWAP2 SWAP1 PUSH3 0x403C JUMP JUMPDEST PUSH1 0x40 MLOAD DUP1 SWAP2 SUB SWAP1 RETURN JUMPDEST CALLVALUE DUP1 ISZERO PUSH3 0x52B JUMPI PUSH1 0x0 DUP1 REVERT JUMPDEST POP PUSH3 0x54A PUSH1 0x4 DUP1 CALLDATASIZE SUB DUP2 ADD SWAP1 PUSH3 0x544 SWAP2 SWAP1 PUSH3 0x31A2 JUMP JUMPDEST PUSH3 0xE4C JUMP JUMPDEST STOP JUMPDEST CALLVALUE DUP1 ISZERO PUSH3 0x559 JUMPI PUSH1 0x0 DUP1 REVERT JUMPDEST POP PUSH3 0x578 PUSH1 0x4 DUP1 CALLDATASIZE SUB DUP2 ADD SWAP1 PUSH3 0x572 SWAP2 SWAP1 PUSH3 0x32BF JUMP JUMPDEST PUSH3 0xEB1 JUMP JUMPDEST PUSH1 0x40 MLOAD PUSH3 0x587 SWAP2 SWAP1 PUSH3 0x401F JUMP JUMPDEST PUSH1 0x40 MLOAD DUP1 SWAP2 SUB SWAP1 RETURN JUMPDEST CALLVALUE DUP1 ISZERO PUSH3 0x59D JUMPI PUSH1 0x0 DUP1 REVERT JUMPDEST POP PUSH3 0x5BC PUSH1 0x4 DUP1 CALLDATASIZE SUB DUP2 ADD SWAP1 PUSH3 0x5B6 SWAP2 SWAP1 PUSH3 0x31A2 JUMP JUMPDEST PUSH3 0xEF0 JUMP JUMPDEST PUSH1 0x40 MLOAD PUSH3 0x5CB SWAP2 SWAP1 PUSH3 0x401F JUMP JUMPDEST PUSH1 0x40 MLOAD DUP1 SWAP2 SUB SWAP1 RETURN JUMPDEST CALLVALUE DUP1 ISZERO PUSH3 0x5E1 JUMPI PUSH1 0x0 DUP1 REVERT JUMPDEST POP PUSH3 0x600 PUSH1 0x4 DUP1 CALLDATASIZE SUB DUP2 ADD SWAP1 PUSH3 0x5FA SWAP2 SWAP1 PUSH3 0x32BF JUMP JUMPDEST PUSH3 0xF10 JUMP JUMPDEST STOP JUMPDEST CALLVALUE DUP1 ISZERO PUSH3 0x60F JUMPI PUSH1 0x0 DUP1 REVERT JUMPDEST POP PUSH3 0x61A PUSH3 0xF77 JUMP JUMPDEST STOP JUMPDEST CALLVALUE DUP1 ISZERO PUSH3 0x629 JUMPI PUSH1 0x0 DUP1 REVERT JUMPDEST POP PUSH3 0x648 PUSH1 0x4 DUP1 CALLDATASIZE SUB DUP2 ADD SWAP1 PUSH3 0x642 SWAP2 SWAP1 PUSH3 0x3371 JUMP JUMPDEST PUSH3 0xF8D JUMP JUMPDEST STOP JUMPDEST CALLVALUE DUP1 ISZERO PUSH3 0x657 JUMPI PUSH1 0x0 DUP1 REVERT JUMPDEST POP PUSH3 0x662 PUSH3 0xFA5 JUMP JUMPDEST PUSH1 0x40 MLOAD PUSH3 0x671 SWAP2 SWAP1 PUSH3 0x3FD5 JUMP JUMPDEST PUSH1 0x40 MLOAD DUP1 SWAP2 SUB SWAP1 RETURN JUMPDEST CALLVALUE DUP1 ISZERO PUSH3 0x687 JUMPI PUSH1 0x0 DUP1 REVERT JUMPDEST POP PUSH3 0x6A6 PUSH1 0x4 DUP1 CALLDATASIZE SUB DUP2 ADD SWAP1 PUSH3 0x6A0 SWAP2 SWAP1 PUSH3 0x3300 JUMP JUMPDEST PUSH3 0xFCB JUMP JUMPDEST STOP JUMPDEST CALLVALUE DUP1 ISZERO PUSH3 0x6B5 JUMPI PUSH1 0x0 DUP1 REVERT JUMPDEST POP PUSH3 0x6C0 PUSH3 0xFF2 JUMP JUMPDEST PUSH1 0x40 MLOAD PUSH3 0x6CF SWAP2 SWAP1 PUSH3 0x401F JUMP JUMPDEST PUSH1 0x40 MLOAD DUP1 SWAP2 SUB SWAP1 RETURN JUMPDEST CALLVALUE DUP1 ISZERO PUSH3 0x6E5 JUMPI PUSH1 0x0 DUP1 REVERT JUMPDEST POP PUSH3 0x704 PUSH1 0x4 DUP1 CALLDATASIZE SUB DUP2 ADD SWAP1 PUSH3 0x6FE SWAP2 SWAP1 PUSH3 0x31A2 JUMP JUMPDEST PUSH3 0x1009 JUMP JUMPDEST PUSH1 0x40 MLOAD PUSH3 0x713 SWAP2 SWAP1 PUSH3 0x4600 JUMP JUMPDEST PUSH1 0x40 MLOAD DUP1 SWAP2 SUB SWAP1 RETURN JUMPDEST CALLVALUE DUP1 ISZERO PUSH3 0x729 JUMPI PUSH1 0x0 DUP1 REVERT JUMPDEST POP PUSH3 0x734 PUSH3 0x1051 JUMP JUMPDEST STOP JUMPDEST CALLVALUE DUP1 ISZERO PUSH3 0x743 JUMPI PUSH1 0x0 DUP1 REVERT JUMPDEST POP PUSH3 0x762 PUSH1 0x4 DUP1 CALLDATASIZE SUB DUP2 ADD SWAP1 PUSH3 0x75C SWAP2 SWAP1 PUSH3 0x32BF JUMP JUMPDEST PUSH3 0x1069 JUMP JUMPDEST STOP JUMPDEST CALLVALUE DUP1 ISZERO PUSH3 0x771 JUMPI PUSH1 0x0 DUP1 REVERT JUMPDEST POP PUSH3 0x790 PUSH1 0x4 DUP1 CALLDATASIZE SUB DUP2 ADD SWAP1 PUSH3 0x78A SWAP2 SWAP1 PUSH3 0x32BF JUMP JUMPDEST PUSH3 0x10D0 JUMP JUMPDEST STOP JUMPDEST CALLVALUE DUP1 ISZERO PUSH3 0x79F JUMPI PUSH1 0x0 DUP1 REVERT JUMPDEST POP PUSH3 0x7AA PUSH3 0x10F6 JUMP JUMPDEST STOP JUMPDEST CALLVALUE DUP1 ISZERO PUSH3 0x7B9 JUMPI PUSH1 0x0 DUP1 REVERT JUMPDEST POP PUSH3 0x7D8 PUSH1 0x4 DUP1 CALLDATASIZE SUB DUP2 ADD SWAP1 PUSH3 0x7D2 SWAP2 SWAP1 PUSH3 0x32BF JUMP JUMPDEST PUSH3 0x110C JUMP JUMPDEST STOP JUMPDEST CALLVALUE DUP1 ISZERO PUSH3 0x7E7 JUMPI PUSH1 0x0 DUP1 REVERT JUMPDEST POP PUSH3 0x7F2 PUSH3 0x1173 JUMP JUMPDEST PUSH1 0x40 MLOAD PUSH3 0x801 SWAP2 SWAP1 PUSH3 0x3FD5 JUMP JUMPDEST PUSH1 0x40 MLOAD DUP1 SWAP2 SUB SWAP1 RETURN JUMPDEST CALLVALUE DUP1 ISZERO PUSH3 0x817 JUMPI PUSH1 0x0 DUP1 REVERT JUMPDEST POP PUSH3 0x822 PUSH3 0x119D JUMP JUMPDEST PUSH1 0x40 MLOAD PUSH3 0x831 SWAP2 SWAP1 PUSH3 0x4600 JUMP JUMPDEST PUSH1 0x40 MLOAD DUP1 SWAP2 SUB SWAP1 RETURN JUMPDEST CALLVALUE DUP1 ISZERO PUSH3 0x847 JUMPI PUSH1 0x0 DUP1 REVERT JUMPDEST POP PUSH3 0x852 PUSH3 0x11A3 JUMP JUMPDEST PUSH1 0x40 MLOAD PUSH3 0x861 SWAP2 SWAP1 PUSH3 0x40EA JUMP JUMPDEST PUSH1 0x40 MLOAD DUP1 SWAP2 SUB SWAP1 RETURN JUMPDEST CALLVALUE DUP1 ISZERO PUSH3 0x877 JUMPI PUSH1 0x0 DUP1 REVERT JUMPDEST POP PUSH3 0x882 PUSH3 0x123D JUMP JUMPDEST PUSH1 0x40 MLOAD PUSH3 0x891 SWAP2 SWAP1 PUSH3 0x4600 JUMP JUMPDEST PUSH1 0x40 MLOAD DUP1 SWAP2 SUB SWAP1 RETURN JUMPDEST CALLVALUE DUP1 ISZERO PUSH3 0x8A7 JUMPI PUSH1 0x0 DUP1 REVERT JUMPDEST POP PUSH3 0x8B2 PUSH3 0x1243 JUMP JUMPDEST STOP JUMPDEST CALLVALUE DUP1 ISZERO PUSH3 0x8C1 JUMPI PUSH1 0x0 DUP1 REVERT JUMPDEST POP PUSH3 0x8E0 PUSH1 0x4 DUP1 CALLDATASIZE SUB DUP2 ADD SWAP1 PUSH3 0x8DA SWAP2 SWAP1 PUSH3 0x32BF JUMP JUMPDEST PUSH3 0x146A JUMP JUMPDEST PUSH1 0x40 MLOAD PUSH3 0x8EF SWAP2 SWAP1 PUSH3 0x401F JUMP JUMPDEST PUSH1 0x40 MLOAD DUP1 SWAP2 SUB SWAP1 RETURN JUMPDEST CALLVALUE DUP1 ISZERO PUSH3 0x905 JUMPI PUSH1 0x0 DUP1 REVERT JUMPDEST POP PUSH3 0x924 PUSH1 0x4 DUP1 CALLDATASIZE SUB DUP2 ADD SWAP1 PUSH3 0x91E SWAP2 SWAP1 PUSH3 0x32BF JUMP JUMPDEST PUSH3 0x14EA JUMP JUMPDEST PUSH1 0x40 MLOAD PUSH3 0x933 SWAP2 SWAP1 PUSH3 0x401F JUMP JUMPDEST PUSH1 0x40 MLOAD DUP1 SWAP2 SUB SWAP1 RETURN JUMPDEST CALLVALUE DUP1 ISZERO PUSH3 0x949 JUMPI PUSH1 0x0 DUP1 REVERT JUMPDEST POP PUSH3 0x954 PUSH3 0x1511 JUMP JUMPDEST PUSH1 0x40 MLOAD PUSH3 0x963 SWAP2 SWAP1 PUSH3 0x4600 JUMP JUMPDEST PUSH1 0x40 MLOAD DUP1 SWAP2 SUB SWAP1 RETURN JUMPDEST CALLVALUE DUP1 ISZERO PUSH3 0x979 JUMPI PUSH1 0x0 DUP1 REVERT JUMPDEST POP PUSH3 0x998 PUSH1 0x4 DUP1 CALLDATASIZE SUB DUP2 ADD SWAP1 PUSH3 0x992 SWAP2 SWAP1 PUSH3 0x32BF JUMP JUMPDEST PUSH3 0x151E JUMP JUMPDEST STOP JUMPDEST CALLVALUE DUP1 ISZERO PUSH3 0x9A7 JUMPI PUSH1 0x0 DUP1 REVERT JUMPDEST POP PUSH3 0x9C6 PUSH1 0x4 DUP1 CALLDATASIZE SUB DUP2 ADD SWAP1 PUSH3 0x9C0 SWAP2 SWAP1 PUSH3 0x31A2 JUMP JUMPDEST PUSH3 0x1585 JUMP JUMPDEST PUSH1 0x40 MLOAD PUSH3 0x9D5 SWAP2 SWAP1 PUSH3 0x401F JUMP JUMPDEST PUSH1 0x40 MLOAD DUP1 SWAP2 SUB SWAP1 RETURN JUMPDEST CALLVALUE DUP1 ISZERO PUSH3 0x9EB JUMPI PUSH1 0x0 DUP1 REVERT JUMPDEST POP PUSH3 0xA0A PUSH1 0x4 DUP1 CALLDATASIZE SUB DUP2 ADD SWAP1 PUSH3 0xA04 SWAP2 SWAP1 PUSH3 0x31A2 JUMP JUMPDEST PUSH3 0x15A5 JUMP JUMPDEST PUSH1 0x40 MLOAD PUSH3 0xA19 SWAP2 SWAP1 PUSH3 0x401F JUMP JUMPDEST PUSH1 0x40 MLOAD DUP1 SWAP2 SUB SWAP1 RETURN JUMPDEST CALLVALUE DUP1 ISZERO PUSH3 0xA2F JUMPI PUSH1 0x0 DUP1 REVERT JUMPDEST POP PUSH3 0xA4E PUSH1 0x4 DUP1 CALLDATASIZE SUB DUP2 ADD SWAP1 PUSH3 0xA48 SWAP2 SWAP1 PUSH3 0x31CE JUMP JUMPDEST PUSH3 0x1688 JUMP JUMPDEST PUSH1 0x40 MLOAD PUSH3 0xA5D SWAP2 SWAP1 PUSH3 0x4600 JUMP JUMPDEST PUSH1 0x40 MLOAD DUP1 SWAP2 SUB SWAP1 RETURN JUMPDEST CALLVALUE DUP1 ISZERO PUSH3 0xA73 JUMPI PUSH1 0x0 DUP1 REVERT JUMPDEST POP PUSH3 0xA92 PUSH1 0x4 DUP1 CALLDATASIZE SUB DUP2 ADD SWAP1 PUSH3 0xA8C SWAP2 SWAP1 PUSH3 0x3371 JUMP JUMPDEST PUSH3 0x170F JUMP JUMPDEST PUSH1 0x40 MLOAD PUSH3 0xAA2 SWAP3 SWAP2 SWAP1 PUSH3 0x3FF2 JUMP JUMPDEST PUSH1 0x40 MLOAD DUP1 SWAP2 SUB SWAP1 RETURN JUMPDEST CALLVALUE DUP1 ISZERO PUSH3 0xAB8 JUMPI PUSH1 0x0 DUP1 REVERT JUMPDEST POP PUSH3 0xAD7 PUSH1 0x4 DUP1 CALLDATASIZE SUB DUP2 ADD SWAP1 PUSH3 0xAD1 SWAP2 SWAP1 PUSH3 0x31A2 JUMP JUMPDEST PUSH3 0x1764 JUMP JUMPDEST STOP JUMPDEST CALLVALUE DUP1 ISZERO PUSH3 0xAE6 JUMPI PUSH1 0x0 DUP1 REVERT JUMPDEST POP PUSH3 0xB05 PUSH1 0x4 DUP1 CALLDATASIZE SUB DUP2 ADD SWAP1 PUSH3 0xAFF SWAP2 SWAP1 PUSH3 0x3265 JUMP JUMPDEST PUSH3 0x17EF JUMP JUMPDEST PUSH1 0x40 MLOAD PUSH3 0xB14 SWAP2 SWAP1 PUSH3 0x4600 JUMP JUMPDEST PUSH1 0x40 MLOAD DUP1 SWAP2 SUB SWAP1 RETURN JUMPDEST CALLVALUE DUP1 ISZERO PUSH3 0xB2A JUMPI PUSH1 0x0 DUP1 REVERT JUMPDEST POP PUSH3 0xB49 PUSH1 0x4 DUP1 CALLDATASIZE SUB DUP2 ADD SWAP1 PUSH3 0xB43 SWAP2 SWAP1 PUSH3 0x32BF JUMP JUMPDEST PUSH3 0x18FC JUMP JUMPDEST STOP JUMPDEST PUSH3 0xB55 PUSH3 0x19B0 JUMP JUMPDEST PUSH1 0x1 PUSH1 0x10 PUSH1 0x0 DUP4 PUSH20 0xFFFFFFFFFFFFFFFFFFFFFFFFFFFFFFFFFFFFFFFF AND PUSH20 0xFFFFFFFFFFFFFFFFFFFFFFFFFFFFFFFFFFFFFFFF AND DUP2 MSTORE PUSH1 0x20 ADD SWAP1 DUP2 MSTORE PUSH1 0x20 ADD PUSH1 0x0 KECCAK256 PUSH1 0x0 PUSH2 0x100 EXP DUP2 SLOAD DUP2 PUSH1 0xFF MUL NOT AND SWAP1 DUP4 ISZERO ISZERO MUL OR SWAP1 SSTORE POP POP JUMP JUMPDEST PUSH1 0x60 PUSH1 0x3 DUP1 SLOAD PUSH3 0xBC1 SWAP1 PUSH3 0x498F JUMP JUMPDEST DUP1 PUSH1 0x1F ADD PUSH1 0x20 DUP1 SWAP2 DIV MUL PUSH1 0x20 ADD PUSH1 0x40 MLOAD SWAP1 DUP2 ADD PUSH1 0x40 MSTORE DUP1 SWAP3 SWAP2 SWAP1 DUP2 DUP2 MSTORE PUSH1 0x20 ADD DUP3 DUP1 SLOAD PUSH3 0xBEF SWAP1 PUSH3 0x498F JUMP JUMPDEST DUP1 ISZERO PUSH3 0xC40 JUMPI DUP1 PUSH1 0x1F LT PUSH3 0xC14 JUMPI PUSH2 0x100 DUP1 DUP4 SLOAD DIV MUL DUP4 MSTORE SWAP2 PUSH1 0x20 ADD SWAP2 PUSH3 0xC40 JUMP JUMPDEST DUP3 ADD SWAP2 SWAP1 PUSH1 0x0 MSTORE PUSH1 0x20 PUSH1 0x0 KECCAK256 SWAP1 JUMPDEST DUP2 SLOAD DUP2 MSTORE SWAP1 PUSH1 0x1 ADD SWAP1 PUSH1 0x20 ADD DUP1 DUP4 GT PUSH3 0xC22 JUMPI DUP3 SWAP1 SUB PUSH1 0x1F AND DUP3 ADD SWAP2 JUMPDEST POP POP POP POP POP SWAP1 POP SWAP1 JUMP JUMPDEST PUSH1 0x0 DUP1 PUSH3 0xC57 PUSH3 0x1A35 JUMP JUMPDEST SWAP1 POP PUSH3 0xC66 DUP2 DUP6 DUP6 PUSH3 0x1A3D JUMP JUMPDEST PUSH1 0x1 SWAP2 POP POP SWAP3 SWAP2 POP POP JUMP JUMPDEST PUSH3 0xC7B PUSH3 0x19B0 JUMP JUMPDEST PUSH1 0x1 PUSH1 0xE PUSH1 0x0 DUP4 PUSH20 0xFFFFFFFFFFFFFFFFFFFFFFFFFFFFFFFFFFFFFFFF AND PUSH20 0xFFFFFFFFFFFFFFFFFFFFFFFFFFFFFFFFFFFFFFFF AND DUP2 MSTORE PUSH1 0x20 ADD SWAP1 DUP2 MSTORE PUSH1 0x20 ADD PUSH1 0x0 KECCAK256 PUSH1 0x0 PUSH2 0x100 EXP DUP2 SLOAD DUP2 PUSH1 0xFF MUL NOT AND SWAP1 DUP4 ISZERO ISZERO MUL OR SWAP1 SSTORE POP POP JUMP JUMPDEST PUSH1 0x0 PUSH1 0x2 SLOAD SWAP1 POP SWAP1 JUMP JUMPDEST PUSH1 0x8 DUP1 PUSH1 0x0 ADD SLOAD SWAP1 DUP1 PUSH1 0x1 ADD SLOAD SWAP1 DUP1 PUSH1 0x2 ADD SLOAD SWAP1 POP DUP4 JUMP JUMPDEST PUSH3 0xD02 PUSH3 0x19B0 JUMP JUMPDEST DUP1 PUSH1 0x15 DUP2 SWAP1 SSTORE POP POP JUMP JUMPDEST PUSH1 0x0 DUP1 PUSH3 0xD19 PUSH3 0x1A35 JUMP JUMPDEST SWAP1 POP PUSH3 0xD28 DUP6 DUP3 DUP6 PUSH3 0x1C10 JUMP JUMPDEST PUSH3 0xD35 DUP6 DUP6 DUP6 PUSH3 0x1CA4 JUMP JUMPDEST PUSH1 0x1 SWAP2 POP POP SWAP4 SWAP3 POP POP POP JUMP JUMPDEST PUSH3 0xD4B PUSH3 0x19B0 JUMP JUMPDEST PUSH1 0x0 PUSH1 0xE PUSH1 0x0 DUP4 PUSH20 0xFFFFFFFFFFFFFFFFFFFFFFFFFFFFFFFFFFFFFFFF AND PUSH20 0xFFFFFFFFFFFFFFFFFFFFFFFFFFFFFFFFFFFFFFFF AND DUP2 MSTORE PUSH1 0x20 ADD SWAP1 DUP2 MSTORE PUSH1 0x20 ADD PUSH1 0x0 KECCAK256 PUSH1 0x0 PUSH2 0x100 EXP DUP2 SLOAD DUP2 PUSH1 0xFF MUL NOT AND SWAP1 DUP4 ISZERO ISZERO MUL OR SWAP1 SSTORE POP POP JUMP JUMPDEST PUSH1 0x0 PUSH1 0x6 SWAP1 POP SWAP1 JUMP JUMPDEST PUSH1 0x11 PUSH1 0x0 SWAP1 SLOAD SWAP1 PUSH2 0x100 EXP SWAP1 DIV PUSH20 0xFFFFFFFFFFFFFFFFFFFFFFFFFFFFFFFFFFFFFFFF AND DUP2 JUMP JUMPDEST PUSH1 0x60 PUSH3 0xDE2 CALLER PUSH3 0x1F2B JUMP JUMPDEST PUSH3 0xE24 JUMPI PUSH1 0x40 MLOAD PUSH32 0x8C379A000000000000000000000000000000000000000000000000000000000 DUP2 MSTORE PUSH1 0x4 ADD PUSH3 0xE1B SWAP1 PUSH3 0x42F8 JUMP JUMPDEST PUSH1 0x40 MLOAD DUP1 SWAP2 SUB SWAP1 REVERT JUMPDEST PUSH1 0x0 DUP1 DUP4 MLOAD PUSH1 0x20 DUP6 ADD PUSH1 0x6 GAS DELEGATECALL RETURNDATASIZE PUSH1 0x40 MLOAD DUP2 PUSH1 0x0 DUP3 RETURNDATACOPY DUP3 PUSH1 0x0 DUP2 EQ PUSH3 0xE48 JUMPI DUP3 DUP3 RETURN JUMPDEST DUP3 DUP3 REVERT JUMPDEST PUSH3 0xE56 PUSH3 0x19B0 JUMP JUMPDEST PUSH1 0x1 PUSH1 0xF PUSH1 0x0 DUP4 PUSH20 0xFFFFFFFFFFFFFFFFFFFFFFFFFFFFFFFFFFFFFFFF AND PUSH20 0xFFFFFFFFFFFFFFFFFFFFFFFFFFFFFFFFFFFFFFFF AND DUP2 MSTORE PUSH1 0x20 ADD SWAP1 DUP2 MSTORE PUSH1 0x20 ADD PUSH1 0x0 KECCAK256 PUSH1 0x0 PUSH2 0x100 EXP DUP2 SLOAD DUP2 PUSH1 0xFF MUL NOT AND SWAP1 DUP4 ISZERO ISZERO MUL OR SWAP1 SSTORE POP POP JUMP JUMPDEST PUSH1 0x0 DUP1 PUSH3 0xEBE PUSH3 0x1A35 JUMP JUMPDEST SWAP1 POP PUSH3 0xEE5 DUP2 DUP6 DUP6 PUSH3 0xED3 DUP6 DUP10 PUSH3 0x1688 JUMP JUMPDEST PUSH3 0xEDF SWAP2 SWAP1 PUSH3 0x4721 JUMP JUMPDEST PUSH3 0x1A3D JUMP JUMPDEST PUSH1 0x1 SWAP2 POP POP SWAP3 SWAP2 POP POP JUMP JUMPDEST PUSH1 0xE PUSH1 0x20 MSTORE DUP1 PUSH1 0x0 MSTORE PUSH1 0x40 PUSH1 0x0 KECCAK256 PUSH1 0x0 SWAP2 POP SLOAD SWAP1 PUSH2 0x100 EXP SWAP1 DIV PUSH1 0xFF AND DUP2 JUMP JUMPDEST PUSH3 0xF1A PUSH3 0x19B0 JUMP JUMPDEST PUSH7 0x5543DF729C000 DUP2 GT ISZERO PUSH3 0xF67 JUMPI PUSH1 0x40 MLOAD PUSH32 0x8C379A000000000000000000000000000000000000000000000000000000000 DUP2 MSTORE PUSH1 0x4 ADD PUSH3 0xF5E SWAP1 PUSH3 0x422C JUMP JUMPDEST PUSH1 0x40 MLOAD DUP1 SWAP2 SUB SWAP1 REVERT JUMPDEST PUSH3 0xF73 DUP3 DUP3 PUSH3 0x1F81 JUMP JUMPDEST POP POP JUMP JUMPDEST PUSH3 0xF81 PUSH3 0x19B0 JUMP JUMPDEST PUSH3 0xF8B PUSH3 0x20E3 JUMP JUMPDEST JUMP JUMPDEST PUSH3 0xFA2 PUSH3 0xF9B PUSH3 0x1A35 JUMP JUMPDEST DUP3 PUSH3 0x214C JUMP JUMPDEST POP JUMP JUMPDEST PUSH1 0x12 PUSH1 0x0 SWAP1 SLOAD SWAP1 PUSH2 0x100 EXP SWAP1 DIV PUSH20 0xFFFFFFFFFFFFFFFFFFFFFFFFFFFFFFFFFFFFFFFF AND DUP2 JUMP JUMPDEST PUSH3 0xFD5 PUSH3 0x19B0 JUMP JUMPDEST DUP1 PUSH1 0xB PUSH1 0x0 PUSH2 0x100 EXP DUP2 SLOAD DUP2 PUSH1 0xFF MUL NOT AND SWAP1 DUP4 ISZERO ISZERO MUL OR SWAP1 SSTORE POP POP JUMP JUMPDEST PUSH1 0x0 PUSH1 0x5 PUSH1 0x14 SWAP1 SLOAD SWAP1 PUSH2 0x100 EXP SWAP1 DIV PUSH1 0xFF AND SWAP1 POP SWAP1 JUMP JUMPDEST PUSH1 0x0 DUP1 PUSH1 0x0 DUP4 PUSH20 0xFFFFFFFFFFFFFFFFFFFFFFFFFFFFFFFFFFFFFFFF AND PUSH20 0xFFFFFFFFFFFFFFFFFFFFFFFFFFFFFFFFFFFFFFFF AND DUP2 MSTORE PUSH1 0x20 ADD SWAP1 DUP2 MSTORE PUSH1 0x20 ADD PUSH1 0x0 KECCAK256 SLOAD SWAP1 POP SWAP2 SWAP1 POP JUMP JUMPDEST PUSH3 0x105B PUSH3 0x19B0 JUMP JUMPDEST PUSH3 0x1067 PUSH1 0x0 PUSH3 0x2326 JUMP JUMPDEST JUMP JUMPDEST PUSH3 0x1073 PUSH3 0x19B0 JUMP JUMPDEST PUSH7 0x1C6BF52634000 DUP2 GT ISZERO PUSH3 0x10C0 JUMPI PUSH1 0x40 MLOAD PUSH32 0x8C379A000000000000000000000000000000000000000000000000000000000 DUP2 MSTORE PUSH1 0x4 ADD PUSH3 0x10B7 SWAP1 PUSH3 0x43A2 JUMP JUMPDEST PUSH1 0x40 MLOAD DUP1 SWAP2 SUB SWAP1 REVERT JUMPDEST PUSH3 0x10CC DUP3 DUP3 PUSH3 0x1F81 JUMP JUMPDEST POP POP JUMP JUMPDEST PUSH3 0x10E6 DUP3 PUSH3 0x10DF PUSH3 0x1A35 JUMP JUMPDEST DUP4 PUSH3 0x1C10 JUMP JUMPDEST PUSH3 0x10F2 DUP3 DUP3 PUSH3 0x214C JUMP JUMPDEST POP POP JUMP JUMPDEST PUSH3 0x1100 PUSH3 0x19B0 JUMP JUMPDEST PUSH3 0x110A PUSH3 0x23EC JUMP JUMPDEST JUMP JUMPDEST PUSH3 0x1116 PUSH3 0x19B0 JUMP JUMPDEST PUSH7 0x5543DF729C000 DUP2 GT ISZERO PUSH3 0x1163 JUMPI PUSH1 0x40 MLOAD PUSH32 0x8C379A000000000000000000000000000000000000000000000000000000000 DUP2 MSTORE PUSH1 0x4 ADD PUSH3 0x115A SWAP1 PUSH3 0x41C6 JUMP JUMPDEST PUSH1 0x40 MLOAD DUP1 SWAP2 SUB SWAP1 REVERT JUMPDEST PUSH3 0x116F DUP3 DUP3 PUSH3 0x1F81 JUMP JUMPDEST POP POP JUMP JUMPDEST PUSH1 0x0 PUSH1 0x5 PUSH1 0x0 SWAP1 SLOAD SWAP1 PUSH2 0x100 EXP SWAP1 DIV PUSH20 0xFFFFFFFFFFFFFFFFFFFFFFFFFFFFFFFFFFFFFFFF AND SWAP1 POP SWAP1 JUMP JUMPDEST PUSH1 0x15 SLOAD DUP2 JUMP JUMPDEST PUSH1 0x60 PUSH1 0x4 DUP1 SLOAD PUSH3 0x11B4 SWAP1 PUSH3 0x498F JUMP JUMPDEST DUP1 PUSH1 0x1F ADD PUSH1 0x20 DUP1 SWAP2 DIV MUL PUSH1 0x20 ADD PUSH1 0x40 MLOAD SWAP1 DUP2 ADD PUSH1 0x40 MSTORE DUP1 SWAP3 SWAP2 SWAP1 DUP2 DUP2 MSTORE PUSH1 0x20 ADD DUP3 DUP1 SLOAD PUSH3 0x11E2 SWAP1 PUSH3 0x498F JUMP JUMPDEST DUP1 ISZERO PUSH3 0x1233 JUMPI DUP1 PUSH1 0x1F LT PUSH3 0x1207 JUMPI PUSH2 0x100 DUP1 DUP4 SLOAD DIV MUL DUP4 MSTORE SWAP2 PUSH1 0x20 ADD SWAP2 PUSH3 0x1233 JUMP JUMPDEST DUP3 ADD SWAP2 SWAP1 PUSH1 0x0 MSTORE PUSH1 0x20 PUSH1 0x0 KECCAK256 SWAP1 JUMPDEST DUP2 SLOAD DUP2 MSTORE SWAP1 PUSH1 0x1 ADD SWAP1 PUSH1 0x20 ADD DUP1 DUP4 GT PUSH3 0x1215 JUMPI DUP3 SWAP1 SUB PUSH1 0x1F AND DUP3 ADD SWAP2 JUMPDEST POP POP POP POP POP SWAP1 POP SWAP1 JUMP JUMPDEST PUSH1 0x16 SLOAD DUP2 JUMP JUMPDEST PUSH3 0x124D PUSH3 0x19B0 JUMP JUMPDEST PUSH1 0x0 PUSH20 0xFFFFFFFFFFFFFFFFFFFFFFFFFFFFFFFFFFFFFFFF AND PUSH1 0x11 PUSH1 0x0 SWAP1 SLOAD SWAP1 PUSH2 0x100 EXP SWAP1 DIV PUSH20 0xFFFFFFFFFFFFFFFFFFFFFFFFFFFFFFFFFFFFFFFF AND PUSH20 0xFFFFFFFFFFFFFFFFFFFFFFFFFFFFFFFFFFFFFFFF AND EQ PUSH3 0x12E1 JUMPI PUSH1 0x40 MLOAD PUSH32 0x8C379A000000000000000000000000000000000000000000000000000000000 DUP2 MSTORE PUSH1 0x4 ADD PUSH3 0x12D8 SWAP1 PUSH3 0x42B4 JUMP JUMPDEST PUSH1 0x40 MLOAD DUP1 SWAP2 SUB SWAP1 REVERT JUMPDEST PUSH1 0x0 PUSH3 0x2A300 TIMESTAMP PUSH3 0x12F4 SWAP2 SWAP1 PUSH3 0x4721 JUMP JUMPDEST SWAP1 POP PUSH1 0x0 PUSH3 0xD2F00 DUP3 PUSH3 0x1309 SWAP2 SWAP1 PUSH3 0x4721 JUMP JUMPDEST SWAP1 POP PUSH1 0x0 NUMBER SWAP1 POP PUSH1 0x0 PUSH1 0x4 SWAP1 POP ADDRESS PUSH3 0x1321 PUSH3 0x1173 JUMP JUMPDEST DUP6 DUP6 DUP6 DUP6 PUSH1 0x40 MLOAD PUSH3 0x1333 SWAP1 PUSH3 0x30DD JUMP JUMPDEST PUSH3 0x1344 SWAP7 SWAP6 SWAP5 SWAP4 SWAP3 SWAP2 SWAP1 PUSH3 0x4060 JUMP JUMPDEST PUSH1 0x40 MLOAD DUP1 SWAP2 SUB SWAP1 PUSH1 0x0 CREATE DUP1 ISZERO DUP1 ISZERO PUSH3 0x1361 JUMPI RETURNDATASIZE PUSH1 0x0 DUP1 RETURNDATACOPY RETURNDATASIZE PUSH1 0x0 REVERT JUMPDEST POP PUSH1 0x11 PUSH1 0x0 PUSH2 0x100 EXP DUP2 SLOAD DUP2 PUSH20 0xFFFFFFFFFFFFFFFFFFFFFFFFFFFFFFFFFFFFFFFF MUL NOT AND SWAP1 DUP4 PUSH20 0xFFFFFFFFFFFFFFFFFFFFFFFFFFFFFFFFFFFFFFFF AND MUL OR SWAP1 SSTORE POP PUSH1 0x11 PUSH1 0x0 SWAP1 SLOAD SWAP1 PUSH2 0x100 EXP SWAP1 DIV PUSH20 0xFFFFFFFFFFFFFFFFFFFFFFFFFFFFFFFFFFFFFFFF AND PUSH1 0x12 PUSH1 0x0 PUSH2 0x100 EXP DUP2 SLOAD DUP2 PUSH20 0xFFFFFFFFFFFFFFFFFFFFFFFFFFFFFFFFFFFFFFFF MUL NOT AND SWAP1 DUP4 PUSH20 0xFFFFFFFFFFFFFFFFFFFFFFFFFFFFFFFFFFFFFFFF AND MUL OR SWAP1 SSTORE POP PUSH1 0x0 PUSH3 0x1425 PUSH1 0x7 SLOAD PUSH7 0x38D7EA4C68000 PUSH3 0x1963 SWAP1 SWAP2 SWAP1 PUSH4 0xFFFFFFFF AND JUMP JUMPDEST SWAP1 POP PUSH3 0x1455 PUSH1 0x12 PUSH1 0x0 SWAP1 SLOAD SWAP1 PUSH2 0x100 EXP SWAP1 DIV PUSH20 0xFFFFFFFFFFFFFFFFFFFFFFFFFFFFFFFFFFFFFFFF AND DUP3 PUSH3 0x1F81 JUMP JUMPDEST PUSH7 0x38D7EA4C68000 PUSH1 0x7 DUP2 SWAP1 SSTORE POP POP POP POP POP POP JUMP JUMPDEST PUSH1 0x0 DUP1 PUSH3 0x1477 PUSH3 0x1A35 JUMP JUMPDEST SWAP1 POP PUSH1 0x0 PUSH3 0x1487 DUP3 DUP7 PUSH3 0x1688 JUMP JUMPDEST SWAP1 POP DUP4 DUP2 LT ISZERO PUSH3 0x14CF JUMPI PUSH1 0x40 MLOAD PUSH32 0x8C379A000000000000000000000000000000000000000000000000000000000 DUP2 MSTORE PUSH1 0x4 ADD PUSH3 0x14C6 SWAP1 PUSH3 0x45BC JUMP JUMPDEST PUSH1 0x40 MLOAD DUP1 SWAP2 SUB SWAP1 REVERT JUMPDEST PUSH3 0x14DE DUP3 DUP7 DUP7 DUP5 SUB PUSH3 0x1A3D JUMP JUMPDEST PUSH1 0x1 SWAP3 POP POP POP SWAP3 SWAP2 POP POP JUMP JUMPDEST PUSH1 0x0 DUP1 PUSH3 0x14F7 PUSH3 0x1A35 JUMP JUMPDEST SWAP1 POP PUSH3 0x1506 DUP2 DUP6 DUP6 PUSH3 0x1CA4 JUMP JUMPDEST PUSH1 0x1 SWAP2 POP POP SWAP3 SWAP2 POP POP JUMP JUMPDEST PUSH1 0x0 PUSH1 0x14 DUP1 SLOAD SWAP1 POP SWAP1 POP SWAP1 JUMP JUMPDEST PUSH3 0x1528 PUSH3 0x19B0 JUMP JUMPDEST PUSH7 0x1C6BF52634000 DUP2 GT ISZERO PUSH3 0x1575 JUMPI PUSH1 0x40 MLOAD PUSH32 0x8C379A000000000000000000000000000000000000000000000000000000000 DUP2 MSTORE PUSH1 0x4 ADD PUSH3 0x156C SWAP1 PUSH3 0x4556 JUMP JUMPDEST PUSH1 0x40 MLOAD DUP1 SWAP2 SUB SWAP1 REVERT JUMPDEST PUSH3 0x1581 DUP3 DUP3 PUSH3 0x1F81 JUMP JUMPDEST POP POP JUMP JUMPDEST PUSH1 0xF PUSH1 0x20 MSTORE DUP1 PUSH1 0x0 MSTORE PUSH1 0x40 PUSH1 0x0 KECCAK256 PUSH1 0x0 SWAP2 POP SLOAD SWAP1 PUSH2 0x100 EXP SWAP1 DIV PUSH1 0xFF AND DUP2 JUMP JUMPDEST PUSH1 0x0 DUP1 PUSH1 0x0 SWAP1 POP JUMPDEST PUSH1 0x14 DUP1 SLOAD SWAP1 POP DUP2 LT ISZERO PUSH3 0x167D JUMPI DUP3 PUSH20 0xFFFFFFFFFFFFFFFFFFFFFFFFFFFFFFFFFFFFFFFF AND PUSH1 0x14 DUP3 DUP2 SLOAD DUP2 LT PUSH3 0x160D JUMPI PUSH32 0x4E487B7100000000000000000000000000000000000000000000000000000000 PUSH1 0x0 MSTORE PUSH1 0x32 PUSH1 0x4 MSTORE PUSH1 0x24 PUSH1 0x0 REVERT JUMPDEST SWAP1 PUSH1 0x0 MSTORE PUSH1 0x20 PUSH1 0x0 KECCAK256 SWAP1 PUSH1 0x2 MUL ADD PUSH1 0x0 ADD PUSH1 0x0 SWAP1 SLOAD SWAP1 PUSH2 0x100 EXP SWAP1 DIV PUSH20 0xFFFFFFFFFFFFFFFFFFFFFFFFFFFFFFFFFFFFFFFF AND PUSH20 0xFFFFFFFFFFFFFFFFFFFFFFFFFFFFFFFFFFFFFFFF AND EQ ISZERO PUSH3 0x1667 JUMPI PUSH1 0x1 SWAP2 POP POP PUSH3 0x1683 JUMP JUMPDEST DUP1 DUP1 PUSH3 0x1674 SWAP1 PUSH3 0x49C5 JUMP JUMPDEST SWAP2 POP POP PUSH3 0x15AD JUMP JUMPDEST POP PUSH1 0x0 SWAP1 POP JUMPDEST SWAP2 SWAP1 POP JUMP JUMPDEST PUSH1 0x0 PUSH1 0x1 PUSH1 0x0 DUP5 PUSH20 0xFFFFFFFFFFFFFFFFFFFFFFFFFFFFFFFFFFFFFFFF AND PUSH20 0xFFFFFFFFFFFFFFFFFFFFFFFFFFFFFFFFFFFFFFFF AND DUP2 MSTORE PUSH1 0x20 ADD SWAP1 DUP2 MSTORE PUSH1 0x20 ADD PUSH1 0x0 KECCAK256 PUSH1 0x0 DUP4 PUSH20 0xFFFFFFFFFFFFFFFFFFFFFFFFFFFFFFFFFFFFFFFF AND PUSH20 0xFFFFFFFFFFFFFFFFFFFFFFFFFFFFFFFFFFFFFFFF AND DUP2 MSTORE PUSH1 0x20 ADD SWAP1 DUP2 MSTORE PUSH1 0x20 ADD PUSH1 0x0 KECCAK256 SLOAD SWAP1 POP SWAP3 SWAP2 POP POP JUMP JUMPDEST PUSH1 0x14 DUP2 DUP2 SLOAD DUP2 LT PUSH3 0x1720 JUMPI PUSH1 0x0 DUP1 REVERT JUMPDEST SWAP1 PUSH1 0x0 MSTORE PUSH1 0x20 PUSH1 0x0 KECCAK256 SWAP1 PUSH1 0x2 MUL ADD PUSH1 0x0 SWAP2 POP SWAP1 POP DUP1 PUSH1 0x0 ADD PUSH1 0x0 SWAP1 SLOAD SWAP1 PUSH2 0x100 EXP SWAP1 DIV PUSH20 0xFFFFFFFFFFFFFFFFFFFFFFFFFFFFFFFFFFFFFFFF AND SWAP1 DUP1 PUSH1 0x1 ADD SLOAD SWAP1 POP DUP3 JUMP JUMPDEST PUSH3 0x176E PUSH3 0x19B0 JUMP JUMPDEST PUSH1 0x0 PUSH20 0xFFFFFFFFFFFFFFFFFFFFFFFFFFFFFFFFFFFFFFFF AND DUP2 PUSH20 0xFFFFFFFFFFFFFFFFFFFFFFFFFFFFFFFFFFFFFFFF AND EQ ISZERO PUSH3 0x17E1 JUMPI PUSH1 0x40 MLOAD PUSH32 0x8C379A000000000000000000000000000000000000000000000000000000000 DUP2 MSTORE PUSH1 0x4 ADD PUSH3 0x17D8 SWAP1 PUSH3 0x424E JUMP JUMPDEST PUSH1 0x40 MLOAD DUP1 SWAP2 SUB SWAP1 REVERT JUMPDEST PUSH3 0x17EC DUP2 PUSH3 0x2326 JUMP JUMPDEST POP JUMP JUMPDEST PUSH1 0x0 PUSH3 0x17FC CALLER PUSH3 0x1F2B JUMP JUMPDEST PUSH3 0x183E JUMPI PUSH1 0x40 MLOAD PUSH32 0x8C379A000000000000000000000000000000000000000000000000000000000 DUP2 MSTORE PUSH1 0x4 ADD PUSH3 0x1835 SWAP1 PUSH3 0x42F8 JUMP JUMPDEST PUSH1 0x40 MLOAD DUP1 SWAP2 SUB SWAP1 REVERT JUMPDEST PUSH1 0x0 DUP4 PUSH20 0xFFFFFFFFFFFFFFFFFFFFFFFFFFFFFFFFFFFFFFFF AND DUP4 PUSH1 0x40 MLOAD PUSH3 0x1867 SWAP2 SWAP1 PUSH3 0x3FBC JUMP JUMPDEST PUSH1 0x0 PUSH1 0x40 MLOAD DUP1 DUP4 SUB DUP2 DUP6 GAS DELEGATECALL SWAP2 POP POP RETURNDATASIZE DUP1 PUSH1 0x0 DUP2 EQ PUSH3 0x18A4 JUMPI PUSH1 0x40 MLOAD SWAP2 POP PUSH1 0x1F NOT PUSH1 0x3F RETURNDATASIZE ADD AND DUP3 ADD PUSH1 0x40 MSTORE RETURNDATASIZE DUP3 MSTORE RETURNDATASIZE PUSH1 0x0 PUSH1 0x20 DUP5 ADD RETURNDATACOPY PUSH3 0x18A9 JUMP JUMPDEST PUSH1 0x60 SWAP2 POP JUMPDEST POP POP SWAP1 POP DUP1 PUSH3 0x18F0 JUMPI PUSH1 0x40 MLOAD PUSH32 0x8C379A000000000000000000000000000000000000000000000000000000000 DUP2 MSTORE PUSH1 0x4 ADD PUSH3 0x18E7 SWAP1 PUSH3 0x435E JUMP JUMPDEST PUSH1 0x40 MLOAD DUP1 SWAP2 SUB SWAP1 REVERT JUMPDEST PUSH1 0xD SLOAD SWAP2 POP POP SWAP3 SWAP2 POP POP JUMP JUMPDEST PUSH3 0x1906 PUSH3 0x19B0 JUMP JUMPDEST PUSH7 0xAA87BEE538000 DUP2 GT ISZERO PUSH3 0x1953 JUMPI PUSH1 0x40 MLOAD PUSH32 0x8C379A000000000000000000000000000000000000000000000000000000000 DUP2 MSTORE PUSH1 0x4 ADD PUSH3 0x194A SWAP1 PUSH3 0x459A JUMP JUMPDEST PUSH1 0x40 MLOAD DUP1 SWAP2 SUB SWAP1 REVERT JUMPDEST PUSH3 0x195F DUP3 DUP3 PUSH3 0x1F81 JUMP JUMPDEST POP POP JUMP JUMPDEST PUSH1 0x0 DUP2 DUP4 PUSH3 0x1973 SWAP2 SWAP1 PUSH3 0x4817 JUMP JUMPDEST SWAP1 POP SWAP3 SWAP2 POP POP JUMP JUMPDEST POP POP POP JUMP JUMPDEST PUSH1 0x0 DUP2 DUP4 PUSH3 0x1990 SWAP2 SWAP1 PUSH3 0x477E JUMP JUMPDEST SWAP1 POP SWAP3 SWAP2 POP POP JUMP JUMPDEST PUSH1 0x0 DUP2 DUP4 PUSH3 0x19A8 SWAP2 SWAP1 PUSH3 0x4721 JUMP JUMPDEST SWAP1 POP SWAP3 SWAP2 POP POP JUMP JUMPDEST PUSH3 0x19BA PUSH3 0x1A35 JUMP JUMPDEST PUSH20 0xFFFFFFFFFFFFFFFFFFFFFFFFFFFFFFFFFFFFFFFF AND PUSH3 0x19DA PUSH3 0x1173 JUMP JUMPDEST PUSH20 0xFFFFFFFFFFFFFFFFFFFFFFFFFFFFFFFFFFFFFFFF AND EQ PUSH3 0x1A33 JUMPI PUSH1 0x40 MLOAD PUSH32 0x8C379A000000000000000000000000000000000000000000000000000000000 DUP2 MSTORE PUSH1 0x4 ADD PUSH3 0x1A2A SWAP1 PUSH3 0x4380 JUMP JUMPDEST PUSH1 0x40 MLOAD DUP1 SWAP2 SUB SWAP1 REVERT JUMPDEST JUMP JUMPDEST PUSH1 0x0 CALLER SWAP1 POP SWAP1 JUMP JUMPDEST PUSH1 0x0 PUSH20 0xFFFFFFFFFFFFFFFFFFFFFFFFFFFFFFFFFFFFFFFF AND DUP4 PUSH20 0xFFFFFFFFFFFFFFFFFFFFFFFFFFFFFFFFFFFFFFFF AND EQ ISZERO PUSH3 0x1AB0 JUMPI PUSH1 0x40 MLOAD PUSH32 0x8C379A000000000000000000000000000000000000000000000000000000000 DUP2 MSTORE PUSH1 0x4 ADD PUSH3 0x1AA7 SWAP1 PUSH3 0x449E JUMP JUMPDEST PUSH1 0x40 MLOAD DUP1 SWAP2 SUB SWAP1 REVERT JUMPDEST PUSH1 0x0 PUSH20 0xFFFFFFFFFFFFFFFFFFFFFFFFFFFFFFFFFFFFFFFF AND DUP3 PUSH20 0xFFFFFFFFFFFFFFFFFFFFFFFFFFFFFFFFFFFFFFFF AND EQ ISZERO PUSH3 0x1B23 JUMPI PUSH1 0x40 MLOAD PUSH32 0x8C379A000000000000000000000000000000000000000000000000000000000 DUP2 MSTORE PUSH1 0x4 ADD PUSH3 0x1B1A SWAP1 PUSH3 0x4270 JUMP JUMPDEST PUSH1 0x40 MLOAD DUP1 SWAP2 SUB SWAP1 REVERT JUMPDEST DUP1 PUSH1 0x1 PUSH1 0x0 DUP6 PUSH20 0xFFFFFFFFFFFFFFFFFFFFFFFFFFFFFFFFFFFFFFFF AND PUSH20 0xFFFFFFFFFFFFFFFFFFFFFFFFFFFFFFFFFFFFFFFF AND DUP2 MSTORE PUSH1 0x20 ADD SWAP1 DUP2 MSTORE PUSH1 0x20 ADD PUSH1 0x0 KECCAK256 PUSH1 0x0 DUP5 PUSH20 0xFFFFFFFFFFFFFFFFFFFFFFFFFFFFFFFFFFFFFFFF AND PUSH20 0xFFFFFFFFFFFFFFFFFFFFFFFFFFFFFFFFFFFFFFFF AND DUP2 MSTORE PUSH1 0x20 ADD SWAP1 DUP2 MSTORE PUSH1 0x20 ADD PUSH1 0x0 KECCAK256 DUP2 SWAP1 SSTORE POP DUP2 PUSH20 0xFFFFFFFFFFFFFFFFFFFFFFFFFFFFFFFFFFFFFFFF AND DUP4 PUSH20 0xFFFFFFFFFFFFFFFFFFFFFFFFFFFFFFFFFFFFFFFF AND PUSH32 0x8C5BE1E5EBEC7D5BD14F71427D1E84F3DD0314C0F7B2291E5B200AC8C7C3B925 DUP4 PUSH1 0x40 MLOAD PUSH3 0x1C03 SWAP2 SWAP1 PUSH3 0x4600 JUMP JUMPDEST PUSH1 0x40 MLOAD DUP1 SWAP2 SUB SWAP1 LOG3 POP POP POP JUMP JUMPDEST PUSH1 0x0 PUSH3 0x1C1E DUP5 DUP5 PUSH3 0x1688 JUMP JUMPDEST SWAP1 POP PUSH32 0xFFFFFFFFFFFFFFFFFFFFFFFFFFFFFFFFFFFFFFFFFFFFFFFFFFFFFFFFFFFFFFFF DUP2 EQ PUSH3 0x1C9E JUMPI DUP2 DUP2 LT ISZERO PUSH3 0x1C8E JUMPI PUSH1 0x40 MLOAD PUSH32 0x8C379A000000000000000000000000000000000000000000000000000000000 DUP2 MSTORE PUSH1 0x4 ADD PUSH3 0x1C85 SWAP1 PUSH3 0x4292 JUMP JUMPDEST PUSH1 0x40 MLOAD DUP1 SWAP2 SUB SWAP1 REVERT JUMPDEST PUSH3 0x1C9D DUP5 DUP5 DUP5 DUP5 SUB PUSH3 0x1A3D JUMP JUMPDEST JUMPDEST POP POP POP POP JUMP JUMPDEST PUSH1 0x0 PUSH20 0xFFFFFFFFFFFFFFFFFFFFFFFFFFFFFFFFFFFFFFFF AND DUP4 PUSH20 0xFFFFFFFFFFFFFFFFFFFFFFFFFFFFFFFFFFFFFFFF AND EQ ISZERO PUSH3 0x1D17 JUMPI PUSH1 0x40 MLOAD PUSH32 0x8C379A000000000000000000000000000000000000000000000000000000000 DUP2 MSTORE PUSH1 0x4 ADD PUSH3 0x1D0E SWAP1 PUSH3 0x445A JUMP JUMPDEST PUSH1 0x40 MLOAD DUP1 SWAP2 SUB SWAP1 REVERT JUMPDEST PUSH1 0x0 PUSH20 0xFFFFFFFFFFFFFFFFFFFFFFFFFFFFFFFFFFFFFFFF AND DUP3 PUSH20 0xFFFFFFFFFFFFFFFFFFFFFFFFFFFFFFFFFFFFFFFF AND EQ ISZERO PUSH3 0x1D8A JUMPI PUSH1 0x40 MLOAD PUSH32 0x8C379A000000000000000000000000000000000000000000000000000000000 DUP2 MSTORE PUSH1 0x4 ADD PUSH3 0x1D81 SWAP1 PUSH3 0x4182 JUMP JUMPDEST PUSH1 0x40 MLOAD DUP1 SWAP2 SUB SWAP1 REVERT JUMPDEST PUSH3 0x1D97 DUP4 DUP4 DUP4 PUSH3 0x2455 JUMP JUMPDEST PUSH1 0x0 DUP1 PUSH1 0x0 DUP6 PUSH20 0xFFFFFFFFFFFFFFFFFFFFFFFFFFFFFFFFFFFFFFFF AND PUSH20 0xFFFFFFFFFFFFFFFFFFFFFFFFFFFFFFFFFFFFFFFF AND DUP2 MSTORE PUSH1 0x20 ADD SWAP1 DUP2 MSTORE PUSH1 0x20 ADD PUSH1 0x0 KECCAK256 SLOAD SWAP1 POP DUP2 DUP2 LT ISZERO PUSH3 0x1E20 JUMPI PUSH1 0x40 MLOAD PUSH32 0x8C379A000000000000000000000000000000000000000000000000000000000 DUP2 MSTORE PUSH1 0x4 ADD PUSH3 0x1E17 SWAP1 PUSH3 0x42D6 JUMP JUMPDEST PUSH1 0x40 MLOAD DUP1 SWAP2 SUB SWAP1 REVERT JUMPDEST DUP2 DUP2 SUB PUSH1 0x0 DUP1 DUP7 PUSH20 0xFFFFFFFFFFFFFFFFFFFFFFFFFFFFFFFFFFFFFFFF AND PUSH20 0xFFFFFFFFFFFFFFFFFFFFFFFFFFFFFFFFFFFFFFFF AND DUP2 MSTORE PUSH1 0x20 ADD SWAP1 DUP2 MSTORE PUSH1 0x20 ADD PUSH1 0x0 KECCAK256 DUP2 SWAP1 SSTORE POP DUP2 PUSH1 0x0 DUP1 DUP6 PUSH20 0xFFFFFFFFFFFFFFFFFFFFFFFFFFFFFFFFFFFFFFFF AND PUSH20 0xFFFFFFFFFFFFFFFFFFFFFFFFFFFFFFFFFFFFFFFF AND DUP2 MSTORE PUSH1 0x20 ADD SWAP1 DUP2 MSTORE PUSH1 0x20 ADD PUSH1 0x0 KECCAK256 PUSH1 0x0 DUP3 DUP3 SLOAD ADD SWAP3 POP POP DUP2 SWAP1 SSTORE POP DUP3 PUSH20 0xFFFFFFFFFFFFFFFFFFFFFFFFFFFFFFFFFFFFFFFF AND DUP5 PUSH20 0xFFFFFFFFFFFFFFFFFFFFFFFFFFFFFFFFFFFFFFFF AND PUSH32 0xDDF252AD1BE2C89B69C2B068FC378DAA952BA7F163C4A11628F55A4DF523B3EF DUP5 PUSH1 0x40 MLOAD PUSH3 0x1F10 SWAP2 SWAP1 PUSH3 0x4600 JUMP JUMPDEST PUSH1 0x40 MLOAD DUP1 SWAP2 SUB SWAP1 LOG3 PUSH3 0x1F25 DUP5 DUP5 DUP5 PUSH3 0x27EA JUMP JUMPDEST POP POP POP POP JUMP JUMPDEST PUSH1 0x0 PUSH1 0x10 PUSH1 0x0 DUP4 PUSH20 0xFFFFFFFFFFFFFFFFFFFFFFFFFFFFFFFFFFFFFFFF AND PUSH20 0xFFFFFFFFFFFFFFFFFFFFFFFFFFFFFFFFFFFFFFFF AND DUP2 MSTORE PUSH1 0x20 ADD SWAP1 DUP2 MSTORE PUSH1 0x20 ADD PUSH1 0x0 KECCAK256 PUSH1 0x0 SWAP1 SLOAD SWAP1 PUSH2 0x100 EXP SWAP1 DIV PUSH1 0xFF AND SWAP1 POP SWAP2 SWAP1 POP JUMP JUMPDEST PUSH1 0x0 PUSH20 0xFFFFFFFFFFFFFFFFFFFFFFFFFFFFFFFFFFFFFFFF AND DUP3 PUSH20 0xFFFFFFFFFFFFFFFFFFFFFFFFFFFFFFFFFFFFFFFF AND EQ ISZERO PUSH3 0x1FF4 JUMPI PUSH1 0x40 MLOAD PUSH32 0x8C379A000000000000000000000000000000000000000000000000000000000 DUP2 MSTORE PUSH1 0x4 ADD PUSH3 0x1FEB SWAP1 PUSH3 0x45DE JUMP JUMPDEST PUSH1 0x40 MLOAD DUP1 SWAP2 SUB SWAP1 REVERT JUMPDEST PUSH3 0x2002 PUSH1 0x0 DUP4 DUP4 PUSH3 0x2455 JUMP JUMPDEST DUP1 PUSH1 0x2 PUSH1 0x0 DUP3 DUP3 SLOAD PUSH3 0x2016 SWAP2 SWAP1 PUSH3 0x4721 JUMP JUMPDEST SWAP3 POP POP DUP2 SWAP1 SSTORE POP DUP1 PUSH1 0x0 DUP1 DUP5 PUSH20 0xFFFFFFFFFFFFFFFFFFFFFFFFFFFFFFFFFFFFFFFF AND PUSH20 0xFFFFFFFFFFFFFFFFFFFFFFFFFFFFFFFFFFFFFFFF AND DUP2 MSTORE PUSH1 0x20 ADD SWAP1 DUP2 MSTORE PUSH1 0x20 ADD PUSH1 0x0 KECCAK256 PUSH1 0x0 DUP3 DUP3 SLOAD ADD SWAP3 POP POP DUP2 SWAP1 SSTORE POP DUP2 PUSH20 0xFFFFFFFFFFFFFFFFFFFFFFFFFFFFFFFFFFFFFFFF AND PUSH1 0x0 PUSH20 0xFFFFFFFFFFFFFFFFFFFFFFFFFFFFFFFFFFFFFFFF AND PUSH32 0xDDF252AD1BE2C89B69C2B068FC378DAA952BA7F163C4A11628F55A4DF523B3EF DUP4 PUSH1 0x40 MLOAD PUSH3 0x20C9 SWAP2 SWAP1 PUSH3 0x4600 JUMP JUMPDEST PUSH1 0x40 MLOAD DUP1 SWAP2 SUB SWAP1 LOG3 PUSH3 0x20DF PUSH1 0x0 DUP4 DUP4 PUSH3 0x27EA JUMP JUMPDEST POP POP JUMP JUMPDEST PUSH3 0x20ED PUSH3 0x285F JUMP JUMPDEST PUSH1 0x0 PUSH1 0x5 PUSH1 0x14 PUSH2 0x100 EXP DUP2 SLOAD DUP2 PUSH1 0xFF MUL NOT AND SWAP1 DUP4 ISZERO ISZERO MUL OR SWAP1 SSTORE POP PUSH32 0x5DB9EE0A495BF2E6FF9C91A7834C1BA4FDD244A5E8AA4E537BD38AEAE4B073AA PUSH3 0x2133 PUSH3 0x1A35 JUMP JUMPDEST PUSH1 0x40 MLOAD PUSH3 0x2142 SWAP2 SWAP1 PUSH3 0x3FD5 JUMP JUMPDEST PUSH1 0x40 MLOAD DUP1 SWAP2 SUB SWAP1 LOG1 JUMP JUMPDEST PUSH1 0x0 PUSH20 0xFFFFFFFFFFFFFFFFFFFFFFFFFFFFFFFFFFFFFFFF AND DUP3 PUSH20 0xFFFFFFFFFFFFFFFFFFFFFFFFFFFFFFFFFFFFFFFF AND EQ ISZERO PUSH3 0x21BF JUMPI PUSH1 0x40 MLOAD PUSH32 0x8C379A000000000000000000000000000000000000000000000000000000000 DUP2 MSTORE PUSH1 0x4 ADD PUSH3 0x21B6 SWAP1 PUSH3 0x43C4 JUMP JUMPDEST PUSH1 0x40 MLOAD DUP1 SWAP2 SUB SWAP1 REVERT JUMPDEST PUSH3 0x21CD DUP3 PUSH1 0x0 DUP4 PUSH3 0x2455 JUMP JUMPDEST PUSH1 0x0 DUP1 PUSH1 0x0 DUP5 PUSH20 0xFFFFFFFFFFFFFFFFFFFFFFFFFFFFFFFFFFFFFFFF AND PUSH20 0xFFFFFFFFFFFFFFFFFFFFFFFFFFFFFFFFFFFFFFFF AND DUP2 MSTORE PUSH1 0x20 ADD SWAP1 DUP2 MSTORE PUSH1 0x20 ADD PUSH1 0x0 KECCAK256 SLOAD SWAP1 POP DUP2 DUP2 LT ISZERO PUSH3 0x2256 JUMPI PUSH1 0x40 MLOAD PUSH32 0x8C379A000000000000000000000000000000000000000000000000000000000 DUP2 MSTORE PUSH1 0x4 ADD PUSH3 0x224D SWAP1 PUSH3 0x420A JUMP JUMPDEST PUSH1 0x40 MLOAD DUP1 SWAP2 SUB SWAP1 REVERT JUMPDEST DUP2 DUP2 SUB PUSH1 0x0 DUP1 DUP6 PUSH20 0xFFFFFFFFFFFFFFFFFFFFFFFFFFFFFFFFFFFFFFFF AND PUSH20 0xFFFFFFFFFFFFFFFFFFFFFFFFFFFFFFFFFFFFFFFF AND DUP2 MSTORE PUSH1 0x20 ADD SWAP1 DUP2 MSTORE PUSH1 0x20 ADD PUSH1 0x0 KECCAK256 DUP2 SWAP1 SSTORE POP DUP2 PUSH1 0x2 PUSH1 0x0 DUP3 DUP3 SLOAD SUB SWAP3 POP POP DUP2 SWAP1 SSTORE POP PUSH1 0x0 PUSH20 0xFFFFFFFFFFFFFFFFFFFFFFFFFFFFFFFFFFFFFFFF AND DUP4 PUSH20 0xFFFFFFFFFFFFFFFFFFFFFFFFFFFFFFFFFFFFFFFF AND PUSH32 0xDDF252AD1BE2C89B69C2B068FC378DAA952BA7F163C4A11628F55A4DF523B3EF DUP5 PUSH1 0x40 MLOAD PUSH3 0x230B SWAP2 SWAP1 PUSH3 0x4600 JUMP JUMPDEST PUSH1 0x40 MLOAD DUP1 SWAP2 SUB SWAP1 LOG3 PUSH3 0x2321 DUP4 PUSH1 0x0 DUP5 PUSH3 0x27EA JUMP JUMPDEST POP POP POP JUMP JUMPDEST PUSH1 0x0 PUSH1 0x5 PUSH1 0x0 SWAP1 SLOAD SWAP1 PUSH2 0x100 EXP SWAP1 DIV PUSH20 0xFFFFFFFFFFFFFFFFFFFFFFFFFFFFFFFFFFFFFFFF AND SWAP1 POP DUP2 PUSH1 0x5 PUSH1 0x0 PUSH2 0x100 EXP DUP2 SLOAD DUP2 PUSH20 0xFFFFFFFFFFFFFFFFFFFFFFFFFFFFFFFFFFFFFFFF MUL NOT AND SWAP1 DUP4 PUSH20 0xFFFFFFFFFFFFFFFFFFFFFFFFFFFFFFFFFFFFFFFF AND MUL OR SWAP1 SSTORE POP DUP2 PUSH20 0xFFFFFFFFFFFFFFFFFFFFFFFFFFFFFFFFFFFFFFFF AND DUP2 PUSH20 0xFFFFFFFFFFFFFFFFFFFFFFFFFFFFFFFFFFFFFFFF AND PUSH32 0x8BE0079C531659141344CD1FD0A4F28419497F9722A3DAAFE3B4186F6B6457E0 PUSH1 0x40 MLOAD PUSH1 0x40 MLOAD DUP1 SWAP2 SUB SWAP1 LOG3 POP POP JUMP JUMPDEST PUSH3 0x23F6 PUSH3 0x28AD JUMP JUMPDEST PUSH1 0x1 PUSH1 0x5 PUSH1 0x14 PUSH2 0x100 EXP DUP2 SLOAD DUP2 PUSH1 0xFF MUL NOT AND SWAP1 DUP4 ISZERO ISZERO MUL OR SWAP1 SSTORE POP PUSH32 0x62E78CEA01BEE320CD4E420270B5EA74000D11B0C9F74754EBDBFC544B05A258 PUSH3 0x243C PUSH3 0x1A35 JUMP JUMPDEST PUSH1 0x40 MLOAD PUSH3 0x244B SWAP2 SWAP1 PUSH3 0x3FD5 JUMP JUMPDEST PUSH1 0x40 MLOAD DUP1 SWAP2 SUB SWAP1 LOG1 JUMP JUMPDEST PUSH3 0x245F PUSH3 0x28AD JUMP JUMPDEST PUSH3 0x246C DUP4 DUP4 DUP4 PUSH3 0x197B JUMP JUMPDEST PUSH1 0xB PUSH1 0x0 SWAP1 SLOAD SWAP1 PUSH2 0x100 EXP SWAP1 DIV PUSH1 0xFF AND ISZERO DUP1 ISZERO PUSH3 0x24D4 JUMPI POP PUSH1 0xE PUSH1 0x0 DUP5 PUSH20 0xFFFFFFFFFFFFFFFFFFFFFFFFFFFFFFFFFFFFFFFF AND PUSH20 0xFFFFFFFFFFFFFFFFFFFFFFFFFFFFFFFFFFFFFFFF AND DUP2 MSTORE PUSH1 0x20 ADD SWAP1 DUP2 MSTORE PUSH1 0x20 ADD PUSH1 0x0 KECCAK256 PUSH1 0x0 SWAP1 SLOAD SWAP1 PUSH2 0x100 EXP SWAP1 DIV PUSH1 0xFF AND ISZERO JUMPDEST DUP1 ISZERO PUSH3 0x24E8 JUMPI POP PUSH3 0x24E7 DUP3 PUSH3 0x28FC JUMP JUMPDEST JUMPDEST ISZERO PUSH3 0x27E5 JUMPI PUSH1 0x0 PUSH3 0x24FB DUP5 PUSH3 0x15A5 JUMP JUMPDEST SWAP1 POP PUSH1 0x0 PUSH3 0x2509 PUSH3 0x1511 JUMP JUMPDEST SWAP1 POP PUSH1 0x0 DUP1 DUP3 EQ ISZERO PUSH3 0x2522 JUMPI PUSH1 0x8 PUSH1 0x0 ADD SLOAD PUSH3 0x253D JUMP JUMPDEST PUSH3 0x253C DUP3 PUSH1 0x8 PUSH1 0x0 ADD SLOAD PUSH3 0x1980 SWAP1 SWAP2 SWAP1 PUSH4 0xFFFFFFFF AND JUMP JUMPDEST JUMPDEST SWAP1 POP DUP1 DUP5 GT ISZERO PUSH3 0x2585 JUMPI PUSH1 0x40 MLOAD PUSH32 0x8C379A000000000000000000000000000000000000000000000000000000000 DUP2 MSTORE PUSH1 0x4 ADD PUSH3 0x257C SWAP1 PUSH3 0x433C JUMP JUMPDEST PUSH1 0x40 MLOAD DUP1 SWAP2 SUB SWAP1 REVERT JUMPDEST PUSH1 0x64 DUP3 LT DUP1 PUSH3 0x2592 JUMPI POP DUP3 JUMPDEST PUSH3 0x25D4 JUMPI PUSH1 0x40 MLOAD PUSH32 0x8C379A000000000000000000000000000000000000000000000000000000000 DUP2 MSTORE PUSH1 0x4 ADD PUSH3 0x25CB SWAP1 PUSH3 0x4512 JUMP JUMPDEST PUSH1 0x40 MLOAD DUP1 SWAP2 SUB SWAP1 REVERT JUMPDEST PUSH3 0x25DE PUSH3 0x2952 JUMP JUMPDEST DUP3 PUSH3 0x262E JUMPI PUSH3 0x25EF DUP7 PUSH3 0x2C2C JUMP JUMPDEST POP POP PUSH1 0x40 MLOAD PUSH32 0x8C379A000000000000000000000000000000000000000000000000000000000 DUP2 MSTORE PUSH1 0x4 ADD PUSH3 0x2625 SWAP1 PUSH3 0x4534 JUMP JUMPDEST PUSH1 0x40 MLOAD DUP1 SWAP2 SUB SWAP1 REVERT JUMPDEST PUSH1 0x0 DUP1 PUSH3 0x263B PUSH3 0x2D84 JUMP JUMPDEST SWAP2 POP SWAP2 POP DUP8 PUSH20 0xFFFFFFFFFFFFFFFFFFFFFFFFFFFFFFFFFFFFFFFF AND DUP3 PUSH20 0xFFFFFFFFFFFFFFFFFFFFFFFFFFFFFFFFFFFFFFFF AND EQ PUSH3 0x26BD JUMPI PUSH3 0x267E DUP3 PUSH3 0x2C2C JUMP JUMPDEST POP POP PUSH1 0x40 MLOAD PUSH32 0x8C379A000000000000000000000000000000000000000000000000000000000 DUP2 MSTORE PUSH1 0x4 ADD PUSH3 0x26B4 SWAP1 PUSH3 0x41E8 JUMP JUMPDEST PUSH1 0x40 MLOAD DUP1 SWAP2 SUB SWAP1 REVERT JUMPDEST DUP1 TIMESTAMP GT PUSH3 0x2702 JUMPI PUSH1 0x40 MLOAD PUSH32 0x8C379A000000000000000000000000000000000000000000000000000000000 DUP2 MSTORE PUSH1 0x4 ADD PUSH3 0x26F9 SWAP1 PUSH3 0x4578 JUMP JUMPDEST PUSH1 0x40 MLOAD DUP1 SWAP2 SUB SWAP1 REVERT JUMPDEST PUSH1 0x16 SLOAD DUP2 PUSH3 0x2712 SWAP2 SWAP1 PUSH3 0x4721 JUMP JUMPDEST TIMESTAMP GT ISZERO PUSH3 0x2757 JUMPI PUSH1 0x40 MLOAD PUSH32 0x8C379A000000000000000000000000000000000000000000000000000000000 DUP2 MSTORE PUSH1 0x4 ADD PUSH3 0x274E SWAP1 PUSH3 0x447C JUMP JUMPDEST PUSH1 0x40 MLOAD DUP1 SWAP2 SUB SWAP1 REVERT JUMPDEST PUSH1 0x8 PUSH1 0x0 ADD SLOAD PUSH3 0x2774 DUP8 PUSH1 0xD SLOAD PUSH3 0x1998 SWAP1 SWAP2 SWAP1 PUSH4 0xFFFFFFFF AND JUMP JUMPDEST GT ISZERO PUSH3 0x27B8 JUMPI PUSH1 0x40 MLOAD PUSH32 0x8C379A000000000000000000000000000000000000000000000000000000000 DUP2 MSTORE PUSH1 0x4 ADD PUSH3 0x27AF SWAP1 PUSH3 0x4438 JUMP JUMPDEST PUSH1 0x40 MLOAD DUP1 SWAP2 SUB SWAP1 REVERT JUMPDEST PUSH3 0x27C2 PUSH3 0x30AF JUMP JUMPDEST PUSH3 0x27D9 DUP7 PUSH1 0xD SLOAD PUSH3 0x1998 SWAP1 SWAP2 SWAP1 PUSH4 0xFFFFFFFF AND JUMP JUMPDEST PUSH1 0xD DUP2 SWAP1 SSTORE POP POP POP POP POP POP JUMPDEST POP POP POP JUMP JUMPDEST PUSH3 0x27F4 PUSH3 0x28AD JUMP JUMPDEST PUSH3 0x27FE PUSH3 0x30AF JUMP JUMPDEST PUSH3 0x2815 DUP2 PUSH1 0xD SLOAD PUSH3 0x1998 SWAP1 SWAP2 SWAP1 PUSH4 0xFFFFFFFF AND JUMP JUMPDEST PUSH1 0xD DUP2 SWAP1 SSTORE POP PUSH32 0xE9F944DDC2387681900FF440BEBE4122461FC58146E32BA8C7D14CE4D207FBE3 DUP3 DUP3 PUSH1 0xD SLOAD PUSH1 0x40 MLOAD PUSH3 0x2852 SWAP4 SWAP3 SWAP2 SWAP1 PUSH3 0x410E JUMP JUMPDEST PUSH1 0x40 MLOAD DUP1 SWAP2 SUB SWAP1 LOG1 POP POP POP JUMP JUMPDEST PUSH3 0x2869 PUSH3 0xFF2 JUMP JUMPDEST PUSH3 0x28AB JUMPI PUSH1 0x40 MLOAD PUSH32 0x8C379A000000000000000000000000000000000000000000000000000000000 DUP2 MSTORE PUSH1 0x4 ADD PUSH3 0x28A2 SWAP1 PUSH3 0x41A4 JUMP JUMPDEST PUSH1 0x40 MLOAD DUP1 SWAP2 SUB SWAP1 REVERT JUMPDEST JUMP JUMPDEST PUSH3 0x28B7 PUSH3 0xFF2 JUMP JUMPDEST ISZERO PUSH3 0x28FA JUMPI PUSH1 0x40 MLOAD PUSH32 0x8C379A000000000000000000000000000000000000000000000000000000000 DUP2 MSTORE PUSH1 0x4 ADD PUSH3 0x28F1 SWAP1 PUSH3 0x431A JUMP JUMPDEST PUSH1 0x40 MLOAD DUP1 SWAP2 SUB SWAP1 REVERT JUMPDEST JUMP JUMPDEST PUSH1 0x0 PUSH1 0xF PUSH1 0x0 DUP4 PUSH20 0xFFFFFFFFFFFFFFFFFFFFFFFFFFFFFFFFFFFFFFFF AND PUSH20 0xFFFFFFFFFFFFFFFFFFFFFFFFFFFFFFFFFFFFFFFF AND DUP2 MSTORE PUSH1 0x20 ADD SWAP1 DUP2 MSTORE PUSH1 0x20 ADD PUSH1 0x0 KECCAK256 PUSH1 0x0 SWAP1 SLOAD SWAP1 PUSH2 0x100 EXP SWAP1 DIV PUSH1 0xFF AND SWAP1 POP SWAP2 SWAP1 POP JUMP JUMPDEST PUSH1 0x0 JUMPDEST PUSH1 0x14 DUP1 SLOAD SWAP1 POP DUP2 LT DUP1 ISZERO PUSH3 0x29C4 JUMPI POP PUSH1 0x16 SLOAD PUSH1 0x14 DUP3 DUP2 SLOAD DUP2 LT PUSH3 0x29A3 JUMPI PUSH32 0x4E487B7100000000000000000000000000000000000000000000000000000000 PUSH1 0x0 MSTORE PUSH1 0x32 PUSH1 0x4 MSTORE PUSH1 0x24 PUSH1 0x0 REVERT JUMPDEST SWAP1 PUSH1 0x0 MSTORE PUSH1 0x20 PUSH1 0x0 KECCAK256 SWAP1 PUSH1 0x2 MUL ADD PUSH1 0x1 ADD SLOAD TIMESTAMP PUSH3 0x29C2 SWAP2 SWAP1 PUSH3 0x4817 JUMP JUMPDEST GT JUMPDEST ISZERO PUSH3 0x2A32 JUMPI PUSH1 0x0 PUSH1 0x14 DUP3 DUP2 SLOAD DUP2 LT PUSH3 0x2A07 JUMPI PUSH32 0x4E487B7100000000000000000000000000000000000000000000000000000000 PUSH1 0x0 MSTORE PUSH1 0x32 PUSH1 0x4 MSTORE PUSH1 0x24 PUSH1 0x0 REVERT JUMPDEST SWAP1 PUSH1 0x0 MSTORE PUSH1 0x20 PUSH1 0x0 KECCAK256 SWAP1 PUSH1 0x2 MUL ADD PUSH1 0x1 ADD DUP2 SWAP1 SSTORE POP DUP1 DUP1 PUSH3 0x2A29 SWAP1 PUSH3 0x49C5 JUMP JUMPDEST SWAP2 POP POP PUSH3 0x2955 JUMP JUMPDEST PUSH1 0x0 DUP2 GT ISZERO PUSH3 0x2C29 JUMPI PUSH1 0x0 JUMPDEST DUP2 PUSH1 0x14 DUP1 SLOAD SWAP1 POP PUSH3 0x2A52 SWAP2 SWAP1 PUSH3 0x4817 JUMP JUMPDEST DUP2 LT ISZERO PUSH3 0x2B83 JUMPI PUSH1 0x14 DUP3 DUP3 PUSH3 0x2A6A SWAP2 SWAP1 PUSH3 0x4721 JUMP JUMPDEST DUP2 SLOAD DUP2 LT PUSH3 0x2AA2 JUMPI PUSH32 0x4E487B7100000000000000000000000000000000000000000000000000000000 PUSH1 0x0 MSTORE PUSH1 0x32 PUSH1 0x4 MSTORE PUSH1 0x24 PUSH1 0x0 REVERT JUMPDEST SWAP1 PUSH1 0x0 MSTORE PUSH1 0x20 PUSH1 0x0 KECCAK256 SWAP1 PUSH1 0x2 MUL ADD PUSH1 0x14 DUP3 DUP2 SLOAD DUP2 LT PUSH3 0x2AEB JUMPI PUSH32 0x4E487B7100000000000000000000000000000000000000000000000000000000 PUSH1 0x0 MSTORE PUSH1 0x32 PUSH1 0x4 MSTORE PUSH1 0x24 PUSH1 0x0 REVERT JUMPDEST SWAP1 PUSH1 0x0 MSTORE PUSH1 0x20 PUSH1 0x0 KECCAK256 SWAP1 PUSH1 0x2 MUL ADD PUSH1 0x0 DUP3 ADD PUSH1 0x0 SWAP1 SLOAD SWAP1 PUSH2 0x100 EXP SWAP1 DIV PUSH20 0xFFFFFFFFFFFFFFFFFFFFFFFFFFFFFFFFFFFFFFFF AND DUP2 PUSH1 0x0 ADD PUSH1 0x0 PUSH2 0x100 EXP DUP2 SLOAD DUP2 PUSH20 0xFFFFFFFFFFFFFFFFFFFFFFFFFFFFFFFFFFFFFFFF MUL NOT AND SWAP1 DUP4 PUSH20 0xFFFFFFFFFFFFFFFFFFFFFFFFFFFFFFFFFFFFFFFF AND MUL OR SWAP1 SSTORE POP PUSH1 0x1 DUP3 ADD SLOAD DUP2 PUSH1 0x1 ADD SSTORE SWAP1 POP POP DUP1 DUP1 PUSH3 0x2B7A SWAP1 PUSH3 0x49C5 JUMP JUMPDEST SWAP2 POP POP PUSH3 0x2A3F JUMP JUMPDEST POP PUSH1 0x0 JUMPDEST DUP2 DUP2 LT ISZERO PUSH3 0x2C27 JUMPI PUSH1 0x14 DUP1 SLOAD DUP1 PUSH3 0x2BC9 JUMPI PUSH32 0x4E487B7100000000000000000000000000000000000000000000000000000000 PUSH1 0x0 MSTORE PUSH1 0x31 PUSH1 0x4 MSTORE PUSH1 0x24 PUSH1 0x0 REVERT JUMPDEST PUSH1 0x1 SWAP1 SUB DUP2 DUP2 SWAP1 PUSH1 0x0 MSTORE PUSH1 0x20 PUSH1 0x0 KECCAK256 SWAP1 PUSH1 0x2 MUL ADD PUSH1 0x0 DUP1 DUP3 ADD PUSH1 0x0 PUSH2 0x100 EXP DUP2 SLOAD SWAP1 PUSH20 0xFFFFFFFFFFFFFFFFFFFFFFFFFFFFFFFFFFFFFFFF MUL NOT AND SWAP1 SSTORE PUSH1 0x1 DUP3 ADD PUSH1 0x0 SWAP1 SSTORE POP POP SWAP1 SSTORE DUP1 DUP1 PUSH3 0x2C1E SWAP1 PUSH3 0x49C5 JUMP JUMPDEST SWAP2 POP POP PUSH3 0x2B87 JUMP JUMPDEST POP JUMPDEST POP JUMP JUMPDEST PUSH1 0x0 DUP1 PUSH1 0x0 PUSH1 0x14 DUP1 SLOAD SWAP1 POP SWAP1 POP PUSH1 0x0 PUSH1 0x15 SLOAD DUP3 PUSH3 0x2C4B SWAP2 SWAP1 PUSH3 0x47B6 JUMP JUMPDEST TIMESTAMP PUSH3 0x2C58 SWAP2 SWAP1 PUSH3 0x4721 JUMP JUMPDEST SWAP1 POP PUSH1 0x14 PUSH1 0x40 MLOAD DUP1 PUSH1 0x40 ADD PUSH1 0x40 MSTORE DUP1 DUP8 PUSH20 0xFFFFFFFFFFFFFFFFFFFFFFFFFFFFFFFFFFFFFFFF AND DUP2 MSTORE PUSH1 0x20 ADD DUP4 DUP2 MSTORE POP SWAP1 DUP1 PUSH1 0x1 DUP2 SLOAD ADD DUP1 DUP3 SSTORE DUP1 SWAP2 POP POP PUSH1 0x1 SWAP1 SUB SWAP1 PUSH1 0x0 MSTORE PUSH1 0x20 PUSH1 0x0 KECCAK256 SWAP1 PUSH1 0x2 MUL ADD PUSH1 0x0 SWAP1 SWAP2 SWAP1 SWAP2 SWAP1 SWAP2 POP PUSH1 0x0 DUP3 ADD MLOAD DUP2 PUSH1 0x0 ADD PUSH1 0x0 PUSH2 0x100 EXP DUP2 SLOAD DUP2 PUSH20 0xFFFFFFFFFFFFFFFFFFFFFFFFFFFFFFFFFFFFFFFF MUL NOT AND SWAP1 DUP4 PUSH20 0xFFFFFFFFFFFFFFFFFFFFFFFFFFFFFFFFFFFFFFFF AND MUL OR SWAP1 SSTORE POP PUSH1 0x20 DUP3 ADD MLOAD DUP2 PUSH1 0x1 ADD SSTORE POP POP PUSH1 0x13 SLOAD DUP2 GT PUSH3 0x2D16 JUMPI PUSH1 0x13 SLOAD PUSH3 0x2D18 JUMP JUMPDEST DUP1 JUMPDEST PUSH1 0x13 DUP2 SWAP1 SSTORE POP PUSH32 0xE9F944DDC2387681900FF440BEBE4122461FC58146E32BA8C7D14CE4D207FBE3 DUP6 PUSH1 0x1 DUP5 PUSH3 0x2D4F SWAP2 SWAP1 PUSH3 0x4721 JUMP JUMPDEST DUP4 PUSH1 0x40 MLOAD PUSH3 0x2D61 SWAP4 SWAP3 SWAP2 SWAP1 PUSH3 0x43E6 JUMP JUMPDEST PUSH1 0x40 MLOAD DUP1 SWAP2 SUB SWAP1 LOG1 PUSH1 0x1 DUP3 PUSH3 0x2D78 SWAP2 SWAP1 PUSH3 0x4721 JUMP JUMPDEST DUP2 SWAP4 POP SWAP4 POP POP POP SWAP2 POP SWAP2 JUMP JUMPDEST PUSH1 0x0 DUP1 PUSH1 0x0 PUSH1 0x14 DUP1 SLOAD SWAP1 POP GT PUSH3 0x2DD2 JUMPI PUSH1 0x40 MLOAD PUSH32 0x8C379A000000000000000000000000000000000000000000000000000000000 DUP2 MSTORE PUSH1 0x4 ADD PUSH3 0x2DC9 SWAP1 PUSH3 0x4160 JUMP JUMPDEST PUSH1 0x40 MLOAD DUP1 SWAP2 SUB SWAP1 REVERT JUMPDEST PUSH1 0x0 PUSH1 0x14 PUSH1 0x0 DUP2 SLOAD DUP2 LT PUSH3 0x2E10 JUMPI PUSH32 0x4E487B7100000000000000000000000000000000000000000000000000000000 PUSH1 0x0 MSTORE PUSH1 0x32 PUSH1 0x4 MSTORE PUSH1 0x24 PUSH1 0x0 REVERT JUMPDEST SWAP1 PUSH1 0x0 MSTORE PUSH1 0x20 PUSH1 0x0 KECCAK256 SWAP1 PUSH1 0x2 MUL ADD PUSH1 0x40 MLOAD DUP1 PUSH1 0x40 ADD PUSH1 0x40 MSTORE SWAP1 DUP2 PUSH1 0x0 DUP3 ADD PUSH1 0x0 SWAP1 SLOAD SWAP1 PUSH2 0x100 EXP SWAP1 DIV PUSH20 0xFFFFFFFFFFFFFFFFFFFFFFFFFFFFFFFFFFFFFFFF AND PUSH20 0xFFFFFFFFFFFFFFFFFFFFFFFFFFFFFFFFFFFFFFFF AND PUSH20 0xFFFFFFFFFFFFFFFFFFFFFFFFFFFFFFFFFFFFFFFF AND DUP2 MSTORE PUSH1 0x20 ADD PUSH1 0x1 DUP3 ADD SLOAD DUP2 MSTORE POP POP SWAP1 POP PUSH1 0x0 JUMPDEST PUSH1 0x1 PUSH1 0x14 DUP1 SLOAD SWAP1 POP PUSH3 0x2EA2 SWAP2 SWAP1 PUSH3 0x4817 JUMP JUMPDEST DUP2 LT ISZERO PUSH3 0x2FD4 JUMPI PUSH1 0x14 PUSH1 0x1 DUP3 PUSH3 0x2EBB SWAP2 SWAP1 PUSH3 0x4721 JUMP JUMPDEST DUP2 SLOAD DUP2 LT PUSH3 0x2EF3 JUMPI PUSH32 0x4E487B7100000000000000000000000000000000000000000000000000000000 PUSH1 0x0 MSTORE PUSH1 0x32 PUSH1 0x4 MSTORE PUSH1 0x24 PUSH1 0x0 REVERT JUMPDEST SWAP1 PUSH1 0x0 MSTORE PUSH1 0x20 PUSH1 0x0 KECCAK256 SWAP1 PUSH1 0x2 MUL ADD PUSH1 0x14 DUP3 DUP2 SLOAD DUP2 LT PUSH3 0x2F3C JUMPI PUSH32 0x4E487B7100000000000000000000000000000000000000000000000000000000 PUSH1 0x0 MSTORE PUSH1 0x32 PUSH1 0x4 MSTORE PUSH1 0x24 PUSH1 0x0 REVERT JUMPDEST SWAP1 PUSH1 0x0 MSTORE PUSH1 0x20 PUSH1 0x0 KECCAK256 SWAP1 PUSH1 0x2 MUL ADD PUSH1 0x0 DUP3 ADD PUSH1 0x0 SWAP1 SLOAD SWAP1 PUSH2 0x100 EXP SWAP1 DIV PUSH20 0xFFFFFFFFFFFFFFFFFFFFFFFFFFFFFFFFFFFFFFFF AND DUP2 PUSH1 0x0 ADD PUSH1 0x0 PUSH2 0x100 EXP DUP2 SLOAD DUP2 PUSH20 0xFFFFFFFFFFFFFFFFFFFFFFFFFFFFFFFFFFFFFFFF MUL NOT AND SWAP1 DUP4 PUSH20 0xFFFFFFFFFFFFFFFFFFFFFFFFFFFFFFFFFFFFFFFF AND MUL OR SWAP1 SSTORE POP PUSH1 0x1 DUP3 ADD SLOAD DUP2 PUSH1 0x1 ADD SSTORE SWAP1 POP POP DUP1 DUP1 PUSH3 0x2FCB SWAP1 PUSH3 0x49C5 JUMP JUMPDEST SWAP2 POP POP PUSH3 0x2E8E JUMP JUMPDEST POP PUSH32 0xE9F944DDC2387681900FF440BEBE4122461FC58146E32BA8C7D14CE4D207FBE3 DUP2 PUSH1 0x0 ADD MLOAD DUP3 PUSH1 0x20 ADD MLOAD PUSH1 0x0 PUSH1 0x40 MLOAD PUSH3 0x3013 SWAP4 SWAP3 SWAP2 SWAP1 PUSH3 0x44C0 JUMP JUMPDEST PUSH1 0x40 MLOAD DUP1 SWAP2 SUB SWAP1 LOG1 PUSH1 0x14 DUP1 SLOAD DUP1 PUSH3 0x3054 JUMPI PUSH32 0x4E487B7100000000000000000000000000000000000000000000000000000000 PUSH1 0x0 MSTORE PUSH1 0x31 PUSH1 0x4 MSTORE PUSH1 0x24 PUSH1 0x0 REVERT JUMPDEST PUSH1 0x1 SWAP1 SUB DUP2 DUP2 SWAP1 PUSH1 0x0 MSTORE PUSH1 0x20 PUSH1 0x0 KECCAK256 SWAP1 PUSH1 0x2 MUL ADD PUSH1 0x0 DUP1 DUP3 ADD PUSH1 0x0 PUSH2 0x100 EXP DUP2 SLOAD SWAP1 PUSH20 0xFFFFFFFFFFFFFFFFFFFFFFFFFFFFFFFFFFFFFFFF MUL NOT AND SWAP1 SSTORE PUSH1 0x1 DUP3 ADD PUSH1 0x0 SWAP1 SSTORE POP POP SWAP1 SSTORE DUP1 PUSH1 0x0 ADD MLOAD DUP2 PUSH1 0x20 ADD MLOAD SWAP3 POP SWAP3 POP POP SWAP1 SWAP2 JUMP JUMPDEST PUSH1 0x8 PUSH1 0x1 ADD SLOAD PUSH1 0xC SLOAD PUSH3 0x30C4 SWAP2 SWAP1 PUSH3 0x4721 JUMP JUMPDEST TIMESTAMP LT PUSH3 0x30DB JUMPI PUSH1 0x0 PUSH1 0xD DUP2 SWAP1 SSTORE POP TIMESTAMP PUSH1 0xC DUP2 SWAP1 SSTORE POP JUMPDEST JUMP JUMPDEST PUSH2 0x1F5B DUP1 PUSH3 0x4B2F DUP4 CODECOPY ADD SWAP1 JUMP JUMPDEST PUSH1 0x0 PUSH3 0x3102 PUSH3 0x30FC DUP5 PUSH3 0x46AB JUMP JUMPDEST PUSH3 0x4677 JUMP JUMPDEST SWAP1 POP DUP3 DUP2 MSTORE PUSH1 0x20 DUP2 ADD DUP5 DUP5 DUP5 ADD GT ISZERO PUSH3 0x311B JUMPI PUSH1 0x0 DUP1 REVERT JUMPDEST PUSH3 0x3128 DUP5 DUP3 DUP6 PUSH3 0x494A JUMP JUMPDEST POP SWAP4 SWAP3 POP POP POP JUMP JUMPDEST PUSH1 0x0 DUP2 CALLDATALOAD SWAP1 POP PUSH3 0x3141 DUP2 PUSH3 0x4AE0 JUMP JUMPDEST SWAP3 SWAP2 POP POP JUMP JUMPDEST PUSH1 0x0 DUP2 CALLDATALOAD SWAP1 POP PUSH3 0x3158 DUP2 PUSH3 0x4AFA JUMP JUMPDEST SWAP3 SWAP2 POP POP JUMP JUMPDEST PUSH1 0x0 DUP3 PUSH1 0x1F DUP4 ADD SLT PUSH3 0x3170 JUMPI PUSH1 0x0 DUP1 REVERT JUMPDEST DUP2 CALLDATALOAD PUSH3 0x3182 DUP5 DUP3 PUSH1 0x20 DUP7 ADD PUSH3 0x30EB JUMP JUMPDEST SWAP2 POP POP SWAP3 SWAP2 POP POP JUMP JUMPDEST PUSH1 0x0 DUP2 CALLDATALOAD SWAP1 POP PUSH3 0x319C DUP2 PUSH3 0x4B14 JUMP JUMPDEST SWAP3 SWAP2 POP POP JUMP JUMPDEST PUSH1 0x0 PUSH1 0x20 DUP3 DUP5 SUB SLT ISZERO PUSH3 0x31B5 JUMPI PUSH1 0x0 DUP1 REVERT JUMPDEST PUSH1 0x0 PUSH3 0x31C5 DUP5 DUP3 DUP6 ADD PUSH3 0x3130 JUMP JUMPDEST SWAP2 POP POP SWAP3 SWAP2 POP POP JUMP JUMPDEST PUSH1 0x0 DUP1 PUSH1 0x40 DUP4 DUP6 SUB SLT ISZERO PUSH3 0x31E2 JUMPI PUSH1 0x0 DUP1 REVERT JUMPDEST PUSH1 0x0 PUSH3 0x31F2 DUP6 DUP3 DUP7 ADD PUSH3 0x3130 JUMP JUMPDEST SWAP3 POP POP PUSH1 0x20 PUSH3 0x3205 DUP6 DUP3 DUP7 ADD PUSH3 0x3130 JUMP JUMPDEST SWAP2 POP POP SWAP3 POP SWAP3 SWAP1 POP JUMP JUMPDEST PUSH1 0x0 DUP1 PUSH1 0x0 PUSH1 0x60 DUP5 DUP7 SUB SLT ISZERO PUSH3 0x3225 JUMPI PUSH1 0x0 DUP1 REVERT JUMPDEST PUSH1 0x0 PUSH3 0x3235 DUP7 DUP3 DUP8 ADD PUSH3 0x3130 JUMP JUMPDEST SWAP4 POP POP PUSH1 0x20 PUSH3 0x3248 DUP7 DUP3 DUP8 ADD PUSH3 0x3130 JUMP JUMPDEST SWAP3 POP POP PUSH1 0x40 PUSH3 0x325B DUP7 DUP3 DUP8 ADD PUSH3 0x318B JUMP JUMPDEST SWAP2 POP POP SWAP3 POP SWAP3 POP SWAP3 JUMP JUMPDEST PUSH1 0x0 DUP1 PUSH1 0x40 DUP4 DUP6 SUB SLT ISZERO PUSH3 0x3279 JUMPI PUSH1 0x0 DUP1 REVERT JUMPDEST PUSH1 0x0 PUSH3 0x3289 DUP6 DUP3 DUP7 ADD PUSH3 0x3130 JUMP JUMPDEST SWAP3 POP POP PUSH1 0x20 DUP4 ADD CALLDATALOAD PUSH8 0xFFFFFFFFFFFFFFFF DUP2 GT ISZERO PUSH3 0x32A7 JUMPI PUSH1 0x0 DUP1 REVERT JUMPDEST PUSH3 0x32B5 DUP6 DUP3 DUP7 ADD PUSH3 0x315E JUMP JUMPDEST SWAP2 POP POP SWAP3 POP SWAP3 SWAP1 POP JUMP JUMPDEST PUSH1 0x0 DUP1 PUSH1 0x40 DUP4 DUP6 SUB SLT ISZERO PUSH3 0x32D3 JUMPI PUSH1 0x0 DUP1 REVERT JUMPDEST PUSH1 0x0 PUSH3 0x32E3 DUP6 DUP3 DUP7 ADD PUSH3 0x3130 JUMP JUMPDEST SWAP3 POP POP PUSH1 0x20 PUSH3 0x32F6 DUP6 DUP3 DUP7 ADD PUSH3 0x318B JUMP JUMPDEST SWAP2 POP POP SWAP3 POP SWAP3 SWAP1 POP JUMP JUMPDEST PUSH1 0x0 PUSH1 0x20 DUP3 DUP5 SUB SLT ISZERO PUSH3 0x3313 JUMPI PUSH1 0x0 DUP1 REVERT JUMPDEST PUSH1 0x0 PUSH3 0x3323 DUP5 DUP3 DUP6 ADD PUSH3 0x3147 JUMP JUMPDEST SWAP2 POP POP SWAP3 SWAP2 POP POP JUMP JUMPDEST PUSH1 0x0 PUSH1 0x20 DUP3 DUP5 SUB SLT ISZERO PUSH3 0x333F JUMPI PUSH1 0x0 DUP1 REVERT JUMPDEST PUSH1 0x0 DUP3 ADD CALLDATALOAD PUSH8 0xFFFFFFFFFFFFFFFF DUP2 GT ISZERO PUSH3 0x335A JUMPI PUSH1 0x0 DUP1 REVERT JUMPDEST PUSH3 0x3368 DUP5 DUP3 DUP6 ADD PUSH3 0x315E JUMP JUMPDEST SWAP2 POP POP SWAP3 SWAP2 POP POP JUMP JUMPDEST PUSH1 0x0 PUSH1 0x20 DUP3 DUP5 SUB SLT ISZERO PUSH3 0x3384 JUMPI PUSH1 0x0 DUP1 REVERT JUMPDEST PUSH1 0x0 PUSH3 0x3394 DUP5 DUP3 DUP6 ADD PUSH3 0x318B JUMP JUMPDEST SWAP2 POP POP SWAP3 SWAP2 POP POP JUMP JUMPDEST PUSH3 0x33A8 DUP2 PUSH3 0x4852 JUMP JUMPDEST DUP3 MSTORE POP POP JUMP JUMPDEST PUSH3 0x33B9 DUP2 PUSH3 0x4866 JUMP JUMPDEST DUP3 MSTORE POP POP JUMP JUMPDEST PUSH1 0x0 PUSH3 0x33CC DUP3 PUSH3 0x46DE JUMP JUMPDEST PUSH3 0x33D8 DUP2 DUP6 PUSH3 0x46F4 JUMP JUMPDEST SWAP4 POP PUSH3 0x33EA DUP2 DUP6 PUSH1 0x20 DUP7 ADD PUSH3 0x4959 JUMP JUMPDEST PUSH3 0x33F5 DUP2 PUSH3 0x4ACF JUMP JUMPDEST DUP5 ADD SWAP2 POP POP SWAP3 SWAP2 POP POP JUMP JUMPDEST PUSH1 0x0 PUSH3 0x340D DUP3 PUSH3 0x46DE JUMP JUMPDEST PUSH3 0x3419 DUP2 DUP6 PUSH3 0x4705 JUMP JUMPDEST SWAP4 POP PUSH3 0x342B DUP2 DUP6 PUSH1 0x20 DUP7 ADD PUSH3 0x4959 JUMP JUMPDEST DUP1 DUP5 ADD SWAP2 POP POP SWAP3 SWAP2 POP POP JUMP JUMPDEST PUSH3 0x3442 DUP2 PUSH3 0x48E6 JUMP JUMPDEST DUP3 MSTORE POP POP JUMP JUMPDEST PUSH3 0x3453 DUP2 PUSH3 0x490E JUMP JUMPDEST DUP3 MSTORE POP POP JUMP JUMPDEST PUSH3 0x3464 DUP2 PUSH3 0x4936 JUMP JUMPDEST DUP3 MSTORE POP POP JUMP JUMPDEST PUSH1 0x0 PUSH3 0x3477 DUP3 PUSH3 0x46E9 JUMP JUMPDEST PUSH3 0x3483 DUP2 DUP6 PUSH3 0x4710 JUMP JUMPDEST SWAP4 POP PUSH3 0x3495 DUP2 DUP6 PUSH1 0x20 DUP7 ADD PUSH3 0x4959 JUMP JUMPDEST PUSH3 0x34A0 DUP2 PUSH3 0x4ACF JUMP JUMPDEST DUP5 ADD SWAP2 POP POP SWAP3 SWAP2 POP POP JUMP JUMPDEST PUSH1 0x0 PUSH3 0x34BA PUSH1 0x4 DUP4 PUSH3 0x4710 JUMP JUMPDEST SWAP2 POP PUSH32 0x446F6E6500000000000000000000000000000000000000000000000000000000 PUSH1 0x0 DUP4 ADD MSTORE PUSH1 0x20 DUP3 ADD SWAP1 POP SWAP2 SWAP1 POP JUMP JUMPDEST PUSH1 0x0 PUSH3 0x34FC PUSH1 0xE DUP4 PUSH3 0x4710 JUMP JUMPDEST SWAP2 POP PUSH32 0x517565756520697320656D707479000000000000000000000000000000000000 PUSH1 0x0 DUP4 ADD MSTORE PUSH1 0x20 DUP3 ADD SWAP1 POP SWAP2 SWAP1 POP JUMP JUMPDEST PUSH1 0x0 PUSH3 0x353E PUSH1 0x23 DUP4 PUSH3 0x4710 JUMP JUMPDEST SWAP2 POP PUSH32 0x45524332303A207472616E7366657220746F20746865207A65726F2061646472 PUSH1 0x0 DUP4 ADD MSTORE PUSH32 0x6573730000000000000000000000000000000000000000000000000000000000 PUSH1 0x20 DUP4 ADD MSTORE PUSH1 0x40 DUP3 ADD SWAP1 POP SWAP2 SWAP1 POP JUMP JUMPDEST PUSH1 0x0 PUSH3 0x35A6 PUSH1 0x14 DUP4 PUSH3 0x4710 JUMP JUMPDEST SWAP2 POP PUSH32 0x5061757361626C653A206E6F7420706175736564000000000000000000000000 PUSH1 0x0 DUP4 ADD MSTORE PUSH1 0x20 DUP3 ADD SWAP1 POP SWAP2 SWAP1 POP JUMP JUMPDEST PUSH1 0x0 PUSH3 0x35E8 PUSH1 0x2A DUP4 PUSH3 0x4710 JUMP JUMPDEST SWAP2 POP PUSH32 0x4578636565647320636F6D6D756E69747920616E64206D61726B6574696E6720 PUSH1 0x0 DUP4 ADD MSTORE PUSH32 0x616C6C6F636174696F6E00000000000000000000000000000000000000000000 PUSH1 0x20 DUP4 ADD MSTORE PUSH1 0x40 DUP3 ADD SWAP1 POP SWAP2 SWAP1 POP JUMP JUMPDEST PUSH1 0x0 PUSH3 0x3650 PUSH1 0x22 DUP4 PUSH3 0x4710 JUMP JUMPDEST SWAP2 POP PUSH32 0x4E6F7420796F7572207475726E2C206164646564206261636B20746F20717565 PUSH1 0x0 DUP4 ADD MSTORE PUSH32 0x7565000000000000000000000000000000000000000000000000000000000000 PUSH1 0x20 DUP4 ADD MSTORE PUSH1 0x40 DUP3 ADD SWAP1 POP SWAP2 SWAP1 POP JUMP JUMPDEST PUSH1 0x0 PUSH3 0x36B8 PUSH1 0x22 DUP4 PUSH3 0x4710 JUMP JUMPDEST SWAP2 POP PUSH32 0x45524332303A206275726E20616D6F756E7420657863656564732062616C616E PUSH1 0x0 DUP4 ADD MSTORE PUSH32 0x6365000000000000000000000000000000000000000000000000000000000000 PUSH1 0x20 DUP4 ADD MSTORE PUSH1 0x40 DUP3 ADD SWAP1 POP SWAP2 SWAP1 POP JUMP JUMPDEST PUSH1 0x0 PUSH3 0x3720 PUSH1 0x28 DUP4 PUSH3 0x4710 JUMP JUMPDEST SWAP2 POP PUSH32 0x45786365656473207374616B696E6720616E64206C697175696469747920616C PUSH1 0x0 DUP4 ADD MSTORE PUSH32 0x6C6F636174696F6E000000000000000000000000000000000000000000000000 PUSH1 0x20 DUP4 ADD MSTORE PUSH1 0x40 DUP3 ADD SWAP1 POP SWAP2 SWAP1 POP JUMP JUMPDEST PUSH1 0x0 PUSH3 0x3788 PUSH1 0x26 DUP4 PUSH3 0x4710 JUMP JUMPDEST SWAP2 POP PUSH32 0x4F776E61626C653A206E6577206F776E657220697320746865207A65726F2061 PUSH1 0x0 DUP4 ADD MSTORE PUSH32 0x6464726573730000000000000000000000000000000000000000000000000000 PUSH1 0x20 DUP4 ADD MSTORE PUSH1 0x40 DUP3 ADD SWAP1 POP SWAP2 SWAP1 POP JUMP JUMPDEST PUSH1 0x0 PUSH3 0x37F0 PUSH1 0x22 DUP4 PUSH3 0x4710 JUMP JUMPDEST SWAP2 POP PUSH32 0x45524332303A20617070726F766520746F20746865207A65726F206164647265 PUSH1 0x0 DUP4 ADD MSTORE PUSH32 0x7373000000000000000000000000000000000000000000000000000000000000 PUSH1 0x20 DUP4 ADD MSTORE PUSH1 0x40 DUP3 ADD SWAP1 POP SWAP2 SWAP1 POP JUMP JUMPDEST PUSH1 0x0 PUSH3 0x3858 PUSH1 0x1D DUP4 PUSH3 0x4710 JUMP JUMPDEST SWAP2 POP PUSH32 0x45524332303A20696E73756666696369656E7420616C6C6F77616E6365000000 PUSH1 0x0 DUP4 ADD MSTORE PUSH1 0x20 DUP3 ADD SWAP1 POP SWAP2 SWAP1 POP JUMP JUMPDEST PUSH1 0x0 PUSH3 0x389A PUSH1 0x2C DUP4 PUSH3 0x4710 JUMP JUMPDEST SWAP2 POP PUSH32 0x4747544B3A205465616D20546F6B656E54696D656C6F636B20616C7265616479 PUSH1 0x0 DUP4 ADD MSTORE PUSH32 0x20696E697469616C697A65640000000000000000000000000000000000000000 PUSH1 0x20 DUP4 ADD MSTORE PUSH1 0x40 DUP3 ADD SWAP1 POP SWAP2 SWAP1 POP JUMP JUMPDEST PUSH1 0x0 PUSH3 0x3902 PUSH1 0x26 DUP4 PUSH3 0x4710 JUMP JUMPDEST SWAP2 POP PUSH32 0x45524332303A207472616E7366657220616D6F756E7420657863656564732062 PUSH1 0x0 DUP4 ADD MSTORE PUSH32 0x616C616E63650000000000000000000000000000000000000000000000000000 PUSH1 0x20 DUP4 ADD MSTORE PUSH1 0x40 DUP3 ADD SWAP1 POP SWAP2 SWAP1 POP JUMP JUMPDEST PUSH1 0x0 PUSH3 0x396A PUSH1 0x15 DUP4 PUSH3 0x4710 JUMP JUMPDEST SWAP2 POP PUSH32 0x63616C6C6572206E6F7420617574686F72697A65640000000000000000000000 PUSH1 0x0 DUP4 ADD MSTORE PUSH1 0x20 DUP3 ADD SWAP1 POP SWAP2 SWAP1 POP JUMP JUMPDEST PUSH1 0x0 PUSH3 0x39AC PUSH1 0x10 DUP4 PUSH3 0x4710 JUMP JUMPDEST SWAP2 POP PUSH32 0x5061757361626C653A2070617573656400000000000000000000000000000000 PUSH1 0x0 DUP4 ADD MSTORE PUSH1 0x20 DUP3 ADD SWAP1 POP SWAP2 SWAP1 POP JUMP JUMPDEST PUSH1 0x0 PUSH3 0x39EE PUSH1 0x21 DUP4 PUSH3 0x4710 JUMP JUMPDEST SWAP2 POP PUSH32 0x546865207175616E7469747920657863656564656420746865206D6178696D75 PUSH1 0x0 DUP4 ADD MSTORE PUSH32 0x6D00000000000000000000000000000000000000000000000000000000000000 PUSH1 0x20 DUP4 ADD MSTORE PUSH1 0x40 DUP3 ADD SWAP1 POP SWAP2 SWAP1 POP JUMP JUMPDEST PUSH1 0x0 PUSH3 0x3A56 PUSH1 0x6 DUP4 PUSH3 0x4710 JUMP JUMPDEST SWAP2 POP PUSH32 0x6661696C65640000000000000000000000000000000000000000000000000000 PUSH1 0x0 DUP4 ADD MSTORE PUSH1 0x20 DUP3 ADD SWAP1 POP SWAP2 SWAP1 POP JUMP JUMPDEST PUSH1 0x0 PUSH3 0x3A98 PUSH1 0x20 DUP4 PUSH3 0x4710 JUMP JUMPDEST SWAP2 POP PUSH32 0x4F776E61626C653A2063616C6C6572206973206E6F7420746865206F776E6572 PUSH1 0x0 DUP4 ADD MSTORE PUSH1 0x20 DUP3 ADD SWAP1 POP SWAP2 SWAP1 POP JUMP JUMPDEST PUSH1 0x0 PUSH3 0x3ADA PUSH1 0x1F DUP4 PUSH3 0x4710 JUMP JUMPDEST SWAP2 POP PUSH32 0x4578636565647320726573657276652066756E6420616C6C6F636174696F6E00 PUSH1 0x0 DUP4 ADD MSTORE PUSH1 0x20 DUP3 ADD SWAP1 POP SWAP2 SWAP1 POP JUMP JUMPDEST PUSH1 0x0 PUSH3 0x3B1C PUSH1 0x21 DUP4 PUSH3 0x4710 JUMP JUMPDEST SWAP2 POP PUSH32 0x45524332303A206275726E2066726F6D20746865207A65726F20616464726573 PUSH1 0x0 DUP4 ADD MSTORE PUSH32 0x7300000000000000000000000000000000000000000000000000000000000000 PUSH1 0x20 DUP4 ADD MSTORE PUSH1 0x40 DUP3 ADD SWAP1 POP SWAP2 SWAP1 POP JUMP JUMPDEST PUSH1 0x0 PUSH3 0x3B84 PUSH1 0x7 DUP4 PUSH3 0x4710 JUMP JUMPDEST SWAP2 POP PUSH32 0x656E717565756500000000000000000000000000000000000000000000000000 PUSH1 0x0 DUP4 ADD MSTORE PUSH1 0x20 DUP3 ADD SWAP1 POP SWAP2 SWAP1 POP JUMP JUMPDEST PUSH1 0x0 PUSH3 0x3BC6 PUSH1 0x12 DUP4 PUSH3 0x4710 JUMP JUMPDEST SWAP2 POP PUSH32 0x4747544B3A206361702065786365656465640000000000000000000000000000 PUSH1 0x0 DUP4 ADD MSTORE PUSH1 0x20 DUP3 ADD SWAP1 POP SWAP2 SWAP1 POP JUMP JUMPDEST PUSH1 0x0 PUSH3 0x3C08 PUSH1 0x25 DUP4 PUSH3 0x4710 JUMP JUMPDEST SWAP2 POP PUSH32 0x45524332303A207472616E736665722066726F6D20746865207A65726F206164 PUSH1 0x0 DUP4 ADD MSTORE PUSH32 0x6472657373000000000000000000000000000000000000000000000000000000 PUSH1 0x20 DUP4 ADD MSTORE PUSH1 0x40 DUP3 ADD SWAP1 POP SWAP2 SWAP1 POP JUMP JUMPDEST PUSH1 0x0 PUSH3 0x3C70 PUSH1 0x20 DUP4 PUSH3 0x4710 JUMP JUMPDEST SWAP2 POP PUSH32 0x54696D6564206F75742C20706C656173652072652D656E746572207175657565 PUSH1 0x0 DUP4 ADD MSTORE PUSH1 0x20 DUP3 ADD SWAP1 POP SWAP2 SWAP1 POP JUMP JUMPDEST PUSH1 0x0 PUSH3 0x3CB2 PUSH1 0x24 DUP4 PUSH3 0x4710 JUMP JUMPDEST SWAP2 POP PUSH32 0x45524332303A20617070726F76652066726F6D20746865207A65726F20616464 PUSH1 0x0 DUP4 ADD MSTORE PUSH32 0x7265737300000000000000000000000000000000000000000000000000000000 PUSH1 0x20 DUP4 ADD MSTORE PUSH1 0x40 DUP3 ADD SWAP1 POP SWAP2 SWAP1 POP JUMP JUMPDEST PUSH1 0x0 PUSH3 0x3D1A PUSH1 0x7 DUP4 PUSH3 0x4710 JUMP JUMPDEST SWAP2 POP PUSH32 0x6465717565756500000000000000000000000000000000000000000000000000 PUSH1 0x0 DUP4 ADD MSTORE PUSH1 0x20 DUP3 ADD SWAP1 POP SWAP2 SWAP1 POP JUMP JUMPDEST PUSH1 0x0 PUSH3 0x3D5C PUSH1 0x1A DUP4 PUSH3 0x4710 JUMP JUMPDEST SWAP2 POP PUSH32 0x51756575652069732066756C6C2C20706C656173652077616974000000000000 PUSH1 0x0 DUP4 ADD MSTORE PUSH1 0x20 DUP3 ADD SWAP1 POP SWAP2 SWAP1 POP JUMP JUMPDEST PUSH1 0x0 PUSH3 0x3D9E PUSH1 0x1B DUP4 PUSH3 0x4710 JUMP JUMPDEST SWAP2 POP PUSH32 0x416464656420746F2071756575652C20706C6561736520776169740000000000 PUSH1 0x0 DUP4 ADD MSTORE PUSH1 0x20 DUP3 ADD SWAP1 POP SWAP2 SWAP1 POP JUMP JUMPDEST PUSH1 0x0 PUSH3 0x3DE0 PUSH1 0x1E DUP4 PUSH3 0x4710 JUMP JUMPDEST SWAP2 POP PUSH32 0x4578636565647320746F6B656E2073696E6B7320616C6C6F636174696F6E0000 PUSH1 0x0 DUP4 ADD MSTORE PUSH1 0x20 DUP3 ADD SWAP1 POP SWAP2 SWAP1 POP JUMP JUMPDEST PUSH1 0x0 PUSH3 0x3E22 PUSH1 0x16 DUP4 PUSH3 0x4710 JUMP JUMPDEST SWAP2 POP PUSH32 0x546F6F206561726C792C20706C65617365207761697400000000000000000000 PUSH1 0x0 DUP4 ADD MSTORE PUSH1 0x20 DUP3 ADD SWAP1 POP SWAP2 SWAP1 POP JUMP JUMPDEST PUSH1 0x0 PUSH3 0x3E64 PUSH1 0x22 DUP4 PUSH3 0x4710 JUMP JUMPDEST SWAP2 POP PUSH32 0x4578636565647320696E2D67616D65207265776172647320616C6C6F63617469 PUSH1 0x0 DUP4 ADD MSTORE PUSH32 0x6F6E000000000000000000000000000000000000000000000000000000000000 PUSH1 0x20 DUP4 ADD MSTORE PUSH1 0x40 DUP3 ADD SWAP1 POP SWAP2 SWAP1 POP JUMP JUMPDEST PUSH1 0x0 PUSH3 0x3ECC PUSH1 0x25 DUP4 PUSH3 0x4710 JUMP JUMPDEST SWAP2 POP PUSH32 0x45524332303A2064656372656173656420616C6C6F77616E63652062656C6F77 PUSH1 0x0 DUP4 ADD MSTORE PUSH32 0x207A65726F000000000000000000000000000000000000000000000000000000 PUSH1 0x20 DUP4 ADD MSTORE PUSH1 0x40 DUP3 ADD SWAP1 POP SWAP2 SWAP1 POP JUMP JUMPDEST PUSH1 0x0 PUSH3 0x3F34 PUSH1 0x1F DUP4 PUSH3 0x4710 JUMP JUMPDEST SWAP2 POP PUSH32 0x45524332303A206D696E7420746F20746865207A65726F206164647265737300 PUSH1 0x0 DUP4 ADD MSTORE PUSH1 0x20 DUP3 ADD SWAP1 POP SWAP2 SWAP1 POP JUMP JUMPDEST PUSH3 0x3F72 DUP2 PUSH3 0x4872 JUMP JUMPDEST DUP3 MSTORE POP POP JUMP JUMPDEST PUSH3 0x3F83 DUP2 PUSH3 0x48AE JUMP JUMPDEST DUP3 MSTORE POP POP JUMP JUMPDEST PUSH3 0x3F94 DUP2 PUSH3 0x48B8 JUMP JUMPDEST DUP3 MSTORE POP POP JUMP JUMPDEST PUSH3 0x3FA5 DUP2 PUSH3 0x48C8 JUMP JUMPDEST DUP3 MSTORE POP POP JUMP JUMPDEST PUSH3 0x3FB6 DUP2 PUSH3 0x48D9 JUMP JUMPDEST DUP3 MSTORE POP POP JUMP JUMPDEST PUSH1 0x0 PUSH3 0x3FCA DUP3 DUP5 PUSH3 0x3400 JUMP JUMPDEST SWAP2 POP DUP2 SWAP1 POP SWAP3 SWAP2 POP POP JUMP JUMPDEST PUSH1 0x0 PUSH1 0x20 DUP3 ADD SWAP1 POP PUSH3 0x3FEC PUSH1 0x0 DUP4 ADD DUP5 PUSH3 0x339D JUMP JUMPDEST SWAP3 SWAP2 POP POP JUMP JUMPDEST PUSH1 0x0 PUSH1 0x40 DUP3 ADD SWAP1 POP PUSH3 0x4009 PUSH1 0x0 DUP4 ADD DUP6 PUSH3 0x339D JUMP JUMPDEST PUSH3 0x4018 PUSH1 0x20 DUP4 ADD DUP5 PUSH3 0x3F78 JUMP JUMPDEST SWAP4 SWAP3 POP POP POP JUMP JUMPDEST PUSH1 0x0 PUSH1 0x20 DUP3 ADD SWAP1 POP PUSH3 0x4036 PUSH1 0x0 DUP4 ADD DUP5 PUSH3 0x33AE JUMP JUMPDEST SWAP3 SWAP2 POP POP JUMP JUMPDEST PUSH1 0x0 PUSH1 0x20 DUP3 ADD SWAP1 POP DUP2 DUP2 SUB PUSH1 0x0 DUP4 ADD MSTORE PUSH3 0x4058 DUP2 DUP5 PUSH3 0x33BF JUMP JUMPDEST SWAP1 POP SWAP3 SWAP2 POP POP JUMP JUMPDEST PUSH1 0x0 PUSH1 0xC0 DUP3 ADD SWAP1 POP PUSH3 0x4077 PUSH1 0x0 DUP4 ADD DUP10 PUSH3 0x3437 JUMP JUMPDEST PUSH3 0x4086 PUSH1 0x20 DUP4 ADD DUP9 PUSH3 0x339D JUMP JUMPDEST PUSH3 0x4095 PUSH1 0x40 DUP4 ADD DUP8 PUSH3 0x3F9A JUMP JUMPDEST PUSH3 0x40A4 PUSH1 0x60 DUP4 ADD DUP7 PUSH3 0x3F9A JUMP JUMPDEST PUSH3 0x40B3 PUSH1 0x80 DUP4 ADD DUP6 PUSH3 0x3F67 JUMP JUMPDEST PUSH3 0x40C2 PUSH1 0xA0 DUP4 ADD DUP5 PUSH3 0x3F89 JUMP JUMPDEST SWAP8 SWAP7 POP POP POP POP POP POP POP JUMP JUMPDEST PUSH1 0x0 PUSH1 0x20 DUP3 ADD SWAP1 POP PUSH3 0x40E4 PUSH1 0x0 DUP4 ADD DUP5 PUSH3 0x3448 JUMP JUMPDEST SWAP3 SWAP2 POP POP JUMP JUMPDEST PUSH1 0x0 PUSH1 0x20 DUP3 ADD SWAP1 POP DUP2 DUP2 SUB PUSH1 0x0 DUP4 ADD MSTORE PUSH3 0x4106 DUP2 DUP5 PUSH3 0x346A JUMP JUMPDEST SWAP1 POP SWAP3 SWAP2 POP POP JUMP JUMPDEST PUSH1 0x0 PUSH1 0x80 DUP3 ADD SWAP1 POP DUP2 DUP2 SUB PUSH1 0x0 DUP4 ADD MSTORE PUSH3 0x4129 DUP2 PUSH3 0x34AB JUMP JUMPDEST SWAP1 POP PUSH3 0x413A PUSH1 0x20 DUP4 ADD DUP7 PUSH3 0x339D JUMP JUMPDEST PUSH3 0x4149 PUSH1 0x40 DUP4 ADD DUP6 PUSH3 0x3F78 JUMP JUMPDEST PUSH3 0x4158 PUSH1 0x60 DUP4 ADD DUP5 PUSH3 0x3F78 JUMP JUMPDEST SWAP5 SWAP4 POP POP POP POP JUMP JUMPDEST PUSH1 0x0 PUSH1 0x20 DUP3 ADD SWAP1 POP DUP2 DUP2 SUB PUSH1 0x0 DUP4 ADD MSTORE PUSH3 0x417B DUP2 PUSH3 0x34ED JUMP JUMPDEST SWAP1 POP SWAP2 SWAP1 POP JUMP JUMPDEST PUSH1 0x0 PUSH1 0x20 DUP3 ADD SWAP1 POP DUP2 DUP2 SUB PUSH1 0x0 DUP4 ADD MSTORE PUSH3 0x419D DUP2 PUSH3 0x352F JUMP JUMPDEST SWAP1 POP SWAP2 SWAP1 POP JUMP JUMPDEST PUSH1 0x0 PUSH1 0x20 DUP3 ADD SWAP1 POP DUP2 DUP2 SUB PUSH1 0x0 DUP4 ADD MSTORE PUSH3 0x41BF DUP2 PUSH3 0x3597 JUMP JUMPDEST SWAP1 POP SWAP2 SWAP1 POP JUMP JUMPDEST PUSH1 0x0 PUSH1 0x20 DUP3 ADD SWAP1 POP DUP2 DUP2 SUB PUSH1 0x0 DUP4 ADD MSTORE PUSH3 0x41E1 DUP2 PUSH3 0x35D9 JUMP JUMPDEST SWAP1 POP SWAP2 SWAP1 POP JUMP JUMPDEST PUSH1 0x0 PUSH1 0x20 DUP3 ADD SWAP1 POP DUP2 DUP2 SUB PUSH1 0x0 DUP4 ADD MSTORE PUSH3 0x4203 DUP2 PUSH3 0x3641 JUMP JUMPDEST SWAP1 POP SWAP2 SWAP1 POP JUMP JUMPDEST PUSH1 0x0 PUSH1 0x20 DUP3 ADD SWAP1 POP DUP2 DUP2 SUB PUSH1 0x0 DUP4 ADD MSTORE PUSH3 0x4225 DUP2 PUSH3 0x36A9 JUMP JUMPDEST SWAP1 POP SWAP2 SWAP1 POP JUMP JUMPDEST PUSH1 0x0 PUSH1 0x20 DUP3 ADD SWAP1 POP DUP2 DUP2 SUB PUSH1 0x0 DUP4 ADD MSTORE PUSH3 0x4247 DUP2 PUSH3 0x3711 JUMP JUMPDEST SWAP1 POP SWAP2 SWAP1 POP JUMP JUMPDEST PUSH1 0x0 PUSH1 0x20 DUP3 ADD SWAP1 POP DUP2 DUP2 SUB PUSH1 0x0 DUP4 ADD MSTORE PUSH3 0x4269 DUP2 PUSH3 0x3779 JUMP JUMPDEST SWAP1 POP SWAP2 SWAP1 POP JUMP JUMPDEST PUSH1 0x0 PUSH1 0x20 DUP3 ADD SWAP1 POP DUP2 DUP2 SUB PUSH1 0x0 DUP4 ADD MSTORE PUSH3 0x428B DUP2 PUSH3 0x37E1 JUMP JUMPDEST SWAP1 POP SWAP2 SWAP1 POP JUMP JUMPDEST PUSH1 0x0 PUSH1 0x20 DUP3 ADD SWAP1 POP DUP2 DUP2 SUB PUSH1 0x0 DUP4 ADD MSTORE PUSH3 0x42AD DUP2 PUSH3 0x3849 JUMP JUMPDEST SWAP1 POP SWAP2 SWAP1 POP JUMP JUMPDEST PUSH1 0x0 PUSH1 0x20 DUP3 ADD SWAP1 POP DUP2 DUP2 SUB PUSH1 0x0 DUP4 ADD MSTORE PUSH3 0x42CF DUP2 PUSH3 0x388B JUMP JUMPDEST SWAP1 POP SWAP2 SWAP1 POP JUMP JUMPDEST PUSH1 0x0 PUSH1 0x20 DUP3 ADD SWAP1 POP DUP2 DUP2 SUB PUSH1 0x0 DUP4 ADD MSTORE PUSH3 0x42F1 DUP2 PUSH3 0x38F3 JUMP JUMPDEST SWAP1 POP SWAP2 SWAP1 POP JUMP JUMPDEST PUSH1 0x0 PUSH1 0x20 DUP3 ADD SWAP1 POP DUP2 DUP2 SUB PUSH1 0x0 DUP4 ADD MSTORE PUSH3 0x4313 DUP2 PUSH3 0x395B JUMP JUMPDEST SWAP1 POP SWAP2 SWAP1 POP JUMP JUMPDEST PUSH1 0x0 PUSH1 0x20 DUP3 ADD SWAP1 POP DUP2 DUP2 SUB PUSH1 0x0 DUP4 ADD MSTORE PUSH3 0x4335 DUP2 PUSH3 0x399D JUMP JUMPDEST SWAP1 POP SWAP2 SWAP1 POP JUMP JUMPDEST PUSH1 0x0 PUSH1 0x20 DUP3 ADD SWAP1 POP DUP2 DUP2 SUB PUSH1 0x0 DUP4 ADD MSTORE PUSH3 0x4357 DUP2 PUSH3 0x39DF JUMP JUMPDEST SWAP1 POP SWAP2 SWAP1 POP JUMP JUMPDEST PUSH1 0x0 PUSH1 0x20 DUP3 ADD SWAP1 POP DUP2 DUP2 SUB PUSH1 0x0 DUP4 ADD MSTORE PUSH3 0x4379 DUP2 PUSH3 0x3A47 JUMP JUMPDEST SWAP1 POP SWAP2 SWAP1 POP JUMP JUMPDEST PUSH1 0x0 PUSH1 0x20 DUP3 ADD SWAP1 POP DUP2 DUP2 SUB PUSH1 0x0 DUP4 ADD MSTORE PUSH3 0x439B DUP2 PUSH3 0x3A89 JUMP JUMPDEST SWAP1 POP SWAP2 SWAP1 POP JUMP JUMPDEST PUSH1 0x0 PUSH1 0x20 DUP3 ADD SWAP1 POP DUP2 DUP2 SUB PUSH1 0x0 DUP4 ADD MSTORE PUSH3 0x43BD DUP2 PUSH3 0x3ACB JUMP JUMPDEST SWAP1 POP SWAP2 SWAP1 POP JUMP JUMPDEST PUSH1 0x0 PUSH1 0x20 DUP3 ADD SWAP1 POP DUP2 DUP2 SUB PUSH1 0x0 DUP4 ADD MSTORE PUSH3 0x43DF DUP2 PUSH3 0x3B0D JUMP JUMPDEST SWAP1 POP SWAP2 SWAP1 POP JUMP JUMPDEST PUSH1 0x0 PUSH1 0x80 DUP3 ADD SWAP1 POP DUP2 DUP2 SUB PUSH1 0x0 DUP4 ADD MSTORE PUSH3 0x4401 DUP2 PUSH3 0x3B75 JUMP JUMPDEST SWAP1 POP PUSH3 0x4412 PUSH1 0x20 DUP4 ADD DUP7 PUSH3 0x339D JUMP JUMPDEST PUSH3 0x4421 PUSH1 0x40 DUP4 ADD DUP6 PUSH3 0x3F78 JUMP JUMPDEST PUSH3 0x4430 PUSH1 0x60 DUP4 ADD DUP5 PUSH3 0x3F78 JUMP JUMPDEST SWAP5 SWAP4 POP POP POP POP JUMP JUMPDEST PUSH1 0x0 PUSH1 0x20 DUP3 ADD SWAP1 POP DUP2 DUP2 SUB PUSH1 0x0 DUP4 ADD MSTORE PUSH3 0x4453 DUP2 PUSH3 0x3BB7 JUMP JUMPDEST SWAP1 POP SWAP2 SWAP1 POP JUMP JUMPDEST PUSH1 0x0 PUSH1 0x20 DUP3 ADD SWAP1 POP DUP2 DUP2 SUB PUSH1 0x0 DUP4 ADD MSTORE PUSH3 0x4475 DUP2 PUSH3 0x3BF9 JUMP JUMPDEST SWAP1 POP SWAP2 SWAP1 POP JUMP JUMPDEST PUSH1 0x0 PUSH1 0x20 DUP3 ADD SWAP1 POP DUP2 DUP2 SUB PUSH1 0x0 DUP4 ADD MSTORE PUSH3 0x4497 DUP2 PUSH3 0x3C61 JUMP JUMPDEST SWAP1 POP SWAP2 SWAP1 POP JUMP JUMPDEST PUSH1 0x0 PUSH1 0x20 DUP3 ADD SWAP1 POP DUP2 DUP2 SUB PUSH1 0x0 DUP4 ADD MSTORE PUSH3 0x44B9 DUP2 PUSH3 0x3CA3 JUMP JUMPDEST SWAP1 POP SWAP2 SWAP1 POP JUMP JUMPDEST PUSH1 0x0 PUSH1 0x80 DUP3 ADD SWAP1 POP DUP2 DUP2 SUB PUSH1 0x0 DUP4 ADD MSTORE PUSH3 0x44DB DUP2 PUSH3 0x3D0B JUMP JUMPDEST SWAP1 POP PUSH3 0x44EC PUSH1 0x20 DUP4 ADD DUP7 PUSH3 0x339D JUMP JUMPDEST PUSH3 0x44FB PUSH1 0x40 DUP4 ADD DUP6 PUSH3 0x3F78 JUMP JUMPDEST PUSH3 0x450A PUSH1 0x60 DUP4 ADD DUP5 PUSH3 0x3459 JUMP JUMPDEST SWAP5 SWAP4 POP POP POP POP JUMP JUMPDEST PUSH1 0x0 PUSH1 0x20 DUP3 ADD SWAP1 POP DUP2 DUP2 SUB PUSH1 0x0 DUP4 ADD MSTORE PUSH3 0x452D DUP2 PUSH3 0x3D4D JUMP JUMPDEST SWAP1 POP SWAP2 SWAP1 POP JUMP JUMPDEST PUSH1 0x0 PUSH1 0x20 DUP3 ADD SWAP1 POP DUP2 DUP2 SUB PUSH1 0x0 DUP4 ADD MSTORE PUSH3 0x454F DUP2 PUSH3 0x3D8F JUMP JUMPDEST SWAP1 POP SWAP2 SWAP1 POP JUMP JUMPDEST PUSH1 0x0 PUSH1 0x20 DUP3 ADD SWAP1 POP DUP2 DUP2 SUB PUSH1 0x0 DUP4 ADD MSTORE PUSH3 0x4571 DUP2 PUSH3 0x3DD1 JUMP JUMPDEST SWAP1 POP SWAP2 SWAP1 POP JUMP JUMPDEST PUSH1 0x0 PUSH1 0x20 DUP3 ADD SWAP1 POP DUP2 DUP2 SUB PUSH1 0x0 DUP4 ADD MSTORE PUSH3 0x4593 DUP2 PUSH3 0x3E13 JUMP JUMPDEST SWAP1 POP SWAP2 SWAP1 POP JUMP JUMPDEST PUSH1 0x0 PUSH1 0x20 DUP3 ADD SWAP1 POP DUP2 DUP2 SUB PUSH1 0x0 DUP4 ADD MSTORE PUSH3 0x45B5 DUP2 PUSH3 0x3E55 JUMP JUMPDEST SWAP1 POP SWAP2 SWAP1 POP JUMP JUMPDEST PUSH1 0x0 PUSH1 0x20 DUP3 ADD SWAP1 POP DUP2 DUP2 SUB PUSH1 0x0 DUP4 ADD MSTORE PUSH3 0x45D7 DUP2 PUSH3 0x3EBD JUMP JUMPDEST SWAP1 POP SWAP2 SWAP1 POP JUMP JUMPDEST PUSH1 0x0 PUSH1 0x20 DUP3 ADD SWAP1 POP DUP2 DUP2 SUB PUSH1 0x0 DUP4 ADD MSTORE PUSH3 0x45F9 DUP2 PUSH3 0x3F25 JUMP JUMPDEST SWAP1 POP SWAP2 SWAP1 POP JUMP JUMPDEST PUSH1 0x0 PUSH1 0x20 DUP3 ADD SWAP1 POP PUSH3 0x4617 PUSH1 0x0 DUP4 ADD DUP5 PUSH3 0x3F78 JUMP JUMPDEST SWAP3 SWAP2 POP POP JUMP JUMPDEST PUSH1 0x0 PUSH1 0x60 DUP3 ADD SWAP1 POP PUSH3 0x4634 PUSH1 0x0 DUP4 ADD DUP7 PUSH3 0x3F78 JUMP JUMPDEST PUSH3 0x4643 PUSH1 0x20 DUP4 ADD DUP6 PUSH3 0x3F78 JUMP JUMPDEST PUSH3 0x4652 PUSH1 0x40 DUP4 ADD DUP5 PUSH3 0x3F78 JUMP JUMPDEST SWAP5 SWAP4 POP POP POP POP JUMP JUMPDEST PUSH1 0x0 PUSH1 0x20 DUP3 ADD SWAP1 POP PUSH3 0x4671 PUSH1 0x0 DUP4 ADD DUP5 PUSH3 0x3FAB JUMP JUMPDEST SWAP3 SWAP2 POP POP JUMP JUMPDEST PUSH1 0x0 PUSH1 0x40 MLOAD SWAP1 POP DUP2 DUP2 ADD DUP2 DUP2 LT PUSH8 0xFFFFFFFFFFFFFFFF DUP3 GT OR ISZERO PUSH3 0x46A1 JUMPI PUSH3 0x46A0 PUSH3 0x4AA0 JUMP JUMPDEST JUMPDEST DUP1 PUSH1 0x40 MSTORE POP SWAP2 SWAP1 POP JUMP JUMPDEST PUSH1 0x0 PUSH8 0xFFFFFFFFFFFFFFFF DUP3 GT ISZERO PUSH3 0x46C9 JUMPI PUSH3 0x46C8 PUSH3 0x4AA0 JUMP JUMPDEST JUMPDEST PUSH1 0x1F NOT PUSH1 0x1F DUP4 ADD AND SWAP1 POP PUSH1 0x20 DUP2 ADD SWAP1 POP SWAP2 SWAP1 POP JUMP JUMPDEST PUSH1 0x0 DUP2 MLOAD SWAP1 POP SWAP2 SWAP1 POP JUMP JUMPDEST PUSH1 0x0 DUP2 MLOAD SWAP1 POP SWAP2 SWAP1 POP JUMP JUMPDEST PUSH1 0x0 DUP3 DUP3 MSTORE PUSH1 0x20 DUP3 ADD SWAP1 POP SWAP3 SWAP2 POP POP JUMP JUMPDEST PUSH1 0x0 DUP2 SWAP1 POP SWAP3 SWAP2 POP POP JUMP JUMPDEST PUSH1 0x0 DUP3 DUP3 MSTORE PUSH1 0x20 DUP3 ADD SWAP1 POP SWAP3 SWAP2 POP POP JUMP JUMPDEST PUSH1 0x0 PUSH3 0x472E DUP3 PUSH3 0x48AE JUMP JUMPDEST SWAP2 POP PUSH3 0x473B DUP4 PUSH3 0x48AE JUMP JUMPDEST SWAP3 POP DUP3 PUSH32 0xFFFFFFFFFFFFFFFFFFFFFFFFFFFFFFFFFFFFFFFFFFFFFFFFFFFFFFFFFFFFFFFF SUB DUP3 GT ISZERO PUSH3 0x4773 JUMPI PUSH3 0x4772 PUSH3 0x4A13 JUMP JUMPDEST JUMPDEST DUP3 DUP3 ADD SWAP1 POP SWAP3 SWAP2 POP POP JUMP JUMPDEST PUSH1 0x0 PUSH3 0x478B DUP3 PUSH3 0x48AE JUMP JUMPDEST SWAP2 POP PUSH3 0x4798 DUP4 PUSH3 0x48AE JUMP JUMPDEST SWAP3 POP DUP3 PUSH3 0x47AB JUMPI PUSH3 0x47AA PUSH3 0x4A42 JUMP JUMPDEST JUMPDEST DUP3 DUP3 DIV SWAP1 POP SWAP3 SWAP2 POP POP JUMP JUMPDEST PUSH1 0x0 PUSH3 0x47C3 DUP3 PUSH3 0x48AE JUMP JUMPDEST SWAP2 POP PUSH3 0x47D0 DUP4 PUSH3 0x48AE JUMP JUMPDEST SWAP3 POP DUP2 PUSH32 0xFFFFFFFFFFFFFFFFFFFFFFFFFFFFFFFFFFFFFFFFFFFFFFFFFFFFFFFFFFFFFFFF DIV DUP4 GT DUP3 ISZERO ISZERO AND ISZERO PUSH3 0x480C JUMPI PUSH3 0x480B PUSH3 0x4A13 JUMP JUMPDEST JUMPDEST DUP3 DUP3 MUL SWAP1 POP SWAP3 SWAP2 POP POP JUMP JUMPDEST PUSH1 0x0 PUSH3 0x4824 DUP3 PUSH3 0x48AE JUMP JUMPDEST SWAP2 POP PUSH3 0x4831 DUP4 PUSH3 0x48AE JUMP JUMPDEST SWAP3 POP DUP3 DUP3 LT ISZERO PUSH3 0x4847 JUMPI PUSH3 0x4846 PUSH3 0x4A13 JUMP JUMPDEST JUMPDEST DUP3 DUP3 SUB SWAP1 POP SWAP3 SWAP2 POP POP JUMP JUMPDEST PUSH1 0x0 PUSH3 0x485F DUP3 PUSH3 0x488E JUMP JUMPDEST SWAP1 POP SWAP2 SWAP1 POP JUMP JUMPDEST PUSH1 0x0 DUP2 ISZERO ISZERO SWAP1 POP SWAP2 SWAP1 POP JUMP JUMPDEST PUSH1 0x0 PUSH16 0xFFFFFFFFFFFFFFFFFFFFFFFFFFFFFFFF DUP3 AND SWAP1 POP SWAP2 SWAP1 POP JUMP JUMPDEST PUSH1 0x0 PUSH20 0xFFFFFFFFFFFFFFFFFFFFFFFFFFFFFFFFFFFFFFFF DUP3 AND SWAP1 POP SWAP2 SWAP1 POP JUMP JUMPDEST PUSH1 0x0 DUP2 SWAP1 POP SWAP2 SWAP1 POP JUMP JUMPDEST PUSH1 0x0 PUSH4 0xFFFFFFFF DUP3 AND SWAP1 POP SWAP2 SWAP1 POP JUMP JUMPDEST PUSH1 0x0 PUSH5 0xFFFFFFFFFF DUP3 AND SWAP1 POP SWAP2 SWAP1 POP JUMP JUMPDEST PUSH1 0x0 PUSH1 0xFF DUP3 AND SWAP1 POP SWAP2 SWAP1 POP JUMP JUMPDEST PUSH1 0x0 PUSH3 0x48F3 DUP3 PUSH3 0x48FA JUMP JUMPDEST SWAP1 POP SWAP2 SWAP1 POP JUMP JUMPDEST PUSH1 0x0 PUSH3 0x4907 DUP3 PUSH3 0x488E JUMP JUMPDEST SWAP1 POP SWAP2 SWAP1 POP JUMP JUMPDEST PUSH1 0x0 PUSH3 0x491B DUP3 PUSH3 0x4922 JUMP JUMPDEST SWAP1 POP SWAP2 SWAP1 POP JUMP JUMPDEST PUSH1 0x0 PUSH3 0x492F DUP3 PUSH3 0x488E JUMP JUMPDEST SWAP1 POP SWAP2 SWAP1 POP JUMP JUMPDEST PUSH1 0x0 PUSH3 0x4943 DUP3 PUSH3 0x48AE JUMP JUMPDEST SWAP1 POP SWAP2 SWAP1 POP JUMP JUMPDEST DUP3 DUP2 DUP4 CALLDATACOPY PUSH1 0x0 DUP4 DUP4 ADD MSTORE POP POP POP JUMP JUMPDEST PUSH1 0x0 JUMPDEST DUP4 DUP2 LT ISZERO PUSH3 0x4979 JUMPI DUP1 DUP3 ADD MLOAD DUP2 DUP5 ADD MSTORE PUSH1 0x20 DUP2 ADD SWAP1 POP PUSH3 0x495C JUMP JUMPDEST DUP4 DUP2 GT ISZERO PUSH3 0x4989 JUMPI PUSH1 0x0 DUP5 DUP5 ADD MSTORE JUMPDEST POP POP POP POP JUMP JUMPDEST PUSH1 0x0 PUSH1 0x2 DUP3 DIV SWAP1 POP PUSH1 0x1 DUP3 AND DUP1 PUSH3 0x49A8 JUMPI PUSH1 0x7F DUP3 AND SWAP2 POP JUMPDEST PUSH1 0x20 DUP3 LT DUP2 EQ ISZERO PUSH3 0x49BF JUMPI PUSH3 0x49BE PUSH3 0x4A71 JUMP JUMPDEST JUMPDEST POP SWAP2 SWAP1 POP JUMP JUMPDEST PUSH1 0x0 PUSH3 0x49D2 DUP3 PUSH3 0x48AE JUMP JUMPDEST SWAP2 POP PUSH32 0xFFFFFFFFFFFFFFFFFFFFFFFFFFFFFFFFFFFFFFFFFFFFFFFFFFFFFFFFFFFFFFFF DUP3 EQ ISZERO PUSH3 0x4A08 JUMPI PUSH3 0x4A07 PUSH3 0x4A13 JUMP JUMPDEST JUMPDEST PUSH1 0x1 DUP3 ADD SWAP1 POP SWAP2 SWAP1 POP JUMP JUMPDEST PUSH32 0x4E487B7100000000000000000000000000000000000000000000000000000000 PUSH1 0x0 MSTORE PUSH1 0x11 PUSH1 0x4 MSTORE PUSH1 0x24 PUSH1 0x0 REVERT JUMPDEST PUSH32 0x4E487B7100000000000000000000000000000000000000000000000000000000 PUSH1 0x0 MSTORE PUSH1 0x12 PUSH1 0x4 MSTORE PUSH1 0x24 PUSH1 0x0 REVERT JUMPDEST PUSH32 0x4E487B7100000000000000000000000000000000000000000000000000000000 PUSH1 0x0 MSTORE PUSH1 0x22 PUSH1 0x4 MSTORE PUSH1 0x24 PUSH1 0x0 REVERT JUMPDEST PUSH32 0x4E487B7100000000000000000000000000000000000000000000000000000000 PUSH1 0x0 MSTORE PUSH1 0x41 PUSH1 0x4 MSTORE PUSH1 0x24 PUSH1 0x0 REVERT JUMPDEST PUSH1 0x0 PUSH1 0x1F NOT PUSH1 0x1F DUP4 ADD AND SWAP1 POP SWAP2 SWAP1 POP JUMP JUMPDEST PUSH3 0x4AEB DUP2 PUSH3 0x4852 JUMP JUMPDEST DUP2 EQ PUSH3 0x4AF7 JUMPI PUSH1 0x0 DUP1 REVERT JUMPDEST POP JUMP JUMPDEST PUSH3 0x4B05 DUP2 PUSH3 0x4866 JUMP JUMPDEST DUP2 EQ PUSH3 0x4B11 JUMPI PUSH1 0x0 DUP1 REVERT JUMPDEST POP JUMP JUMPDEST PUSH3 0x4B1F DUP2 PUSH3 0x48AE JUMP JUMPDEST DUP2 EQ PUSH3 0x4B2B JUMPI PUSH1 0x0 DUP1 REVERT JUMPDEST POP JUMP INVALID PUSH2 0x100 PUSH1 0x40 MSTORE PUSH1 0x0 PUSH1 0x1 SSTORE PUSH1 0x4 PUSH1 0x2 PUSH1 0x0 PUSH2 0x100 EXP DUP2 SLOAD DUP2 PUSH4 0xFFFFFFFF MUL NOT AND SWAP1 DUP4 PUSH4 0xFFFFFFFF AND MUL OR SWAP1 SSTORE POP CALLVALUE DUP1 ISZERO PUSH3 0x39 JUMPI PUSH1 0x0 DUP1 REVERT JUMPDEST POP PUSH1 0x40 MLOAD PUSH3 0x1F5B CODESIZE SUB DUP1 PUSH3 0x1F5B DUP4 CODECOPY DUP2 DUP2 ADD PUSH1 0x40 MSTORE DUP2 ADD SWAP1 PUSH3 0x5F SWAP2 SWAP1 PUSH3 0x37E JUMP JUMPDEST PUSH3 0x7F PUSH3 0x73 PUSH3 0x23F PUSH1 0x20 SHL PUSH1 0x20 SHR JUMP JUMPDEST PUSH3 0x247 PUSH1 0x20 SHL PUSH1 0x20 SHR JUMP JUMPDEST TIMESTAMP DUP5 PUSH5 0xFFFFFFFFFF AND GT PUSH3 0xCB JUMPI PUSH1 0x40 MLOAD PUSH32 0x8C379A000000000000000000000000000000000000000000000000000000000 DUP2 MSTORE PUSH1 0x4 ADD PUSH3 0xC2 SWAP1 PUSH3 0x52C JUMP JUMPDEST PUSH1 0x40 MLOAD DUP1 SWAP2 SUB SWAP1 REVERT JUMPDEST DUP4 PUSH5 0xFFFFFFFFFF AND DUP4 PUSH5 0xFFFFFFFFFF AND GT PUSH3 0x11E JUMPI PUSH1 0x40 MLOAD PUSH32 0x8C379A000000000000000000000000000000000000000000000000000000000 DUP2 MSTORE PUSH1 0x4 ADD PUSH3 0x115 SWAP1 PUSH3 0x50A JUMP JUMPDEST PUSH1 0x40 MLOAD DUP1 SWAP2 SUB SWAP1 REVERT JUMPDEST DUP6 PUSH20 0xFFFFFFFFFFFFFFFFFFFFFFFFFFFFFFFFFFFFFFFF AND PUSH1 0x80 DUP2 PUSH20 0xFFFFFFFFFFFFFFFFFFFFFFFFFFFFFFFFFFFFFFFF AND PUSH1 0x60 SHL DUP2 MSTORE POP POP DUP5 PUSH20 0xFFFFFFFFFFFFFFFFFFFFFFFFFFFFFFFFFFFFFFFF AND PUSH1 0xA0 DUP2 PUSH20 0xFFFFFFFFFFFFFFFFFFFFFFFFFFFFFFFFFFFFFFFF AND PUSH1 0x60 SHL DUP2 MSTORE POP POP DUP4 PUSH5 0xFFFFFFFFFF AND PUSH1 0xC0 DUP2 DUP2 MSTORE POP POP DUP3 PUSH5 0xFFFFFFFFFF AND PUSH1 0xE0 DUP2 DUP2 MSTORE POP POP DUP1 PUSH1 0x2 PUSH1 0x0 PUSH2 0x100 EXP DUP2 SLOAD DUP2 PUSH4 0xFFFFFFFF MUL NOT AND SWAP1 DUP4 PUSH4 0xFFFFFFFF AND MUL OR SWAP1 SSTORE POP PUSH1 0x0 TIMESTAMP DUP6 PUSH5 0xFFFFFFFFFF AND PUSH3 0x1E2 SWAP2 SWAP1 PUSH3 0x655 JUMP JUMPDEST SWAP1 POP PUSH1 0x0 PUSH2 0xE10 DUP4 PUSH4 0xFFFFFFFF AND DUP4 PUSH3 0x1FD SWAP2 SWAP1 PUSH3 0x5F4 JUMP JUMPDEST PUSH3 0x209 SWAP2 SWAP1 PUSH3 0x5BC JUMP JUMPDEST SWAP1 POP DUP1 DUP5 PUSH16 0xFFFFFFFFFFFFFFFFFFFFFFFFFFFFFFFF AND PUSH3 0x22B SWAP2 SWAP1 PUSH3 0x55F JUMP JUMPDEST PUSH1 0x3 DUP2 SWAP1 SSTORE POP POP POP POP POP POP POP POP POP PUSH3 0x7FF JUMP JUMPDEST PUSH1 0x0 CALLER SWAP1 POP SWAP1 JUMP JUMPDEST PUSH1 0x0 DUP1 PUSH1 0x0 SWAP1 SLOAD SWAP1 PUSH2 0x100 EXP SWAP1 DIV PUSH20 0xFFFFFFFFFFFFFFFFFFFFFFFFFFFFFFFFFFFFFFFF AND SWAP1 POP DUP2 PUSH1 0x0 DUP1 PUSH2 0x100 EXP DUP2 SLOAD DUP2 PUSH20 0xFFFFFFFFFFFFFFFFFFFFFFFFFFFFFFFFFFFFFFFF MUL NOT AND SWAP1 DUP4 PUSH20 0xFFFFFFFFFFFFFFFFFFFFFFFFFFFFFFFFFFFFFFFF AND MUL OR SWAP1 SSTORE POP DUP2 PUSH20 0xFFFFFFFFFFFFFFFFFFFFFFFFFFFFFFFFFFFFFFFF AND DUP2 PUSH20 0xFFFFFFFFFFFFFFFFFFFFFFFFFFFFFFFFFFFFFFFF AND PUSH32 0x8BE0079C531659141344CD1FD0A4F28419497F9722A3DAAFE3B4186F6B6457E0 PUSH1 0x40 MLOAD PUSH1 0x40 MLOAD DUP1 SWAP2 SUB SWAP1 LOG3 POP POP JUMP JUMPDEST PUSH1 0x0 DUP2 MLOAD SWAP1 POP PUSH3 0x31C DUP2 PUSH3 0x77D JUMP JUMPDEST SWAP3 SWAP2 POP POP JUMP JUMPDEST PUSH1 0x0 DUP2 MLOAD SWAP1 POP PUSH3 0x333 DUP2 PUSH3 0x797 JUMP JUMPDEST SWAP3 SWAP2 POP POP JUMP JUMPDEST PUSH1 0x0 DUP2 MLOAD SWAP1 POP PUSH3 0x34A DUP2 PUSH3 0x7B1 JUMP JUMPDEST SWAP3 SWAP2 POP POP JUMP JUMPDEST PUSH1 0x0 DUP2 MLOAD SWAP1 POP PUSH3 0x361 DUP2 PUSH3 0x7CB JUMP JUMPDEST SWAP3 SWAP2 POP POP JUMP JUMPDEST PUSH1 0x0 DUP2 MLOAD SWAP1 POP PUSH3 0x378 DUP2 PUSH3 0x7E5 JUMP JUMPDEST SWAP3 SWAP2 POP POP JUMP JUMPDEST PUSH1 0x0 DUP1 PUSH1 0x0 DUP1 PUSH1 0x0 DUP1 PUSH1 0xC0 DUP8 DUP10 SUB SLT ISZERO PUSH3 0x398 JUMPI PUSH1 0x0 DUP1 REVERT JUMPDEST PUSH1 0x0 PUSH3 0x3A8 DUP10 DUP3 DUP11 ADD PUSH3 0x322 JUMP JUMPDEST SWAP7 POP POP PUSH1 0x20 PUSH3 0x3BB DUP10 DUP3 DUP11 ADD PUSH3 0x30B JUMP JUMPDEST SWAP6 POP POP PUSH1 0x40 PUSH3 0x3CE DUP10 DUP3 DUP11 ADD PUSH3 0x367 JUMP JUMPDEST SWAP5 POP POP PUSH1 0x60 PUSH3 0x3E1 DUP10 DUP3 DUP11 ADD PUSH3 0x367 JUMP JUMPDEST SWAP4 POP POP PUSH1 0x80 PUSH3 0x3F4 DUP10 DUP3 DUP11 ADD PUSH3 0x339 JUMP JUMPDEST SWAP3 POP POP PUSH1 0xA0 PUSH3 0x407 DUP10 DUP3 DUP11 ADD PUSH3 0x350 JUMP JUMPDEST SWAP2 POP POP SWAP3 SWAP6 POP SWAP3 SWAP6 POP SWAP3 SWAP6 JUMP JUMPDEST PUSH1 0x0 PUSH3 0x423 PUSH1 0x47 DUP4 PUSH3 0x54E JUMP JUMPDEST SWAP2 POP PUSH32 0x546F6B656E54696D656C6F636B3A2074686520636F6D706C6574696F6E207469 PUSH1 0x0 DUP4 ADD MSTORE PUSH32 0x6D65206D757374206265206C6F6E676572207468616E207468652072656C6561 PUSH1 0x20 DUP4 ADD MSTORE PUSH32 0x73652074696D6500000000000000000000000000000000000000000000000000 PUSH1 0x40 DUP4 ADD MSTORE PUSH1 0x60 DUP3 ADD SWAP1 POP SWAP2 SWAP1 POP JUMP JUMPDEST PUSH1 0x0 PUSH3 0x4B1 PUSH1 0x32 DUP4 PUSH3 0x54E JUMP JUMPDEST SWAP2 POP PUSH32 0x546F6B656E54696D656C6F636B3A2072656C656173652074696D652069732062 PUSH1 0x0 DUP4 ADD MSTORE PUSH32 0x65666F72652063757272656E742074696D650000000000000000000000000000 PUSH1 0x20 DUP4 ADD MSTORE PUSH1 0x40 DUP3 ADD SWAP1 POP SWAP2 SWAP1 POP JUMP JUMPDEST PUSH1 0x0 PUSH1 0x20 DUP3 ADD SWAP1 POP DUP2 DUP2 SUB PUSH1 0x0 DUP4 ADD MSTORE PUSH3 0x525 DUP2 PUSH3 0x414 JUMP JUMPDEST SWAP1 POP SWAP2 SWAP1 POP JUMP JUMPDEST PUSH1 0x0 PUSH1 0x20 DUP3 ADD SWAP1 POP DUP2 DUP2 SUB PUSH1 0x0 DUP4 ADD MSTORE PUSH3 0x547 DUP2 PUSH3 0x4A2 JUMP JUMPDEST SWAP1 POP SWAP2 SWAP1 POP JUMP JUMPDEST PUSH1 0x0 DUP3 DUP3 MSTORE PUSH1 0x20 DUP3 ADD SWAP1 POP SWAP3 SWAP2 POP POP JUMP JUMPDEST PUSH1 0x0 PUSH3 0x56C DUP3 PUSH3 0x6F4 JUMP JUMPDEST SWAP2 POP PUSH3 0x579 DUP4 PUSH3 0x6F4 JUMP JUMPDEST SWAP3 POP DUP3 PUSH32 0xFFFFFFFFFFFFFFFFFFFFFFFFFFFFFFFFFFFFFFFFFFFFFFFFFFFFFFFFFFFFFFFF SUB DUP3 GT ISZERO PUSH3 0x5B1 JUMPI PUSH3 0x5B0 PUSH3 0x71F JUMP JUMPDEST JUMPDEST DUP3 DUP3 ADD SWAP1 POP SWAP3 SWAP2 POP POP JUMP JUMPDEST PUSH1 0x0 PUSH3 0x5C9 DUP3 PUSH3 0x6F4 JUMP JUMPDEST SWAP2 POP PUSH3 0x5D6 DUP4 PUSH3 0x6F4 JUMP JUMPDEST SWAP3 POP DUP3 PUSH3 0x5E9 JUMPI PUSH3 0x5E8 PUSH3 0x74E JUMP JUMPDEST JUMPDEST DUP3 DUP3 DIV SWAP1 POP SWAP3 SWAP2 POP POP JUMP JUMPDEST PUSH1 0x0 PUSH3 0x601 DUP3 PUSH3 0x6F4 JUMP JUMPDEST SWAP2 POP PUSH3 0x60E DUP4 PUSH3 0x6F4 JUMP JUMPDEST SWAP3 POP DUP2 PUSH32 0xFFFFFFFFFFFFFFFFFFFFFFFFFFFFFFFFFFFFFFFFFFFFFFFFFFFFFFFFFFFFFFFF DIV DUP4 GT DUP3 ISZERO ISZERO AND ISZERO PUSH3 0x64A JUMPI PUSH3 0x649 PUSH3 0x71F JUMP JUMPDEST JUMPDEST DUP3 DUP3 MUL SWAP1 POP SWAP3 SWAP2 POP POP JUMP JUMPDEST PUSH1 0x0 PUSH3 0x662 DUP3 PUSH3 0x6F4 JUMP JUMPDEST SWAP2 POP PUSH3 0x66F DUP4 PUSH3 0x6F4 JUMP JUMPDEST SWAP3 POP DUP3 DUP3 LT ISZERO PUSH3 0x685 JUMPI PUSH3 0x684 PUSH3 0x71F JUMP JUMPDEST JUMPDEST DUP3 DUP3 SUB SWAP1 POP SWAP3 SWAP2 POP POP JUMP JUMPDEST PUSH1 0x0 PUSH3 0x69D DUP3 PUSH3 0x6D4 JUMP JUMPDEST SWAP1 POP SWAP2 SWAP1 POP JUMP JUMPDEST PUSH1 0x0 PUSH3 0x6B1 DUP3 PUSH3 0x690 JUMP JUMPDEST SWAP1 POP SWAP2 SWAP1 POP JUMP JUMPDEST PUSH1 0x0 PUSH16 0xFFFFFFFFFFFFFFFFFFFFFFFFFFFFFFFF DUP3 AND SWAP1 POP SWAP2 SWAP1 POP JUMP JUMPDEST PUSH1 0x0 PUSH20 0xFFFFFFFFFFFFFFFFFFFFFFFFFFFFFFFFFFFFFFFF DUP3 AND SWAP1 POP SWAP2 SWAP1 POP JUMP JUMPDEST PUSH1 0x0 DUP2 SWAP1 POP SWAP2 SWAP1 POP JUMP JUMPDEST PUSH1 0x0 PUSH4 0xFFFFFFFF DUP3 AND SWAP1 POP SWAP2 SWAP1 POP JUMP JUMPDEST PUSH1 0x0 PUSH5 0xFFFFFFFFFF DUP3 AND SWAP1 POP SWAP2 SWAP1 POP JUMP JUMPDEST PUSH32 0x4E487B7100000000000000000000000000000000000000000000000000000000 PUSH1 0x0 MSTORE PUSH1 0x11 PUSH1 0x4 MSTORE PUSH1 0x24 PUSH1 0x0 REVERT JUMPDEST PUSH32 0x4E487B7100000000000000000000000000000000000000000000000000000000 PUSH1 0x0 MSTORE PUSH1 0x12 PUSH1 0x4 MSTORE PUSH1 0x24 PUSH1 0x0 REVERT JUMPDEST PUSH3 0x788 DUP2 PUSH3 0x690 JUMP JUMPDEST DUP2 EQ PUSH3 0x794 JUMPI PUSH1 0x0 DUP1 REVERT JUMPDEST POP JUMP JUMPDEST PUSH3 0x7A2 DUP2 PUSH3 0x6A4 JUMP JUMPDEST DUP2 EQ PUSH3 0x7AE JUMPI PUSH1 0x0 DUP1 REVERT JUMPDEST POP JUMP JUMPDEST PUSH3 0x7BC DUP2 PUSH3 0x6B8 JUMP JUMPDEST DUP2 EQ PUSH3 0x7C8 JUMPI PUSH1 0x0 DUP1 REVERT JUMPDEST POP JUMP JUMPDEST PUSH3 0x7D6 DUP2 PUSH3 0x6FE JUMP JUMPDEST DUP2 EQ PUSH3 0x7E2 JUMPI PUSH1 0x0 DUP1 REVERT JUMPDEST POP JUMP JUMPDEST PUSH3 0x7F0 DUP2 PUSH3 0x70E JUMP JUMPDEST DUP2 EQ PUSH3 0x7FC JUMPI PUSH1 0x0 DUP1 REVERT JUMPDEST POP JUMP JUMPDEST PUSH1 0x80 MLOAD PUSH1 0x60 SHR PUSH1 0xA0 MLOAD PUSH1 0x60 SHR PUSH1 0xC0 MLOAD PUSH1 0xE0 MLOAD PUSH2 0x16E4 PUSH3 0x877 PUSH1 0x0 CODECOPY PUSH1 0x0 DUP2 DUP2 PUSH2 0x293 ADD MSTORE DUP2 DUP2 PUSH2 0x2E9 ADD MSTORE DUP2 DUP2 PUSH2 0x5DA ADD MSTORE PUSH2 0x6B3 ADD MSTORE PUSH1 0x0 DUP2 DUP2 PUSH2 0x2C8 ADD MSTORE DUP2 DUP2 PUSH2 0x31B ADD MSTORE PUSH2 0x5B4 ADD MSTORE PUSH1 0x0 DUP2 DUP2 PUSH2 0x1FA ADD MSTORE PUSH2 0x4DE ADD MSTORE PUSH1 0x0 DUP2 DUP2 PUSH2 0x368 ADD MSTORE DUP2 DUP2 PUSH2 0x500 ADD MSTORE PUSH2 0x763 ADD MSTORE PUSH2 0x16E4 PUSH1 0x0 RETURN INVALID PUSH1 0x80 PUSH1 0x40 MSTORE CALLVALUE DUP1 ISZERO PUSH2 0x10 JUMPI PUSH1 0x0 DUP1 REVERT JUMPDEST POP PUSH1 0x4 CALLDATASIZE LT PUSH2 0xA9 JUMPI PUSH1 0x0 CALLDATALOAD PUSH1 0xE0 SHR DUP1 PUSH4 0x8DA5CB5B GT PUSH2 0x71 JUMPI DUP1 PUSH4 0x8DA5CB5B EQ PUSH2 0x11C JUMPI DUP1 PUSH4 0xB91D4001 EQ PUSH2 0x13A JUMPI DUP1 PUSH4 0xD483D051 EQ PUSH2 0x158 JUMPI DUP1 PUSH4 0xD65316C0 EQ PUSH2 0x176 JUMPI DUP1 PUSH4 0xF2FDE38B EQ PUSH2 0x1A6 JUMPI DUP1 PUSH4 0xFC0C546A EQ PUSH2 0x1C2 JUMPI PUSH2 0xA9 JUMP JUMPDEST DUP1 PUSH4 0x94AC207 EQ PUSH2 0xAE JUMPI DUP1 PUSH4 0x38AF3EED EQ PUSH2 0xCC JUMPI DUP1 PUSH4 0x45D30A17 EQ PUSH2 0xEA JUMPI DUP1 PUSH4 0x715018A6 EQ PUSH2 0x108 JUMPI DUP1 PUSH4 0x86D1A69F EQ PUSH2 0x112 JUMPI JUMPDEST PUSH1 0x0 DUP1 REVERT JUMPDEST PUSH2 0xB6 PUSH2 0x1E0 JUMP JUMPDEST PUSH1 0x40 MLOAD PUSH2 0xC3 SWAP2 SWAP1 PUSH2 0x134A JUMP JUMPDEST PUSH1 0x40 MLOAD DUP1 SWAP2 SUB SWAP1 RETURN JUMPDEST PUSH2 0xD4 PUSH2 0x1F6 JUMP JUMPDEST PUSH1 0x40 MLOAD PUSH2 0xE1 SWAP2 SWAP1 PUSH2 0x1177 JUMP JUMPDEST PUSH1 0x40 MLOAD DUP1 SWAP2 SUB SWAP1 RETURN JUMPDEST PUSH2 0xF2 PUSH2 0x21E JUMP JUMPDEST PUSH1 0x40 MLOAD PUSH2 0xFF SWAP2 SWAP1 PUSH2 0x12F8 JUMP JUMPDEST PUSH1 0x40 MLOAD DUP1 SWAP2 SUB SWAP1 RETURN JUMPDEST PUSH2 0x110 PUSH2 0x224 JUMP JUMPDEST STOP JUMPDEST PUSH2 0x11A PUSH2 0x238 JUMP JUMPDEST STOP JUMPDEST PUSH2 0x124 PUSH2 0x587 JUMP JUMPDEST PUSH1 0x40 MLOAD PUSH2 0x131 SWAP2 SWAP1 PUSH2 0x1177 JUMP JUMPDEST PUSH1 0x40 MLOAD DUP1 SWAP2 SUB SWAP1 RETURN JUMPDEST PUSH2 0x142 PUSH2 0x5B0 JUMP JUMPDEST PUSH1 0x40 MLOAD PUSH2 0x14F SWAP2 SWAP1 PUSH2 0x12F8 JUMP JUMPDEST PUSH1 0x40 MLOAD DUP1 SWAP2 SUB SWAP1 RETURN JUMPDEST PUSH2 0x160 PUSH2 0x5D8 JUMP JUMPDEST PUSH1 0x40 MLOAD PUSH2 0x16D SWAP2 SWAP1 PUSH2 0x12F8 JUMP JUMPDEST PUSH1 0x40 MLOAD DUP1 SWAP2 SUB SWAP1 RETURN JUMPDEST PUSH2 0x190 PUSH1 0x4 DUP1 CALLDATASIZE SUB DUP2 ADD SWAP1 PUSH2 0x18B SWAP2 SWAP1 PUSH2 0xD30 JUMP JUMPDEST PUSH2 0x5FC JUMP JUMPDEST PUSH1 0x40 MLOAD PUSH2 0x19D SWAP2 SWAP1 PUSH2 0x12F8 JUMP JUMPDEST PUSH1 0x40 MLOAD DUP1 SWAP2 SUB SWAP1 RETURN JUMPDEST PUSH2 0x1C0 PUSH1 0x4 DUP1 CALLDATASIZE SUB DUP2 ADD SWAP1 PUSH2 0x1BB SWAP2 SWAP1 PUSH2 0xD07 JUMP JUMPDEST PUSH2 0x6DB JUMP JUMPDEST STOP JUMPDEST PUSH2 0x1CA PUSH2 0x75F JUMP JUMPDEST PUSH1 0x40 MLOAD PUSH2 0x1D7 SWAP2 SWAP1 PUSH2 0x11BB JUMP JUMPDEST PUSH1 0x40 MLOAD DUP1 SWAP2 SUB SWAP1 RETURN JUMPDEST PUSH1 0x2 PUSH1 0x0 SWAP1 SLOAD SWAP1 PUSH2 0x100 EXP SWAP1 DIV PUSH4 0xFFFFFFFF AND DUP2 JUMP JUMPDEST PUSH1 0x0 PUSH32 0x0 SWAP1 POP SWAP1 JUMP JUMPDEST PUSH1 0x1 SLOAD DUP2 JUMP JUMPDEST PUSH2 0x22C PUSH2 0x787 JUMP JUMPDEST PUSH2 0x236 PUSH1 0x0 PUSH2 0x805 JUMP JUMPDEST JUMP JUMPDEST PUSH2 0x240 PUSH2 0x5B0 JUMP JUMPDEST TIMESTAMP LT ISZERO DUP1 PUSH2 0x250 JUMPI POP PUSH1 0x3 SLOAD NUMBER LT ISZERO JUMPDEST PUSH2 0x28F JUMPI PUSH1 0x40 MLOAD PUSH32 0x8C379A000000000000000000000000000000000000000000000000000000000 DUP2 MSTORE PUSH1 0x4 ADD PUSH2 0x286 SWAP1 PUSH2 0x1238 JUMP JUMPDEST PUSH1 0x40 MLOAD DUP1 SWAP2 SUB SWAP1 REVERT JUMPDEST PUSH1 0x0 PUSH32 0x0 TIMESTAMP LT PUSH2 0x2C3 JUMPI PUSH3 0xF4240 SWAP1 POP PUSH2 0x364 JUMP JUMPDEST PUSH2 0x361 PUSH32 0x0 PUSH32 0x0 PUSH2 0x312 SWAP2 SWAP1 PUSH2 0x14D9 JUMP JUMPDEST PUSH2 0x353 PUSH3 0xF4240 PUSH32 0x0 TIMESTAMP PUSH2 0x345 SWAP2 SWAP1 PUSH2 0x14D9 JUMP JUMPDEST PUSH2 0x8C9 SWAP1 SWAP2 SWAP1 PUSH4 0xFFFFFFFF AND JUMP JUMPDEST PUSH2 0x8DF SWAP1 SWAP2 SWAP1 PUSH4 0xFFFFFFFF AND JUMP JUMPDEST SWAP1 POP JUMPDEST PUSH1 0x0 PUSH32 0x0 PUSH20 0xFFFFFFFFFFFFFFFFFFFFFFFFFFFFFFFFFFFFFFFF AND PUSH4 0x70A08231 ADDRESS PUSH1 0x40 MLOAD DUP3 PUSH4 0xFFFFFFFF AND PUSH1 0xE0 SHL DUP2 MSTORE PUSH1 0x4 ADD PUSH2 0x3BF SWAP2 SWAP1 PUSH2 0x1177 JUMP JUMPDEST PUSH1 0x20 PUSH1 0x40 MLOAD DUP1 DUP4 SUB DUP2 DUP7 DUP1 EXTCODESIZE ISZERO DUP1 ISZERO PUSH2 0x3D7 JUMPI PUSH1 0x0 DUP1 REVERT JUMPDEST POP GAS STATICCALL ISZERO DUP1 ISZERO PUSH2 0x3EB JUMPI RETURNDATASIZE PUSH1 0x0 DUP1 RETURNDATACOPY RETURNDATASIZE PUSH1 0x0 REVERT JUMPDEST POP POP POP POP PUSH1 0x40 MLOAD RETURNDATASIZE PUSH1 0x1F NOT PUSH1 0x1F DUP3 ADD AND DUP3 ADD DUP1 PUSH1 0x40 MSTORE POP DUP2 ADD SWAP1 PUSH2 0x40F SWAP2 SWAP1 PUSH2 0xDAD JUMP JUMPDEST SWAP1 POP PUSH1 0x0 PUSH2 0x44F PUSH3 0xF4240 PUSH2 0x441 PUSH2 0x432 PUSH1 0x1 SLOAD DUP7 PUSH2 0x8F5 SWAP1 SWAP2 SWAP1 PUSH4 0xFFFFFFFF AND JUMP JUMPDEST DUP7 PUSH2 0x8C9 SWAP1 SWAP2 SWAP1 PUSH4 0xFFFFFFFF AND JUMP JUMPDEST PUSH2 0x8DF SWAP1 SWAP2 SWAP1 PUSH4 0xFFFFFFFF AND JUMP JUMPDEST SWAP1 POP PUSH1 0x0 PUSH1 0x1 SLOAD DUP3 GT PUSH2 0x463 JUMPI PUSH1 0x0 PUSH2 0x479 JUMP JUMPDEST PUSH2 0x478 PUSH1 0x1 SLOAD DUP4 PUSH2 0x90B SWAP1 SWAP2 SWAP1 PUSH4 0xFFFFFFFF AND JUMP JUMPDEST JUMPDEST SWAP1 POP PUSH1 0x0 DUP2 GT PUSH2 0x4BE JUMPI PUSH1 0x40 MLOAD PUSH32 0x8C379A000000000000000000000000000000000000000000000000000000000 DUP2 MSTORE PUSH1 0x4 ADD PUSH2 0x4B5 SWAP1 PUSH2 0x12D8 JUMP JUMPDEST PUSH1 0x40 MLOAD DUP1 SWAP2 SUB SWAP1 REVERT JUMPDEST PUSH2 0x4D3 DUP2 PUSH1 0x1 SLOAD PUSH2 0x8F5 SWAP1 SWAP2 SWAP1 PUSH4 0xFFFFFFFF AND JUMP JUMPDEST PUSH1 0x1 DUP2 SWAP1 SSTORE POP PUSH2 0x544 PUSH32 0x0 DUP3 PUSH32 0x0 PUSH20 0xFFFFFFFFFFFFFFFFFFFFFFFFFFFFFFFFFFFFFFFF AND PUSH2 0x921 SWAP1 SWAP3 SWAP2 SWAP1 PUSH4 0xFFFFFFFF AND JUMP JUMPDEST PUSH32 0xEA91EC69D9AB5A214205BAD93781970DF8C1F8FA5321A97B10A6CBBE99C29D9C DUP3 DUP3 PUSH1 0x1 SLOAD PUSH1 0x40 MLOAD PUSH2 0x579 SWAP4 SWAP3 SWAP2 SWAP1 PUSH2 0x1313 JUMP JUMPDEST PUSH1 0x40 MLOAD DUP1 SWAP2 SUB SWAP1 LOG1 POP POP POP POP JUMP JUMPDEST PUSH1 0x0 DUP1 PUSH1 0x0 SWAP1 SLOAD SWAP1 PUSH2 0x100 EXP SWAP1 DIV PUSH20 0xFFFFFFFFFFFFFFFFFFFFFFFFFFFFFFFFFFFFFFFF AND SWAP1 POP SWAP1 JUMP JUMPDEST PUSH1 0x0 PUSH32 0x0 SWAP1 POP SWAP1 JUMP JUMPDEST PUSH32 0x0 DUP2 JUMP JUMPDEST PUSH1 0x0 PUSH2 0x606 PUSH2 0x787 JUMP JUMPDEST PUSH1 0x0 DUP4 PUSH20 0xFFFFFFFFFFFFFFFFFFFFFFFFFFFFFFFFFFFFFFFF AND DUP4 PUSH1 0x40 MLOAD PUSH2 0x62D SWAP2 SWAP1 PUSH2 0x1160 JUMP JUMPDEST PUSH1 0x0 PUSH1 0x40 MLOAD DUP1 DUP4 SUB DUP2 DUP6 GAS DELEGATECALL SWAP2 POP POP RETURNDATASIZE DUP1 PUSH1 0x0 DUP2 EQ PUSH2 0x668 JUMPI PUSH1 0x40 MLOAD SWAP2 POP PUSH1 0x1F NOT PUSH1 0x3F RETURNDATASIZE ADD AND DUP3 ADD PUSH1 0x40 MSTORE RETURNDATASIZE DUP3 MSTORE RETURNDATASIZE PUSH1 0x0 PUSH1 0x20 DUP5 ADD RETURNDATACOPY PUSH2 0x66D JUMP JUMPDEST PUSH1 0x60 SWAP2 POP JUMPDEST POP POP SWAP1 POP DUP1 PUSH2 0x6B1 JUMPI PUSH1 0x40 MLOAD PUSH32 0x8C379A000000000000000000000000000000000000000000000000000000000 DUP2 MSTORE PUSH1 0x4 ADD PUSH2 0x6A8 SWAP1 PUSH2 0x1258 JUMP JUMPDEST PUSH1 0x40 MLOAD DUP1 SWAP2 SUB SWAP1 REVERT JUMPDEST PUSH32 0x0 SWAP2 POP POP SWAP3 SWAP2 POP POP JUMP JUMPDEST PUSH2 0x6E3 PUSH2 0x787 JUMP JUMPDEST PUSH1 0x0 PUSH20 0xFFFFFFFFFFFFFFFFFFFFFFFFFFFFFFFFFFFFFFFF AND DUP2 PUSH20 0xFFFFFFFFFFFFFFFFFFFFFFFFFFFFFFFFFFFFFFFF AND EQ ISZERO PUSH2 0x753 JUMPI PUSH1 0x40 MLOAD PUSH32 0x8C379A000000000000000000000000000000000000000000000000000000000 DUP2 MSTORE PUSH1 0x4 ADD PUSH2 0x74A SWAP1 PUSH2 0x11F8 JUMP JUMPDEST PUSH1 0x40 MLOAD DUP1 SWAP2 SUB SWAP1 REVERT JUMPDEST PUSH2 0x75C DUP2 PUSH2 0x805 JUMP JUMPDEST POP JUMP JUMPDEST PUSH1 0x0 PUSH32 0x0 SWAP1 POP SWAP1 JUMP JUMPDEST PUSH2 0x78F PUSH2 0x9A7 JUMP JUMPDEST PUSH20 0xFFFFFFFFFFFFFFFFFFFFFFFFFFFFFFFFFFFFFFFF AND PUSH2 0x7AD PUSH2 0x587 JUMP JUMPDEST PUSH20 0xFFFFFFFFFFFFFFFFFFFFFFFFFFFFFFFFFFFFFFFF AND EQ PUSH2 0x803 JUMPI PUSH1 0x40 MLOAD PUSH32 0x8C379A000000000000000000000000000000000000000000000000000000000 DUP2 MSTORE PUSH1 0x4 ADD PUSH2 0x7FA SWAP1 PUSH2 0x1278 JUMP JUMPDEST PUSH1 0x40 MLOAD DUP1 SWAP2 SUB SWAP1 REVERT JUMPDEST JUMP JUMPDEST PUSH1 0x0 DUP1 PUSH1 0x0 SWAP1 SLOAD SWAP1 PUSH2 0x100 EXP SWAP1 DIV PUSH20 0xFFFFFFFFFFFFFFFFFFFFFFFFFFFFFFFFFFFFFFFF AND SWAP1 POP DUP2 PUSH1 0x0 DUP1 PUSH2 0x100 EXP DUP2 SLOAD DUP2 PUSH20 0xFFFFFFFFFFFFFFFFFFFFFFFFFFFFFFFFFFFFFFFF MUL NOT AND SWAP1 DUP4 PUSH20 0xFFFFFFFFFFFFFFFFFFFFFFFFFFFFFFFFFFFFFFFF AND MUL OR SWAP1 SSTORE POP DUP2 PUSH20 0xFFFFFFFFFFFFFFFFFFFFFFFFFFFFFFFFFFFFFFFF AND DUP2 PUSH20 0xFFFFFFFFFFFFFFFFFFFFFFFFFFFFFFFFFFFFFFFF AND PUSH32 0x8BE0079C531659141344CD1FD0A4F28419497F9722A3DAAFE3B4186F6B6457E0 PUSH1 0x40 MLOAD PUSH1 0x40 MLOAD DUP1 SWAP2 SUB SWAP1 LOG3 POP POP JUMP JUMPDEST PUSH1 0x0 DUP2 DUP4 PUSH2 0x8D7 SWAP2 SWAP1 PUSH2 0x147F JUMP JUMPDEST SWAP1 POP SWAP3 SWAP2 POP POP JUMP JUMPDEST PUSH1 0x0 DUP2 DUP4 PUSH2 0x8ED SWAP2 SWAP1 PUSH2 0x144E JUMP JUMPDEST SWAP1 POP SWAP3 SWAP2 POP POP JUMP JUMPDEST PUSH1 0x0 DUP2 DUP4 PUSH2 0x903 SWAP2 SWAP1 PUSH2 0x13F8 JUMP JUMPDEST SWAP1 POP SWAP3 SWAP2 POP POP JUMP JUMPDEST PUSH1 0x0 DUP2 DUP4 PUSH2 0x919 SWAP2 SWAP1 PUSH2 0x14D9 JUMP JUMPDEST SWAP1 POP SWAP3 SWAP2 POP POP JUMP JUMPDEST PUSH2 0x9A2 DUP4 PUSH4 0xA9059CBB PUSH1 0xE0 SHL DUP5 DUP5 PUSH1 0x40 MLOAD PUSH1 0x24 ADD PUSH2 0x940 SWAP3 SWAP2 SWAP1 PUSH2 0x1192 JUMP JUMPDEST PUSH1 0x40 MLOAD PUSH1 0x20 DUP2 DUP4 SUB SUB DUP2 MSTORE SWAP1 PUSH1 0x40 MSTORE SWAP1 PUSH28 0xFFFFFFFFFFFFFFFFFFFFFFFFFFFFFFFFFFFFFFFFFFFFFFFFFFFFFFFF NOT AND PUSH1 0x20 DUP3 ADD DUP1 MLOAD PUSH28 0xFFFFFFFFFFFFFFFFFFFFFFFFFFFFFFFFFFFFFFFFFFFFFFFFFFFFFFFF DUP4 DUP2 DUP4 AND OR DUP4 MSTORE POP POP POP POP PUSH2 0x9AF JUMP JUMPDEST POP POP POP JUMP JUMPDEST PUSH1 0x0 CALLER SWAP1 POP SWAP1 JUMP JUMPDEST PUSH1 0x0 PUSH2 0xA11 DUP3 PUSH1 0x40 MLOAD DUP1 PUSH1 0x40 ADD PUSH1 0x40 MSTORE DUP1 PUSH1 0x20 DUP2 MSTORE PUSH1 0x20 ADD PUSH32 0x5361666545524332303A206C6F772D6C6576656C2063616C6C206661696C6564 DUP2 MSTORE POP DUP6 PUSH20 0xFFFFFFFFFFFFFFFFFFFFFFFFFFFFFFFFFFFFFFFF AND PUSH2 0xA76 SWAP1 SWAP3 SWAP2 SWAP1 PUSH4 0xFFFFFFFF AND JUMP JUMPDEST SWAP1 POP PUSH1 0x0 DUP2 MLOAD GT ISZERO PUSH2 0xA71 JUMPI DUP1 DUP1 PUSH1 0x20 ADD SWAP1 MLOAD DUP2 ADD SWAP1 PUSH2 0xA31 SWAP2 SWAP1 PUSH2 0xD84 JUMP JUMPDEST PUSH2 0xA70 JUMPI PUSH1 0x40 MLOAD PUSH32 0x8C379A000000000000000000000000000000000000000000000000000000000 DUP2 MSTORE PUSH1 0x4 ADD PUSH2 0xA67 SWAP1 PUSH2 0x12B8 JUMP JUMPDEST PUSH1 0x40 MLOAD DUP1 SWAP2 SUB SWAP1 REVERT JUMPDEST JUMPDEST POP POP POP JUMP JUMPDEST PUSH1 0x60 PUSH2 0xA85 DUP5 DUP5 PUSH1 0x0 DUP6 PUSH2 0xA8E JUMP JUMPDEST SWAP1 POP SWAP4 SWAP3 POP POP POP JUMP JUMPDEST PUSH1 0x60 DUP3 SELFBALANCE LT ISZERO PUSH2 0xAD3 JUMPI PUSH1 0x40 MLOAD PUSH32 0x8C379A000000000000000000000000000000000000000000000000000000000 DUP2 MSTORE PUSH1 0x4 ADD PUSH2 0xACA SWAP1 PUSH2 0x1218 JUMP JUMPDEST PUSH1 0x40 MLOAD DUP1 SWAP2 SUB SWAP1 REVERT JUMPDEST PUSH1 0x0 DUP1 DUP7 PUSH20 0xFFFFFFFFFFFFFFFFFFFFFFFFFFFFFFFFFFFFFFFF AND DUP6 DUP8 PUSH1 0x40 MLOAD PUSH2 0xAFC SWAP2 SWAP1 PUSH2 0x1160 JUMP JUMPDEST PUSH1 0x0 PUSH1 0x40 MLOAD DUP1 DUP4 SUB DUP2 DUP6 DUP8 GAS CALL SWAP3 POP POP POP RETURNDATASIZE DUP1 PUSH1 0x0 DUP2 EQ PUSH2 0xB39 JUMPI PUSH1 0x40 MLOAD SWAP2 POP PUSH1 0x1F NOT PUSH1 0x3F RETURNDATASIZE ADD AND DUP3 ADD PUSH1 0x40 MSTORE RETURNDATASIZE DUP3 MSTORE RETURNDATASIZE PUSH1 0x0 PUSH1 0x20 DUP5 ADD RETURNDATACOPY PUSH2 0xB3E JUMP JUMPDEST PUSH1 0x60 SWAP2 POP JUMPDEST POP SWAP2 POP SWAP2 POP PUSH2 0xB4F DUP8 DUP4 DUP4 DUP8 PUSH2 0xB5B JUMP JUMPDEST SWAP3 POP POP POP SWAP5 SWAP4 POP POP POP POP JUMP JUMPDEST PUSH1 0x60 DUP4 ISZERO PUSH2 0xBBE JUMPI PUSH1 0x0 DUP4 MLOAD EQ ISZERO PUSH2 0xBB6 JUMPI PUSH2 0xB76 DUP6 PUSH2 0xBD1 JUMP JUMPDEST PUSH2 0xBB5 JUMPI PUSH1 0x40 MLOAD PUSH32 0x8C379A000000000000000000000000000000000000000000000000000000000 DUP2 MSTORE PUSH1 0x4 ADD PUSH2 0xBAC SWAP1 PUSH2 0x1298 JUMP JUMPDEST PUSH1 0x40 MLOAD DUP1 SWAP2 SUB SWAP1 REVERT JUMPDEST JUMPDEST DUP3 SWAP1 POP PUSH2 0xBC9 JUMP JUMPDEST PUSH2 0xBC8 DUP4 DUP4 PUSH2 0xC10 JUMP JUMPDEST JUMPDEST SWAP5 SWAP4 POP POP POP POP JUMP JUMPDEST PUSH1 0x0 DUP1 DUP3 PUSH20 0xFFFFFFFFFFFFFFFFFFFFFFFFFFFFFFFFFFFFFFFF AND DUP1 EXTCODESIZE DUP1 PUSH1 0x20 ADD PUSH1 0x40 MLOAD SWAP1 DUP2 ADD PUSH1 0x40 MSTORE DUP2 DUP2 MSTORE PUSH1 0x0 SWAP1 DUP1 PUSH1 0x20 ADD SWAP1 SWAP4 EXTCODECOPY MLOAD GT SWAP1 POP SWAP2 SWAP1 POP JUMP JUMPDEST PUSH1 0x0 DUP3 MLOAD GT ISZERO PUSH2 0xC23 JUMPI DUP2 MLOAD DUP1 DUP4 PUSH1 0x20 ADD REVERT JUMPDEST DUP1 PUSH1 0x40 MLOAD PUSH32 0x8C379A000000000000000000000000000000000000000000000000000000000 DUP2 MSTORE PUSH1 0x4 ADD PUSH2 0xC57 SWAP2 SWAP1 PUSH2 0x11D6 JUMP JUMPDEST PUSH1 0x40 MLOAD DUP1 SWAP2 SUB SWAP1 REVERT JUMPDEST PUSH1 0x0 PUSH2 0xC73 PUSH2 0xC6E DUP5 PUSH2 0x1396 JUMP JUMPDEST PUSH2 0x1365 JUMP JUMPDEST SWAP1 POP DUP3 DUP2 MSTORE PUSH1 0x20 DUP2 ADD DUP5 DUP5 DUP5 ADD GT ISZERO PUSH2 0xC8B JUMPI PUSH1 0x0 DUP1 REVERT JUMPDEST PUSH2 0xC96 DUP5 DUP3 DUP6 PUSH2 0x1589 JUMP JUMPDEST POP SWAP4 SWAP3 POP POP POP JUMP JUMPDEST PUSH1 0x0 DUP2 CALLDATALOAD SWAP1 POP PUSH2 0xCAD DUP2 PUSH2 0x1669 JUMP JUMPDEST SWAP3 SWAP2 POP POP JUMP JUMPDEST PUSH1 0x0 DUP2 MLOAD SWAP1 POP PUSH2 0xCC2 DUP2 PUSH2 0x1680 JUMP JUMPDEST SWAP3 SWAP2 POP POP JUMP JUMPDEST PUSH1 0x0 DUP3 PUSH1 0x1F DUP4 ADD SLT PUSH2 0xCD9 JUMPI PUSH1 0x0 DUP1 REVERT JUMPDEST DUP2 CALLDATALOAD PUSH2 0xCE9 DUP5 DUP3 PUSH1 0x20 DUP7 ADD PUSH2 0xC60 JUMP JUMPDEST SWAP2 POP POP SWAP3 SWAP2 POP POP JUMP JUMPDEST PUSH1 0x0 DUP2 MLOAD SWAP1 POP PUSH2 0xD01 DUP2 PUSH2 0x1697 JUMP JUMPDEST SWAP3 SWAP2 POP POP JUMP JUMPDEST PUSH1 0x0 PUSH1 0x20 DUP3 DUP5 SUB SLT ISZERO PUSH2 0xD19 JUMPI PUSH1 0x0 DUP1 REVERT JUMPDEST PUSH1 0x0 PUSH2 0xD27 DUP5 DUP3 DUP6 ADD PUSH2 0xC9E JUMP JUMPDEST SWAP2 POP POP SWAP3 SWAP2 POP POP JUMP JUMPDEST PUSH1 0x0 DUP1 PUSH1 0x40 DUP4 DUP6 SUB SLT ISZERO PUSH2 0xD43 JUMPI PUSH1 0x0 DUP1 REVERT JUMPDEST PUSH1 0x0 PUSH2 0xD51 DUP6 DUP3 DUP7 ADD PUSH2 0xC9E JUMP JUMPDEST SWAP3 POP POP PUSH1 0x20 DUP4 ADD CALLDATALOAD PUSH8 0xFFFFFFFFFFFFFFFF DUP2 GT ISZERO PUSH2 0xD6E JUMPI PUSH1 0x0 DUP1 REVERT JUMPDEST PUSH2 0xD7A DUP6 DUP3 DUP7 ADD PUSH2 0xCC8 JUMP JUMPDEST SWAP2 POP POP SWAP3 POP SWAP3 SWAP1 POP JUMP JUMPDEST PUSH1 0x0 PUSH1 0x20 DUP3 DUP5 SUB SLT ISZERO PUSH2 0xD96 JUMPI PUSH1 0x0 DUP1 REVERT JUMPDEST PUSH1 0x0 PUSH2 0xDA4 DUP5 DUP3 DUP6 ADD PUSH2 0xCB3 JUMP JUMPDEST SWAP2 POP POP SWAP3 SWAP2 POP POP JUMP JUMPDEST PUSH1 0x0 PUSH1 0x20 DUP3 DUP5 SUB SLT ISZERO PUSH2 0xDBF JUMPI PUSH1 0x0 DUP1 REVERT JUMPDEST PUSH1 0x0 PUSH2 0xDCD DUP5 DUP3 DUP6 ADD PUSH2 0xCF2 JUMP JUMPDEST SWAP2 POP POP SWAP3 SWAP2 POP POP JUMP JUMPDEST PUSH2 0xDDF DUP2 PUSH2 0x150D JUMP JUMPDEST DUP3 MSTORE POP POP JUMP JUMPDEST PUSH1 0x0 PUSH2 0xDF0 DUP3 PUSH2 0x13C6 JUMP JUMPDEST PUSH2 0xDFA DUP2 DUP6 PUSH2 0x13DC JUMP JUMPDEST SWAP4 POP PUSH2 0xE0A DUP2 DUP6 PUSH1 0x20 DUP7 ADD PUSH2 0x1598 JUMP JUMPDEST DUP1 DUP5 ADD SWAP2 POP POP SWAP3 SWAP2 POP POP JUMP JUMPDEST PUSH2 0xE1F DUP2 PUSH2 0x1565 JUMP JUMPDEST DUP3 MSTORE POP POP JUMP JUMPDEST PUSH1 0x0 PUSH2 0xE30 DUP3 PUSH2 0x13D1 JUMP JUMPDEST PUSH2 0xE3A DUP2 DUP6 PUSH2 0x13E7 JUMP JUMPDEST SWAP4 POP PUSH2 0xE4A DUP2 DUP6 PUSH1 0x20 DUP7 ADD PUSH2 0x1598 JUMP JUMPDEST PUSH2 0xE53 DUP2 PUSH2 0x1658 JUMP JUMPDEST DUP5 ADD SWAP2 POP POP SWAP3 SWAP2 POP POP JUMP JUMPDEST PUSH1 0x0 PUSH2 0xE6B PUSH1 0x26 DUP4 PUSH2 0x13E7 JUMP JUMPDEST SWAP2 POP PUSH32 0x4F776E61626C653A206E6577206F776E657220697320746865207A65726F2061 PUSH1 0x0 DUP4 ADD MSTORE PUSH32 0x6464726573730000000000000000000000000000000000000000000000000000 PUSH1 0x20 DUP4 ADD MSTORE PUSH1 0x40 DUP3 ADD SWAP1 POP SWAP2 SWAP1 POP JUMP JUMPDEST PUSH1 0x0 PUSH2 0xED1 PUSH1 0x26 DUP4 PUSH2 0x13E7 JUMP JUMPDEST SWAP2 POP PUSH32 0x416464726573733A20696E73756666696369656E742062616C616E636520666F PUSH1 0x0 DUP4 ADD MSTORE PUSH32 0x722063616C6C0000000000000000000000000000000000000000000000000000 PUSH1 0x20 DUP4 ADD MSTORE PUSH1 0x40 DUP3 ADD SWAP1 POP SWAP2 SWAP1 POP JUMP JUMPDEST PUSH1 0x0 PUSH2 0xF37 PUSH1 0x48 DUP4 PUSH2 0x13E7 JUMP JUMPDEST SWAP2 POP PUSH32 0x546F6B656E54696D656C6F636B3A2063757272656E742074696D65206F722062 PUSH1 0x0 DUP4 ADD MSTORE PUSH32 0x6C6F636B206E756D626572206973206265666F72652072656C6561736520636F PUSH1 0x20 DUP4 ADD MSTORE PUSH32 0x6E646974696F6E73000000000000000000000000000000000000000000000000 PUSH1 0x40 DUP4 ADD MSTORE PUSH1 0x60 DUP3 ADD SWAP1 POP SWAP2 SWAP1 POP JUMP JUMPDEST PUSH1 0x0 PUSH2 0xFC3 PUSH1 0x6 DUP4 PUSH2 0x13E7 JUMP JUMPDEST SWAP2 POP PUSH32 0x6661696C65640000000000000000000000000000000000000000000000000000 PUSH1 0x0 DUP4 ADD MSTORE PUSH1 0x20 DUP3 ADD SWAP1 POP SWAP2 SWAP1 POP JUMP JUMPDEST PUSH1 0x0 PUSH2 0x1003 PUSH1 0x20 DUP4 PUSH2 0x13E7 JUMP JUMPDEST SWAP2 POP PUSH32 0x4F776E61626C653A2063616C6C6572206973206E6F7420746865206F776E6572 PUSH1 0x0 DUP4 ADD MSTORE PUSH1 0x20 DUP3 ADD SWAP1 POP SWAP2 SWAP1 POP JUMP JUMPDEST PUSH1 0x0 PUSH2 0x1043 PUSH1 0x1D DUP4 PUSH2 0x13E7 JUMP JUMPDEST SWAP2 POP PUSH32 0x416464726573733A2063616C6C20746F206E6F6E2D636F6E7472616374000000 PUSH1 0x0 DUP4 ADD MSTORE PUSH1 0x20 DUP3 ADD SWAP1 POP SWAP2 SWAP1 POP JUMP JUMPDEST PUSH1 0x0 PUSH2 0x1083 PUSH1 0x2A DUP4 PUSH2 0x13E7 JUMP JUMPDEST SWAP2 POP PUSH32 0x5361666545524332303A204552433230206F7065726174696F6E20646964206E PUSH1 0x0 DUP4 ADD MSTORE PUSH32 0x6F74207375636365656400000000000000000000000000000000000000000000 PUSH1 0x20 DUP4 ADD MSTORE PUSH1 0x40 DUP3 ADD SWAP1 POP SWAP2 SWAP1 POP JUMP JUMPDEST PUSH1 0x0 PUSH2 0x10E9 PUSH1 0x23 DUP4 PUSH2 0x13E7 JUMP JUMPDEST SWAP2 POP PUSH32 0x546F6B656E54696D656C6F636B3A206E6F20746F6B656E7320746F2072656C65 PUSH1 0x0 DUP4 ADD MSTORE PUSH32 0x6173650000000000000000000000000000000000000000000000000000000000 PUSH1 0x20 DUP4 ADD MSTORE PUSH1 0x40 DUP3 ADD SWAP1 POP SWAP2 SWAP1 POP JUMP JUMPDEST PUSH2 0x114B DUP2 PUSH2 0x154B JUMP JUMPDEST DUP3 MSTORE POP POP JUMP JUMPDEST PUSH2 0x115A DUP2 PUSH2 0x1555 JUMP JUMPDEST DUP3 MSTORE POP POP JUMP JUMPDEST PUSH1 0x0 PUSH2 0x116C DUP3 DUP5 PUSH2 0xDE5 JUMP JUMPDEST SWAP2 POP DUP2 SWAP1 POP SWAP3 SWAP2 POP POP JUMP JUMPDEST PUSH1 0x0 PUSH1 0x20 DUP3 ADD SWAP1 POP PUSH2 0x118C PUSH1 0x0 DUP4 ADD DUP5 PUSH2 0xDD6 JUMP JUMPDEST SWAP3 SWAP2 POP POP JUMP JUMPDEST PUSH1 0x0 PUSH1 0x40 DUP3 ADD SWAP1 POP PUSH2 0x11A7 PUSH1 0x0 DUP4 ADD DUP6 PUSH2 0xDD6 JUMP JUMPDEST PUSH2 0x11B4 PUSH1 0x20 DUP4 ADD DUP5 PUSH2 0x1142 JUMP JUMPDEST SWAP4 SWAP3 POP POP POP JUMP JUMPDEST PUSH1 0x0 PUSH1 0x20 DUP3 ADD SWAP1 POP PUSH2 0x11D0 PUSH1 0x0 DUP4 ADD DUP5 PUSH2 0xE16 JUMP JUMPDEST SWAP3 SWAP2 POP POP JUMP JUMPDEST PUSH1 0x0 PUSH1 0x20 DUP3 ADD SWAP1 POP DUP2 DUP2 SUB PUSH1 0x0 DUP4 ADD MSTORE PUSH2 0x11F0 DUP2 DUP5 PUSH2 0xE25 JUMP JUMPDEST SWAP1 POP SWAP3 SWAP2 POP POP JUMP JUMPDEST PUSH1 0x0 PUSH1 0x20 DUP3 ADD SWAP1 POP DUP2 DUP2 SUB PUSH1 0x0 DUP4 ADD MSTORE PUSH2 0x1211 DUP2 PUSH2 0xE5E JUMP JUMPDEST SWAP1 POP SWAP2 SWAP1 POP JUMP JUMPDEST PUSH1 0x0 PUSH1 0x20 DUP3 ADD SWAP1 POP DUP2 DUP2 SUB PUSH1 0x0 DUP4 ADD MSTORE PUSH2 0x1231 DUP2 PUSH2 0xEC4 JUMP JUMPDEST SWAP1 POP SWAP2 SWAP1 POP JUMP JUMPDEST PUSH1 0x0 PUSH1 0x20 DUP3 ADD SWAP1 POP DUP2 DUP2 SUB PUSH1 0x0 DUP4 ADD MSTORE PUSH2 0x1251 DUP2 PUSH2 0xF2A JUMP JUMPDEST SWAP1 POP SWAP2 SWAP1 POP JUMP JUMPDEST PUSH1 0x0 PUSH1 0x20 DUP3 ADD SWAP1 POP DUP2 DUP2 SUB PUSH1 0x0 DUP4 ADD MSTORE PUSH2 0x1271 DUP2 PUSH2 0xFB6 JUMP JUMPDEST SWAP1 POP SWAP2 SWAP1 POP JUMP JUMPDEST PUSH1 0x0 PUSH1 0x20 DUP3 ADD SWAP1 POP DUP2 DUP2 SUB PUSH1 0x0 DUP4 ADD MSTORE PUSH2 0x1291 DUP2 PUSH2 0xFF6 JUMP JUMPDEST SWAP1 POP SWAP2 SWAP1 POP JUMP JUMPDEST PUSH1 0x0 PUSH1 0x20 DUP3 ADD SWAP1 POP DUP2 DUP2 SUB PUSH1 0x0 DUP4 ADD MSTORE PUSH2 0x12B1 DUP2 PUSH2 0x1036 JUMP JUMPDEST SWAP1 POP SWAP2 SWAP1 POP JUMP JUMPDEST PUSH1 0x0 PUSH1 0x20 DUP3 ADD SWAP1 POP DUP2 DUP2 SUB PUSH1 0x0 DUP4 ADD MSTORE PUSH2 0x12D1 DUP2 PUSH2 0x1076 JUMP JUMPDEST SWAP1 POP SWAP2 SWAP1 POP JUMP JUMPDEST PUSH1 0x0 PUSH1 0x20 DUP3 ADD SWAP1 POP DUP2 DUP2 SUB PUSH1 0x0 DUP4 ADD MSTORE PUSH2 0x12F1 DUP2 PUSH2 0x10DC JUMP JUMPDEST SWAP1 POP SWAP2 SWAP1 POP JUMP JUMPDEST PUSH1 0x0 PUSH1 0x20 DUP3 ADD SWAP1 POP PUSH2 0x130D PUSH1 0x0 DUP4 ADD DUP5 PUSH2 0x1142 JUMP JUMPDEST SWAP3 SWAP2 POP POP JUMP JUMPDEST PUSH1 0x0 PUSH1 0x60 DUP3 ADD SWAP1 POP PUSH2 0x1328 PUSH1 0x0 DUP4 ADD DUP7 PUSH2 0x1142 JUMP JUMPDEST PUSH2 0x1335 PUSH1 0x20 DUP4 ADD DUP6 PUSH2 0x1142 JUMP JUMPDEST PUSH2 0x1342 PUSH1 0x40 DUP4 ADD DUP5 PUSH2 0x1142 JUMP JUMPDEST SWAP5 SWAP4 POP POP POP POP JUMP JUMPDEST PUSH1 0x0 PUSH1 0x20 DUP3 ADD SWAP1 POP PUSH2 0x135F PUSH1 0x0 DUP4 ADD DUP5 PUSH2 0x1151 JUMP JUMPDEST SWAP3 SWAP2 POP POP JUMP JUMPDEST PUSH1 0x0 PUSH1 0x40 MLOAD SWAP1 POP DUP2 DUP2 ADD DUP2 DUP2 LT PUSH8 0xFFFFFFFFFFFFFFFF DUP3 GT OR ISZERO PUSH2 0x138C JUMPI PUSH2 0x138B PUSH2 0x1629 JUMP JUMPDEST JUMPDEST DUP1 PUSH1 0x40 MSTORE POP SWAP2 SWAP1 POP JUMP JUMPDEST PUSH1 0x0 PUSH8 0xFFFFFFFFFFFFFFFF DUP3 GT ISZERO PUSH2 0x13B1 JUMPI PUSH2 0x13B0 PUSH2 0x1629 JUMP JUMPDEST JUMPDEST PUSH1 0x1F NOT PUSH1 0x1F DUP4 ADD AND SWAP1 POP PUSH1 0x20 DUP2 ADD SWAP1 POP SWAP2 SWAP1 POP JUMP JUMPDEST PUSH1 0x0 DUP2 MLOAD SWAP1 POP SWAP2 SWAP1 POP JUMP JUMPDEST PUSH1 0x0 DUP2 MLOAD SWAP1 POP SWAP2 SWAP1 POP JUMP JUMPDEST PUSH1 0x0 DUP2 SWAP1 POP SWAP3 SWAP2 POP POP JUMP JUMPDEST PUSH1 0x0 DUP3 DUP3 MSTORE PUSH1 0x20 DUP3 ADD SWAP1 POP SWAP3 SWAP2 POP POP JUMP JUMPDEST PUSH1 0x0 PUSH2 0x1403 DUP3 PUSH2 0x154B JUMP JUMPDEST SWAP2 POP PUSH2 0x140E DUP4 PUSH2 0x154B JUMP JUMPDEST SWAP3 POP DUP3 PUSH32 0xFFFFFFFFFFFFFFFFFFFFFFFFFFFFFFFFFFFFFFFFFFFFFFFFFFFFFFFFFFFFFFFF SUB DUP3 GT ISZERO PUSH2 0x1443 JUMPI PUSH2 0x1442 PUSH2 0x15CB JUMP JUMPDEST JUMPDEST DUP3 DUP3 ADD SWAP1 POP SWAP3 SWAP2 POP POP JUMP JUMPDEST PUSH1 0x0 PUSH2 0x1459 DUP3 PUSH2 0x154B JUMP JUMPDEST SWAP2 POP PUSH2 0x1464 DUP4 PUSH2 0x154B JUMP JUMPDEST SWAP3 POP DUP3 PUSH2 0x1474 JUMPI PUSH2 0x1473 PUSH2 0x15FA JUMP JUMPDEST JUMPDEST DUP3 DUP3 DIV SWAP1 POP SWAP3 SWAP2 POP POP JUMP JUMPDEST PUSH1 0x0 PUSH2 0x148A DUP3 PUSH2 0x154B JUMP JUMPDEST SWAP2 POP PUSH2 0x1495 DUP4 PUSH2 0x154B JUMP JUMPDEST SWAP3 POP DUP2 PUSH32 0xFFFFFFFFFFFFFFFFFFFFFFFFFFFFFFFFFFFFFFFFFFFFFFFFFFFFFFFFFFFFFFFF DIV DUP4 GT DUP3 ISZERO ISZERO AND ISZERO PUSH2 0x14CE JUMPI PUSH2 0x14CD PUSH2 0x15CB JUMP JUMPDEST JUMPDEST DUP3 DUP3 MUL SWAP1 POP SWAP3 SWAP2 POP POP JUMP JUMPDEST PUSH1 0x0 PUSH2 0x14E4 DUP3 PUSH2 0x154B JUMP JUMPDEST SWAP2 POP PUSH2 0x14EF DUP4 PUSH2 0x154B JUMP JUMPDEST SWAP3 POP DUP3 DUP3 LT ISZERO PUSH2 0x1502 JUMPI PUSH2 0x1501 PUSH2 0x15CB JUMP JUMPDEST JUMPDEST DUP3 DUP3 SUB SWAP1 POP SWAP3 SWAP2 POP POP JUMP JUMPDEST PUSH1 0x0 PUSH2 0x1518 DUP3 PUSH2 0x152B JUMP JUMPDEST SWAP1 POP SWAP2 SWAP1 POP JUMP JUMPDEST PUSH1 0x0 DUP2 ISZERO ISZERO SWAP1 POP SWAP2 SWAP1 POP JUMP JUMPDEST PUSH1 0x0 PUSH20 0xFFFFFFFFFFFFFFFFFFFFFFFFFFFFFFFFFFFFFFFF DUP3 AND SWAP1 POP SWAP2 SWAP1 POP JUMP JUMPDEST PUSH1 0x0 DUP2 SWAP1 POP SWAP2 SWAP1 POP JUMP JUMPDEST PUSH1 0x0 PUSH4 0xFFFFFFFF DUP3 AND SWAP1 POP SWAP2 SWAP1 POP JUMP JUMPDEST PUSH1 0x0 PUSH2 0x1570 DUP3 PUSH2 0x1577 JUMP JUMPDEST SWAP1 POP SWAP2 SWAP1 POP JUMP JUMPDEST PUSH1 0x0 PUSH2 0x1582 DUP3 PUSH2 0x152B JUMP JUMPDEST SWAP1 POP SWAP2 SWAP1 POP JUMP JUMPDEST DUP3 DUP2 DUP4 CALLDATACOPY PUSH1 0x0 DUP4 DUP4 ADD MSTORE POP POP POP JUMP JUMPDEST PUSH1 0x0 JUMPDEST DUP4 DUP2 LT ISZERO PUSH2 0x15B6 JUMPI DUP1 DUP3 ADD MLOAD DUP2 DUP5 ADD MSTORE PUSH1 0x20 DUP2 ADD SWAP1 POP PUSH2 0x159B JUMP JUMPDEST DUP4 DUP2 GT ISZERO PUSH2 0x15C5 JUMPI PUSH1 0x0 DUP5 DUP5 ADD MSTORE JUMPDEST POP POP POP POP JUMP JUMPDEST PUSH32 0x4E487B7100000000000000000000000000000000000000000000000000000000 PUSH1 0x0 MSTORE PUSH1 0x11 PUSH1 0x4 MSTORE PUSH1 0x24 PUSH1 0x0 REVERT JUMPDEST PUSH32 0x4E487B7100000000000000000000000000000000000000000000000000000000 PUSH1 0x0 MSTORE PUSH1 0x12 PUSH1 0x4 MSTORE PUSH1 0x24 PUSH1 0x0 REVERT JUMPDEST PUSH32 0x4E487B7100000000000000000000000000000000000000000000000000000000 PUSH1 0x0 MSTORE PUSH1 0x41 PUSH1 0x4 MSTORE PUSH1 0x24 PUSH1 0x0 REVERT JUMPDEST PUSH1 0x0 PUSH1 0x1F NOT PUSH1 0x1F DUP4 ADD AND SWAP1 POP SWAP2 SWAP1 POP JUMP JUMPDEST PUSH2 0x1672 DUP2 PUSH2 0x150D JUMP JUMPDEST DUP2 EQ PUSH2 0x167D JUMPI PUSH1 0x0 DUP1 REVERT JUMPDEST POP JUMP JUMPDEST PUSH2 0x1689 DUP2 PUSH2 0x151F JUMP JUMPDEST DUP2 EQ PUSH2 0x1694 JUMPI PUSH1 0x0 DUP1 REVERT JUMPDEST POP JUMP JUMPDEST PUSH2 0x16A0 DUP2 PUSH2 0x154B JUMP JUMPDEST DUP2 EQ PUSH2 0x16AB JUMPI PUSH1 0x0 DUP1 REVERT JUMPDEST POP JUMP INVALID LOG2 PUSH5 0x6970667358 0x22 SLT KECCAK256 JUMP 0xB3 0x25 0xB4 SIGNEXTEND PUSH23 0x637AB2ECB5B16AD1DC3DABDCB32EE75DEF6E12AEFCAADB 0xAB MSIZE 0x4A PUSH5 0x736F6C6343 STOP ADDMOD STOP STOP CALLER LOG2 PUSH5 0x6970667358 0x22 SLT KECCAK256 CODECOPY 0xC0 PUSH11 0x705F9705ACB707F32D7642 CREATE DUP14 DUP16 SAR 0xB1 PUSH30 0x4BD58CD1E1EDF1FCC466416C64736F6C6343000800003361010060405260 STOP PUSH1 0x1 SSTORE PUSH1 0x4 PUSH1 0x2 PUSH1 0x0 PUSH2 0x100 EXP DUP2 SLOAD DUP2 PUSH4 0xFFFFFFFF MUL NOT AND SWAP1 DUP4 PUSH4 0xFFFFFFFF AND MUL OR SWAP1 SSTORE POP CALLVALUE DUP1 ISZERO PUSH3 0x39 JUMPI PUSH1 0x0 DUP1 REVERT JUMPDEST POP PUSH1 0x40 MLOAD PUSH3 0x1F5B CODESIZE SUB DUP1 PUSH3 0x1F5B DUP4 CODECOPY DUP2 DUP2 ADD PUSH1 0x40 MSTORE DUP2 ADD SWAP1 PUSH3 0x5F SWAP2 SWAP1 PUSH3 0x37E JUMP JUMPDEST PUSH3 0x7F PUSH3 0x73 PUSH3 0x23F PUSH1 0x20 SHL PUSH1 0x20 SHR JUMP JUMPDEST PUSH3 0x247 PUSH1 0x20 SHL PUSH1 0x20 SHR JUMP JUMPDEST TIMESTAMP DUP5 PUSH5 0xFFFFFFFFFF AND GT PUSH3 0xCB JUMPI PUSH1 0x40 MLOAD PUSH32 0x8C379A000000000000000000000000000000000000000000000000000000000 DUP2 MSTORE PUSH1 0x4 ADD PUSH3 0xC2 SWAP1 PUSH3 0x52C JUMP JUMPDEST PUSH1 0x40 MLOAD DUP1 SWAP2 SUB SWAP1 REVERT JUMPDEST DUP4 PUSH5 0xFFFFFFFFFF AND DUP4 PUSH5 0xFFFFFFFFFF AND GT PUSH3 0x11E JUMPI PUSH1 0x40 MLOAD PUSH32 0x8C379A000000000000000000000000000000000000000000000000000000000 DUP2 MSTORE PUSH1 0x4 ADD PUSH3 0x115 SWAP1 PUSH3 0x50A JUMP JUMPDEST PUSH1 0x40 MLOAD DUP1 SWAP2 SUB SWAP1 REVERT JUMPDEST DUP6 PUSH20 0xFFFFFFFFFFFFFFFFFFFFFFFFFFFFFFFFFFFFFFFF AND PUSH1 0x80 DUP2 PUSH20 0xFFFFFFFFFFFFFFFFFFFFFFFFFFFFFFFFFFFFFFFF AND PUSH1 0x60 SHL DUP2 MSTORE POP POP DUP5 PUSH20 0xFFFFFFFFFFFFFFFFFFFFFFFFFFFFFFFFFFFFFFFF AND PUSH1 0xA0 DUP2 PUSH20 0xFFFFFFFFFFFFFFFFFFFFFFFFFFFFFFFFFFFFFFFF AND PUSH1 0x60 SHL DUP2 MSTORE POP POP DUP4 PUSH5 0xFFFFFFFFFF AND PUSH1 0xC0 DUP2 DUP2 MSTORE POP POP DUP3 PUSH5 0xFFFFFFFFFF AND PUSH1 0xE0 DUP2 DUP2 MSTORE POP POP DUP1 PUSH1 0x2 PUSH1 0x0 PUSH2 0x100 EXP DUP2 SLOAD DUP2 PUSH4 0xFFFFFFFF MUL NOT AND SWAP1 DUP4 PUSH4 0xFFFFFFFF AND MUL OR SWAP1 SSTORE POP PUSH1 0x0 TIMESTAMP DUP6 PUSH5 0xFFFFFFFFFF AND PUSH3 0x1E2 SWAP2 SWAP1 PUSH3 0x655 JUMP JUMPDEST SWAP1 POP PUSH1 0x0 PUSH2 0xE10 DUP4 PUSH4 0xFFFFFFFF AND DUP4 PUSH3 0x1FD SWAP2 SWAP1 PUSH3 0x5F4 JUMP JUMPDEST PUSH3 0x209 SWAP2 SWAP1 PUSH3 0x5BC JUMP JUMPDEST SWAP1 POP DUP1 DUP5 PUSH16 0xFFFFFFFFFFFFFFFFFFFFFFFFFFFFFFFF AND PUSH3 0x22B SWAP2 SWAP1 PUSH3 0x55F JUMP JUMPDEST PUSH1 0x3 DUP2 SWAP1 SSTORE POP POP POP POP POP POP POP POP POP PUSH3 0x7FF JUMP JUMPDEST PUSH1 0x0 CALLER SWAP1 POP SWAP1 JUMP JUMPDEST PUSH1 0x0 DUP1 PUSH1 0x0 SWAP1 SLOAD SWAP1 PUSH2 0x100 EXP SWAP1 DIV PUSH20 0xFFFFFFFFFFFFFFFFFFFFFFFFFFFFFFFFFFFFFFFF AND SWAP1 POP DUP2 PUSH1 0x0 DUP1 PUSH2 0x100 EXP DUP2 SLOAD DUP2 PUSH20 0xFFFFFFFFFFFFFFFFFFFFFFFFFFFFFFFFFFFFFFFF MUL NOT AND SWAP1 DUP4 PUSH20 0xFFFFFFFFFFFFFFFFFFFFFFFFFFFFFFFFFFFFFFFF AND MUL OR SWAP1 SSTORE POP DUP2 PUSH20 0xFFFFFFFFFFFFFFFFFFFFFFFFFFFFFFFFFFFFFFFF AND DUP2 PUSH20 0xFFFFFFFFFFFFFFFFFFFFFFFFFFFFFFFFFFFFFFFF AND PUSH32 0x8BE0079C531659141344CD1FD0A4F28419497F9722A3DAAFE3B4186F6B6457E0 PUSH1 0x40 MLOAD PUSH1 0x40 MLOAD DUP1 SWAP2 SUB SWAP1 LOG3 POP POP JUMP JUMPDEST PUSH1 0x0 DUP2 MLOAD SWAP1 POP PUSH3 0x31C DUP2 PUSH3 0x77D JUMP JUMPDEST SWAP3 SWAP2 POP POP JUMP JUMPDEST PUSH1 0x0 DUP2 MLOAD SWAP1 POP PUSH3 0x333 DUP2 PUSH3 0x797 JUMP JUMPDEST SWAP3 SWAP2 POP POP JUMP JUMPDEST PUSH1 0x0 DUP2 MLOAD SWAP1 POP PUSH3 0x34A DUP2 PUSH3 0x7B1 JUMP JUMPDEST SWAP3 SWAP2 POP POP JUMP JUMPDEST PUSH1 0x0 DUP2 MLOAD SWAP1 POP PUSH3 0x361 DUP2 PUSH3 0x7CB JUMP JUMPDEST SWAP3 SWAP2 POP POP JUMP JUMPDEST PUSH1 0x0 DUP2 MLOAD SWAP1 POP PUSH3 0x378 DUP2 PUSH3 0x7E5 JUMP JUMPDEST SWAP3 SWAP2 POP POP JUMP JUMPDEST PUSH1 0x0 DUP1 PUSH1 0x0 DUP1 PUSH1 0x0 DUP1 PUSH1 0xC0 DUP8 DUP10 SUB SLT ISZERO PUSH3 0x398 JUMPI PUSH1 0x0 DUP1 REVERT JUMPDEST PUSH1 0x0 PUSH3 0x3A8 DUP10 DUP3 DUP11 ADD PUSH3 0x322 JUMP JUMPDEST SWAP7 POP POP PUSH1 0x20 PUSH3 0x3BB DUP10 DUP3 DUP11 ADD PUSH3 0x30B JUMP JUMPDEST SWAP6 POP POP PUSH1 0x40 PUSH3 0x3CE DUP10 DUP3 DUP11 ADD PUSH3 0x367 JUMP JUMPDEST SWAP5 POP POP PUSH1 0x60 PUSH3 0x3E1 DUP10 DUP3 DUP11 ADD PUSH3 0x367 JUMP JUMPDEST SWAP4 POP POP PUSH1 0x80 PUSH3 0x3F4 DUP10 DUP3 DUP11 ADD PUSH3 0x339 JUMP JUMPDEST SWAP3 POP POP PUSH1 0xA0 PUSH3 0x407 DUP10 DUP3 DUP11 ADD PUSH3 0x350 JUMP JUMPDEST SWAP2 POP POP SWAP3 SWAP6 POP SWAP3 SWAP6 POP SWAP3 SWAP6 JUMP JUMPDEST PUSH1 0x0 PUSH3 0x423 PUSH1 0x47 DUP4 PUSH3 0x54E JUMP JUMPDEST SWAP2 POP PUSH32 0x546F6B656E54696D656C6F636B3A2074686520636F6D706C6574696F6E207469 PUSH1 0x0 DUP4 ADD MSTORE PUSH32 0x6D65206D757374206265206C6F6E676572207468616E207468652072656C6561 PUSH1 0x20 DUP4 ADD MSTORE PUSH32 0x73652074696D6500000000000000000000000000000000000000000000000000 PUSH1 0x40 DUP4 ADD MSTORE PUSH1 0x60 DUP3 ADD SWAP1 POP SWAP2 SWAP1 POP JUMP JUMPDEST PUSH1 0x0 PUSH3 0x4B1 PUSH1 0x32 DUP4 PUSH3 0x54E JUMP JUMPDEST SWAP2 POP PUSH32 0x546F6B656E54696D656C6F636B3A2072656C656173652074696D652069732062 PUSH1 0x0 DUP4 ADD MSTORE PUSH32 0x65666F72652063757272656E742074696D650000000000000000000000000000 PUSH1 0x20 DUP4 ADD MSTORE PUSH1 0x40 DUP3 ADD SWAP1 POP SWAP2 SWAP1 POP JUMP JUMPDEST PUSH1 0x0 PUSH1 0x20 DUP3 ADD SWAP1 POP DUP2 DUP2 SUB PUSH1 0x0 DUP4 ADD MSTORE PUSH3 0x525 DUP2 PUSH3 0x414 JUMP JUMPDEST SWAP1 POP SWAP2 SWAP1 POP JUMP JUMPDEST PUSH1 0x0 PUSH1 0x20 DUP3 ADD SWAP1 POP DUP2 DUP2 SUB PUSH1 0x0 DUP4 ADD MSTORE PUSH3 0x547 DUP2 PUSH3 0x4A2 JUMP JUMPDEST SWAP1 POP SWAP2 SWAP1 POP JUMP JUMPDEST PUSH1 0x0 DUP3 DUP3 MSTORE PUSH1 0x20 DUP3 ADD SWAP1 POP SWAP3 SWAP2 POP POP JUMP JUMPDEST PUSH1 0x0 PUSH3 0x56C DUP3 PUSH3 0x6F4 JUMP JUMPDEST SWAP2 POP PUSH3 0x579 DUP4 PUSH3 0x6F4 JUMP JUMPDEST SWAP3 POP DUP3 PUSH32 0xFFFFFFFFFFFFFFFFFFFFFFFFFFFFFFFFFFFFFFFFFFFFFFFFFFFFFFFFFFFFFFFF SUB DUP3 GT ISZERO PUSH3 0x5B1 JUMPI PUSH3 0x5B0 PUSH3 0x71F JUMP JUMPDEST JUMPDEST DUP3 DUP3 ADD SWAP1 POP SWAP3 SWAP2 POP POP JUMP JUMPDEST PUSH1 0x0 PUSH3 0x5C9 DUP3 PUSH3 0x6F4 JUMP JUMPDEST SWAP2 POP PUSH3 0x5D6 DUP4 PUSH3 0x6F4 JUMP JUMPDEST SWAP3 POP DUP3 PUSH3 0x5E9 JUMPI PUSH3 0x5E8 PUSH3 0x74E JUMP JUMPDEST JUMPDEST DUP3 DUP3 DIV SWAP1 POP SWAP3 SWAP2 POP POP JUMP JUMPDEST PUSH1 0x0 PUSH3 0x601 DUP3 PUSH3 0x6F4 JUMP JUMPDEST SWAP2 POP PUSH3 0x60E DUP4 PUSH3 0x6F4 JUMP JUMPDEST SWAP3 POP DUP2 PUSH32 0xFFFFFFFFFFFFFFFFFFFFFFFFFFFFFFFFFFFFFFFFFFFFFFFFFFFFFFFFFFFFFFFF DIV DUP4 GT DUP3 ISZERO ISZERO AND ISZERO PUSH3 0x64A JUMPI PUSH3 0x649 PUSH3 0x71F JUMP JUMPDEST JUMPDEST DUP3 DUP3 MUL SWAP1 POP SWAP3 SWAP2 POP POP JUMP JUMPDEST PUSH1 0x0 PUSH3 0x662 DUP3 PUSH3 0x6F4 JUMP JUMPDEST SWAP2 POP PUSH3 0x66F DUP4 PUSH3 0x6F4 JUMP JUMPDEST SWAP3 POP DUP3 DUP3 LT ISZERO PUSH3 0x685 JUMPI PUSH3 0x684 PUSH3 0x71F JUMP JUMPDEST JUMPDEST DUP3 DUP3 SUB SWAP1 POP SWAP3 SWAP2 POP POP JUMP JUMPDEST PUSH1 0x0 PUSH3 0x69D DUP3 PUSH3 0x6D4 JUMP JUMPDEST SWAP1 POP SWAP2 SWAP1 POP JUMP JUMPDEST PUSH1 0x0 PUSH3 0x6B1 DUP3 PUSH3 0x690 JUMP JUMPDEST SWAP1 POP SWAP2 SWAP1 POP JUMP JUMPDEST PUSH1 0x0 PUSH16 0xFFFFFFFFFFFFFFFFFFFFFFFFFFFFFFFF DUP3 AND SWAP1 POP SWAP2 SWAP1 POP JUMP JUMPDEST PUSH1 0x0 PUSH20 0xFFFFFFFFFFFFFFFFFFFFFFFFFFFFFFFFFFFFFFFF DUP3 AND SWAP1 POP SWAP2 SWAP1 POP JUMP JUMPDEST PUSH1 0x0 DUP2 SWAP1 POP SWAP2 SWAP1 POP JUMP JUMPDEST PUSH1 0x0 PUSH4 0xFFFFFFFF DUP3 AND SWAP1 POP SWAP2 SWAP1 POP JUMP JUMPDEST PUSH1 0x0 PUSH5 0xFFFFFFFFFF DUP3 AND SWAP1 POP SWAP2 SWAP1 POP JUMP JUMPDEST PUSH32 0x4E487B7100000000000000000000000000000000000000000000000000000000 PUSH1 0x0 MSTORE PUSH1 0x11 PUSH1 0x4 MSTORE PUSH1 0x24 PUSH1 0x0 REVERT JUMPDEST PUSH32 0x4E487B7100000000000000000000000000000000000000000000000000000000 PUSH1 0x0 MSTORE PUSH1 0x12 PUSH1 0x4 MSTORE PUSH1 0x24 PUSH1 0x0 REVERT JUMPDEST PUSH3 0x788 DUP2 PUSH3 0x690 JUMP JUMPDEST DUP2 EQ PUSH3 0x794 JUMPI PUSH1 0x0 DUP1 REVERT JUMPDEST POP JUMP JUMPDEST PUSH3 0x7A2 DUP2 PUSH3 0x6A4 JUMP JUMPDEST DUP2 EQ PUSH3 0x7AE JUMPI PUSH1 0x0 DUP1 REVERT JUMPDEST POP JUMP JUMPDEST PUSH3 0x7BC DUP2 PUSH3 0x6B8 JUMP JUMPDEST DUP2 EQ PUSH3 0x7C8 JUMPI PUSH1 0x0 DUP1 REVERT JUMPDEST POP JUMP JUMPDEST PUSH3 0x7D6 DUP2 PUSH3 0x6FE JUMP JUMPDEST DUP2 EQ PUSH3 0x7E2 JUMPI PUSH1 0x0 DUP1 REVERT JUMPDEST POP JUMP JUMPDEST PUSH3 0x7F0 DUP2 PUSH3 0x70E JUMP JUMPDEST DUP2 EQ PUSH3 0x7FC JUMPI PUSH1 0x0 DUP1 REVERT JUMPDEST POP JUMP JUMPDEST PUSH1 0x80 MLOAD PUSH1 0x60 SHR PUSH1 0xA0 MLOAD PUSH1 0x60 SHR PUSH1 0xC0 MLOAD PUSH1 0xE0 MLOAD PUSH2 0x16E4 PUSH3 0x877 PUSH1 0x0 CODECOPY PUSH1 0x0 DUP2 DUP2 PUSH2 0x293 ADD MSTORE DUP2 DUP2 PUSH2 0x2E9 ADD MSTORE DUP2 DUP2 PUSH2 0x5DA ADD MSTORE PUSH2 0x6B3 ADD MSTORE PUSH1 0x0 DUP2 DUP2 PUSH2 0x2C8 ADD MSTORE DUP2 DUP2 PUSH2 0x31B ADD MSTORE PUSH2 0x5B4 ADD MSTORE PUSH1 0x0 DUP2 DUP2 PUSH2 0x1FA ADD MSTORE PUSH2 0x4DE ADD MSTORE PUSH1 0x0 DUP2 DUP2 PUSH2 0x368 ADD MSTORE DUP2 DUP2 PUSH2 0x500 ADD MSTORE PUSH2 0x763 ADD MSTORE PUSH2 0x16E4 PUSH1 0x0 RETURN INVALID PUSH1 0x80 PUSH1 0x40 MSTORE CALLVALUE DUP1 ISZERO PUSH2 0x10 JUMPI PUSH1 0x0 DUP1 REVERT JUMPDEST POP PUSH1 0x4 CALLDATASIZE LT PUSH2 0xA9 JUMPI PUSH1 0x0 CALLDATALOAD PUSH1 0xE0 SHR DUP1 PUSH4 0x8DA5CB5B GT PUSH2 0x71 JUMPI DUP1 PUSH4 0x8DA5CB5B EQ PUSH2 0x11C JUMPI DUP1 PUSH4 0xB91D4001 EQ PUSH2 0x13A JUMPI DUP1 PUSH4 0xD483D051 EQ PUSH2 0x158 JUMPI DUP1 PUSH4 0xD65316C0 EQ PUSH2 0x176 JUMPI DUP1 PUSH4 0xF2FDE38B EQ PUSH2 0x1A6 JUMPI DUP1 PUSH4 0xFC0C546A EQ PUSH2 0x1C2 JUMPI PUSH2 0xA9 JUMP JUMPDEST DUP1 PUSH4 0x94AC207 EQ PUSH2 0xAE JUMPI DUP1 PUSH4 0x38AF3EED EQ PUSH2 0xCC JUMPI DUP1 PUSH4 0x45D30A17 EQ PUSH2 0xEA JUMPI DUP1 PUSH4 0x715018A6 EQ PUSH2 0x108 JUMPI DUP1 PUSH4 0x86D1A69F EQ PUSH2 0x112 JUMPI JUMPDEST PUSH1 0x0 DUP1 REVERT JUMPDEST PUSH2 0xB6 PUSH2 0x1E0 JUMP JUMPDEST PUSH1 0x40 MLOAD PUSH2 0xC3 SWAP2 SWAP1 PUSH2 0x134A JUMP JUMPDEST PUSH1 0x40 MLOAD DUP1 SWAP2 SUB SWAP1 RETURN JUMPDEST PUSH2 0xD4 PUSH2 0x1F6 JUMP JUMPDEST PUSH1 0x40 MLOAD PUSH2 0xE1 SWAP2 SWAP1 PUSH2 0x1177 JUMP JUMPDEST PUSH1 0x40 MLOAD DUP1 SWAP2 SUB SWAP1 RETURN JUMPDEST PUSH2 0xF2 PUSH2 0x21E JUMP JUMPDEST PUSH1 0x40 MLOAD PUSH2 0xFF SWAP2 SWAP1 PUSH2 0x12F8 JUMP JUMPDEST PUSH1 0x40 MLOAD DUP1 SWAP2 SUB SWAP1 RETURN JUMPDEST PUSH2 0x110 PUSH2 0x224 JUMP JUMPDEST STOP JUMPDEST PUSH2 0x11A PUSH2 0x238 JUMP JUMPDEST STOP JUMPDEST PUSH2 0x124 PUSH2 0x587 JUMP JUMPDEST PUSH1 0x40 MLOAD PUSH2 0x131 SWAP2 SWAP1 PUSH2 0x1177 JUMP JUMPDEST PUSH1 0x40 MLOAD DUP1 SWAP2 SUB SWAP1 RETURN JUMPDEST PUSH2 0x142 PUSH2 0x5B0 JUMP JUMPDEST PUSH1 0x40 MLOAD PUSH2 0x14F SWAP2 SWAP1 PUSH2 0x12F8 JUMP JUMPDEST PUSH1 0x40 MLOAD DUP1 SWAP2 SUB SWAP1 RETURN JUMPDEST PUSH2 0x160 PUSH2 0x5D8 JUMP JUMPDEST PUSH1 0x40 MLOAD PUSH2 0x16D SWAP2 SWAP1 PUSH2 0x12F8 JUMP JUMPDEST PUSH1 0x40 MLOAD DUP1 SWAP2 SUB SWAP1 RETURN JUMPDEST PUSH2 0x190 PUSH1 0x4 DUP1 CALLDATASIZE SUB DUP2 ADD SWAP1 PUSH2 0x18B SWAP2 SWAP1 PUSH2 0xD30 JUMP JUMPDEST PUSH2 0x5FC JUMP JUMPDEST PUSH1 0x40 MLOAD PUSH2 0x19D SWAP2 SWAP1 PUSH2 0x12F8 JUMP JUMPDEST PUSH1 0x40 MLOAD DUP1 SWAP2 SUB SWAP1 RETURN JUMPDEST PUSH2 0x1C0 PUSH1 0x4 DUP1 CALLDATASIZE SUB DUP2 ADD SWAP1 PUSH2 0x1BB SWAP2 SWAP1 PUSH2 0xD07 JUMP JUMPDEST PUSH2 0x6DB JUMP JUMPDEST STOP JUMPDEST PUSH2 0x1CA PUSH2 0x75F JUMP JUMPDEST PUSH1 0x40 MLOAD PUSH2 0x1D7 SWAP2 SWAP1 PUSH2 0x11BB JUMP JUMPDEST PUSH1 0x40 MLOAD DUP1 SWAP2 SUB SWAP1 RETURN JUMPDEST PUSH1 0x2 PUSH1 0x0 SWAP1 SLOAD SWAP1 PUSH2 0x100 EXP SWAP1 DIV PUSH4 0xFFFFFFFF AND DUP2 JUMP JUMPDEST PUSH1 0x0 PUSH32 0x0 SWAP1 POP SWAP1 JUMP JUMPDEST PUSH1 0x1 SLOAD DUP2 JUMP JUMPDEST PUSH2 0x22C PUSH2 0x787 JUMP JUMPDEST PUSH2 0x236 PUSH1 0x0 PUSH2 0x805 JUMP JUMPDEST JUMP JUMPDEST PUSH2 0x240 PUSH2 0x5B0 JUMP JUMPDEST TIMESTAMP LT ISZERO DUP1 PUSH2 0x250 JUMPI POP PUSH1 0x3 SLOAD NUMBER LT ISZERO JUMPDEST PUSH2 0x28F JUMPI PUSH1 0x40 MLOAD PUSH32 0x8C379A000000000000000000000000000000000000000000000000000000000 DUP2 MSTORE PUSH1 0x4 ADD PUSH2 0x286 SWAP1 PUSH2 0x1238 JUMP JUMPDEST PUSH1 0x40 MLOAD DUP1 SWAP2 SUB SWAP1 REVERT JUMPDEST PUSH1 0x0 PUSH32 0x0 TIMESTAMP LT PUSH2 0x2C3 JUMPI PUSH3 0xF4240 SWAP1 POP PUSH2 0x364 JUMP JUMPDEST PUSH2 0x361 PUSH32 0x0 PUSH32 0x0 PUSH2 0x312 SWAP2 SWAP1 PUSH2 0x14D9 JUMP JUMPDEST PUSH2 0x353 PUSH3 0xF4240 PUSH32 0x0 TIMESTAMP PUSH2 0x345 SWAP2 SWAP1 PUSH2 0x14D9 JUMP JUMPDEST PUSH2 0x8C9 SWAP1 SWAP2 SWAP1 PUSH4 0xFFFFFFFF AND JUMP JUMPDEST PUSH2 0x8DF SWAP1 SWAP2 SWAP1 PUSH4 0xFFFFFFFF AND JUMP JUMPDEST SWAP1 POP JUMPDEST PUSH1 0x0 PUSH32 0x0 PUSH20 0xFFFFFFFFFFFFFFFFFFFFFFFFFFFFFFFFFFFFFFFF AND PUSH4 0x70A08231 ADDRESS PUSH1 0x40 MLOAD DUP3 PUSH4 0xFFFFFFFF AND PUSH1 0xE0 SHL DUP2 MSTORE PUSH1 0x4 ADD PUSH2 0x3BF SWAP2 SWAP1 PUSH2 0x1177 JUMP JUMPDEST PUSH1 0x20 PUSH1 0x40 MLOAD DUP1 DUP4 SUB DUP2 DUP7 DUP1 EXTCODESIZE ISZERO DUP1 ISZERO PUSH2 0x3D7 JUMPI PUSH1 0x0 DUP1 REVERT JUMPDEST POP GAS STATICCALL ISZERO DUP1 ISZERO PUSH2 0x3EB JUMPI RETURNDATASIZE PUSH1 0x0 DUP1 RETURNDATACOPY RETURNDATASIZE PUSH1 0x0 REVERT JUMPDEST POP POP POP POP PUSH1 0x40 MLOAD RETURNDATASIZE PUSH1 0x1F NOT PUSH1 0x1F DUP3 ADD AND DUP3 ADD DUP1 PUSH1 0x40 MSTORE POP DUP2 ADD SWAP1 PUSH2 0x40F SWAP2 SWAP1 PUSH2 0xDAD JUMP JUMPDEST SWAP1 POP PUSH1 0x0 PUSH2 0x44F PUSH3 0xF4240 PUSH2 0x441 PUSH2 0x432 PUSH1 0x1 SLOAD DUP7 PUSH2 0x8F5 SWAP1 SWAP2 SWAP1 PUSH4 0xFFFFFFFF AND JUMP JUMPDEST DUP7 PUSH2 0x8C9 SWAP1 SWAP2 SWAP1 PUSH4 0xFFFFFFFF AND JUMP JUMPDEST PUSH2 0x8DF SWAP1 SWAP2 SWAP1 PUSH4 0xFFFFFFFF AND JUMP JUMPDEST SWAP1 POP PUSH1 0x0 PUSH1 0x1 SLOAD DUP3 GT PUSH2 0x463 JUMPI PUSH1 0x0 PUSH2 0x479 JUMP JUMPDEST PUSH2 0x478 PUSH1 0x1 SLOAD DUP4 PUSH2 0x90B SWAP1 SWAP2 SWAP1 PUSH4 0xFFFFFFFF AND JUMP JUMPDEST JUMPDEST SWAP1 POP PUSH1 0x0 DUP2 GT PUSH2 0x4BE JUMPI PUSH1 0x40 MLOAD PUSH32 0x8C379A000000000000000000000000000000000000000000000000000000000 DUP2 MSTORE PUSH1 0x4 ADD PUSH2 0x4B5 SWAP1 PUSH2 0x12D8 JUMP JUMPDEST PUSH1 0x40 MLOAD DUP1 SWAP2 SUB SWAP1 REVERT JUMPDEST PUSH2 0x4D3 DUP2 PUSH1 0x1 SLOAD PUSH2 0x8F5 SWAP1 SWAP2 SWAP1 PUSH4 0xFFFFFFFF AND JUMP JUMPDEST PUSH1 0x1 DUP2 SWAP1 SSTORE POP PUSH2 0x544 PUSH32 0x0 DUP3 PUSH32 0x0 PUSH20 0xFFFFFFFFFFFFFFFFFFFFFFFFFFFFFFFFFFFFFFFF AND PUSH2 0x921 SWAP1 SWAP3 SWAP2 SWAP1 PUSH4 0xFFFFFFFF AND JUMP JUMPDEST PUSH32 0xEA91EC69D9AB5A214205BAD93781970DF8C1F8FA5321A97B10A6CBBE99C29D9C DUP3 DUP3 PUSH1 0x1 SLOAD PUSH1 0x40 MLOAD PUSH2 0x579 SWAP4 SWAP3 SWAP2 SWAP1 PUSH2 0x1313 JUMP JUMPDEST PUSH1 0x40 MLOAD DUP1 SWAP2 SUB SWAP1 LOG1 POP POP POP POP JUMP JUMPDEST PUSH1 0x0 DUP1 PUSH1 0x0 SWAP1 SLOAD SWAP1 PUSH2 0x100 EXP SWAP1 DIV PUSH20 0xFFFFFFFFFFFFFFFFFFFFFFFFFFFFFFFFFFFFFFFF AND SWAP1 POP SWAP1 JUMP JUMPDEST PUSH1 0x0 PUSH32 0x0 SWAP1 POP SWAP1 JUMP JUMPDEST PUSH32 0x0 DUP2 JUMP JUMPDEST PUSH1 0x0 PUSH2 0x606 PUSH2 0x787 JUMP JUMPDEST PUSH1 0x0 DUP4 PUSH20 0xFFFFFFFFFFFFFFFFFFFFFFFFFFFFFFFFFFFFFFFF AND DUP4 PUSH1 0x40 MLOAD PUSH2 0x62D SWAP2 SWAP1 PUSH2 0x1160 JUMP JUMPDEST PUSH1 0x0 PUSH1 0x40 MLOAD DUP1 DUP4 SUB DUP2 DUP6 GAS DELEGATECALL SWAP2 POP POP RETURNDATASIZE DUP1 PUSH1 0x0 DUP2 EQ PUSH2 0x668 JUMPI PUSH1 0x40 MLOAD SWAP2 POP PUSH1 0x1F NOT PUSH1 0x3F RETURNDATASIZE ADD AND DUP3 ADD PUSH1 0x40 MSTORE RETURNDATASIZE DUP3 MSTORE RETURNDATASIZE PUSH1 0x0 PUSH1 0x20 DUP5 ADD RETURNDATACOPY PUSH2 0x66D JUMP JUMPDEST PUSH1 0x60 SWAP2 POP JUMPDEST POP POP SWAP1 POP DUP1 PUSH2 0x6B1 JUMPI PUSH1 0x40 MLOAD PUSH32 0x8C379A000000000000000000000000000000000000000000000000000000000 DUP2 MSTORE PUSH1 0x4 ADD PUSH2 0x6A8 SWAP1 PUSH2 0x1258 JUMP JUMPDEST PUSH1 0x40 MLOAD DUP1 SWAP2 SUB SWAP1 REVERT JUMPDEST PUSH32 0x0 SWAP2 POP POP SWAP3 SWAP2 POP POP JUMP JUMPDEST PUSH2 0x6E3 PUSH2 0x787 JUMP JUMPDEST PUSH1 0x0 PUSH20 0xFFFFFFFFFFFFFFFFFFFFFFFFFFFFFFFFFFFFFFFF AND DUP2 PUSH20 0xFFFFFFFFFFFFFFFFFFFFFFFFFFFFFFFFFFFFFFFF AND EQ ISZERO PUSH2 0x753 JUMPI PUSH1 0x40 MLOAD PUSH32 0x8C379A000000000000000000000000000000000000000000000000000000000 DUP2 MSTORE PUSH1 0x4 ADD PUSH2 0x74A SWAP1 PUSH2 0x11F8 JUMP JUMPDEST PUSH1 0x40 MLOAD DUP1 SWAP2 SUB SWAP1 REVERT JUMPDEST PUSH2 0x75C DUP2 PUSH2 0x805 JUMP JUMPDEST POP JUMP JUMPDEST PUSH1 0x0 PUSH32 0x0 SWAP1 POP SWAP1 JUMP JUMPDEST PUSH2 0x78F PUSH2 0x9A7 JUMP JUMPDEST PUSH20 0xFFFFFFFFFFFFFFFFFFFFFFFFFFFFFFFFFFFFFFFF AND PUSH2 0x7AD PUSH2 0x587 JUMP JUMPDEST PUSH20 0xFFFFFFFFFFFFFFFFFFFFFFFFFFFFFFFFFFFFFFFF AND EQ PUSH2 0x803 JUMPI PUSH1 0x40 MLOAD PUSH32 0x8C379A000000000000000000000000000000000000000000000000000000000 DUP2 MSTORE PUSH1 0x4 ADD PUSH2 0x7FA SWAP1 PUSH2 0x1278 JUMP JUMPDEST PUSH1 0x40 MLOAD DUP1 SWAP2 SUB SWAP1 REVERT JUMPDEST JUMP JUMPDEST PUSH1 0x0 DUP1 PUSH1 0x0 SWAP1 SLOAD SWAP1 PUSH2 0x100 EXP SWAP1 DIV PUSH20 0xFFFFFFFFFFFFFFFFFFFFFFFFFFFFFFFFFFFFFFFF AND SWAP1 POP DUP2 PUSH1 0x0 DUP1 PUSH2 0x100 EXP DUP2 SLOAD DUP2 PUSH20 0xFFFFFFFFFFFFFFFFFFFFFFFFFFFFFFFFFFFFFFFF MUL NOT AND SWAP1 DUP4 PUSH20 0xFFFFFFFFFFFFFFFFFFFFFFFFFFFFFFFFFFFFFFFF AND MUL OR SWAP1 SSTORE POP DUP2 PUSH20 0xFFFFFFFFFFFFFFFFFFFFFFFFFFFFFFFFFFFFFFFF AND DUP2 PUSH20 0xFFFFFFFFFFFFFFFFFFFFFFFFFFFFFFFFFFFFFFFF AND PUSH32 0x8BE0079C531659141344CD1FD0A4F28419497F9722A3DAAFE3B4186F6B6457E0 PUSH1 0x40 MLOAD PUSH1 0x40 MLOAD DUP1 SWAP2 SUB SWAP1 LOG3 POP POP JUMP JUMPDEST PUSH1 0x0 DUP2 DUP4 PUSH2 0x8D7 SWAP2 SWAP1 PUSH2 0x147F JUMP JUMPDEST SWAP1 POP SWAP3 SWAP2 POP POP JUMP JUMPDEST PUSH1 0x0 DUP2 DUP4 PUSH2 0x8ED SWAP2 SWAP1 PUSH2 0x144E JUMP JUMPDEST SWAP1 POP SWAP3 SWAP2 POP POP JUMP JUMPDEST PUSH1 0x0 DUP2 DUP4 PUSH2 0x903 SWAP2 SWAP1 PUSH2 0x13F8 JUMP JUMPDEST SWAP1 POP SWAP3 SWAP2 POP POP JUMP JUMPDEST PUSH1 0x0 DUP2 DUP4 PUSH2 0x919 SWAP2 SWAP1 PUSH2 0x14D9 JUMP JUMPDEST SWAP1 POP SWAP3 SWAP2 POP POP JUMP JUMPDEST PUSH2 0x9A2 DUP4 PUSH4 0xA9059CBB PUSH1 0xE0 SHL DUP5 DUP5 PUSH1 0x40 MLOAD PUSH1 0x24 ADD PUSH2 0x940 SWAP3 SWAP2 SWAP1 PUSH2 0x1192 JUMP JUMPDEST PUSH1 0x40 MLOAD PUSH1 0x20 DUP2 DUP4 SUB SUB DUP2 MSTORE SWAP1 PUSH1 0x40 MSTORE SWAP1 PUSH28 0xFFFFFFFFFFFFFFFFFFFFFFFFFFFFFFFFFFFFFFFFFFFFFFFFFFFFFFFF NOT AND PUSH1 0x20 DUP3 ADD DUP1 MLOAD PUSH28 0xFFFFFFFFFFFFFFFFFFFFFFFFFFFFFFFFFFFFFFFFFFFFFFFFFFFFFFFF DUP4 DUP2 DUP4 AND OR DUP4 MSTORE POP POP POP POP PUSH2 0x9AF JUMP JUMPDEST POP POP POP JUMP JUMPDEST PUSH1 0x0 CALLER SWAP1 POP SWAP1 JUMP JUMPDEST PUSH1 0x0 PUSH2 0xA11 DUP3 PUSH1 0x40 MLOAD DUP1 PUSH1 0x40 ADD PUSH1 0x40 MSTORE DUP1 PUSH1 0x20 DUP2 MSTORE PUSH1 0x20 ADD PUSH32 0x5361666545524332303A206C6F772D6C6576656C2063616C6C206661696C6564 DUP2 MSTORE POP DUP6 PUSH20 0xFFFFFFFFFFFFFFFFFFFFFFFFFFFFFFFFFFFFFFFF AND PUSH2 0xA76 SWAP1 SWAP3 SWAP2 SWAP1 PUSH4 0xFFFFFFFF AND JUMP JUMPDEST SWAP1 POP PUSH1 0x0 DUP2 MLOAD GT ISZERO PUSH2 0xA71 JUMPI DUP1 DUP1 PUSH1 0x20 ADD SWAP1 MLOAD DUP2 ADD SWAP1 PUSH2 0xA31 SWAP2 SWAP1 PUSH2 0xD84 JUMP JUMPDEST PUSH2 0xA70 JUMPI PUSH1 0x40 MLOAD PUSH32 0x8C379A000000000000000000000000000000000000000000000000000000000 DUP2 MSTORE PUSH1 0x4 ADD PUSH2 0xA67 SWAP1 PUSH2 0x12B8 JUMP JUMPDEST PUSH1 0x40 MLOAD DUP1 SWAP2 SUB SWAP1 REVERT JUMPDEST JUMPDEST POP POP POP JUMP JUMPDEST PUSH1 0x60 PUSH2 0xA85 DUP5 DUP5 PUSH1 0x0 DUP6 PUSH2 0xA8E JUMP JUMPDEST SWAP1 POP SWAP4 SWAP3 POP POP POP JUMP JUMPDEST PUSH1 0x60 DUP3 SELFBALANCE LT ISZERO PUSH2 0xAD3 JUMPI PUSH1 0x40 MLOAD PUSH32 0x8C379A000000000000000000000000000000000000000000000000000000000 DUP2 MSTORE PUSH1 0x4 ADD PUSH2 0xACA SWAP1 PUSH2 0x1218 JUMP JUMPDEST PUSH1 0x40 MLOAD DUP1 SWAP2 SUB SWAP1 REVERT JUMPDEST PUSH1 0x0 DUP1 DUP7 PUSH20 0xFFFFFFFFFFFFFFFFFFFFFFFFFFFFFFFFFFFFFFFF AND DUP6 DUP8 PUSH1 0x40 MLOAD PUSH2 0xAFC SWAP2 SWAP1 PUSH2 0x1160 JUMP JUMPDEST PUSH1 0x0 PUSH1 0x40 MLOAD DUP1 DUP4 SUB DUP2 DUP6 DUP8 GAS CALL SWAP3 POP POP POP RETURNDATASIZE DUP1 PUSH1 0x0 DUP2 EQ PUSH2 0xB39 JUMPI PUSH1 0x40 MLOAD SWAP2 POP PUSH1 0x1F NOT PUSH1 0x3F RETURNDATASIZE ADD AND DUP3 ADD PUSH1 0x40 MSTORE RETURNDATASIZE DUP3 MSTORE RETURNDATASIZE PUSH1 0x0 PUSH1 0x20 DUP5 ADD RETURNDATACOPY PUSH2 0xB3E JUMP JUMPDEST PUSH1 0x60 SWAP2 POP JUMPDEST POP SWAP2 POP SWAP2 POP PUSH2 0xB4F DUP8 DUP4 DUP4 DUP8 PUSH2 0xB5B JUMP JUMPDEST SWAP3 POP POP POP SWAP5 SWAP4 POP POP POP POP JUMP JUMPDEST PUSH1 0x60 DUP4 ISZERO PUSH2 0xBBE JUMPI PUSH1 0x0 DUP4 MLOAD EQ ISZERO PUSH2 0xBB6 JUMPI PUSH2 0xB76 DUP6 PUSH2 0xBD1 JUMP JUMPDEST PUSH2 0xBB5 JUMPI PUSH1 0x40 MLOAD PUSH32 0x8C379A000000000000000000000000000000000000000000000000000000000 DUP2 MSTORE PUSH1 0x4 ADD PUSH2 0xBAC SWAP1 PUSH2 0x1298 JUMP JUMPDEST PUSH1 0x40 MLOAD DUP1 SWAP2 SUB SWAP1 REVERT JUMPDEST JUMPDEST DUP3 SWAP1 POP PUSH2 0xBC9 JUMP JUMPDEST PUSH2 0xBC8 DUP4 DUP4 PUSH2 0xC10 JUMP JUMPDEST JUMPDEST SWAP5 SWAP4 POP POP POP POP JUMP JUMPDEST PUSH1 0x0 DUP1 DUP3 PUSH20 0xFFFFFFFFFFFFFFFFFFFFFFFFFFFFFFFFFFFFFFFF AND DUP1 EXTCODESIZE DUP1 PUSH1 0x20 ADD PUSH1 0x40 MLOAD SWAP1 DUP2 ADD PUSH1 0x40 MSTORE DUP2 DUP2 MSTORE PUSH1 0x0 SWAP1 DUP1 PUSH1 0x20 ADD SWAP1 SWAP4 EXTCODECOPY MLOAD GT SWAP1 POP SWAP2 SWAP1 POP JUMP JUMPDEST PUSH1 0x0 DUP3 MLOAD GT ISZERO PUSH2 0xC23 JUMPI DUP2 MLOAD DUP1 DUP4 PUSH1 0x20 ADD REVERT JUMPDEST DUP1 PUSH1 0x40 MLOAD PUSH32 0x8C379A000000000000000000000000000000000000000000000000000000000 DUP2 MSTORE PUSH1 0x4 ADD PUSH2 0xC57 SWAP2 SWAP1 PUSH2 0x11D6 JUMP JUMPDEST PUSH1 0x40 MLOAD DUP1 SWAP2 SUB SWAP1 REVERT JUMPDEST PUSH1 0x0 PUSH2 0xC73 PUSH2 0xC6E DUP5 PUSH2 0x1396 JUMP JUMPDEST PUSH2 0x1365 JUMP JUMPDEST SWAP1 POP DUP3 DUP2 MSTORE PUSH1 0x20 DUP2 ADD DUP5 DUP5 DUP5 ADD GT ISZERO PUSH2 0xC8B JUMPI PUSH1 0x0 DUP1 REVERT JUMPDEST PUSH2 0xC96 DUP5 DUP3 DUP6 PUSH2 0x1589 JUMP JUMPDEST POP SWAP4 SWAP3 POP POP POP JUMP JUMPDEST PUSH1 0x0 DUP2 CALLDATALOAD SWAP1 POP PUSH2 0xCAD DUP2 PUSH2 0x1669 JUMP JUMPDEST SWAP3 SWAP2 POP POP JUMP JUMPDEST PUSH1 0x0 DUP2 MLOAD SWAP1 POP PUSH2 0xCC2 DUP2 PUSH2 0x1680 JUMP JUMPDEST SWAP3 SWAP2 POP POP JUMP JUMPDEST PUSH1 0x0 DUP3 PUSH1 0x1F DUP4 ADD SLT PUSH2 0xCD9 JUMPI PUSH1 0x0 DUP1 REVERT JUMPDEST DUP2 CALLDATALOAD PUSH2 0xCE9 DUP5 DUP3 PUSH1 0x20 DUP7 ADD PUSH2 0xC60 JUMP JUMPDEST SWAP2 POP POP SWAP3 SWAP2 POP POP JUMP JUMPDEST PUSH1 0x0 DUP2 MLOAD SWAP1 POP PUSH2 0xD01 DUP2 PUSH2 0x1697 JUMP JUMPDEST SWAP3 SWAP2 POP POP JUMP JUMPDEST PUSH1 0x0 PUSH1 0x20 DUP3 DUP5 SUB SLT ISZERO PUSH2 0xD19 JUMPI PUSH1 0x0 DUP1 REVERT JUMPDEST PUSH1 0x0 PUSH2 0xD27 DUP5 DUP3 DUP6 ADD PUSH2 0xC9E JUMP JUMPDEST SWAP2 POP POP SWAP3 SWAP2 POP POP JUMP JUMPDEST PUSH1 0x0 DUP1 PUSH1 0x40 DUP4 DUP6 SUB SLT ISZERO PUSH2 0xD43 JUMPI PUSH1 0x0 DUP1 REVERT JUMPDEST PUSH1 0x0 PUSH2 0xD51 DUP6 DUP3 DUP7 ADD PUSH2 0xC9E JUMP JUMPDEST SWAP3 POP POP PUSH1 0x20 DUP4 ADD CALLDATALOAD PUSH8 0xFFFFFFFFFFFFFFFF DUP2 GT ISZERO PUSH2 0xD6E JUMPI PUSH1 0x0 DUP1 REVERT JUMPDEST PUSH2 0xD7A DUP6 DUP3 DUP7 ADD PUSH2 0xCC8 JUMP JUMPDEST SWAP2 POP POP SWAP3 POP SWAP3 SWAP1 POP JUMP JUMPDEST PUSH1 0x0 PUSH1 0x20 DUP3 DUP5 SUB SLT ISZERO PUSH2 0xD96 JUMPI PUSH1 0x0 DUP1 REVERT JUMPDEST PUSH1 0x0 PUSH2 0xDA4 DUP5 DUP3 DUP6 ADD PUSH2 0xCB3 JUMP JUMPDEST SWAP2 POP POP SWAP3 SWAP2 POP POP JUMP JUMPDEST PUSH1 0x0 PUSH1 0x20 DUP3 DUP5 SUB SLT ISZERO PUSH2 0xDBF JUMPI PUSH1 0x0 DUP1 REVERT JUMPDEST PUSH1 0x0 PUSH2 0xDCD DUP5 DUP3 DUP6 ADD PUSH2 0xCF2 JUMP JUMPDEST SWAP2 POP POP SWAP3 SWAP2 POP POP JUMP JUMPDEST PUSH2 0xDDF DUP2 PUSH2 0x150D JUMP JUMPDEST DUP3 MSTORE POP POP JUMP JUMPDEST PUSH1 0x0 PUSH2 0xDF0 DUP3 PUSH2 0x13C6 JUMP JUMPDEST PUSH2 0xDFA DUP2 DUP6 PUSH2 0x13DC JUMP JUMPDEST SWAP4 POP PUSH2 0xE0A DUP2 DUP6 PUSH1 0x20 DUP7 ADD PUSH2 0x1598 JUMP JUMPDEST DUP1 DUP5 ADD SWAP2 POP POP SWAP3 SWAP2 POP POP JUMP JUMPDEST PUSH2 0xE1F DUP2 PUSH2 0x1565 JUMP JUMPDEST DUP3 MSTORE POP POP JUMP JUMPDEST PUSH1 0x0 PUSH2 0xE30 DUP3 PUSH2 0x13D1 JUMP JUMPDEST PUSH2 0xE3A DUP2 DUP6 PUSH2 0x13E7 JUMP JUMPDEST SWAP4 POP PUSH2 0xE4A DUP2 DUP6 PUSH1 0x20 DUP7 ADD PUSH2 0x1598 JUMP JUMPDEST PUSH2 0xE53 DUP2 PUSH2 0x1658 JUMP JUMPDEST DUP5 ADD SWAP2 POP POP SWAP3 SWAP2 POP POP JUMP JUMPDEST PUSH1 0x0 PUSH2 0xE6B PUSH1 0x26 DUP4 PUSH2 0x13E7 JUMP JUMPDEST SWAP2 POP PUSH32 0x4F776E61626C653A206E6577206F776E657220697320746865207A65726F2061 PUSH1 0x0 DUP4 ADD MSTORE PUSH32 0x6464726573730000000000000000000000000000000000000000000000000000 PUSH1 0x20 DUP4 ADD MSTORE PUSH1 0x40 DUP3 ADD SWAP1 POP SWAP2 SWAP1 POP JUMP JUMPDEST PUSH1 0x0 PUSH2 0xED1 PUSH1 0x26 DUP4 PUSH2 0x13E7 JUMP JUMPDEST SWAP2 POP PUSH32 0x416464726573733A20696E73756666696369656E742062616C616E636520666F PUSH1 0x0 DUP4 ADD MSTORE PUSH32 0x722063616C6C0000000000000000000000000000000000000000000000000000 PUSH1 0x20 DUP4 ADD MSTORE PUSH1 0x40 DUP3 ADD SWAP1 POP SWAP2 SWAP1 POP JUMP JUMPDEST PUSH1 0x0 PUSH2 0xF37 PUSH1 0x48 DUP4 PUSH2 0x13E7 JUMP JUMPDEST SWAP2 POP PUSH32 0x546F6B656E54696D656C6F636B3A2063757272656E742074696D65206F722062 PUSH1 0x0 DUP4 ADD MSTORE PUSH32 0x6C6F636B206E756D626572206973206265666F72652072656C6561736520636F PUSH1 0x20 DUP4 ADD MSTORE PUSH32 0x6E646974696F6E73000000000000000000000000000000000000000000000000 PUSH1 0x40 DUP4 ADD MSTORE PUSH1 0x60 DUP3 ADD SWAP1 POP SWAP2 SWAP1 POP JUMP JUMPDEST PUSH1 0x0 PUSH2 0xFC3 PUSH1 0x6 DUP4 PUSH2 0x13E7 JUMP JUMPDEST SWAP2 POP PUSH32 0x6661696C65640000000000000000000000000000000000000000000000000000 PUSH1 0x0 DUP4 ADD MSTORE PUSH1 0x20 DUP3 ADD SWAP1 POP SWAP2 SWAP1 POP JUMP JUMPDEST PUSH1 0x0 PUSH2 0x1003 PUSH1 0x20 DUP4 PUSH2 0x13E7 JUMP JUMPDEST SWAP2 POP PUSH32 0x4F776E61626C653A2063616C6C6572206973206E6F7420746865206F776E6572 PUSH1 0x0 DUP4 ADD MSTORE PUSH1 0x20 DUP3 ADD SWAP1 POP SWAP2 SWAP1 POP JUMP JUMPDEST PUSH1 0x0 PUSH2 0x1043 PUSH1 0x1D DUP4 PUSH2 0x13E7 JUMP JUMPDEST SWAP2 POP PUSH32 0x416464726573733A2063616C6C20746F206E6F6E2D636F6E7472616374000000 PUSH1 0x0 DUP4 ADD MSTORE PUSH1 0x20 DUP3 ADD SWAP1 POP SWAP2 SWAP1 POP JUMP JUMPDEST PUSH1 0x0 PUSH2 0x1083 PUSH1 0x2A DUP4 PUSH2 0x13E7 JUMP JUMPDEST SWAP2 POP PUSH32 0x5361666545524332303A204552433230206F7065726174696F6E20646964206E PUSH1 0x0 DUP4 ADD MSTORE PUSH32 0x6F74207375636365656400000000000000000000000000000000000000000000 PUSH1 0x20 DUP4 ADD MSTORE PUSH1 0x40 DUP3 ADD SWAP1 POP SWAP2 SWAP1 POP JUMP JUMPDEST PUSH1 0x0 PUSH2 0x10E9 PUSH1 0x23 DUP4 PUSH2 0x13E7 JUMP JUMPDEST SWAP2 POP PUSH32 0x546F6B656E54696D656C6F636B3A206E6F20746F6B656E7320746F2072656C65 PUSH1 0x0 DUP4 ADD MSTORE PUSH32 0x6173650000000000000000000000000000000000000000000000000000000000 PUSH1 0x20 DUP4 ADD MSTORE PUSH1 0x40 DUP3 ADD SWAP1 POP SWAP2 SWAP1 POP JUMP JUMPDEST PUSH2 0x114B DUP2 PUSH2 0x154B JUMP JUMPDEST DUP3 MSTORE POP POP JUMP JUMPDEST PUSH2 0x115A DUP2 PUSH2 0x1555 JUMP JUMPDEST DUP3 MSTORE POP POP JUMP JUMPDEST PUSH1 0x0 PUSH2 0x116C DUP3 DUP5 PUSH2 0xDE5 JUMP JUMPDEST SWAP2 POP DUP2 SWAP1 POP SWAP3 SWAP2 POP POP JUMP JUMPDEST PUSH1 0x0 PUSH1 0x20 DUP3 ADD SWAP1 POP PUSH2 0x118C PUSH1 0x0 DUP4 ADD DUP5 PUSH2 0xDD6 JUMP JUMPDEST SWAP3 SWAP2 POP POP JUMP JUMPDEST PUSH1 0x0 PUSH1 0x40 DUP3 ADD SWAP1 POP PUSH2 0x11A7 PUSH1 0x0 DUP4 ADD DUP6 PUSH2 0xDD6 JUMP JUMPDEST PUSH2 0x11B4 PUSH1 0x20 DUP4 ADD DUP5 PUSH2 0x1142 JUMP JUMPDEST SWAP4 SWAP3 POP POP POP JUMP JUMPDEST PUSH1 0x0 PUSH1 0x20 DUP3 ADD SWAP1 POP PUSH2 0x11D0 PUSH1 0x0 DUP4 ADD DUP5 PUSH2 0xE16 JUMP JUMPDEST SWAP3 SWAP2 POP POP JUMP JUMPDEST PUSH1 0x0 PUSH1 0x20 DUP3 ADD SWAP1 POP DUP2 DUP2 SUB PUSH1 0x0 DUP4 ADD MSTORE PUSH2 0x11F0 DUP2 DUP5 PUSH2 0xE25 JUMP JUMPDEST SWAP1 POP SWAP3 SWAP2 POP POP JUMP JUMPDEST PUSH1 0x0 PUSH1 0x20 DUP3 ADD SWAP1 POP DUP2 DUP2 SUB PUSH1 0x0 DUP4 ADD MSTORE PUSH2 0x1211 DUP2 PUSH2 0xE5E JUMP JUMPDEST SWAP1 POP SWAP2 SWAP1 POP JUMP JUMPDEST PUSH1 0x0 PUSH1 0x20 DUP3 ADD SWAP1 POP DUP2 DUP2 SUB PUSH1 0x0 DUP4 ADD MSTORE PUSH2 0x1231 DUP2 PUSH2 0xEC4 JUMP JUMPDEST SWAP1 POP SWAP2 SWAP1 POP JUMP JUMPDEST PUSH1 0x0 PUSH1 0x20 DUP3 ADD SWAP1 POP DUP2 DUP2 SUB PUSH1 0x0 DUP4 ADD MSTORE PUSH2 0x1251 DUP2 PUSH2 0xF2A JUMP JUMPDEST SWAP1 POP SWAP2 SWAP1 POP JUMP JUMPDEST PUSH1 0x0 PUSH1 0x20 DUP3 ADD SWAP1 POP DUP2 DUP2 SUB PUSH1 0x0 DUP4 ADD MSTORE PUSH2 0x1271 DUP2 PUSH2 0xFB6 JUMP JUMPDEST SWAP1 POP SWAP2 SWAP1 POP JUMP JUMPDEST PUSH1 0x0 PUSH1 0x20 DUP3 ADD SWAP1 POP DUP2 DUP2 SUB PUSH1 0x0 DUP4 ADD MSTORE PUSH2 0x1291 DUP2 PUSH2 0xFF6 JUMP JUMPDEST SWAP1 POP SWAP2 SWAP1 POP JUMP JUMPDEST PUSH1 0x0 PUSH1 0x20 DUP3 ADD SWAP1 POP DUP2 DUP2 SUB PUSH1 0x0 DUP4 ADD MSTORE PUSH2 0x12B1 DUP2 PUSH2 0x1036 JUMP JUMPDEST SWAP1 POP SWAP2 SWAP1 POP JUMP JUMPDEST PUSH1 0x0 PUSH1 0x20 DUP3 ADD SWAP1 POP DUP2 DUP2 SUB PUSH1 0x0 DUP4 ADD MSTORE PUSH2 0x12D1 DUP2 PUSH2 0x1076 JUMP JUMPDEST SWAP1 POP SWAP2 SWAP1 POP JUMP JUMPDEST PUSH1 0x0 PUSH1 0x20 DUP3 ADD SWAP1 POP DUP2 DUP2 SUB PUSH1 0x0 DUP4 ADD MSTORE PUSH2 0x12F1 DUP2 PUSH2 0x10DC JUMP JUMPDEST SWAP1 POP SWAP2 SWAP1 POP JUMP JUMPDEST PUSH1 0x0 PUSH1 0x20 DUP3 ADD SWAP1 POP PUSH2 0x130D PUSH1 0x0 DUP4 ADD DUP5 PUSH2 0x1142 JUMP JUMPDEST SWAP3 SWAP2 POP POP JUMP JUMPDEST PUSH1 0x0 PUSH1 0x60 DUP3 ADD SWAP1 POP PUSH2 0x1328 PUSH1 0x0 DUP4 ADD DUP7 PUSH2 0x1142 JUMP JUMPDEST PUSH2 0x1335 PUSH1 0x20 DUP4 ADD DUP6 PUSH2 0x1142 JUMP JUMPDEST PUSH2 0x1342 PUSH1 0x40 DUP4 ADD DUP5 PUSH2 0x1142 JUMP JUMPDEST SWAP5 SWAP4 POP POP POP POP JUMP JUMPDEST PUSH1 0x0 PUSH1 0x20 DUP3 ADD SWAP1 POP PUSH2 0x135F PUSH1 0x0 DUP4 ADD DUP5 PUSH2 0x1151 JUMP JUMPDEST SWAP3 SWAP2 POP POP JUMP JUMPDEST PUSH1 0x0 PUSH1 0x40 MLOAD SWAP1 POP DUP2 DUP2 ADD DUP2 DUP2 LT PUSH8 0xFFFFFFFFFFFFFFFF DUP3 GT OR ISZERO PUSH2 0x138C JUMPI PUSH2 0x138B PUSH2 0x1629 JUMP JUMPDEST JUMPDEST DUP1 PUSH1 0x40 MSTORE POP SWAP2 SWAP1 POP JUMP JUMPDEST PUSH1 0x0 PUSH8 0xFFFFFFFFFFFFFFFF DUP3 GT ISZERO PUSH2 0x13B1 JUMPI PUSH2 0x13B0 PUSH2 0x1629 JUMP JUMPDEST JUMPDEST PUSH1 0x1F NOT PUSH1 0x1F DUP4 ADD AND SWAP1 POP PUSH1 0x20 DUP2 ADD SWAP1 POP SWAP2 SWAP1 POP JUMP JUMPDEST PUSH1 0x0 DUP2 MLOAD SWAP1 POP SWAP2 SWAP1 POP JUMP JUMPDEST PUSH1 0x0 DUP2 MLOAD SWAP1 POP SWAP2 SWAP1 POP JUMP JUMPDEST PUSH1 0x0 DUP2 SWAP1 POP SWAP3 SWAP2 POP POP JUMP JUMPDEST PUSH1 0x0 DUP3 DUP3 MSTORE PUSH1 0x20 DUP3 ADD SWAP1 POP SWAP3 SWAP2 POP POP JUMP JUMPDEST PUSH1 0x0 PUSH2 0x1403 DUP3 PUSH2 0x154B JUMP JUMPDEST SWAP2 POP PUSH2 0x140E DUP4 PUSH2 0x154B JUMP JUMPDEST SWAP3 POP DUP3 PUSH32 0xFFFFFFFFFFFFFFFFFFFFFFFFFFFFFFFFFFFFFFFFFFFFFFFFFFFFFFFFFFFFFFFF SUB DUP3 GT ISZERO PUSH2 0x1443 JUMPI PUSH2 0x1442 PUSH2 0x15CB JUMP JUMPDEST JUMPDEST DUP3 DUP3 ADD SWAP1 POP SWAP3 SWAP2 POP POP JUMP JUMPDEST PUSH1 0x0 PUSH2 0x1459 DUP3 PUSH2 0x154B JUMP JUMPDEST SWAP2 POP PUSH2 0x1464 DUP4 PUSH2 0x154B JUMP JUMPDEST SWAP3 POP DUP3 PUSH2 0x1474 JUMPI PUSH2 0x1473 PUSH2 0x15FA JUMP JUMPDEST JUMPDEST DUP3 DUP3 DIV SWAP1 POP SWAP3 SWAP2 POP POP JUMP JUMPDEST PUSH1 0x0 PUSH2 0x148A DUP3 PUSH2 0x154B JUMP JUMPDEST SWAP2 POP PUSH2 0x1495 DUP4 PUSH2 0x154B JUMP JUMPDEST SWAP3 POP DUP2 PUSH32 0xFFFFFFFFFFFFFFFFFFFFFFFFFFFFFFFFFFFFFFFFFFFFFFFFFFFFFFFFFFFFFFFF DIV DUP4 GT DUP3 ISZERO ISZERO AND ISZERO PUSH2 0x14CE JUMPI PUSH2 0x14CD PUSH2 0x15CB JUMP JUMPDEST JUMPDEST DUP3 DUP3 MUL SWAP1 POP SWAP3 SWAP2 POP POP JUMP JUMPDEST PUSH1 0x0 PUSH2 0x14E4 DUP3 PUSH2 0x154B JUMP JUMPDEST SWAP2 POP PUSH2 0x14EF DUP4 PUSH2 0x154B JUMP JUMPDEST SWAP3 POP DUP3 DUP3 LT ISZERO PUSH2 0x1502 JUMPI PUSH2 0x1501 PUSH2 0x15CB JUMP JUMPDEST JUMPDEST DUP3 DUP3 SUB SWAP1 POP SWAP3 SWAP2 POP POP JUMP JUMPDEST PUSH1 0x0 PUSH2 0x1518 DUP3 PUSH2 0x152B JUMP JUMPDEST SWAP1 POP SWAP2 SWAP1 POP JUMP JUMPDEST PUSH1 0x0 DUP2 ISZERO ISZERO SWAP1 POP SWAP2 SWAP1 POP JUMP JUMPDEST PUSH1 0x0 PUSH20 0xFFFFFFFFFFFFFFFFFFFFFFFFFFFFFFFFFFFFFFFF DUP3 AND SWAP1 POP SWAP2 SWAP1 POP JUMP JUMPDEST PUSH1 0x0 DUP2 SWAP1 POP SWAP2 SWAP1 POP JUMP JUMPDEST PUSH1 0x0 PUSH4 0xFFFFFFFF DUP3 AND SWAP1 POP SWAP2 SWAP1 POP JUMP JUMPDEST PUSH1 0x0 PUSH2 0x1570 DUP3 PUSH2 0x1577 JUMP JUMPDEST SWAP1 POP SWAP2 SWAP1 POP JUMP JUMPDEST PUSH1 0x0 PUSH2 0x1582 DUP3 PUSH2 0x152B JUMP JUMPDEST SWAP1 POP SWAP2 SWAP1 POP JUMP JUMPDEST DUP3 DUP2 DUP4 CALLDATACOPY PUSH1 0x0 DUP4 DUP4 ADD MSTORE POP POP POP JUMP JUMPDEST PUSH1 0x0 JUMPDEST DUP4 DUP2 LT ISZERO PUSH2 0x15B6 JUMPI DUP1 DUP3 ADD MLOAD DUP2 DUP5 ADD MSTORE PUSH1 0x20 DUP2 ADD SWAP1 POP PUSH2 0x159B JUMP JUMPDEST DUP4 DUP2 GT ISZERO PUSH2 0x15C5 JUMPI PUSH1 0x0 DUP5 DUP5 ADD MSTORE JUMPDEST POP POP POP POP JUMP JUMPDEST PUSH32 0x4E487B7100000000000000000000000000000000000000000000000000000000 PUSH1 0x0 MSTORE PUSH1 0x11 PUSH1 0x4 MSTORE PUSH1 0x24 PUSH1 0x0 REVERT JUMPDEST PUSH32 0x4E487B7100000000000000000000000000000000000000000000000000000000 PUSH1 0x0 MSTORE PUSH1 0x12 PUSH1 0x4 MSTORE PUSH1 0x24 PUSH1 0x0 REVERT JUMPDEST PUSH32 0x4E487B7100000000000000000000000000000000000000000000000000000000 PUSH1 0x0 MSTORE PUSH1 0x41 PUSH1 0x4 MSTORE PUSH1 0x24 PUSH1 0x0 REVERT JUMPDEST PUSH1 0x0 PUSH1 0x1F NOT PUSH1 0x1F DUP4 ADD AND SWAP1 POP SWAP2 SWAP1 POP JUMP JUMPDEST PUSH2 0x1672 DUP2 PUSH2 0x150D JUMP JUMPDEST DUP2 EQ PUSH2 0x167D JUMPI PUSH1 0x0 DUP1 REVERT JUMPDEST POP JUMP JUMPDEST PUSH2 0x1689 DUP2 PUSH2 0x151F JUMP JUMPDEST DUP2 EQ PUSH2 0x1694 JUMPI PUSH1 0x0 DUP1 REVERT JUMPDEST POP JUMP JUMPDEST PUSH2 0x16A0 DUP2 PUSH2 0x154B JUMP JUMPDEST DUP2 EQ PUSH2 0x16AB JUMPI PUSH1 0x0 DUP1 REVERT JUMPDEST POP JUMP INVALID LOG2 PUSH5 0x6970667358 0x22 SLT KECCAK256 JUMP 0xB3 0x25 0xB4 SIGNEXTEND PUSH23 0x637AB2ECB5B16AD1DC3DABDCB32EE75DEF6E12AEFCAADB 0xAB MSIZE 0x4A PUSH5 0x736F6C6343 STOP ADDMOD STOP STOP CALLER "},"methodIdentifiers":{"addAddress(address)":"38eada1c","addProtector(address)":"0351b22b","addWhitelisted(address)":"10154bad","addressList(address)":"d299aa07","allowance(address,address)":"dd62ed3e","approve(address,uint256)":"095ea7b3","balanceOf(address)":"70a08231","burn(uint256)":"42966c68","burnFrom(address,uint256)":"79cc6790","checkState(bytes)":"3660943d","constantVal()":"205d15b6","decimals()":"313ce567","decreaseAllowance(address,uint256)":"a457c2d7","getSold(address,bytes)":"f8d0daa6","gracePeriod()":"a06db7dc","increaseAllowance(address,uint256)":"39509351","initializeTeamTokenTimelock()":"a28e9c48","interval()":"947a36fb","isInQueue(address)":"d71437cb","isWhitelisted(address)":"3af32abf","mintCommunityMarketing(address,uint256)":"848c2539","mintInGameRewards(address,uint256)":"ffafe738","mintReserveFund(address,uint256)":"771e2bc6","mintStakingLiquidity(address,uint256)":"3c638e09","mintTokenSinks(address,uint256)":"ca3939f4","name()":"06fdde03","owner()":"8da5cb5b","pause()":"8456cb59","paused()":"5c975abb","queue(uint256)":"ddf0b009","queueSize()":"bae6c2ad","removeWhitelisted(address)":"291d9549","renounceOwnership()":"715018a6","setInterval(uint256)":"22a90082","switchcap(bool)":"5bfeb9c1","symbol()":"95d89b41","teamTokenTimelock()":"322a8957","teamTokenTimelockAddr()":"4f7e94e4","totalSupply()":"18160ddd","transfer(address,uint256)":"a9059cbb","transferFrom(address,address,uint256)":"23b872dd","transferOwnership(address)":"f2fde38b","unpause()":"3f4ba83a"}}}}}