{"contracts/Baccarat.sol":{"Baccarat":{"abi":[{"inputs":[],"stateMutability":"nonpayable","type":"constructor"},{"anonymous":false,"inputs":[{"indexed":false,"internalType":"uint8","name":"playerTotal","type":"uint8"},{"indexed":false,"internalType":"uint8","name":"bankerTotal","type":"uint8"},{"indexed":false,"internalType":"uint8","name":"winner","type":"uint8"}],"name":"GameFinished","type":"event"},{"anonymous":false,"inputs":[{"indexed":false,"internalType":"uint8","name":"v1","type":"uint8"},{"indexed":false,"internalType":"uint8","name":"v2","type":"uint8"},{"indexed":false,"internalType":"uint32","name":"v3","type":"uint32"},{"indexed":false,"internalType":"bytes32","name":"str","type":"bytes32"}],"name":"Monitor","type":"event"},{"inputs":[{"internalType":"uint8[3]","name":"cards","type":"uint8[3]"},{"internalType":"uint8","name":"cardCount","type":"uint8"}],"name":"calculateTotal","outputs":[{"internalType":"uint8","name":"","type":"uint8"}],"stateMutability":"pure","type":"function"},{"inputs":[],"name":"deal","outputs":[{"internalType":"uint8[]","name":"","type":"uint8[]"},{"internalType":"uint8[]","name":"","type":"uint8[]"},{"internalType":"uint8","name":"","type":"uint8"},{"internalType":"uint8","name":"","type":"uint8"},{"internalType":"uint8","name":"","type":"uint8"}],"stateMutability":"nonpayable","type":"function"},{"inputs":[{"internalType":"uint256","name":"param","type":"uint256"}],"name":"getRandomNumber","outputs":[{"internalType":"uint8","name":"","type":"uint8"}],"stateMutability":"view","type":"function"}],"evm":{"bytecode":{"linkReferences":{},"object":"608060405234801561001057600080fd5b506110d9806100206000396000f3fe608060405234801561001057600080fd5b50600436106100415760003560e01c8063553df02114610046578063b37217a414610068578063f795746614610098575b600080fd5b61004e6100c8565b60405161005f959493929190610d30565b60405180910390f35b610082600480360381019061007d9190610c1f565b61083e565b60405161008f9190610d91565b60405180910390f35b6100b260048036038101906100ad9190610be3565b6108a6565b6040516100bf9190610d91565b60405180910390f35b606080600080600080600090505b60028160ff1610156101f75761010660018260026100f49190610f00565b6100fe9190610ec9565b60ff1661083e565b60008260ff1660038110610143577f4e487b7100000000000000000000000000000000000000000000000000000000600052603260045260246000fd5b602091828204019190066101000a81548160ff021916908360ff16021790555061018760028260026101759190610f00565b61017f9190610ec9565b60ff1661083e565b60018260ff16600381106101c4577f4e487b7100000000000000000000000000000000000000000000000000000000600052603260045260246000fd5b602091828204019190066101000a81548160ff021916908360ff16021790555080806101ef90610f52565b9150506100d6565b50610266600060038060200260405190810160405280929190826003801561025a576020028201916000905b82829054906101000a900460ff1660ff16815260200190600101906020826000010492830192600103820291508084116102235790505b505050505060026108a6565b600260006101000a81548160ff021916908360ff1602179055506102ee60016003806020026040519081016040528092919082600380156102e2576020028201916000905b82829054906101000a900460ff1660ff16815260200190600101906020826000010492830192600103820291508084116102ab5790505b505050505060026108a6565b600260016101000a81548160ff021916908360ff1602179055506000806005600260009054906101000a900460ff1660ff161115801561035d57506005600260019054906101000a900460ff1660ff16118061035c57506008600260019054906101000a900460ff1660ff16105b5b156104575760019150610370600561083e565b90508060006002600381106103ae577f4e487b7100000000000000000000000000000000000000000000000000000000600052603260045260246000fd5b602091828204019190066101000a81548160ff021916908360ff16021790555061043c6000600380602002604051908101604052809291908260038015610430576020028201916000905b82829054906101000a900460ff1660ff16815260200190600101906020826000010492830192600103820291508084116103f95790505b505050505060036108a6565b600260006101000a81548160ff021916908360ff1602179055505b600060028060019054906101000a900460ff1660ff161161047b57600190506105b7565b6003600260019054906101000a900460ff1660ff161480156104b357508215806104b257508280156104b1575060088260ff1614155b5b5b156104c157600190506105b6565b6004600260019054906101000a900460ff1660ff16148015610509575082158061050857508280156104f7575060028260ff1610155b8015610507575060078260ff1611155b5b5b1561051757600190506105b5565b6005600260019054906101000a900460ff1660ff1614801561055f575082158061055e575082801561054d575060048260ff1610155b801561055d575060078260ff1611155b5b5b1561056d57600190506105b4565b6006600260019054906101000a900460ff1660ff1614801561058c5750825b80156105a9575060068260ff1614806105a8575060078260ff16145b5b156105b357600190505b5b5b5b5b80156106ab576105c7600661083e565b6001600260038110610602577f4e487b7100000000000000000000000000000000000000000000000000000000600052603260045260246000fd5b602091828204019190066101000a81548160ff021916908360ff1602179055506106906001600380602002604051908101604052809291908260038015610684576020028201916000905b82829054906101000a900460ff1660ff168152602001906001019060208260000104928301926001038202915080841161064d5790505b505050505060036108a6565b600260016101000a81548160ff021916908360ff1602179055505b60006106d5600260009054906101000a900460ff16600260019054906101000a900460ff1661098f565b90507fdce81b38bd716417c9dadf9888d5fbb13cb45f8b16e7be4469e886b57ebe94ce600260009054906101000a900460ff16600260019054906101000a900460ff168360405161072893929190610dac565b60405180910390a161079c6000600380602002604051908101604052809291908260038015610792576020028201916000905b82829054906101000a900460ff1660ff168152602001906001019060208260000104928301926001038202915080841161075b5790505b50505050506109ca565b61080860016003806020026040519081016040528092919082600380156107fe576020028201916000905b82829054906101000a900460ff1660ff16815260200190600101906020826000010492830192600103820291508084116107c75790505b50505050506109ca565b600260009054906101000a900460ff16600260019054906101000a900460ff168498509850985098509850505050509091929394565b60008042448460405160200161085693929190610cf3565b6040516020818303038152906040528051906020012060001c9050600061089a600161088c600d85610b0390919063ffffffff16565b610b1990919063ffffffff16565b90508092505050919050565b6000806000905060005b8360ff168160ff161015610978576000858260ff16600381106108fc577f4e487b7100000000000000000000000000000000000000000000000000000000600052603260045260246000fd5b60200201519050600a8160ff161015801561091b5750600d8160ff1611155b156109345760008361092d9190610ec9565b9250610964565b60018160ff1614156109545760018361094d9190610ec9565b9250610963565b80836109609190610ec9565b92505b5b50808061097090610f52565b9150506108b0565b50600a816109869190610fb7565b91505092915050565b60008160ff168360ff1611156109a857600190506109c4565b8160ff168360ff1610156109bf57600290506109c4565b600090505b92915050565b60606000600360ff1667ffffffffffffffff811115610a12577f4e487b7100000000000000000000000000000000000000000000000000000000600052604160045260246000fd5b604051908082528060200260200182016040528015610a405781602001602082028036833780820191505090505b50905060005b600360ff168160ff161015610af957838160ff1660038110610a91577f4e487b7100000000000000000000000000000000000000000000000000000000600052603260045260246000fd5b6020020151828260ff1681518110610ad2577f4e487b7100000000000000000000000000000000000000000000000000000000600052603260045260246000fd5b602002602001019060ff16908160ff16815250508080610af190610f52565b915050610a46565b5080915050919050565b60008183610b119190610f86565b905092915050565b60008183610b279190610e73565b905092915050565b6000610b42610b3d84610e14565b610de3565b90508082856020860282011115610b5857600080fd5b60005b85811015610b885781610b6e8882610bce565b845260208401935060208301925050600181019050610b5b565b5050509392505050565b600082601f830112610ba357600080fd5b6003610bb0848285610b2f565b91505092915050565b600081359050610bc881611075565b92915050565b600081359050610bdd8161108c565b92915050565b60008060808385031215610bf657600080fd5b6000610c0485828601610b92565b9250506060610c1585828601610bce565b9150509250929050565b600060208284031215610c3157600080fd5b6000610c3f84828501610bb9565b91505092915050565b6000610c548383610cd5565b60208301905092915050565b6000610c6b82610e4a565b610c758185610e62565b9350610c8083610e3a565b8060005b83811015610cb1578151610c988882610c48565b9750610ca383610e55565b925050600181019050610c84565b5085935050505092915050565b610ccf610cca82610f3b565b610f7c565b82525050565b610cde81610f45565b82525050565b610ced81610f45565b82525050565b6000610cff8286610cbe565b602082019150610d0f8285610cbe565b602082019150610d1f8284610cbe565b602082019150819050949350505050565b600060a0820190508181036000830152610d4a8188610c60565b90508181036020830152610d5e8187610c60565b9050610d6d6040830186610ce4565b610d7a6060830185610ce4565b610d876080830184610ce4565b9695505050505050565b6000602082019050610da66000830184610ce4565b92915050565b6000606082019050610dc16000830186610ce4565b610dce6020830185610ce4565b610ddb6040830184610ce4565b949350505050565b6000604051905081810181811067ffffffffffffffff82111715610e0a57610e09611046565b5b8060405250919050565b600067ffffffffffffffff821115610e2f57610e2e611046565b5b602082029050919050565b6000819050602082019050919050565b600081519050919050565b6000602082019050919050565b600082825260208201905092915050565b6000610e7e82610f3b565b9150610e8983610f3b565b9250827fffffffffffffffffffffffffffffffffffffffffffffffffffffffffffffffff03821115610ebe57610ebd610fe8565b5b828201905092915050565b6000610ed482610f45565b9150610edf83610f45565b92508260ff03821115610ef557610ef4610fe8565b5b828201905092915050565b6000610f0b82610f45565b9150610f1683610f45565b92508160ff0483118215151615610f3057610f2f610fe8565b5b828202905092915050565b6000819050919050565b600060ff82169050919050565b6000610f5d82610f45565b915060ff821415610f7157610f70610fe8565b5b600182019050919050565b6000819050919050565b6000610f9182610f3b565b9150610f9c83610f3b565b925082610fac57610fab611017565b5b828206905092915050565b6000610fc282610f45565b9150610fcd83610f45565b925082610fdd57610fdc611017565b5b828206905092915050565b7f4e487b7100000000000000000000000000000000000000000000000000000000600052601160045260246000fd5b7f4e487b7100000000000000000000000000000000000000000000000000000000600052601260045260246000fd5b7f4e487b7100000000000000000000000000000000000000000000000000000000600052604160045260246000fd5b61107e81610f3b565b811461108957600080fd5b50565b61109581610f45565b81146110a057600080fd5b5056fea2646970667358221220b83630ff58b242de366719dfc707c12641fec2b609ea04228785ac5ca6d05be164736f6c63430008000033","opcodes":"PUSH1 0x80 PUSH1 0x40 MSTORE CALLVALUE DUP1 ISZERO PUSH2 0x10 JUMPI PUSH1 0x0 DUP1 REVERT JUMPDEST POP PUSH2 0x10D9 DUP1 PUSH2 0x20 PUSH1 0x0 CODECOPY PUSH1 0x0 RETURN INVALID PUSH1 0x80 PUSH1 0x40 MSTORE CALLVALUE DUP1 ISZERO PUSH2 0x10 JUMPI PUSH1 0x0 DUP1 REVERT JUMPDEST POP PUSH1 0x4 CALLDATASIZE LT PUSH2 0x41 JUMPI PUSH1 0x0 CALLDATALOAD PUSH1 0xE0 SHR DUP1 PUSH4 0x553DF021 EQ PUSH2 0x46 JUMPI DUP1 PUSH4 0xB37217A4 EQ PUSH2 0x68 JUMPI DUP1 PUSH4 0xF7957466 EQ PUSH2 0x98 JUMPI JUMPDEST PUSH1 0x0 DUP1 REVERT JUMPDEST PUSH2 0x4E PUSH2 0xC8 JUMP JUMPDEST PUSH1 0x40 MLOAD PUSH2 0x5F SWAP6 SWAP5 SWAP4 SWAP3 SWAP2 SWAP1 PUSH2 0xD30 JUMP JUMPDEST PUSH1 0x40 MLOAD DUP1 SWAP2 SUB SWAP1 RETURN JUMPDEST PUSH2 0x82 PUSH1 0x4 DUP1 CALLDATASIZE SUB DUP2 ADD SWAP1 PUSH2 0x7D SWAP2 SWAP1 PUSH2 0xC1F JUMP JUMPDEST PUSH2 0x83E JUMP JUMPDEST PUSH1 0x40 MLOAD PUSH2 0x8F SWAP2 SWAP1 PUSH2 0xD91 JUMP JUMPDEST PUSH1 0x40 MLOAD DUP1 SWAP2 SUB SWAP1 RETURN JUMPDEST PUSH2 0xB2 PUSH1 0x4 DUP1 CALLDATASIZE SUB DUP2 ADD SWAP1 PUSH2 0xAD SWAP2 SWAP1 PUSH2 0xBE3 JUMP JUMPDEST PUSH2 0x8A6 JUMP JUMPDEST PUSH1 0x40 MLOAD PUSH2 0xBF SWAP2 SWAP1 PUSH2 0xD91 JUMP JUMPDEST PUSH1 0x40 MLOAD DUP1 SWAP2 SUB SWAP1 RETURN JUMPDEST PUSH1 0x60 DUP1 PUSH1 0x0 DUP1 PUSH1 0x0 DUP1 PUSH1 0x0 SWAP1 POP JUMPDEST PUSH1 0x2 DUP2 PUSH1 0xFF AND LT ISZERO PUSH2 0x1F7 JUMPI PUSH2 0x106 PUSH1 0x1 DUP3 PUSH1 0x2 PUSH2 0xF4 SWAP2 SWAP1 PUSH2 0xF00 JUMP JUMPDEST PUSH2 0xFE SWAP2 SWAP1 PUSH2 0xEC9 JUMP JUMPDEST PUSH1 0xFF AND PUSH2 0x83E JUMP JUMPDEST PUSH1 0x0 DUP3 PUSH1 0xFF AND PUSH1 0x3 DUP2 LT PUSH2 0x143 JUMPI PUSH32 0x4E487B7100000000000000000000000000000000000000000000000000000000 PUSH1 0x0 MSTORE PUSH1 0x32 PUSH1 0x4 MSTORE PUSH1 0x24 PUSH1 0x0 REVERT JUMPDEST PUSH1 0x20 SWAP2 DUP3 DUP3 DIV ADD SWAP2 SWAP1 MOD PUSH2 0x100 EXP DUP2 SLOAD DUP2 PUSH1 0xFF MUL NOT AND SWAP1 DUP4 PUSH1 0xFF AND MUL OR SWAP1 SSTORE POP PUSH2 0x187 PUSH1 0x2 DUP3 PUSH1 0x2 PUSH2 0x175 SWAP2 SWAP1 PUSH2 0xF00 JUMP JUMPDEST PUSH2 0x17F SWAP2 SWAP1 PUSH2 0xEC9 JUMP JUMPDEST PUSH1 0xFF AND PUSH2 0x83E JUMP JUMPDEST PUSH1 0x1 DUP3 PUSH1 0xFF AND PUSH1 0x3 DUP2 LT PUSH2 0x1C4 JUMPI PUSH32 0x4E487B7100000000000000000000000000000000000000000000000000000000 PUSH1 0x0 MSTORE PUSH1 0x32 PUSH1 0x4 MSTORE PUSH1 0x24 PUSH1 0x0 REVERT JUMPDEST PUSH1 0x20 SWAP2 DUP3 DUP3 DIV ADD SWAP2 SWAP1 MOD PUSH2 0x100 EXP DUP2 SLOAD DUP2 PUSH1 0xFF MUL NOT AND SWAP1 DUP4 PUSH1 0xFF AND MUL OR SWAP1 SSTORE POP DUP1 DUP1 PUSH2 0x1EF SWAP1 PUSH2 0xF52 JUMP JUMPDEST SWAP2 POP POP PUSH2 0xD6 JUMP JUMPDEST POP PUSH2 0x266 PUSH1 0x0 PUSH1 0x3 DUP1 PUSH1 0x20 MUL PUSH1 0x40 MLOAD SWAP1 DUP2 ADD PUSH1 0x40 MSTORE DUP1 SWAP3 SWAP2 SWAP1 DUP3 PUSH1 0x3 DUP1 ISZERO PUSH2 0x25A JUMPI PUSH1 0x20 MUL DUP3 ADD SWAP2 PUSH1 0x0 SWAP1 JUMPDEST DUP3 DUP3 SWAP1 SLOAD SWAP1 PUSH2 0x100 EXP SWAP1 DIV PUSH1 0xFF AND PUSH1 0xFF AND DUP2 MSTORE PUSH1 0x20 ADD SWAP1 PUSH1 0x1 ADD SWAP1 PUSH1 0x20 DUP3 PUSH1 0x0 ADD DIV SWAP3 DUP4 ADD SWAP3 PUSH1 0x1 SUB DUP3 MUL SWAP2 POP DUP1 DUP5 GT PUSH2 0x223 JUMPI SWAP1 POP JUMPDEST POP POP POP POP POP PUSH1 0x2 PUSH2 0x8A6 JUMP JUMPDEST PUSH1 0x2 PUSH1 0x0 PUSH2 0x100 EXP DUP2 SLOAD DUP2 PUSH1 0xFF MUL NOT AND SWAP1 DUP4 PUSH1 0xFF AND MUL OR SWAP1 SSTORE POP PUSH2 0x2EE PUSH1 0x1 PUSH1 0x3 DUP1 PUSH1 0x20 MUL PUSH1 0x40 MLOAD SWAP1 DUP2 ADD PUSH1 0x40 MSTORE DUP1 SWAP3 SWAP2 SWAP1 DUP3 PUSH1 0x3 DUP1 ISZERO PUSH2 0x2E2 JUMPI PUSH1 0x20 MUL DUP3 ADD SWAP2 PUSH1 0x0 SWAP1 JUMPDEST DUP3 DUP3 SWAP1 SLOAD SWAP1 PUSH2 0x100 EXP SWAP1 DIV PUSH1 0xFF AND PUSH1 0xFF AND DUP2 MSTORE PUSH1 0x20 ADD SWAP1 PUSH1 0x1 ADD SWAP1 PUSH1 0x20 DUP3 PUSH1 0x0 ADD DIV SWAP3 DUP4 ADD SWAP3 PUSH1 0x1 SUB DUP3 MUL SWAP2 POP DUP1 DUP5 GT PUSH2 0x2AB JUMPI SWAP1 POP JUMPDEST POP POP POP POP POP PUSH1 0x2 PUSH2 0x8A6 JUMP JUMPDEST PUSH1 0x2 PUSH1 0x1 PUSH2 0x100 EXP DUP2 SLOAD DUP2 PUSH1 0xFF MUL NOT AND SWAP1 DUP4 PUSH1 0xFF AND MUL OR SWAP1 SSTORE POP PUSH1 0x0 DUP1 PUSH1 0x5 PUSH1 0x2 PUSH1 0x0 SWAP1 SLOAD SWAP1 PUSH2 0x100 EXP SWAP1 DIV PUSH1 0xFF AND PUSH1 0xFF AND GT ISZERO DUP1 ISZERO PUSH2 0x35D JUMPI POP PUSH1 0x5 PUSH1 0x2 PUSH1 0x1 SWAP1 SLOAD SWAP1 PUSH2 0x100 EXP SWAP1 DIV PUSH1 0xFF AND PUSH1 0xFF AND GT DUP1 PUSH2 0x35C JUMPI POP PUSH1 0x8 PUSH1 0x2 PUSH1 0x1 SWAP1 SLOAD SWAP1 PUSH2 0x100 EXP SWAP1 DIV PUSH1 0xFF AND PUSH1 0xFF AND LT JUMPDEST JUMPDEST ISZERO PUSH2 0x457 JUMPI PUSH1 0x1 SWAP2 POP PUSH2 0x370 PUSH1 0x5 PUSH2 0x83E JUMP JUMPDEST SWAP1 POP DUP1 PUSH1 0x0 PUSH1 0x2 PUSH1 0x3 DUP2 LT PUSH2 0x3AE JUMPI PUSH32 0x4E487B7100000000000000000000000000000000000000000000000000000000 PUSH1 0x0 MSTORE PUSH1 0x32 PUSH1 0x4 MSTORE PUSH1 0x24 PUSH1 0x0 REVERT JUMPDEST PUSH1 0x20 SWAP2 DUP3 DUP3 DIV ADD SWAP2 SWAP1 MOD PUSH2 0x100 EXP DUP2 SLOAD DUP2 PUSH1 0xFF MUL NOT AND SWAP1 DUP4 PUSH1 0xFF AND MUL OR SWAP1 SSTORE POP PUSH2 0x43C PUSH1 0x0 PUSH1 0x3 DUP1 PUSH1 0x20 MUL PUSH1 0x40 MLOAD SWAP1 DUP2 ADD PUSH1 0x40 MSTORE DUP1 SWAP3 SWAP2 SWAP1 DUP3 PUSH1 0x3 DUP1 ISZERO PUSH2 0x430 JUMPI PUSH1 0x20 MUL DUP3 ADD SWAP2 PUSH1 0x0 SWAP1 JUMPDEST DUP3 DUP3 SWAP1 SLOAD SWAP1 PUSH2 0x100 EXP SWAP1 DIV PUSH1 0xFF AND PUSH1 0xFF AND DUP2 MSTORE PUSH1 0x20 ADD SWAP1 PUSH1 0x1 ADD SWAP1 PUSH1 0x20 DUP3 PUSH1 0x0 ADD DIV SWAP3 DUP4 ADD SWAP3 PUSH1 0x1 SUB DUP3 MUL SWAP2 POP DUP1 DUP5 GT PUSH2 0x3F9 JUMPI SWAP1 POP JUMPDEST POP POP POP POP POP PUSH1 0x3 PUSH2 0x8A6 JUMP JUMPDEST PUSH1 0x2 PUSH1 0x0 PUSH2 0x100 EXP DUP2 SLOAD DUP2 PUSH1 0xFF MUL NOT AND SWAP1 DUP4 PUSH1 0xFF AND MUL OR SWAP1 SSTORE POP JUMPDEST PUSH1 0x0 PUSH1 0x2 DUP1 PUSH1 0x1 SWAP1 SLOAD SWAP1 PUSH2 0x100 EXP SWAP1 DIV PUSH1 0xFF AND PUSH1 0xFF AND GT PUSH2 0x47B JUMPI PUSH1 0x1 SWAP1 POP PUSH2 0x5B7 JUMP JUMPDEST PUSH1 0x3 PUSH1 0x2 PUSH1 0x1 SWAP1 SLOAD SWAP1 PUSH2 0x100 EXP SWAP1 DIV PUSH1 0xFF AND PUSH1 0xFF AND EQ DUP1 ISZERO PUSH2 0x4B3 JUMPI POP DUP3 ISZERO DUP1 PUSH2 0x4B2 JUMPI POP DUP3 DUP1 ISZERO PUSH2 0x4B1 JUMPI POP PUSH1 0x8 DUP3 PUSH1 0xFF AND EQ ISZERO JUMPDEST JUMPDEST JUMPDEST ISZERO PUSH2 0x4C1 JUMPI PUSH1 0x1 SWAP1 POP PUSH2 0x5B6 JUMP JUMPDEST PUSH1 0x4 PUSH1 0x2 PUSH1 0x1 SWAP1 SLOAD SWAP1 PUSH2 0x100 EXP SWAP1 DIV PUSH1 0xFF AND PUSH1 0xFF AND EQ DUP1 ISZERO PUSH2 0x509 JUMPI POP DUP3 ISZERO DUP1 PUSH2 0x508 JUMPI POP DUP3 DUP1 ISZERO PUSH2 0x4F7 JUMPI POP PUSH1 0x2 DUP3 PUSH1 0xFF AND LT ISZERO JUMPDEST DUP1 ISZERO PUSH2 0x507 JUMPI POP PUSH1 0x7 DUP3 PUSH1 0xFF AND GT ISZERO JUMPDEST JUMPDEST JUMPDEST ISZERO PUSH2 0x517 JUMPI PUSH1 0x1 SWAP1 POP PUSH2 0x5B5 JUMP JUMPDEST PUSH1 0x5 PUSH1 0x2 PUSH1 0x1 SWAP1 SLOAD SWAP1 PUSH2 0x100 EXP SWAP1 DIV PUSH1 0xFF AND PUSH1 0xFF AND EQ DUP1 ISZERO PUSH2 0x55F JUMPI POP DUP3 ISZERO DUP1 PUSH2 0x55E JUMPI POP DUP3 DUP1 ISZERO PUSH2 0x54D JUMPI POP PUSH1 0x4 DUP3 PUSH1 0xFF AND LT ISZERO JUMPDEST DUP1 ISZERO PUSH2 0x55D JUMPI POP PUSH1 0x7 DUP3 PUSH1 0xFF AND GT ISZERO JUMPDEST JUMPDEST JUMPDEST ISZERO PUSH2 0x56D JUMPI PUSH1 0x1 SWAP1 POP PUSH2 0x5B4 JUMP JUMPDEST PUSH1 0x6 PUSH1 0x2 PUSH1 0x1 SWAP1 SLOAD SWAP1 PUSH2 0x100 EXP SWAP1 DIV PUSH1 0xFF AND PUSH1 0xFF AND EQ DUP1 ISZERO PUSH2 0x58C JUMPI POP DUP3 JUMPDEST DUP1 ISZERO PUSH2 0x5A9 JUMPI POP PUSH1 0x6 DUP3 PUSH1 0xFF AND EQ DUP1 PUSH2 0x5A8 JUMPI POP PUSH1 0x7 DUP3 PUSH1 0xFF AND EQ JUMPDEST JUMPDEST ISZERO PUSH2 0x5B3 JUMPI PUSH1 0x1 SWAP1 POP JUMPDEST JUMPDEST JUMPDEST JUMPDEST JUMPDEST DUP1 ISZERO PUSH2 0x6AB JUMPI PUSH2 0x5C7 PUSH1 0x6 PUSH2 0x83E JUMP JUMPDEST PUSH1 0x1 PUSH1 0x2 PUSH1 0x3 DUP2 LT PUSH2 0x602 JUMPI PUSH32 0x4E487B7100000000000000000000000000000000000000000000000000000000 PUSH1 0x0 MSTORE PUSH1 0x32 PUSH1 0x4 MSTORE PUSH1 0x24 PUSH1 0x0 REVERT JUMPDEST PUSH1 0x20 SWAP2 DUP3 DUP3 DIV ADD SWAP2 SWAP1 MOD PUSH2 0x100 EXP DUP2 SLOAD DUP2 PUSH1 0xFF MUL NOT AND SWAP1 DUP4 PUSH1 0xFF AND MUL OR SWAP1 SSTORE POP PUSH2 0x690 PUSH1 0x1 PUSH1 0x3 DUP1 PUSH1 0x20 MUL PUSH1 0x40 MLOAD SWAP1 DUP2 ADD PUSH1 0x40 MSTORE DUP1 SWAP3 SWAP2 SWAP1 DUP3 PUSH1 0x3 DUP1 ISZERO PUSH2 0x684 JUMPI PUSH1 0x20 MUL DUP3 ADD SWAP2 PUSH1 0x0 SWAP1 JUMPDEST DUP3 DUP3 SWAP1 SLOAD SWAP1 PUSH2 0x100 EXP SWAP1 DIV PUSH1 0xFF AND PUSH1 0xFF AND DUP2 MSTORE PUSH1 0x20 ADD SWAP1 PUSH1 0x1 ADD SWAP1 PUSH1 0x20 DUP3 PUSH1 0x0 ADD DIV SWAP3 DUP4 ADD SWAP3 PUSH1 0x1 SUB DUP3 MUL SWAP2 POP DUP1 DUP5 GT PUSH2 0x64D JUMPI SWAP1 POP JUMPDEST POP POP POP POP POP PUSH1 0x3 PUSH2 0x8A6 JUMP JUMPDEST PUSH1 0x2 PUSH1 0x1 PUSH2 0x100 EXP DUP2 SLOAD DUP2 PUSH1 0xFF MUL NOT AND SWAP1 DUP4 PUSH1 0xFF AND MUL OR SWAP1 SSTORE POP JUMPDEST PUSH1 0x0 PUSH2 0x6D5 PUSH1 0x2 PUSH1 0x0 SWAP1 SLOAD SWAP1 PUSH2 0x100 EXP SWAP1 DIV PUSH1 0xFF AND PUSH1 0x2 PUSH1 0x1 SWAP1 SLOAD SWAP1 PUSH2 0x100 EXP SWAP1 DIV PUSH1 0xFF AND PUSH2 0x98F JUMP JUMPDEST SWAP1 POP PUSH32 0xDCE81B38BD716417C9DADF9888D5FBB13CB45F8B16E7BE4469E886B57EBE94CE PUSH1 0x2 PUSH1 0x0 SWAP1 SLOAD SWAP1 PUSH2 0x100 EXP SWAP1 DIV PUSH1 0xFF AND PUSH1 0x2 PUSH1 0x1 SWAP1 SLOAD SWAP1 PUSH2 0x100 EXP SWAP1 DIV PUSH1 0xFF AND DUP4 PUSH1 0x40 MLOAD PUSH2 0x728 SWAP4 SWAP3 SWAP2 SWAP1 PUSH2 0xDAC JUMP JUMPDEST PUSH1 0x40 MLOAD DUP1 SWAP2 SUB SWAP1 LOG1 PUSH2 0x79C PUSH1 0x0 PUSH1 0x3 DUP1 PUSH1 0x20 MUL PUSH1 0x40 MLOAD SWAP1 DUP2 ADD PUSH1 0x40 MSTORE DUP1 SWAP3 SWAP2 SWAP1 DUP3 PUSH1 0x3 DUP1 ISZERO PUSH2 0x792 JUMPI PUSH1 0x20 MUL DUP3 ADD SWAP2 PUSH1 0x0 SWAP1 JUMPDEST DUP3 DUP3 SWAP1 SLOAD SWAP1 PUSH2 0x100 EXP SWAP1 DIV PUSH1 0xFF AND PUSH1 0xFF AND DUP2 MSTORE PUSH1 0x20 ADD SWAP1 PUSH1 0x1 ADD SWAP1 PUSH1 0x20 DUP3 PUSH1 0x0 ADD DIV SWAP3 DUP4 ADD SWAP3 PUSH1 0x1 SUB DUP3 MUL SWAP2 POP DUP1 DUP5 GT PUSH2 0x75B JUMPI SWAP1 POP JUMPDEST POP POP POP POP POP PUSH2 0x9CA JUMP JUMPDEST PUSH2 0x808 PUSH1 0x1 PUSH1 0x3 DUP1 PUSH1 0x20 MUL PUSH1 0x40 MLOAD SWAP1 DUP2 ADD PUSH1 0x40 MSTORE DUP1 SWAP3 SWAP2 SWAP1 DUP3 PUSH1 0x3 DUP1 ISZERO PUSH2 0x7FE JUMPI PUSH1 0x20 MUL DUP3 ADD SWAP2 PUSH1 0x0 SWAP1 JUMPDEST DUP3 DUP3 SWAP1 SLOAD SWAP1 PUSH2 0x100 EXP SWAP1 DIV PUSH1 0xFF AND PUSH1 0xFF AND DUP2 MSTORE PUSH1 0x20 ADD SWAP1 PUSH1 0x1 ADD SWAP1 PUSH1 0x20 DUP3 PUSH1 0x0 ADD DIV SWAP3 DUP4 ADD SWAP3 PUSH1 0x1 SUB DUP3 MUL SWAP2 POP DUP1 DUP5 GT PUSH2 0x7C7 JUMPI SWAP1 POP JUMPDEST POP POP POP POP POP PUSH2 0x9CA JUMP JUMPDEST PUSH1 0x2 PUSH1 0x0 SWAP1 SLOAD SWAP1 PUSH2 0x100 EXP SWAP1 DIV PUSH1 0xFF AND PUSH1 0x2 PUSH1 0x1 SWAP1 SLOAD SWAP1 PUSH2 0x100 EXP SWAP1 DIV PUSH1 0xFF AND DUP5 SWAP9 POP SWAP9 POP SWAP9 POP SWAP9 POP SWAP9 POP POP POP POP POP SWAP1 SWAP2 SWAP3 SWAP4 SWAP5 JUMP JUMPDEST PUSH1 0x0 DUP1 TIMESTAMP DIFFICULTY DUP5 PUSH1 0x40 MLOAD PUSH1 0x20 ADD PUSH2 0x856 SWAP4 SWAP3 SWAP2 SWAP1 PUSH2 0xCF3 JUMP JUMPDEST PUSH1 0x40 MLOAD PUSH1 0x20 DUP2 DUP4 SUB SUB DUP2 MSTORE SWAP1 PUSH1 0x40 MSTORE DUP1 MLOAD SWAP1 PUSH1 0x20 ADD KECCAK256 PUSH1 0x0 SHR SWAP1 POP PUSH1 0x0 PUSH2 0x89A PUSH1 0x1 PUSH2 0x88C PUSH1 0xD DUP6 PUSH2 0xB03 SWAP1 SWAP2 SWAP1 PUSH4 0xFFFFFFFF AND JUMP JUMPDEST PUSH2 0xB19 SWAP1 SWAP2 SWAP1 PUSH4 0xFFFFFFFF AND JUMP JUMPDEST SWAP1 POP DUP1 SWAP3 POP POP POP SWAP2 SWAP1 POP JUMP JUMPDEST PUSH1 0x0 DUP1 PUSH1 0x0 SWAP1 POP PUSH1 0x0 JUMPDEST DUP4 PUSH1 0xFF AND DUP2 PUSH1 0xFF AND LT ISZERO PUSH2 0x978 JUMPI PUSH1 0x0 DUP6 DUP3 PUSH1 0xFF AND PUSH1 0x3 DUP2 LT PUSH2 0x8FC JUMPI PUSH32 0x4E487B7100000000000000000000000000000000000000000000000000000000 PUSH1 0x0 MSTORE PUSH1 0x32 PUSH1 0x4 MSTORE PUSH1 0x24 PUSH1 0x0 REVERT JUMPDEST PUSH1 0x20 MUL ADD MLOAD SWAP1 POP PUSH1 0xA DUP2 PUSH1 0xFF AND LT ISZERO DUP1 ISZERO PUSH2 0x91B JUMPI POP PUSH1 0xD DUP2 PUSH1 0xFF AND GT ISZERO JUMPDEST ISZERO PUSH2 0x934 JUMPI PUSH1 0x0 DUP4 PUSH2 0x92D SWAP2 SWAP1 PUSH2 0xEC9 JUMP JUMPDEST SWAP3 POP PUSH2 0x964 JUMP JUMPDEST PUSH1 0x1 DUP2 PUSH1 0xFF AND EQ ISZERO PUSH2 0x954 JUMPI PUSH1 0x1 DUP4 PUSH2 0x94D SWAP2 SWAP1 PUSH2 0xEC9 JUMP JUMPDEST SWAP3 POP PUSH2 0x963 JUMP JUMPDEST DUP1 DUP4 PUSH2 0x960 SWAP2 SWAP1 PUSH2 0xEC9 JUMP JUMPDEST SWAP3 POP JUMPDEST JUMPDEST POP DUP1 DUP1 PUSH2 0x970 SWAP1 PUSH2 0xF52 JUMP JUMPDEST SWAP2 POP POP PUSH2 0x8B0 JUMP JUMPDEST POP PUSH1 0xA DUP2 PUSH2 0x986 SWAP2 SWAP1 PUSH2 0xFB7 JUMP JUMPDEST SWAP2 POP POP SWAP3 SWAP2 POP POP JUMP JUMPDEST PUSH1 0x0 DUP2 PUSH1 0xFF AND DUP4 PUSH1 0xFF AND GT ISZERO PUSH2 0x9A8 JUMPI PUSH1 0x1 SWAP1 POP PUSH2 0x9C4 JUMP JUMPDEST DUP2 PUSH1 0xFF AND DUP4 PUSH1 0xFF AND LT ISZERO PUSH2 0x9BF JUMPI PUSH1 0x2 SWAP1 POP PUSH2 0x9C4 JUMP JUMPDEST PUSH1 0x0 SWAP1 POP JUMPDEST SWAP3 SWAP2 POP POP JUMP JUMPDEST PUSH1 0x60 PUSH1 0x0 PUSH1 0x3 PUSH1 0xFF AND PUSH8 0xFFFFFFFFFFFFFFFF DUP2 GT ISZERO PUSH2 0xA12 JUMPI PUSH32 0x4E487B7100000000000000000000000000000000000000000000000000000000 PUSH1 0x0 MSTORE PUSH1 0x41 PUSH1 0x4 MSTORE PUSH1 0x24 PUSH1 0x0 REVERT JUMPDEST PUSH1 0x40 MLOAD SWAP1 DUP1 DUP3 MSTORE DUP1 PUSH1 0x20 MUL PUSH1 0x20 ADD DUP3 ADD PUSH1 0x40 MSTORE DUP1 ISZERO PUSH2 0xA40 JUMPI DUP2 PUSH1 0x20 ADD PUSH1 0x20 DUP3 MUL DUP1 CALLDATASIZE DUP4 CALLDATACOPY DUP1 DUP3 ADD SWAP2 POP POP SWAP1 POP JUMPDEST POP SWAP1 POP PUSH1 0x0 JUMPDEST PUSH1 0x3 PUSH1 0xFF AND DUP2 PUSH1 0xFF AND LT ISZERO PUSH2 0xAF9 JUMPI DUP4 DUP2 PUSH1 0xFF AND PUSH1 0x3 DUP2 LT PUSH2 0xA91 JUMPI PUSH32 0x4E487B7100000000000000000000000000000000000000000000000000000000 PUSH1 0x0 MSTORE PUSH1 0x32 PUSH1 0x4 MSTORE PUSH1 0x24 PUSH1 0x0 REVERT JUMPDEST PUSH1 0x20 MUL ADD MLOAD DUP3 DUP3 PUSH1 0xFF AND DUP2 MLOAD DUP2 LT PUSH2 0xAD2 JUMPI PUSH32 0x4E487B7100000000000000000000000000000000000000000000000000000000 PUSH1 0x0 MSTORE PUSH1 0x32 PUSH1 0x4 MSTORE PUSH1 0x24 PUSH1 0x0 REVERT JUMPDEST PUSH1 0x20 MUL PUSH1 0x20 ADD ADD SWAP1 PUSH1 0xFF AND SWAP1 DUP2 PUSH1 0xFF AND DUP2 MSTORE POP POP DUP1 DUP1 PUSH2 0xAF1 SWAP1 PUSH2 0xF52 JUMP JUMPDEST SWAP2 POP POP PUSH2 0xA46 JUMP JUMPDEST POP DUP1 SWAP2 POP POP SWAP2 SWAP1 POP JUMP JUMPDEST PUSH1 0x0 DUP2 DUP4 PUSH2 0xB11 SWAP2 SWAP1 PUSH2 0xF86 JUMP JUMPDEST SWAP1 POP SWAP3 SWAP2 POP POP JUMP JUMPDEST PUSH1 0x0 DUP2 DUP4 PUSH2 0xB27 SWAP2 SWAP1 PUSH2 0xE73 JUMP JUMPDEST SWAP1 POP SWAP3 SWAP2 POP POP JUMP JUMPDEST PUSH1 0x0 PUSH2 0xB42 PUSH2 0xB3D DUP5 PUSH2 0xE14 JUMP JUMPDEST PUSH2 0xDE3 JUMP JUMPDEST SWAP1 POP DUP1 DUP3 DUP6 PUSH1 0x20 DUP7 MUL DUP3 ADD GT ISZERO PUSH2 0xB58 JUMPI PUSH1 0x0 DUP1 REVERT JUMPDEST PUSH1 0x0 JUMPDEST DUP6 DUP2 LT ISZERO PUSH2 0xB88 JUMPI DUP2 PUSH2 0xB6E DUP9 DUP3 PUSH2 0xBCE JUMP JUMPDEST DUP5 MSTORE PUSH1 0x20 DUP5 ADD SWAP4 POP PUSH1 0x20 DUP4 ADD SWAP3 POP POP PUSH1 0x1 DUP2 ADD SWAP1 POP PUSH2 0xB5B JUMP JUMPDEST POP POP POP SWAP4 SWAP3 POP POP POP JUMP JUMPDEST PUSH1 0x0 DUP3 PUSH1 0x1F DUP4 ADD SLT PUSH2 0xBA3 JUMPI PUSH1 0x0 DUP1 REVERT JUMPDEST PUSH1 0x3 PUSH2 0xBB0 DUP5 DUP3 DUP6 PUSH2 0xB2F JUMP JUMPDEST SWAP2 POP POP SWAP3 SWAP2 POP POP JUMP JUMPDEST PUSH1 0x0 DUP2 CALLDATALOAD SWAP1 POP PUSH2 0xBC8 DUP2 PUSH2 0x1075 JUMP JUMPDEST SWAP3 SWAP2 POP POP JUMP JUMPDEST PUSH1 0x0 DUP2 CALLDATALOAD SWAP1 POP PUSH2 0xBDD DUP2 PUSH2 0x108C JUMP JUMPDEST SWAP3 SWAP2 POP POP JUMP JUMPDEST PUSH1 0x0 DUP1 PUSH1 0x80 DUP4 DUP6 SUB SLT ISZERO PUSH2 0xBF6 JUMPI PUSH1 0x0 DUP1 REVERT JUMPDEST PUSH1 0x0 PUSH2 0xC04 DUP6 DUP3 DUP7 ADD PUSH2 0xB92 JUMP JUMPDEST SWAP3 POP POP PUSH1 0x60 PUSH2 0xC15 DUP6 DUP3 DUP7 ADD PUSH2 0xBCE JUMP JUMPDEST SWAP2 POP POP SWAP3 POP SWAP3 SWAP1 POP JUMP JUMPDEST PUSH1 0x0 PUSH1 0x20 DUP3 DUP5 SUB SLT ISZERO PUSH2 0xC31 JUMPI PUSH1 0x0 DUP1 REVERT JUMPDEST PUSH1 0x0 PUSH2 0xC3F DUP5 DUP3 DUP6 ADD PUSH2 0xBB9 JUMP JUMPDEST SWAP2 POP POP SWAP3 SWAP2 POP POP JUMP JUMPDEST PUSH1 0x0 PUSH2 0xC54 DUP4 DUP4 PUSH2 0xCD5 JUMP JUMPDEST PUSH1 0x20 DUP4 ADD SWAP1 POP SWAP3 SWAP2 POP POP JUMP JUMPDEST PUSH1 0x0 PUSH2 0xC6B DUP3 PUSH2 0xE4A JUMP JUMPDEST PUSH2 0xC75 DUP2 DUP6 PUSH2 0xE62 JUMP JUMPDEST SWAP4 POP PUSH2 0xC80 DUP4 PUSH2 0xE3A JUMP JUMPDEST DUP1 PUSH1 0x0 JUMPDEST DUP4 DUP2 LT ISZERO PUSH2 0xCB1 JUMPI DUP2 MLOAD PUSH2 0xC98 DUP9 DUP3 PUSH2 0xC48 JUMP JUMPDEST SWAP8 POP PUSH2 0xCA3 DUP4 PUSH2 0xE55 JUMP JUMPDEST SWAP3 POP POP PUSH1 0x1 DUP2 ADD SWAP1 POP PUSH2 0xC84 JUMP JUMPDEST POP DUP6 SWAP4 POP POP POP POP SWAP3 SWAP2 POP POP JUMP JUMPDEST PUSH2 0xCCF PUSH2 0xCCA DUP3 PUSH2 0xF3B JUMP JUMPDEST PUSH2 0xF7C JUMP JUMPDEST DUP3 MSTORE POP POP JUMP JUMPDEST PUSH2 0xCDE DUP2 PUSH2 0xF45 JUMP JUMPDEST DUP3 MSTORE POP POP JUMP JUMPDEST PUSH2 0xCED DUP2 PUSH2 0xF45 JUMP JUMPDEST DUP3 MSTORE POP POP JUMP JUMPDEST PUSH1 0x0 PUSH2 0xCFF DUP3 DUP7 PUSH2 0xCBE JUMP JUMPDEST PUSH1 0x20 DUP3 ADD SWAP2 POP PUSH2 0xD0F DUP3 DUP6 PUSH2 0xCBE JUMP JUMPDEST PUSH1 0x20 DUP3 ADD SWAP2 POP PUSH2 0xD1F DUP3 DUP5 PUSH2 0xCBE JUMP JUMPDEST PUSH1 0x20 DUP3 ADD SWAP2 POP DUP2 SWAP1 POP SWAP5 SWAP4 POP POP POP POP JUMP JUMPDEST PUSH1 0x0 PUSH1 0xA0 DUP3 ADD SWAP1 POP DUP2 DUP2 SUB PUSH1 0x0 DUP4 ADD MSTORE PUSH2 0xD4A DUP2 DUP9 PUSH2 0xC60 JUMP JUMPDEST SWAP1 POP DUP2 DUP2 SUB PUSH1 0x20 DUP4 ADD MSTORE PUSH2 0xD5E DUP2 DUP8 PUSH2 0xC60 JUMP JUMPDEST SWAP1 POP PUSH2 0xD6D PUSH1 0x40 DUP4 ADD DUP7 PUSH2 0xCE4 JUMP JUMPDEST PUSH2 0xD7A PUSH1 0x60 DUP4 ADD DUP6 PUSH2 0xCE4 JUMP JUMPDEST PUSH2 0xD87 PUSH1 0x80 DUP4 ADD DUP5 PUSH2 0xCE4 JUMP JUMPDEST SWAP7 SWAP6 POP POP POP POP POP POP JUMP JUMPDEST PUSH1 0x0 PUSH1 0x20 DUP3 ADD SWAP1 POP PUSH2 0xDA6 PUSH1 0x0 DUP4 ADD DUP5 PUSH2 0xCE4 JUMP JUMPDEST SWAP3 SWAP2 POP POP JUMP JUMPDEST PUSH1 0x0 PUSH1 0x60 DUP3 ADD SWAP1 POP PUSH2 0xDC1 PUSH1 0x0 DUP4 ADD DUP7 PUSH2 0xCE4 JUMP JUMPDEST PUSH2 0xDCE PUSH1 0x20 DUP4 ADD DUP6 PUSH2 0xCE4 JUMP JUMPDEST PUSH2 0xDDB PUSH1 0x40 DUP4 ADD DUP5 PUSH2 0xCE4 JUMP JUMPDEST SWAP5 SWAP4 POP POP POP POP JUMP JUMPDEST PUSH1 0x0 PUSH1 0x40 MLOAD SWAP1 POP DUP2 DUP2 ADD DUP2 DUP2 LT PUSH8 0xFFFFFFFFFFFFFFFF DUP3 GT OR ISZERO PUSH2 0xE0A JUMPI PUSH2 0xE09 PUSH2 0x1046 JUMP JUMPDEST JUMPDEST DUP1 PUSH1 0x40 MSTORE POP SWAP2 SWAP1 POP JUMP JUMPDEST PUSH1 0x0 PUSH8 0xFFFFFFFFFFFFFFFF DUP3 GT ISZERO PUSH2 0xE2F JUMPI PUSH2 0xE2E PUSH2 0x1046 JUMP JUMPDEST JUMPDEST PUSH1 0x20 DUP3 MUL SWAP1 POP SWAP2 SWAP1 POP JUMP JUMPDEST PUSH1 0x0 DUP2 SWAP1 POP PUSH1 0x20 DUP3 ADD SWAP1 POP SWAP2 SWAP1 POP JUMP JUMPDEST PUSH1 0x0 DUP2 MLOAD SWAP1 POP SWAP2 SWAP1 POP JUMP JUMPDEST PUSH1 0x0 PUSH1 0x20 DUP3 ADD SWAP1 POP SWAP2 SWAP1 POP JUMP JUMPDEST PUSH1 0x0 DUP3 DUP3 MSTORE PUSH1 0x20 DUP3 ADD SWAP1 POP SWAP3 SWAP2 POP POP JUMP JUMPDEST PUSH1 0x0 PUSH2 0xE7E DUP3 PUSH2 0xF3B JUMP JUMPDEST SWAP2 POP PUSH2 0xE89 DUP4 PUSH2 0xF3B JUMP JUMPDEST SWAP3 POP DUP3 PUSH32 0xFFFFFFFFFFFFFFFFFFFFFFFFFFFFFFFFFFFFFFFFFFFFFFFFFFFFFFFFFFFFFFFF SUB DUP3 GT ISZERO PUSH2 0xEBE JUMPI PUSH2 0xEBD PUSH2 0xFE8 JUMP JUMPDEST JUMPDEST DUP3 DUP3 ADD SWAP1 POP SWAP3 SWAP2 POP POP JUMP JUMPDEST PUSH1 0x0 PUSH2 0xED4 DUP3 PUSH2 0xF45 JUMP JUMPDEST SWAP2 POP PUSH2 0xEDF DUP4 PUSH2 0xF45 JUMP JUMPDEST SWAP3 POP DUP3 PUSH1 0xFF SUB DUP3 GT ISZERO PUSH2 0xEF5 JUMPI PUSH2 0xEF4 PUSH2 0xFE8 JUMP JUMPDEST JUMPDEST DUP3 DUP3 ADD SWAP1 POP SWAP3 SWAP2 POP POP JUMP JUMPDEST PUSH1 0x0 PUSH2 0xF0B DUP3 PUSH2 0xF45 JUMP JUMPDEST SWAP2 POP PUSH2 0xF16 DUP4 PUSH2 0xF45 JUMP JUMPDEST SWAP3 POP DUP2 PUSH1 0xFF DIV DUP4 GT DUP3 ISZERO ISZERO AND ISZERO PUSH2 0xF30 JUMPI PUSH2 0xF2F PUSH2 0xFE8 JUMP JUMPDEST JUMPDEST DUP3 DUP3 MUL SWAP1 POP SWAP3 SWAP2 POP POP JUMP JUMPDEST PUSH1 0x0 DUP2 SWAP1 POP SWAP2 SWAP1 POP JUMP JUMPDEST PUSH1 0x0 PUSH1 0xFF DUP3 AND SWAP1 POP SWAP2 SWAP1 POP JUMP JUMPDEST PUSH1 0x0 PUSH2 0xF5D DUP3 PUSH2 0xF45 JUMP JUMPDEST SWAP2 POP PUSH1 0xFF DUP3 EQ ISZERO PUSH2 0xF71 JUMPI PUSH2 0xF70 PUSH2 0xFE8 JUMP JUMPDEST JUMPDEST PUSH1 0x1 DUP3 ADD SWAP1 POP SWAP2 SWAP1 POP JUMP JUMPDEST PUSH1 0x0 DUP2 SWAP1 POP SWAP2 SWAP1 POP JUMP JUMPDEST PUSH1 0x0 PUSH2 0xF91 DUP3 PUSH2 0xF3B JUMP JUMPDEST SWAP2 POP PUSH2 0xF9C DUP4 PUSH2 0xF3B JUMP JUMPDEST SWAP3 POP DUP3 PUSH2 0xFAC JUMPI PUSH2 0xFAB PUSH2 0x1017 JUMP JUMPDEST JUMPDEST DUP3 DUP3 MOD SWAP1 POP SWAP3 SWAP2 POP POP JUMP JUMPDEST PUSH1 0x0 PUSH2 0xFC2 DUP3 PUSH2 0xF45 JUMP JUMPDEST SWAP2 POP PUSH2 0xFCD DUP4 PUSH2 0xF45 JUMP JUMPDEST SWAP3 POP DUP3 PUSH2 0xFDD JUMPI PUSH2 0xFDC PUSH2 0x1017 JUMP JUMPDEST JUMPDEST DUP3 DUP3 MOD SWAP1 POP SWAP3 SWAP2 POP POP JUMP JUMPDEST PUSH32 0x4E487B7100000000000000000000000000000000000000000000000000000000 PUSH1 0x0 MSTORE PUSH1 0x11 PUSH1 0x4 MSTORE PUSH1 0x24 PUSH1 0x0 REVERT JUMPDEST PUSH32 0x4E487B7100000000000000000000000000000000000000000000000000000000 PUSH1 0x0 MSTORE PUSH1 0x12 PUSH1 0x4 MSTORE PUSH1 0x24 PUSH1 0x0 REVERT JUMPDEST PUSH32 0x4E487B7100000000000000000000000000000000000000000000000000000000 PUSH1 0x0 MSTORE PUSH1 0x41 PUSH1 0x4 MSTORE PUSH1 0x24 PUSH1 0x0 REVERT JUMPDEST PUSH2 0x107E DUP2 PUSH2 0xF3B JUMP JUMPDEST DUP2 EQ PUSH2 0x1089 JUMPI PUSH1 0x0 DUP1 REVERT JUMPDEST POP JUMP JUMPDEST PUSH2 0x1095 DUP2 PUSH2 0xF45 JUMP JUMPDEST DUP2 EQ PUSH2 0x10A0 JUMPI PUSH1 0x0 DUP1 REVERT JUMPDEST POP JUMP INVALID LOG2 PUSH5 0x6970667358 0x22 SLT KECCAK256 0xB8 CALLDATASIZE ADDRESS SELFDESTRUCT PC 0xB2 TIMESTAMP 0xDE CALLDATASIZE PUSH8 0x19DFC707C12641FE 0xC2 0xB6 MULMOD 0xEA DIV 0x22 DUP8 DUP6 0xAC 0x5C 0xA6 0xD0 JUMPDEST 0xE1 PUSH5 0x736F6C6343 STOP ADDMOD STOP STOP CALLER "},"methodIdentifiers":{"calculateTotal(uint8[3],uint8)":"f7957466","deal()":"553df021","getRandomNumber(uint256)":"b37217a4"}}}}}